:020000040800F2
:10000000780600246D030008091200087111000829
:100010000112000829040008B113000800000000C4
:10002000000000000000000000000000191200089D
:10003000310400080000000011120008211200081D
:100040008703000887030008870300088703000868
:100050008703000887030008870300088703000858
:100060008703000887030008870300088703000848
:100070008703000887030008870300088703000838
:100080008703000887030008870300088703000828
:100090008703000887030008870300088703000818
:1000A0008703000887030008870300088703000808
:1000B00087030008870300088703000887030008F8
:1000C00087030008870300088703000887030008E8
:1000D00087030008870300088703000887030008D8
:1000E000870300088703000800000000870300085A
:1000F00087030008870300088703000887030008B8
:1001000087030008870300088703000887030008A7
:100110008703000887030008870300088703000897
:100120008703000887030008870300088703000887
:100130008703000887030008870300088703000877
:1001400000000000000000000000000000000000AF
:100150008703000887030008870300088703000857
:100160008703000887030008870300088703000847
:1001700087030008870300088703000800000000C9
:100180008703000887030008870300088703000827
:100190008703000887030008870300088703000817
:1001A0008703000887030008870300080000000099
:1001B00087030008870300088703000887030008F7
:1001C000870300088703000800000000000000000B
:1001D000000000000000000087030008000000008D
:1001E000000000000000000000000000000000000F
:1001F00000000000000000008703000887030008DB
:100200008703000887030008000000008703000838
:100210008703000887030008870300088703000896
:1002200087030008000000008703000800000000AA
:100230008703000887030008000000008703000808
:100240008703000887030008870300088703000866
:100250008703000887030008870300088703000856
:100260008703000887030008870300088703000846
:1002700087030008870300088703000800000000C8
:100280008703000887030008870300088703000826
:10029000000000008703000887030008000000003A
:1002A0000000000087030008870300088703000898
:1002B00087030008870300088703000887030008F6
:1002C00087030008870300088703000800F002F88E
:1002D00000F03CF80AA090E8000C82448344AAF1A4
:1002E0000107DA4501D100F031F8AFF2090EBAE8A2
:1002F0000F0013F0010F18BFFB1A43F0010318475A
:100300003011000050110000103A24BF78C878C1A5
:10031000FAD8520724BF30C830C144BF04680C600B
:10032000704700000023002400250026103A28BF53
:1003300078C1FBD8520728BF30C148BF0B60704757
:100340001FB501F060F81FBD10B510BD00F031F809
:100350001146FFF7F5FF01F02FF800F04FF803B456
:10036000FFF7F2FF03BC00F057F800000948804790
:1003700009480047FEE7FEE7FEE7FEE7FEE7FEE787
:10038000FEE7FEE7FEE7FEE704480549054A064B9F
:100390007047000001130008CD0200087800002417
:1003A0007806002478020024780200247047704701
:1003B0007047754600F02CF8AE4605006946534676
:1003C00020F00700854618B020B5FFF7DDFFBDE837
:1003D00020404FF000064FF000074FF000084FF0AC
:1003E000000BAC46ACE8C009ACE8C009ACE8C009F9
:1003F000ACE8C00921F007018D46704710B50446EE
:10040000AFF300802046BDE81040FFF7A8BF000012
:10041000004870471000002401491820ABBEFEE7D9
:100420002600020070470000FEE700000000000008
:100430007047000000000000B0B5044600F0F8F876
:1004400040F200010546C2F20041621C097818BF63
:100450000C4400BF00F0ECF8401BA042FAD3B0BD42
:100460002DE9F04F82B00D68002D00F0CB8000F137
:10047000264242F2004302F1FF72C5F602030A2649
:1004800098424FEAB22444F2F44E08BF0926082CE1
:1004900040F2040C38BF4FEAB226C5F6020EC5F68C
:1004A000000C009600220027002609E001360D68A6
:1004B00035FA06F307F1040702F1020200F0A28008
:1004C000012303FA06F415EA0408EFD0D1F804A0DA
:1004D00003230AF0030B9340ABF101056FEA030914
:1004E000012D0FD88368CD6803EA090395402B439B
:1004F0008360CAF300154368A34305FA06F4234357
:10050000436005E0BBF1030F02D14FF0030B21E084
:10051000C3688C6803EA09039440BBF1020F43EA05
:100520000403C36016D16FF0030307F01C0503EA50
:1005300056030F24034404FA05FBD3F820A00C69EA
:100540002AEA0B0AAC4044EA0A041C62D1F804A06F
:100550000AF0030B03680BFA02F403EA09031AF426
:10056000403F43EA04030360A0D0DEF8003040F2CD
:10057000084A43F00203CEF80030DEF80030C5F63A
:10058000000A03F00203019326F00303019C07F025
:100590000C040F2553F80A90A54029EA0509009D8F
:1005A00005FA04F444EA090443F80A404FF0B04A5B
:1005B000DAF800904C6849EA0805E30258BF29EAD6
:1005C0000805A302CAF80050DCF8009049EA0805C3
:1005D00058BF29EA0805A303CCF80050DCF8809046
:1005E00049EA080558BF29EA0805E403CCF8805019
:1005F000DCF87C3043EA080558BF23EA0805CCF84C
:100600007C5053E702B0BDE8F08F0000000000000E
:10061000426902EA0103914341EA03418161704763
:10062000002A08BF09048161704700000000000033
:1006300040F27000C2F20040006870470000000005
:1006400040F2000040F27001C2F20040C2F20041EC
:1006500000780A681044086070470000000000003D
:1006600080B5032000F0E8F800F052FA44F2184197
:1006700041F22043C5F60201C0F600030A6809688A
:1006800001F00F01C2F30322595C9A5C01F01F01D3
:1006900002F01F02D04040F20C02C2F2004220FAE7
:1006A00001F1116040F20801C2F2004108600F2020
:1006B00000F00AF800281CBF012080BD00F07CF883
:1006C000002080BD0000000070B540F20006C2F2BC
:1006D00000463178E1B1044640F20800C2F2004021
:1006E0004FF47A72B2FBF1F10068B0FBF1F000F068
:1006F00027FD0F2C4FF0010508D838B94FF0FF3017
:1007000000222146002500F067F87460284670BD7D
:10071000012070BD00000000B0B502784EF69C5C70
:10072000CEF2000C43784CF8043CFAB14368CCF8A4
:100730000030037BC17A90F80AE0457B447A42EAB4
:100740000372837B42EA0161C27B41EACE41007AB7
:1007500041EA854141EA434141EA024141EA04213B
:1007600041EA4000CCF80400B0BD00BF0020CCF846
:100770000000CCF80400B0BD4EF62450CEF20000CC
:10078000BFF35F8F016821F48031016000210167B0
:1007900070470000000000004EF6245140F00100B8
:1007A000CEF200010867086840F480300860BFF3AB
:1007B0004F8FBFF36F8F704781B044F2F440C5F69E
:1007C0000200016841F002010160006800F00200CF
:1007D0000090009801B0704770B54EF60C5C4FF079
:1007E000FF36CEF2000C00F1604505F56445DCF8FB
:1007F0000030C3F3022E8EF00703042B28BF04231E
:10080000BEF1030406FA03F321EA030100F00F032B
:1008100038BF0024043B0028634406FA04F048BFB4
:1008200003F10C05A14022EA0000084300012870F2
:1008300070BD0000000000004EF60C514FF6FF03A3
:10084000CEF200010A681A4060F30A2242F080608A
:1008500040F0FD7008607047B0B544F60C05C5F671
:10086000020529684907296806D401F00701081A1A
:1008700018BF0120B0BD00BF21F007010843286068
:10088000FFF7D6FE044600BF55F8080C800407D4D5
:10089000FFF7CEFE001BB0F57A7FF5D90120B0BD81
:1008A0000020B0BD000000002DE9F04381B0002819
:1008B00000F02A8142F200080446C5F20028894669
:1008C000D8F8000000F00F0088420ED2D8F80000DF
:1008D00020F00F0040EA0900C8F80000D8F8000036
:1008E00000F00F00484540F00F81206844F218479F
:1008F0004107C5F602070AD521693A6802F070027D
:10090000914204D93A6822F070021143396001071C
:100910000AD561697A6802F07002914204D97A6856
:1009200022F0700211437960C1060AD5A1697A6884
:1009300002F4E062914204D97A6822F4E062114341
:10094000796081060AD5E169BA6802F070029142C5
:1009500004D9BA6822F070021143B96010F00201A4
:100960000AD0E2683B6803F00F039A4204D93B685F
:1009700023F00F031A433A60C20746D0386820F4C8
:100980007061D4E90102012841EA0201396009D00D
:1009900003280DD0022811D157F8181C890340F103
:1009A000B38010E057F8181CC90540F1AD800AE08B
:1009B00057F8181C890140F1A78004E057F8181C6B
:1009C000490740F1A18057F8081C21F007010843AE
:1009D00047F8080CFFF72CFE064641F2883500BFA9
:1009E00057F8080C616800F03800B0EBC10F09D06F
:1009F000FFF71EFE801BA842F2D9032001B0BDE81C
:100A0000F08300BF206800F0020151B1E1683A684C
:100A100002F00F02914204D23A6822F00F02114311
:100A20003960D8F8001001F00F0149450DD9D8F808
:100A3000001021F00F0141EA0901C8F80010D8F8B0
:100A4000001001F00F0149455ED141070AD5216927
:100A50003A6802F07002914204D23A6822F07002C1
:100A60001143396001070AD561697A6802F07002A2
:100A7000914204D27A6822F0700211437960C10673
:100A80000AD5A1697A6802F4E062914204D27A68D8
:100A900022F4E0621143796080060AD5E069B96802
:100AA00001F07001884204D2B96821F07001084356
:100AB000B86000F02DF8396841F220433A68C0F67A
:100AC0000003C1F3032102F00F02595C9A5C01F0AC
:100AD0001F0120FA01F102F01F0040F20C0221FA7E
:100AE00000F0C2F20042106040F2040040F208023E
:100AF000C2F20040C2F200420068116001B0BDE8DD
:100B0000F043FFF7E1BD00BF012001B0BDE8F08375
:100B100044F20041C5F602010869C0F3C20003288F
:100B200010D002282ED098BB0868800649F2000039
:100B3000C0F2D03058BF70470968C1F3C101C84046
:100B4000704700BF8A6A886AC0F3051CC86ABCF196
:100B5000000F4B6B22D000F0010002F00302404274
:100B6000022A00EAD3006FF35F3000EE100AB8EEFD
:100B7000400A15D0C2B90868800619D49FED281A1A
:100B800023E000BF47F64000C0F27D10704700BF71
:100B900040F60010C0F23D00704700BF00207047D3
:100BA0009FED1E1A11E000BF9FED1B1A0DE000BF64
:100BB000086849F20002C0F2D032C0F3C10022FA44
:100BC00000F001EE100AB8EE411A086B9FED153ADD
:100BD0006FF35F2002EE100A086BC0F34620B8EEF8
:100BE000422A013000EE032A00EE10CAB7EE003AA6
:100BF000B8EE400A81EE000A32EE031A20EE010A36
:100C000001EE100AB8EE411A80EE010ABCEEC00AED
:100C100010EE100A704700BF0024744A20BCBE4B7F
:100C20000024744C00000039F0B581B0002800F0B9
:100C3000D5800446007844F20046C007C5F6020697
:100C400022D12078800768D5306910F03801B06A69
:100C500042D0182908BF5FEA80703DD0E068316853
:100C6000002800F0258121F0190108433060FFF7CA
:100C7000DFFC05463068400748D4FFF7D9FC401B2D
:100C80000228F7D977E100BF306900F03801B06A77
:100C9000102905D018290BD100F00300022807D134
:100CA00030688003CDD560680028CAD196E000BFC7
:100CB0006068002800F03281B0F5A02F00F0468176
:100CC000B0F5803F00F04681306820F4803030601D
:100CD000306820F4802040E130684007E06801D5AA
:100CE00000287BD0316821F0190108433060FFF7FC
:100CF0009FFC05463068400708D4FFF799FC401B6D
:100D000002284FF00300F5D901B0F0BD70682169E9
:100D100020F0FE4040EA016070602078C00619D5DE
:100D2000306900F03801B06A082906D0182940F06F
:100D3000818000F0030001287CD13068C00502D515
:100D4000E06980284AD1F068216A20F07C5040EAAE
:100D50000160F0602078000744D42078800655D4E4
:100D60002078400700F17E80656A9DB3306900F00D
:100D70003800182840F01481012DB16A306B2DD055
:100D800001F00302A36A9A4228D1C1F30511E26A75
:100D9000914223D10146226B6FF35F21013A9142C8
:100DA0001CD1C0F34622616B01398A4216D1C0F3CF
:100DB0000642A16B01398A4210D1C0F30660E16B93
:100DC000013988420AD1706BA16CC0F3CC0081421A
:100DD00040F09C81002001B0F0BD00BF012001B0B7
:100DE000F0BD00BF60690028706F4FD040F0010077
:100DF0007067FFF71DFC0546706F8007ADD4FFF7E5
:100E000017FC401B0228F7D9B5E000BFA0690028F5
:100E1000306871D040F480503060FFF709FC05461F
:100E2000306880049CD4FFF703FC401B0228F7D9EC
:100E3000A1E000BFE0690028306800F09F8040F02A
:100E400080003060FFF7F4FB054600BF3068C00546
:100E50003FF579AFFFF7ECFB401B02284FF0030092
:100E6000F4D951E7D6F8000440F48070C6F80004C5
:100E7000FFF7DEFB054600BFD6F80004C00529D405
:100E8000FFF7D6FB401B6428F6D974E020F0010080
:100E90007067FFF7CDFB0546706F80077FF55DAF8C
:100EA000FFF7C6FB401B02284FF00300F4D92BE7E5
:100EB00021F001003060FFF7BBFB054630684007BA
:100EC0007FF52BAFFFF7B4FB401B02284FF0030068
:100ED000F4D919E7A068002800F08480052800F004
:100EE0009B80012800F09C80306F20F0010030676B
:100EF000306F20F0040096E020F480503060FFF75F
:100F000097FB0546306880047FF52AAFFFF790FB1A
:100F1000401B02284FF00300F4D9F5E6306820F4B6
:100F200080303060306820F480203060FFF780FB34
:100F3000054600BF306880037FF583AEFFF778FB7E
:100F4000401B64284FF00300F4D9DDE6306840F41C
:100F500080203060306840F480303060FFF768FBFC
:100F6000054600BF306880033FF56BAEFFF760FBBE
:100F7000401B6428F6D9032001B0F0BD20F08000AA
:100F80003060FFF755FB05463068C0057FF5E2AEDF
:100F9000FFF74EFB401B02284FF00300F4D9B3E6E5
:100FA000306820F080703060FFF742FB022D05466C
:100FB0000CD100BF3068800148D5FFF739FB401BDA
:100FC00002284FF00300F5D99EE600BF306880018B
:100FD0007FF500AFFFF72CFB401B02284FF003000A
:100FE000F4D991E6306F20F001003067306F20F0C7
:100FF00004003067FFF71CFB054641F28837306F6D
:1010000080077FF5B1AEFFF713FB401BB8424FF0EE
:101010000300F4D978E600BF306F40F00400306779
:10102000306F40F001003067FFF702FB054641F2E8
:10103000883700BF306F80073FF596AEFFF7F8FAAC
:10104000401BB8424FF00300F4D95DE604F12807D5
:10105000B06A40F2F33188438ECF0843591E40EA0C
:1010600002104FF47E426FF35F21B06202EB472023
:101070004FF4FE0280B2E36B0844A16B02EB014126
:101080004FF0FE4201F4FE0102EB0362084402F05D
:10109000FE4108443063F06A4FF6F87120F0010019
:1010A000F062706BA26C884340EAC2007063F06A21
:1010B000216C20F00C000843F062F06A616C20F0B3
:1010C00002000843F062F06A40F48030F062F06A97
:1010D00040F40030F062F06A40F48020F062F06A80
:1010E00040F00100F062306840F080703060FFF73F
:1010F0009FFA0446306880013FF56CAEFFF798FA1E
:10110000001B02284FF00300F4D9FDE5F06A20F03F
:101110000100F062FFF78CFA0546FFF789FAA84252
:10112000FBD0706B4FF6F871A26C884340EAC200A6
:101130007063F06A40F00100F062002001B0F0BD81
:10114000411E0020B0EB116F02D00120704700BF9C
:101150004EF21002F023CEF2000251604EF62351FF
:10116000CEF200010B700721906011607047000003
:10117000FEE700000000000070B586B044F2E040D9
:101180000025C5F60200059541F60004002201681D
:10119000C5F6020441F0040101600168802601F0F7
:1011A000040100910099016841F08001016001682B
:1011B00001F0800100910099016841F04001016057
:1011C000016801F0400100910099016841F00101BE
:1011D00001600068802100F0010000900098204626
:1011E000FFF71EFA012001A9CDE90205204601966C
:1011F0000495FFF735F906B070BD0000000000004F
:10120000FEE7000000000000FEE700000000000014
:101210007047000000000000704700000000000060
:10122000FFF70EBA00000000B0B59CB044F61804F9
:10123000022000250895CDE91055CDE90E55CDE9E0
:101240000C55CDE90A55CDE90655CDE90455CDE952
:101250000255C5F602040195FFF7FEFA00952068D5
:1012600020F440402060206800F440400090009846
:101270002068800409D4206880045CBF20685FEA8D
:10128000804002D420688004F2D502200990129098
:101290000025CDE917000C200121CDE919054FF4F7
:1012A00040601B9009A80C9140240D9413950422D2
:1012B00014922222CDE91521FFF7B6FC20B1EFF3FD
:1012C000108072B6FEE700BF3F200190032003218B
:1012D000CDE9020508200694CDE904044FF48060AE
:1012E000CDE9070401A8FFF7DFFA28B1EFF310807A
:1012F00072B600BFFEE700BF1CB0B0BD000000002A
:101300004EF6885042F2000CCEF20000C5F2002CDE
:10131000026842F470020260DCF8000000F00F0086
:10132000062806D8DCF80000072262F30300CCF898
:10133000000044F200404EF67F51C5F60200CEF6A2
:10134000F621026842F00102026000220261036895
:1013500019400160DCF80010090706D5DCF8001020
:10136000072363F30301CCF8001040F200218261EF
:10137000C261C0F20221026281620021C0F2FF114B
:10138000C16240F28021C0F20111016342638163B6
:10139000C26301644264016821F480210160026635
:1013A00044F20000C5F2002043F2D2010160704710
:1013B000FEE700000000000084B001200090FFF76D
:1013C000DBF90020019048F21F70029040F20110FA
:1013D00003906846FFF7A0F90420FFF7DDF9FFF757
:1013E0003FF9FFF721FFFFF7C7FE41F60004C5F6FE
:1013F000020400BF80212046FFF70AF94FF47A70FB
:10140000FFF71AF8F6E7F1EE100A4FF6FF71C0F297
:10141000C03120EA010040F04070E1EE100A704750
:10142000000000000102030401020304060708098A
:1014300050140008000000241000000008030008F9
:10144000601400081000002468060000240300084F
:1014500001000000100000000090D0030090D003B5
:04000005080002CD20
:00000001FF
