:020000040800F2
:100000004807002045010008E9360008AD2B00082C
:1000100075350008710A000811430008000000004F
:10002000000000000000000000000000A5410008E2
:10003000950A000800000000A1410008CD42000818
:100040005F0100085F0100085F0100085F01000810
:100050005F0100085F0100085F0100085F01000800
:100060005F0100085F0100085F0100085F010008F0
:100070005F0100085F0100085F0100085F010008E0
:100080005F0100085F0100085F0100085F010008D0
:100090005F0100085F0100085F0100085F010008C0
:1000A0005F010008D54200085F0100085F010008F9
:1000B0005F0100085F0100085F0100085F010008A0
:1000C0005F0100085F0100085F0100085F01000890
:1000D0005F0100085F0100085F0100085F01000880
:1000E0005F0100085F0100085F0100085F01000870
:1000F0005F0100085F0100085F0100085F01000860
:100100005F0100085F0100085F0100085F0100084F
:100110005F0100085F0100085F0100085F0100083F
:100120005F0100085F0100085F0100085F0100082F
:10013000DFF80CD000F07AFC0048004715430008B7
:10014000480700200648804706480047FEE7FEE7CC
:10015000FEE7FEE7FEE7FEE7FEE7FEE7FEE7FEE777
:10016000D1420008310100082DE9FF5F1D464FF024
:10017000FF3BD5E9014691465F464FF00008A9696B
:100180007F1C01988847296A824688470028F6D153
:10019000BAF1FF3F0CD024F4C064002E19DD6006D4
:1001A00014D5BAF12B0F09D0BAF12D0F0ED103E0FF
:1001B000584604B0BDE8F09F44F48064A9697F1CF0
:1001C00001988847761E8246002E02DDBAF1300F74
:1001D00003D0B9F1000F26D032E0A969761E44F4AD
:1001E00000747F1C019888478246002E05DDBAF115
:1001F000780F06D0BAF1580F03D0B9F1000F10D024
:100200001EE0B9F1000F02D0B9F1100F18D1A969A1
:10021000761E24F400747F1C0198884782461020C3
:1002200002E0082000E00A20814609E008FB0908F6
:10023000A969761E44F400747F1C019888478246A1
:10024000002E05DD4946504600F01EFB0028EDDA81
:10025000E96901988847A00502D46FF00100A8E77A
:10026000E00725D1600613D5600502D5C8F100006E
:1002700000E0404629680A1D2A600968220501D568
:10028000087015E0220701D5088011E008600FE032
:100290002868011D29600068210502D580F80080CA
:1002A00006E0210702D5A0F8008001E0C0F8008038
:1002B00038467EE7F0B480EA0102D40F4200B2EB88
:1002C000410F02D20246084611464A0042D0C30DF1
:1002D000DDB2C1F3C752AD1A202D35DAC1F31601D4
:1002E00041F4000204B15242C5F1200602FA06F1BF
:1002F0002A411044B3EBD05F23D0C4B1012DA0EB51
:10030000C35009DCF0BC4FF0004202EAC352DBB23A
:1003100000F5000000F0CFBA400000F1807000EB63
:10032000C350A0F1807040EAD170490009E049084B
:1003300041EAC071A0EBC35000F50000400800EB9B
:10034000C350F0BC00F0AEBA6142012202EB4101A1
:10035000001BF6E7F0BC704781F00041AAE780F08F
:100360000040A7E780EA010210B502F00043400018
:1003700022D04A001FD0010E01EB1261C0F35600DB
:10038000C2F3560240F4000042F40002A0FB022037
:1003900000047F39140400D0401C50EA124001D4FC
:1003A0004000491EC2B20C0604EBD010401C4008AD
:1003B000802A02D003E0002010BD20F001000029B7
:1003C00000DA0020184310BD2DE9FE4F804681EA77
:1003D0000300C00F0C46009021F0004123F00045BF
:1003E000B8EB0200A94105D24046214690461C4682
:1003F0000B46024623F00040104347D0270DC7F3B9
:100400000A00C3F30A510290401A019040286BDAA7
:10041000C3F3130040F4801B0098924620B10023E0
:10042000D2EB030A63EB0B0B01985946C0F1400273
:10043000504600F008FA06460D4650465946019AC5
:1004400000F010FA10EB08006141002487EA115215
:1004500084EAE7731A4340D0009A62B3019A012AF2
:100460004FEA075215DC001B61EB02014FF000421E
:1004700002EA0752CDE90042001C41F580113246E4
:100480002B4600F055FA03B0BDE8F08F40462146F8
:10049000F9E7001B61EB0201001C41F58013001815
:1004A0005B412018A2F5001747EB030140EAD57025
:1004B000B6196D4111E06D084FEA360645EAC07580
:1004C0004FEA0752001B61EB0201001C41F580114D
:1004D00049084FEA30000019514132462B4603B01B
:1004E000BDE8F04F00F015BA00980122400000234B
:1004F000D0EB020263EBE073009821464FEAE07410
:10050000B8EB000061EB0401E9E783F000435BE72F
:1005100081F0004158E72DE9FE4F81EA030404F021
:10052000004421F0004100944FF0000B23F0004301
:1005300050EA01045ED052EA03045BD0C3F30A54CC
:10054000C1F30A552C44A4F2F3340194A0FB0254E5
:10055000C1F3130141F48011C3F3130343F4801377
:1005600001FB024400FB034E840A970A44EA8154CB
:1005700047EA8357A4FB076802958D0A05FB0785A8
:100580004FEA932C04FB0C542705029D4FEA0658B2
:1005900047EA1637B5EB08056EEB070C870E920E8F
:1005A00047EA811742EA8312A7FB0201B6EB0B016F
:1005B00064EB00042B0D43EA0C335E1844EB1C5033
:1005C000DA465146E7FB0201C5F313044FEA0B3349
:1005D00043EA14534FEA0432019C43EA0603A4F1B0
:1005E0000C040294009CCDE900B400F0A1F903B022
:1005F000BDE8F08F00200146F9E72DE9F04D81EAD2
:10060000030404F0004B21F0004514464FF0000AAB
:1006100023F0004150EA050220D054EA01021DD027
:10062000C5F30A570246C5F31303C1F31300C1F320
:100630000A5640F4801543F48013A7EB0608101BFC
:10064000D64608F2FD3873EB050002D308F1010825
:1006500001E092185B41B8F1000F03DA0020014677
:10066000BDE8F08D00204FF48011064684460EE070
:10067000171B73EB050705D3121B63EB050306433A
:100680004CEA010C49084FEA300092185B4150EAED
:100690000107EDD152EA030012D082EA040083EA96
:1006A0000501084305D0101BAB4106D201220023EF
:1006B00006E000224FF0004302E06FF00102531009
:1006C0001AEB06004CEB085110EB0A0041EB0B0152
:1006D000BDE8F04D00F01DB9002801DBC0F100407D
:1006E000002901DBC1F10041814201D301207047A3
:1006F00000207047C10F80EAE0700844CA079623C3
:10070000002100F0D8B80EB5C10F80EAE0700844AF
:10071000CA07002140F233438DE80E000A460B461B
:1007200000F006F903B000BD00F0004220F00040E8
:10073000C10DC0F3160040F400007F2901DA00204B
:100740007047962903DCC1F19601C84001E0963953
:100750008840002AF4D04042704700F0004230F058
:1007600000400AD0C10D01F56071C0F3160042EAE5
:100770000151C208400711437047002001467047ED
:1007800001F0004330B421F0004150EA010206D0EC
:100790000A0DA2F56072C1F31301002A02DC30BC1D
:1007A00000207047440F44EAC104C100E01830BC87
:1007B00000EBC25000F076B830B50B460146002081
:1007C0002022012409E021FA02F59D4205D303FA13
:1007D00002F5491B04FA02F52844151EA2F1010294
:1007E000F1DC30BD2DE9F05F0546002092469B46C6
:1007F00088460646814640241BE028464146474637
:10080000224600F025F953465A46C01A914110D3AA
:1008100011461846224600F016F82D1A67EB01081B
:100820004F4622460120002100F00DF817EB000989
:100830004E41201EA4F10104DFDC484631462A4621
:100840004346BDE8F09F202A04DB203A00FA02F17B
:10085000002070479140C2F1200320FA03F31943AE
:1008600090407047202A06DBCB17203A41FA02F06D
:1008700043EAE07306E041FA02F3D040C2F12002FD
:1008800091400843194670473A2800D2303820F08A
:100890002002412A01D3A2F13700884201D34FF050
:1008A000FF3070470029A8BF7047401C490008BFAF
:1008B00020F00100704710B4B0FA80FC00FA0CF090
:1008C00050EA010404BF10BC704749B1CCF12004C8
:1008D00021FA04F411FA0CF118BF01212143084355
:1008E000A3EB0C01CB1D4FEA00614FEA102042BF81
:1008F000002010BC704700EBC35010440029A4BF77
:1009000010BC7047401C490008BF20F0010010BC1B
:10091000704710B5141E73F1000408DA401C41F151
:10092000000192185B411A4301D120F0010010BD73
:100930002DE9F04D92469B4611B1B1FA81F202E0E9
:10094000B0FA80F220329046FFF77DFF04460F4652
:1009500040EA0A0041EA0B0153465A46084313D0C5
:10096000114653EA010019D0C8F14002504600F088
:100970006FF805460E46504659464246FFF763FF5C
:10098000084305D0012004E020463946BDE8F08D3B
:100990000020054346EAE0762C4337430A98630576
:1009A000E40AA0EB08000022FD0A44EA47540A309A
:1009B00002D500200146E9E7010510196941DDE98A
:1009C000084500196941BDE8F04DA2E7C1F30A529C
:1009D000C1F3130140F2FF3341F480119A4202DA6D
:1009E00000200146704740F233439A42A2F233425C
:1009F00002DC524200F02CB8FFF725BF30B5041ED0
:100A000071F1000404DB4FF00044404264EB01014B
:100A1000141E73F1000405DB1C464FF000435242E4
:100A200063EB0403994208BF904230BD064C074D6A
:100A300006E0E06840F0010394E8070098471034AE
:100A4000AC42F6D3FFF778FBDC560008FC560008F2
:100A5000202A04DB203A21FA02F00021704721FA13
:100A600002F3D040C2F1200291400843194670477A
:100A7000FEE7000080B5FFF746FE49F2FF524AF25A
:100A8000A503C2F29562C3F68B73FFF744FDFFF72F
:100A900077FE80BD70470000EFF3108072B600BF94
:100AA000FEE7000040F2D810C2F20000006840F2F9
:100AB0002022416AC2F2000240F23C03494212681D
:100AC000C2F200031980516A5980002141625162CB
:100AD0007047000010B581B00022009290F82420E9
:100AE000012A03D10221084601B010BD4B68012242
:100AF000062B80F8242017D8D0F800C003EB83031E
:100B00005A1F1F23DCF834E003FA02F40B682EEAC4
:100B1000040403FA02F22243CCF83420092B03EB3D
:100B2000430219D936E000BFD0F800C00C2B03EB0C
:100B300083021DD8233A1F23DCF830E003FA02F4C5
:100B40000B682EEA040403FA02F22243CCF83020A8
:100B5000092B03EB43021DD8DCF810300724896809
:100B60009440A34391401943CCF81010002130E089
:100B7000413A1F23DCF82CE003FA02F40B682EEA5A
:100B8000040403FA02F22243CCF82C20092B03EBD5
:100B90004302E1D9DCF80CE01E3A0724896894404E
:100BA0002EEA0404914023F001022143102ACCF8DC
:100BB0000C100DD142F20841C4F20101A1F108026A
:100BC00094450DD0816A41F020018162012100E04D
:100BD0000021002280F82420084601B010BD00BF8B
:100BE0000A68120230D40A68102B42F400020A602C
:100BF0002CD140F22801C2F2000109684DF683624F
:100C0000C4F21B32A1FB0212910C01EB81014900DD
:100C100000910099E1B10099013900910099C9B1A1
:100C20000099013900910099B1B100990139009101
:100C3000009999B1009901390091009900294FF06C
:100C40000001E8D1C5E700BF0021C2E70021C0E7ED
:100C50000021BEE70021BCE70021BAE70021B8E788
:100C6000B0B5002800F0B2800446806A20B1216847
:100C70008868C0070BD114E00020E06284F82400EB
:100C8000204600F0A5F821688868C00709D0886868
:100C900020F00100886000F0E5F921688A68D20739
:100CA00030D1A06AC00644D4A06A41F20212904337
:100CB0000230A062E36981F0804080F49E3083F4CA
:100CC0004022104308BF4FF40023D4E9010243EA55
:100CD000000C531EB3FA83F35D091346B2F5807F0F
:100CE00018BF2B02207D257B01284CEA450030D11E
:100CF00035B3A56A45F02005A562E56A45F0010512
:100D0000E56226E0054602E08868C007C9D000F029
:100D1000A9F9401B21680328F6D38868C007F3D0DF
:100D2000A06A40F01000A062E06A40F00100E062BA
:100D3000A06AA06A40F01000A0620120B0BD00BF10
:100D4000D4F818C04EF60005CFF6FF7505EB4C350C
:100D50002B434D68B2F5807F25F4694543EA0503CE
:100D60004B608B684FF2FD75CFF6E17503EA050322
:100D700043EA00038B6001D0012A07D122690023D6
:100D8000CFF6F07303EB025201E000BF0022CB6A02
:100D900023F470031A43CA62896840F6FE62CFF6F4
:100DA0001F721140814207D10020E062A16A012236
:100DB00062F30101A162B0BDA06A40F0100020F012
:100DC0000200A062E06A40F00100E0620120B0BDD4
:100DD00080B586B0014641F20000C4F20100096806
:100DE00000F5A05291424FF00001CDE9041101D06D
:100DF00006B080BD41F21801C4F202010A6842F453
:100E000000720A600A6802F400720192019A0A688C
:100E100042F010020A60096801F010010191019985
:100E2000212102910321039102A900F017F806B0D5
:100E300080BD0000B0B5044600F014F9054640F24C
:100E40000800C2F200000078611C18BF044400BF13
:100E500000F008F9401BA042FAD3B0BD2DE9F04FD5
:100E600082B0D1F800C0BCF1000F00F0F180A0F119
:100E7000804241F60045A2F58432C4F2010540F2F9
:100E8000004E4FEAB2240627A842C4F2010E08BF62
:100E90000527052C4FF000044FF001084FF00F0319
:100EA0004FF0000A4FF0000B38BF4FEAB22700970F
:100EB0000AE000BFD1F800C00AF1010A3CFA0AF2C8
:100EC00004F1040400F0C48008FA0AF91CEA090FCE
:100ED000F0D04E684FF6FF72C1F21002964211DC5C
:100EE000122E55D8DFE806F0340A444854545454BE
:100EF0005454545454545454544C5000D1F80CB0DD
:100F000046E000BF4FF6FF72C1F2210296420FDCAD
:100F10000022C1F2110296421AD00022C1F212023E
:100F2000964215D00022C1F22102964210D02FE045
:100F30000022C1F2220296420AD00022C1F23102FE
:100F4000964205D00022C1F23202964220D100BF63
:100F50008A684AB1012A14BFC0F81490C0F81090F2
:100F60004FF0080B14E000BF4FF0040B10E000BF7F
:100F7000CA6802F1080B0BE04FF0000B08E000BF5D
:100F8000CA6802F1040B03E0CA6802F10C0B00BF4F
:100F900022460646BAF1080F24BF203A04363768C5
:100FA00003FA02F5AF430BFA02F23A433260CA7910
:100FB000D2067FF57FAF41F21807C4F202073A6804
:100FC0004FF6084342F001023A603A68CFF6FF73E9
:100FD00002F001020192019A2AF0030272440F25E5
:100FE000D75804F00C06B540AF43009D05FA06F64D
:100FF0003743D7504E6840F20C45F202DEF8082025
:1010000054BF22EA090242EA0902CEF80820C4F2DB
:1010100001052A68B70254BF22EA090242EA09021E
:101020002A60DEF80420B70354BF22EA090242EA2C
:101030000902CEF804200F23DEF80020F70354BF86
:1010400022EA090242EA0902CEF8002032E700BF94
:1010500002B0BDE8F08F0000002A08BF090401615A
:101060007047000040F24030C2F200000068704754
:1010700070B5B8B3044690F83D0028B9002084F854
:101080003C00204600F05CF9242084F83D002068F4
:10109000016821F001010160016841F40041016033
:1010A000016821F40041016000F09AFB48F28041A0
:1010B000C0F21E0140F60013D4F804E088424FF05D
:1010C0000001C0F23D0348F2A16C4FF0000238BFAE
:1010D00001219842C0F2010C38BF0122E64538BF19
:1010E0000A460AB1012070BD4DF68361C4F21B317E
:1010F000A0FB01122168950C4B684FF4967623F003
:101100003F0343EA9243754344F6D3564B60C1F222
:1011100062060B6AA5FB0656B50923F03F03E645B8
:1011200038BF950C6A1C1A430A62CA6948F2A06665
:101130004CF6FF73C0F20106B64522EA03020BD853
:1011400001384FEA4E03B0FBF3F001306FF31F306C
:10115000042898BF04201EE0A368013863B1192356
:101160000EFB03F3B0FBF3F001306FF31F3078B1E7
:1011700000F5804008E000BF0EEB4E03B0FBF3F03B
:1011800001306FF31F3028B100F5004003E000BFCD
:10119000012000E001201043C8610868D4E907235A
:1011A00020F0C000104318430860886848F2FF32FE
:1011B00004F10C0690434CCE18431043A569886097
:1011C000C86820F0FF0030432843C860086840F03A
:1011D0000100086000202021206484F83D10206375
:1011E00084F83E0070BD00002DE9F04383B09946BD
:1011F00016460F460446FFF735FF94F83D102029A8
:1012000020D10546206800BF8169890716D5FFF700
:1012100029FF411B20681A29F6D381698907F3D574
:1012200000202021206384F83D1084F83E00216CCA
:1012300041F02001216484F83C0003E094F83C1064
:10124000012903D1022003B0BDE8F083012284F814
:101250003C200368DDE90B180A9ADB0703D1036819
:1012600043F001030360036823F40063036021205B
:1012700084F83D00402084F83E0000202064626233
:101280006185608D394620850020CFF6FF70E062D1
:10129000204632464B46CDF80080019501F088FC8F
:1012A00020B1012003B0BDE8F08300BF208D98B9C4
:1012B000204641462A4601F0DFFC88B3206C042812
:1012C000EFD12068016841F400710160012003B092
:1012D000BDE8F0830004EBD0204641462A4601F0E9
:1012E00085FE0028EAD1616A2268084610F8013BB1
:1012F0001361238D6062581E2085678D013F6785CD
:1013000057697F07E6D50704E4D048781061881C48
:101310006062981E2085618D01396185DAE700BF22
:101320002068016841F400710160202084F83D00CC
:10133000002084F83E0084F83C0003B0BDE8F08350
:1013400010B586B045F200410068C4F200010022E9
:101350008842049202D006B010BD00BF41F21804CA
:10136000C4F20204206840F008002060206800F009
:10137000080001900198C0200290122003900320E1
:10138000059001F5384002A9FFF768FD606840F458
:1013900000106060606800F400100190019806B0D1
:1013A00010BD000040F2080040F24031C2F20000DF
:1013B000C2F2000100780A6810440860704700001B
:1013C00080B542F20000C4F20200016841F0100151
:1013D0000160032000F08EF80F2000F005F800F007
:1013E00027F8002080BD000070B540F20806C2F268
:1013F000000640F228013278C2F200014FF47A73FD
:101400000968B3FBF2F20446B1FBF2F1084600F0C2
:10141000E9FB0F2C4FF0010508D838B94FF0FF3029
:1014200021460022002500F039F87460284670BD7E
:1014300082B041F21800C4F202000168022241F0B9
:1014400001010160016801F0010101910199416808
:1014500041F080514160406800F080500090009859
:101460000420C4F20100016862F31A61016002B055
:1014700070470000002848BF7047C1B200F01F004D
:10148000012202FA00F04EF20012CEF2000242EA0D
:10149000D10121F0030108607047000010B54EF63D
:1014A0000C5CCEF2000CDCF80030C3F3022E8EF0A0
:1014B0000704042C28BF0424BEF103034FF0FF3EB1
:1014C0000EFA04F438BF0023A14399400EFA03F347
:1014D0009A43114300F00F0200F160430901043AFE
:1014E00003F564436244002848BF02F10C031970FD
:1014F00010BD00004EF60C51CEF200010A684FF606
:10150000FF031A4060F30A2242F0806040F0FD7051
:10151000086070472DE9F04182B00446007841F23E
:101520001C06C007C4F202064AD0306810F080588A
:1015300008D1306840F080503060306800F0805052
:101540000190019847F20007C4F200073868C0050F
:1015500012D4386840F480703860FFF783FD054688
:101560003868C00508D4FFF77DFD401B6428F7D913
:10157000032002B0BDE8F081706810F4407012D012
:10158000616801F4407188420DD0706840F24042B9
:10159000C4F24222012320F4407113600023C007EB
:1015A000136071602AD17068616820F4407008434C
:1015B000B8F1000F706003D1306820F080503060C7
:1015C0002068810707D556F8181CA26821F440410D
:1015D000114346F8181CC00604D4002002B0BDE830
:1015E000F08100BF56F8180C616920F480000843B0
:1015F00046F8180C002002B0BDE8F081FFF732FD7C
:10160000054641F2883700BF70688007CBD4FFF7EA
:1016100029FD401BB8424FF00300F5D9EBE700006D
:101620002DE9F04381B0002800F0858042F20008E7
:10163000C4F202080446D8F800000D4600F0070086
:1016400088420CD2D8F8000020F007002843C8F8E0
:101650000000D8F8000000F00700A8426BD1206815
:1016600041F204098107C4F2020917D5410705D5E3
:10167000D9F8001041F4E061C9F80010010705D560
:10168000D9F8001041F46051C9F80010D9F80010E1
:10169000A26821F0F0011143C9F80010C00741D140
:1016A000D8F8000000F00700A8420CD9D8F80000D4
:1016B00020F007002843C8F80000D8F8000000F028
:1016C0000700A84237D12068410707D5D9F8001094
:1016D000E26821F4E0611143C9F80010000708D561
:1016E000D9F80000216920F4605040EAC100C9F82F
:1016F0000000D9F8002002F00C00082841F2002078
:10170000C0F27A0050D145F28663C2F38341C0F63D
:101710000003595CD2033BD440F60010C0F23D00F8
:10172000484341E0606802280AD001282AD159F8CC
:10173000041C890308D4012001B0BDE8F08300BF78
:1017400059F8041C8901F6D5D9F8001021F00301DD
:101750000843C9F80000FFF785FC064641F28837C8
:10176000D9F80000616800F00C00B0EB810F97D051
:10177000FFF778FC801BB842F2D9032001B0BDE826
:10178000F08300BF59F8041C8907D4D5DCE700BFFB
:10179000D9F8002045F28463C2F34042C0F600034A
:1017A0009A5C4843B0FBF2F0D9F8001044F664624A
:1017B000C1F30311C0F60002515C40F2280220FA86
:1017C00001F140F20C00C2F200000068C2F2000217
:1017D0001160FFF709FE002001B0BDE8F0830000B2
:1017E00040F2280041F20401C2F20000C4F20201FA
:1017F0000068096844F67462C1F30221C0F6000271
:10180000515CC8407047000040F2280041F20401DA
:10181000C2F20000C4F202010068096844F6746272
:10182000C1F3C221C0F60002515CC84070470000FD
:101830002DE9F04182B0002868D00446007841F2DA
:101840000006C007C4F2020625D0706800F00C0044
:1018500004281BD0706800F00C00082802D17068C2
:10186000C00313D46068002800F06881B0F5A02F91
:1018700000F07C81B0F5803F00F07C81306820F47E
:1018800080303060306820F4802076E1306880035A
:1018900001D56068D0B32078800718D5706810F043
:1018A0000C0F07D0706800F00C0008286ED170682B
:1018B000C0036BD43068800702D52069012825D188
:1018C0003068616920F0F80040EAC100306020789B
:1018D00000071FD42078400732D4E56995B17068BD
:1018E00000F00C00082840F08F80012D0ED07068A9
:1018F000216A00F480328A4208D1616A00F47010D3
:10190000884203D1002002B0BDE8F081012002B07E
:10191000BDE8F081A069002862D00020C4F2422016
:101920000121C0F88014FFF79DFB0546706A80070F
:1019300000F18C80FFF796FB401B0228F6D92AE1C4
:10194000F06910F0805808D1F06940F08050F061E3
:10195000F06900F080500090009847F20007C4F250
:1019600000073868C00529D4386840F480703860B2
:10197000FFF778FB054600BF3868C0051ED4FFF7A7
:1019800071FB401B6428F7D905E100BF20690028DE
:1019900040F20000C4F2422000F082800121016088
:1019A000FFF760FB054600BF306880073FF588AF52
:1019B000FFF758FB401B0228F6D9ECE0E06800284E
:1019C00000F08080052800F09780012800F09880C2
:1019D000306A20F001003062306A20F0040092E0AA
:1019E0000020C4F242200021C0F88014FFF73AFB27
:1019F000054600BF706A80077FF56CAFFFF732FBCA
:101A0000401B0228F6D9C6E00027C4F24227002076
:101A10003866FFF727FB022D05460BD130688001A1
:101A200040F1BE80FFF71EFB401B02284FF0030071
:101A3000F4D968E7306880017FF564AFFFF712FBE7
:101A4000401B02284FF00300F4D95CE740F2280065
:101A5000C2F20000006844F6D351C1F26201A0FB5B
:101A60000101480A019000BF00BF0198411E0028F3
:101A700001913FF42FAF00BF0198411E0028019152
:101A80003FF428AF00BF0198411E002801913FF4A8
:101A900021AF00BF0198411E00280191E4D119E750
:101AA00000210160FFF7DEFA054600BF30688007BD
:101AB0007FF50DAFFFF7D6FA401B02284FF0030069
:101AC000F4D920E7306A20F001003062306A20F05B
:101AD00004003062FFF7C6FA054641F2883700BFBE
:101AE000306A800720D5FFF7BDFA401BB8424FF09F
:101AF0000300F5D907E700BF306A40F00400306208
:101B0000306A40F001003062FFF7ACFA054641F25E
:101B1000883700BF306A800706D4FFF7A3FA401B5E
:101B2000B842F7D937E000BFB8F1000F7FF4D5AE67
:101B3000F06920F08050F061CFE600BF306820F4FB
:101B400080303060306820F480203060FFF78AFAFF
:101B5000054600BF306880037FF59DAEFFF782FA2F
:101B6000401B64284FF00300F4D9CCE6306840F401
:101B700080203060306840F480303060FFF772FAC7
:101B8000054600BF306880033FF585AEFFF76AFA6F
:101B9000401B6428F6D9032002B0BDE8F08100BFE5
:101BA000206AB0F5803F05D17168A26821F4003148
:101BB000114371607168626A21F474111143084322
:101BC000706001203866FFF74DFA044630688001E6
:101BD0003FF598AEFFF746FA001B02284FF00300CE
:101BE000F4D990E6411E0020B0EB116F1CBF01201C
:101BF00070474EF21002CEF2000251604EF62351B1
:101C0000CEF20001F0230B70072190601160704745
:101C1000704700007047000010B590F83C20012A82
:101C20004FF002023FD080F83D200268D2F804E075
:101C3000D2F808C00C682EF07003234340F6FF343E
:101C4000C4F20004A242536010DCB2F1804F1FD0F6
:101C500040F20043C4F200039A4219D040F6000358
:101C6000C4F200039A4213D017E000BF40F60043CD
:101C7000C4F200039A420BD043F20043C4F20103C2
:101C80009A4205D042F60043C4F201039A4204D1BD
:101C900049682CF08003194391600121002280F8EB
:101CA0003D1080F83C20104610BD0000002804BF05
:101CB0000120704710B5044690F83D0028B9002077
:101CC00084F83C00204600F085F8022084F83D00AE
:101CD000206840F6FF330268C4F2000343F2004C70
:101CE0009842C4F2010C21DCB0F1804F2CD040F2BC
:101CF0000041C4F20001884226D040F60001C4F23F
:101D00000001884220D0984224DCB0F1804F2FD0CF
:101D100040F20041C4F20001884229D040F600019F
:101D2000C4F20001884223D026E000BF40F6004103
:101D3000C4F20001884207D0604505D042F6004158
:101D4000C4F201018842DED1A16822F070020A4388
:101D50009842DADD40F60041C4F20001884207D023
:101D6000604505D042F60041C4F20101884203D12A
:101D7000216922F440720A43A36922F08001D4F859
:101D800004E0E268194360450160C262C0F828E0DF
:101D900005D042F60041C4F20101884201D16169D7
:101DA000016301214161002084F8461084F83E104F
:101DB00084F83F1084F8401084F8411084F84210F1
:101DC00084F8431084F8441084F8451084F83D10DA
:101DD00010BD000080B582B0006840F60001C4F27A
:101DE000000188421ED042F60041C4F2010188423F
:101DF00025D141F21800C4F202000168002241F42A
:101E0000006101600068012100F400600190019808
:101E10001920FFF743FB192002B0BDE88040FFF70F
:101E200029BB00BF41F21800C4F20200416841F032
:101E300004014160406800F004000090009802B086
:101E400080BD000090F83D1001291CBF01207047A3
:101E5000022180F83D10006840F6FF32C168C4F2EC
:101E60000002904241F00101C1600FDCB0F1804FEF
:101E70001ED040F20041C4F20001884218D040F662
:101E80000001C4F20001884212D018E040F600417F
:101E9000C4F2000188420BD043F20041C4F20101B8
:101EA000884205D042F60041C4F20101884206D1C1
:101EB000816801F00701062904BF0020704701680E
:101EC00041F00101016000207047000080B590F8EA
:101ED0003C20012A4FF0020200F0C28080F83D2031
:101EE000D0F800C04FF67772DCF8083023EA02021F
:101EF000CCF808200B684F2B28DC1F2B44DD202B4F
:101F000045D0302B43D0402B40F0AC80D1F804E0DA
:101F1000C968DCF82030DCF8202022F00102CCF87F
:101F20002020DCF8182022F0F00242EA011123F010
:101F30000A0242EA0E02CCF81810CCF82020DCF895
:101F4000081041F0470121F0300180E06F2B27DDC0
:101F5000B3F5005F48D0B3F5805F7AD0702B40F0C6
:101F60008180D1E901E3C968DCF8082043EA0E0367
:101F700022F47F4243EA01211143CCF80810DCF837
:101F8000081041F0770162E00BB1102B6AD1DCF848
:101F9000081021F07001194341F0070157E000BF1C
:101FA000502B35D0602B5DD1D1F804E0C968DCF846
:101FB0002030DCF8202022F01002CCF82020DCF8C1
:101FC000182022F4704242EA013123F0A00242EAD2
:101FD0000E12CCF81810CCF82020DCF8081041F0D4
:101FE000670121F0100132E0D1E901E3C968DCF8B2
:101FF000082043EA0E0322F47F4243EA0121114301
:10200000CCF80810DCF8081041F480411FE000BF54
:10201000D1F804E0C968DCF82030DCF8202022F098
:102020000102CCF82020DCF8182022F0F00242EA6D
:10203000011123F00A0242EA0E02CCF81810CCF883
:102040002020DCF8081041F0570121F02001CCF8E5
:1020500008100022012180F83D10002180F83C107A
:10206000104680BD0122F5E7002804BF012070471B
:102070002DE9F04F81B0044690F83D008B4628B919
:10208000002084F83C00204600F0B0F8022084F8DC
:102090003D00206844F20702816840F6FF33914317
:1020A00081600268C4F2000343F2004C9842C4F21B
:1020B000010C21DCB0F1804F2CD040F20041C4F281
:1020C0000001884226D040F60001C4F20001884297
:1020D00020D0984224DCB0F1804F2FD040F2004154
:1020E000C4F20001884229D040F60001C4F2000188
:1020F000884223D026E000BF40F60041C4F2000130
:10210000884207D0604505D042F60041C4F2010183
:102110008842DED1A16822F070020A439842DADDDB
:1021200040F60041C4F20001884207D0604505D066
:1021300042F60041C4F20101884203D1216922F430
:1021400040720A43A36922F080016268E56819437E
:1021500060450160C562826205D042F60041C4F26A
:102160000101884201D161690163012141618268F5
:102170008369D0F820C0DBE9005EDBE9027845EA3C
:10218000020ADBF818504FF6FF7923EA090347EA01
:1021900005254FF6FC47BD43DBE9077643EA080314
:1021A000DBF810202B4343EA072343EA02122CF00A
:1021B0002203DBF8147043EA0E0342EA063243EAD4
:1021C0000713C0F808A08261036284F8461084F8FF
:1021D0003E1084F83F1084F8421084F8431084F8CD
:1021E0003D10002001B0BDE8F08F000080B586B042
:1021F000006840F20041C4F2000188424FF0000143
:10220000CDE90411CDE902111CD0B0F1804F3CD1D1
:1022100041F21800C4F20200416841F0010141603E
:10222000416801F0010101910199016841F0040147
:1022300001600068032100F0040001900198002073
:1022400018E000BF41F21800C4F20200416841F0FA
:1022500002014160416801F00201019101990168A8
:1022600041F0040101600068C02100F00400019009
:102270000198012002910021CDE9031040F60000F1
:10228000C4F2010002A9FEF7E9FD06B080BD00001E
:1022900080B590F83E2090F83F3090F842E090F8FA
:1022A00043C004290AD0B9B9012A4FF0010208BF7E
:1022B000BEF1010F34D0104680BD00BF012B4FF09E
:1022C000010208BFBCF1010FF5D1022180F83F10D7
:1022D00080F8431000681EE0012A4FF0010208BF99
:1022E000012BE8D1BEF1010FE5D1BCF1010FE2D124
:1022F000022280F83E2080F83F2080F8422080F8BB
:10230000432091B10068016A21F001010162016A74
:1023100041F00101016210216FF0100209E000BFDD
:10232000022180F83E1080F84210006801216FF011
:102330000102036A1A400262026A114301620168E3
:10234000002241F001010160104680BD704700008D
:1023500010B5016804460869800744BFC8685FEA91
:10236000807039D40869400744BFC8685FEA40708C
:102370003ED40869000744BFC8685FEA007045D4CE
:102380000869C00644BFC8685FEAC0604AD40869EB
:10239000C0071CBFC8685FEAC07051D10869000659
:1023A00044BFC8685FEA006052D40869400644BF71
:1023B000C8685FEA406053D40869800646BFC868B1
:1023C0005FEA806010BD6FF0200220460A61BDE820
:1023D0001040FFF71FBC00BF6FF002000861012032
:1023E00020778869800743D02046FFF7AFFF45E09C
:1023F0006FF00400086102202077886910F4407FA4
:1024000040D02046FFF7A2FF42E000BF6FF0080077
:10241000086104202077C86980073DD02046FFF777
:1024200095FF3FE06FF01000086108202077C86931
:1024300010F4407F3AD02046FFF788FF3CE000BF11
:102440006FF001000861204600F078FA2168A5E7E6
:102450006FF0800008612046FFF7DAFB2168A4E7EF
:102460006FF040000861204600F0A2FA2168A3E75F
:10247000204600F025F8204600F0ECF92168002005
:1024800020776FE7204600F01BF8204600F0E2F9C5
:102490002168002020776CE7204600F011F82046E4
:1024A00000F0D8F921680020207769E7204600F085
:1024B00007F8204600F0CEF921680020207766E773
:1024C000704700002DE9F04190F83C30012B04BF2B
:1024D0000220BDE8F0814FEAB202032A00F21C811B
:1024E000DFE802F0024690DA036843F200461D6A14
:1024F0001A6A25F0020522F001021A621A465C6887
:1025000052F818EF8F68D1F800C0C4F20106B34248
:1025100045EA070505D042F60047C4F20107BB4271
:1025200005D1CF6825F00C0527F004073D43B342E1
:1025300005D042F60046C4F20106B34205D1D1E906
:10254000056724F4407434433C432EF0730747EA94
:102550000C075C609F614F6809695F631D629F693A
:1025600047F008079F619F6927F004079F61C9E052
:10257000036843F200461D6A1A6A25F0200522F01E
:1025800010021A621A46D3F804C052F8188F8F68E6
:10259000D1F800E0C4F20106B34245EA071505D0C0
:1025A00042F60047C4F20107BB4207D1CF686FF083
:1025B000400425F0C00504EA07142543B34205D0C2
:1025C00042F60044C4F20104A34206D1D1E9054613
:1025D0002CF44067264347EA860C28F4E64444EA94
:1025E0000E27C3F804C09F614F6809699F631D628D
:1025F0009F6947F400679F619F6927F480679F6127
:102600007FE000BF036843F200461D6A1A6A25F4A2
:10261000007522F480721A621A46D3F804C052F888
:102620001CEF8F68D1F80080C4F20106B34245EA7E
:10263000072505D042F60047C4F20107BB4208D186
:10264000CF6840F2FF443F0225F4406527EA0404C6
:102650002543B34205D042F60044C4F20104A3422C
:1026600006D1D1E905462CF44057264347EA061C1B
:102670002EF0730747EA0807C3F804C0DF614F680C
:102680000969DF631D62DF6947F00807DF61DF6901
:1026900027F00407DF6135E0036843F20047D3F811
:1026A00020C01A6AC4F2010722F480521A621A4644
:1026B0005C6852F81C5FD1F800E08E68BB4205D020
:1026C00042F60047C4F20107BB4204D14F6924F42B
:1026D000804444EA87142CF4005747EA063725F46F
:1026E000E64646EA0E265C60DE614E6809691E64B5
:1026F0001F62DF6947F40067DF61DF6927F48067E5
:10270000DF6109021368194311600021002280F87B
:102710003C200846BDE8F0810121002280F83C20E1
:102720000846BDE8F0810000002804BF0120704782
:1027300010B5044690F83D0028B9002084F83C000C
:10274000204600F085F8022084F83D00206840F61D
:10275000FF330268C4F2000343F2004C9842C4F213
:10276000010C21DCB0F1804F2CD040F20041C4F2CA
:102770000001884226D040F60001C4F200018842E0
:1027800020D0984224DCB0F1804F2FD040F200419D
:10279000C4F20001884229D040F60001C4F20001D1
:1027A000884223D026E000BF40F60041C4F2000179
:1027B000884207D0604505D042F60041C4F20101CD
:1027C0008842DED1A16822F070020A439842DADD25
:1027D00040F60041C4F20001884207D0604505D0B0
:1027E00042F60041C4F20101884203D1216922F47A
:1027F00040720A43A36922F08001D4F804E0E26841
:10280000194360450160C262C0F828E005D042F675
:102810000041C4F20101884201D1616901630121D3
:102820004161002084F8461084F83E1084F83F107F
:1028300084F8401084F8411084F8421084F8431062
:1028400084F8441084F8451084F83D1010BD000051
:10285000704700007047000041B1082910D00429DA
:1028600014BF00F1410200F13F020BE090F83E205E
:10287000012A1CBF01207047022280F83E2013E08D
:1028800000F140021278012A1CBF01207047022289
:10289000082907D0042914BF80F8412080F83F2080
:1028A00002E000BF80F84020006801F01F01012213
:1028B000036A02FA01F123EA01020262026A114389
:1028C00040F6FF32C4F20002904201620EDCB0F129
:1028D000804F25D040F20041C4F2000188421FD051
:1028E00040F60001C4F2000118E000BF40F60041CC
:1028F000C4F20001884213D043F20042C4F2010244
:1029000042F600419042C4F2010101D088420ED14A
:10291000436C904243F40043436401D0884206D1A3
:10292000816801F00701062904BF00207047016893
:1029300041F00101016000207047000070B540F2D5
:102940003005C2F20005E96A6A680131E962511C8A
:1029500040F29012C2F200029042696018BF70BD4E
:10296000FEF7A0F8B5F90C00FEF784F8B5F90E10E3
:1029700028610846FEF77EF840F20006C2F2000623
:10298000326840F2A0042969C2F20004686110466E
:10299000224601F009FC6969706804F1240201F023
:1029A00003FC206A616CBDE8704000F0E5BD0000EA
:1029B00070470000002804BF0120704710B504468E
:1029C00090F8410028B9002084F84000204600F02B
:1029D00063F8242084F841002068D4E90212C36817
:1029E00023F40053C360036923F440531A43026184
:1029F000D4E904231143C268194341F20C639A439A
:102A00001143C1604169A26921F44071114343F649
:102A10000002C4F201029042416103D0FEF7E0FEE1
:102A200002E000BFFEF7F0FE626819214843910002
:102A3000B0FBF1F048F21F51C5F2EB11A0FB0123EE
:102A40005A094FF69C73C0F6FF7302FB0300322352
:102A500003EB0010A0FB0101F02303EA51132068EF
:102A600003EB0212C1F3431111448160016921F4A7
:102A700090410161416921F02A014161C16841F43D
:102A80000051C16000202021606484F8411084F866
:102A90004210606310BD000070B586B0006844F25B
:102AA0000041C4F2000188424FF00001CDE9041159
:102AB000CDE9021120D043F60001C4F201018842A1
:102AC00048D141F21800C4F2020001684FF4806658
:102AD00041F480410160016801F480410191019954
:102AE000016841F004010160006800F004000190F9
:102AF00001984FF4007017E041F21800C4F2020090
:102B00004168082641F400314160416801F4003118
:102B100001910199016841F004010160006800F031
:102B200004000190019804200290022040F6000465
:102B300003900320C4F2010402AD0590204629460B
:102B4000FEF78CF90020CDE90300204629460296C5
:102B5000FEF784F906B070BD90F84230202B1CBF00
:102B60000220704700294FF0010318BF002A01D14D
:102B70001846704700230363816222218285C28543
:102B8000436480F842100169006819B1C16841F4DA
:102B90008071C1604169002341F001014161C16858
:102BA00041F02001C160184670470000FEE70000B8
:102BB0002DE9F04383B0044600680D4601680A9F82
:102BC0000B9E41F4807199469046016020464FF07B
:102BD000011100223B46009600F0AEF850B120688B
:102BE0000068C00544BF4FF400702064032003B0A8
:102BF000BDE8F083206805F0FE0101610221C0F20A
:102C0000010120463A46334600F080F920B1012008
:102C100003B0BDE8F08300BF002002902068324678
:102C2000416902918069394602900298204600F07D
:102C3000DDF958B1206C0428E9D12068016841F41D
:102C400000710160012003B0BDE8F0832068B9F194
:102C5000010F0AD04FEA1821016120463946324659
:102C600000F0C4F90028E5D120685FFA88F101611D
:102C7000002003B0BDE8F08370B50368044653F844
:102C8000140F400711D40E46481C29D086BB00BF44
:102C90001868400527D4FEF7E5F9236853F8140FA8
:102CA000400739D518684007F2D5002070BD00BF35
:102CB00018684007F9D41868400514D4186840070C
:102CC000F3D4186840050ED418684007EDD418688E
:102CD000400508D4186840074FF0000048BF70BD99
:102CE00018684005E4D56FF480601860042014E093
:102CF000154603E053F8140F4007D6D41868400572
:102D0000F1D4FEF7AFF9401B2368B042F2D95869FD
:102D10004007EFD4202000E0202000212022216362
:102D200084F83D2084F83E10226C1043206401207A
:102D300084F83C1070BD00002DE9F04105460068A4
:102D40001E46144601F47F0201338FB242D0DDF8F3
:102D50001880B2F5803F40F0878040693840C01B42
:102D6000B0FA80F04009A04240F0C8804EB924E09B
:102D700040693840C01BB0FA80F04009A04240F0E2
:102D8000BD80FEF76FF9A0EB08012868B142EFD9CA
:102D900041693940C91BB1FA81F14909A142E7D122
:102DA0009BE000BF40693840C01BB0FA80F040098A
:102DB000A0424FF0000040F0A680FEF753F92868CB
:102DC00041693940C91BB1FA81F14909A142E9D1F0
:102DD00083E000BFB2F5803F24D100BF4169394094
:102DE000C91BB1FA81F14909A14240F087804169CC
:102DF0003940C91BB1FA81F14909A14240F07E80F6
:102E000041693940C91BB1FA81F14909A14275D123
:102E100041693940C91BB1FA81F14909A142DDD0AC
:102E20006CE000BF81693940C91BB1FA81F14909E1
:102E3000A14263D181693940C91BB1FA81F14909C5
:102E4000A1425BD181693940C91BB1FA81F14909BD
:102E5000A14253D181693940C91BB1FA81F14909B5
:102E6000A142DFD04AE000BF80693840C01BB0FA01
:102E700080F04009A04241D146B923E08069384042
:102E8000C01BB0FA80F04009A0423BD1FEF7EAF83F
:102E9000A0EB08012868B142F0D981693940C91B0B
:102EA000B1FA81F14909A142E8D116E080693840C0
:102EB000C01BB0FA80F04009A0424FF0000018BFDC
:102EC000BDE8F081FEF7CEF8286881693940C91B5A
:102ED000B1FA81F14909A142E8D1002020212863FB
:102EE00085F83D1085F83E00296C41F020012964E9
:102EF00085F83C000120BDE8F08100BF0020BDE85E
:102F0000F08100BF0020BDE8F0810000F0B581B085
:102F1000044600681D4643698FB203EA0701B942BF
:102F200002D1002001B0F0BD41691646013201F422
:102F3000806125D0002940D1CEB100BFFEF792F8C4
:102F4000411B2068B14203D941693940B9424BD194
:102F500041693940B942E4D041694905EED52CE0D8
:102F600041693940B942DCD04169490525D4FEF7B1
:102F700079F8206841693940B942F1D0202024E035
:102F8000D9B941693940B942CBD04169490514D416
:102F900041693940B942C4D0416949050DD44169FC
:102FA0003940B942BDD04169490506D4416939402B
:102FB000B942B6D041694905E3D5016841F40071D1
:102FC00001606FF4806141610420002120222163AF
:102FD00084F83D2084F83E10226C1043206484F86D
:102FE0003C10012001B0F0BD2020EEE770B5036871
:102FF000044653F8140F000611D40E46481C29D07D
:1030000086BB00BF1868400527D4FEF72BF823685D
:1030100053F8140F000639D518680006F2D50020C1
:1030200070BD00BF18680006F9D41868400514D4B4
:1030300018680006F3D4186840050ED41868000616
:10304000EDD41868400508D4186800064FF0000059
:1030500048BF70BD18684005E4D56FF48060186003
:10306000042014E0154603E053F8140F0006D6D4EC
:1030700018684005F1D4FDF7F5FF401B2368B04206
:10308000F2D958690006EFD4202000E0202000216A
:103090002022216384F83D2084F83E10226C1043E6
:1030A0002064012084F83C1070BD000010B584B08D
:1030B00040F20C1042F20041C2F20000C4F20101E1
:1030C00000224FF46023012402730275C361C0E93A
:1030D000001282600461FDF7C3FD002818BFFDF7F0
:1030E000DBFC0F20CDE901040720039040F20C1017
:1030F000C2F2000001A9FDF7EDFC002818BFFDF7A2
:10310000CBFC04B010BD00002DE9F04F85B041F2BA
:103110001800C4F20200016841F6000441F01001F9
:1031200001600168C4F2010401F0100101910199EC
:103130000168A4F5006541F0040101600168012205
:1031400001F00401019101990168062741F0400155
:10315000016001684FF0010901F0400101910199FE
:10316000016841F020010160016801F02001019136
:103170000199016841F480710160016801F4807176
:1031800001910199016841F0080101600068062180
:1031900000F00800019001982846FDF75DFF2046E9
:1031A0004FF4604100224FF0000AFDF755FF04F58F
:1031B000006630463C2100224FF03C0BFDF74CFFEF
:1031C000A4F5406840464FF440710022FDF744FFEB
:1031D000CDE9017901AF28463946CDE90399FDF7DC
:1031E0003DFE4FF48050CDE9010A20463946CDF826
:1031F0000CA0FDF733FE4FF4604001A981E8010601
:103200000225204639460495FDF728FE304639460A
:10321000CDE901B9CDE903A5FDF720FE4FF44070DB
:1032200001901120CDE9020903200490404639465F
:10323000FDF714FE05B0BDE8F08F000080B540F248
:103240003C1045F20041C2F20000C4F2000148F215
:10325000A06200234FF4804CC0F2010280E80E000F
:10326000C0E9033CC0E90533C0E90733FDF700FFBF
:10327000002808BF80BDBDE88040FDF70DBC000000
:1032800080B586B040F2901042F600420021C2F2B2
:103290000000C4F20102472342F20F7C4FF0800E7F
:1032A0000591CDE90311CDE90011C0E90023C0E982
:1032B000021CC0E90411C0F818E0FEF7F7FC002872
:1032C00018BFFDF7E9FB4FF48050029040F29010D8
:1032D000C2F2000002A9FEF7F9FD002818BFFDF7B1
:1032E000DBFB40F29010C2F200006946FEF794FC4E
:1032F000002818BFFDF7D0FB06B080BD80B58CB0AC
:1033000040F2D8100021C2F200004FF08042C0E924
:1033100000218022826103224FF6FF73CDE9032151
:103320000122CDE90011C0E902130161CDE90521B7
:10333000CDE90711CDE909210B9103A9FEF794FE10
:10334000002818BFFDF7A8FB40F2D810C2F2000019
:103350006946FEF761FC002818BFFDF79DFB0CB025
:1033600080BD000080B58CB040F2202040F20042C9
:103370000021C2F20000C4F20002C0E90021802254
:103380004FF6FF7382610322C0E90213CDE90321E6
:1033900001220623CDE900110161CDE90521CDE926
:1033A0000731CDE9092103A90B93FEF75DFE002843
:1033B00018BFFDF771FB40F22020C2F20000694601
:1033C000FEF72AFC002818BFFDF766FB0CB080BD95
:1033D000B0B594B040F6000540F26820C4F2000594
:1033E0000021C2F20000472263230E91CDE90C11A7
:1033F0000991CDE90711CDE90511CDE90311CDE919
:103400000111C0E90052C0E9021301618161FEF7B8
:103410004DFC002818BFFDF73FFB4FF480500B9088
:1034200040F26820C2F200000BA9FEF74FFD002811
:1034300018BFFDF731FB40F26820C2F20000FFF731
:1034400073F9002818BFFDF727FB40F2682000241D
:10345000C2F2000008A9CDE90844FEF7DDFB002810
:1034600018BFFDF719FB6020CDE9010440F2682088
:10347000C2F2000001A9082203940594FFF722F884
:10348000002818BFFDF708FB40F26824C2F20004D0
:1034900001A920460C22FFF715F8002818BFFDF7F8
:1034A000FBFA20680021A842129101D014B0B0BDEF
:1034B00041F21800C4F20200016841F020010160ED
:1034C000006810A900F020000F900F984FF44040C2
:1034D000109002201190139041F20040C4F20100BC
:1034E000FDF7BCFC0420C4F20100016841F0E0617A
:1034F00041F48051016014B0B0BD000080B540F2CD
:10350000B02043F60001C2F20000C4F20101002322
:103510004FF00C0C4FF4E13280E80E00C0E90333A9
:10352000C0E905C3C361FFF745FA002808BF80BDA5
:10353000BDE88040FDF7B0BA80B540F2F82044F213
:103540000041C2F20000C4F2000100234FF00C0C55
:103550004FF4E13280E80E00C0E90333C0E905C34F
:10356000C361FFF727FA002808BF80BDBDE880408F
:10357000FDF792BAFEE7000070B542F200060C4675
:1035800005460128C4F20106A8BF012C0ADA54EA54
:10359000050025D004EA0500B0F1FF3F41DD012D13
:1035A0005EDA7DE0304604210122FDF755FD30460C
:1035B00008210022FDF750FD304610210122FDF7C1
:1035C0004BFD304620210022FDF746FD40F26820E9
:1035D000C2F200000068C563046454EA0500D9D152
:1035E000304604210122FDF737FD30460821012233
:1035F000FDF732FD304610210122FDF72DFD30464A
:1036000020210122FDF728FD40F26820C2F20000CF
:1036100000680021C163016404EA0500B0F1FF3FC6
:10362000BDDC304604210022FDF716FD304608219E
:103630000122FDF711FD304610210022FDF70CFD9F
:10364000304620210122FDF707FD40F26820C2F23A
:10365000000000686942C16361420164012D1FDB03
:10366000B4F1FF3F1CDC304604210122FDF7F4FCDD
:10367000304608210022FDF7EFFC304610210022E1
:10368000FDF7EAFC304620210122FDF7E5FC40F27F
:103690006820C2F2000000686442C56321E000BFF8
:1036A000B5F1FF3F1EDC012CB8BF70BD30460421D0
:1036B0000022FDF7D1FC304608210122FDF7CCFCA9
:1036C000304610210122FDF7C7FC304620210022A0
:1036D000FDF7C2FC40F26820C2F2000000686942B7
:1036E000C163046470BD0000FEE700002DE9F04FE7
:1036F00085B040F23C1400254FF480760127C2F2D9
:1037000000040DF1120B0DF113084FF0000900BF7A
:1037100009F1B0008DF8100004A8CDE9000720469B
:103720007821002201230296FDF75EFD0DF11100C4
:10373000CDE9000720467821002201238DF81150A1
:103740000296FDF751FD10208DF8120020467821D9
:1037500000220123CDE900B70296FDF745FD4FF0A9
:10376000000A00BF20467821402201238DF8135023
:10377000CDE900870296FDF737FD0AF101004FFA07
:1037800080FABAF1FF3FEDDCB9F1070F09F1010949
:10379000BED305B0BDE8F08F2DE9F04184B0C8205C
:1037A000FDF748FB40F21006C2F20006307840F206
:1037B0003C14C2F200048DF80F004FF4807801270A
:1037C0000DF10F052046782100220123CDE9005795
:1037D000CDF80880FDF708FD707878218DF80F008E
:1037E000204600220123CDE90057CDF80880FDF7DF
:1037F000FBFCB07878218DF80F00204600220123D1
:10380000CDE90057CDF80880FDF7EEFCF07878217F
:103810008DF80F00204600220123CDE90057CDF896
:103820000880FDF7E1FC307978218DF80F00204603
:1038300000220123CDE90057CDF80880FDF7D4FC24
:10384000707978218DF80F00204600220123CDE900
:103850000057CDF80880FDF7C7FCB07978218DF8C6
:103860000F00204600220123CDE90057CDF8088043
:10387000FDF7BAFCF07978218DF80F002046002280
:103880000123CDE90057CDF80880FDF7ADFC307A73
:1038900078218DF80F00204600220123CDE9005742
:1038A000CDF80880FDF7A0FC707A78218DF80F0024
:1038B000204600220123CDE90057CDF80880FDF70E
:1038C00093FCB07A78218DF80F0020460022012366
:1038D000CDE90057CDF80880FDF786FCF07A782115
:1038E0008DF80F00204600220123CDE90057CDF8C6
:1038F0000880FDF779FC307B78218DF80F00204699
:1039000000220123CDE90057CDF80880FDF76CFCBB
:10391000707B78218DF80F00204600220123CDE92D
:103920000057CDF80880FDF75FFCB07B78218DF85B
:103930000F00204600220123CDE90057CDF8088072
:10394000FDF752FCF07B78218DF80F002046002215
:103950000123CDE90057CDF80880FDF745FC307C08
:1039600078218DF80F00204600220123CDE9005771
:10397000CDF80880FDF738FC707C78218DF80F00B9
:10398000204600220123CDE90057CDF80880FDF73D
:103990002BFCB07C78218DF80F00204600220123FB
:1039A000CDE90057CDF80880FDF71EFCF07C7821AA
:1039B0008DF80F00204600220123CDE90057CDF8F5
:1039C0000880FDF711FC307D78218DF80F0020462E
:1039D00000220123CDE90057CDF80880FDF704FC53
:1039E000707D78218DF80F00204600220123CDE95B
:1039F0000057CDF80880FDF7F7FBB07D78218DF8F2
:103A00000F00204600220123CDE90057CDF80880A1
:103A1000FDF7EAFB04B0BDE8F08100002DE9F04FAE
:103A200089B040B28B46DDF84890A2F12001002811
:103A300020EAE0724FF0100748BF0BF1020BABF128
:103A4000500047EA121602F00F05102BCFB240F0DB
:103A5000BD8040F23C148DF815004FF001080DF1C7
:103A60001500C2F200044FF4807ACDE90008204628
:103A7000782100220123CDF808A0FDF7B5FB0DF158
:103A80001600CDE900082046782100220123039684
:103A90008DF81660CDF808A0FDF7A6FB0DF1170014
:103AA000CDE90008204678210022012304958DF8F5
:103AB0001750CDF808A0FDF797FB45F2A4003F0191
:103AC000C0F60000C05DB9F1000F00F0118140F2B6
:103AD0003C15C043C2F200058DF818000DF118091D
:103AE0002846782140220123CDE90098CDF808A08E
:103AF000FDF77AFB45F2A40447F00100C0F600048C
:103B0000205C7821C0438DF818002846402201230C
:103B1000CDE90098CDF808A0FDF766FB47F002005C
:103B2000205C7821C0438DF81800284640220123EC
:103B3000CDE90098CDF808A0FDF756FB47F003004B
:103B4000205C7821C0438DF81800284640220123CC
:103B5000CDE90098CDF808A0FDF746FB47F004003A
:103B6000205C7821C0438DF81800284640220123AC
:103B7000CDE90098CDF808A0FDF736FB47F0050029
:103B8000205C7821C0438DF818002846402201238C
:103B9000CDE90098CDF808A0FDF726FB47F0060018
:103BA000205C7821C0438DF818002846402201236C
:103BB000CDE90098CDF808A0FDF716FB47F0070007
:103BC000205CC0438DF8180007E100BF40F23C14B0
:103BD0008DF81F004FF0010B0DF11F00C2F2000421
:103BE0004FF48078CDE9000B204678210022012394
:103BF000CDF80880FDF7F8FA08A8CDE9000B2046BB
:103C00007821002201238DF82060CDF80880FDF78F
:103C1000EBFA0DF12100CDE9000B204678210022BE
:103C200001238DF82150CDF80880FDF7DDFA07EB70
:103C3000470544F67C67C0F6000717F81500B9F190
:103C4000000F00F0938140F23C14C043C2F2000424
:103C50008DF822000DF1220920467821402201230F
:103C6000CDE9009BCDF80880FDF7BEFA07EB4505CE
:103C70006878AF78C043EE7895F804A08DF82200FC
:103C80002046782140220123CDE9009BCDF8088011
:103C9000FDF7AAFAF8438DF8220020467821402249
:103CA0000123CDE9009BCDF80880FDF79DFAF04394
:103CB0008DF822002046782140220123CDE9009B87
:103CC000CDF80880FDF790FA6FEA0A008DF822001F
:103CD0002046782140220123CDE9009BCDF80880C1
:103CE000FDF782FA6879C0438DF822008AE100BFAF
:103CF00040F23C15C2F200058DF819000DF11909CA
:103D00002846782140220123CDE90098CDF808A06B
:103D1000FDF76AFA45F2A40447F00100C0F600047A
:103D2000205C78218DF81900284640220123CDE936
:103D30000098CDF808A0FDF757FA47F00200205C84
:103D400078218DF81900284640220123CDE90098FA
:103D5000CDF808A0FDF748FA47F00300205C782171
:103D60008DF81900284640220123CDE90098CDF8AE
:103D700008A0FDF739FA47F00400205C78218DF89F
:103D80001900284640220123CDE90098CDF808A06B
:103D9000FDF72AFA47F00500205C78218DF819001C
:103DA000284640220123CDE90098CDF808A0FDF770
:103DB0001BFA47F00600205C78218DF81900284690
:103DC00040220123CDE90098CDF808A0FDF70CFAB8
:103DD00047F00700205C8DF8190028467821402222
:103DE0000123CDE90098CDF808A0FDF7FDF9ABF16E
:103DF0004F0040F23C148DF81A004FF001090DF10C
:103E00001A00C2F200044FF48078CDE90009204680
:103E1000782100220123CDF80880FDF7E5F9039809
:103E200078218DF81B000DF11B00CDE9000920461B
:103E300000220123CDF80880FDF7D6F904987821F7
:103E40008DF81C0007A8CDE90009204600220123B7
:103E5000CDF80880FDF7C8F945F2A40147F0080045
:103E6000C0F60001085C1299002900F0CF8040F2F2
:103E70003C14C043C2F200048DF81D000DF11D0575
:103E80002046782140220123CDE90059CDF8088051
:103E9000FDF7AAF945F2A40647F00900C0F60006AE
:103EA000305C7821C0438DF81D002046402201235C
:103EB000CDE90059CDF80880FDF796F947F00A00E2
:103EC000305C7821C0438DF81D002046402201233C
:103ED000CDE90059CDF80880FDF786F947F00B00D1
:103EE000305C7821C0438DF81D002046402201231C
:103EF000CDE90059CDF80880FDF776F947F00C00C0
:103F0000305C7821C0438DF81D00204640220123FB
:103F1000CDE90059CDF80880FDF766F947F00D00AE
:103F2000305C7821C0438DF81D00204640220123DB
:103F3000CDE90059CDF80880FDF756F947F00E009D
:103F4000305C7821C0438DF81D00204640220123BB
:103F5000CDE90059CDF80880FDF746F947F00F008C
:103F6000305CC0438DF81D00C5E000BF40F23C143A
:103F7000C2F200048DF823000DF1230920467821B8
:103F800040220123CDE9009BCDF80880FDF72CF9F4
:103F900007EB45056878AE78EF7895F804A08DF8C2
:103FA00023002046782140220123CDE9009BCDF853
:103FB0000880FDF719F920467821402201238DF869
:103FC0002360CDE9009BCDF80880FDF70DF9204670
:103FD0007821402201238DF82370CDE9009BCDF894
:103FE0000880FDF701F920467821402201238DF851
:103FF00023A0CDE9009BCDF80880FDF7F5F868799E
:104000008DF82300CDE9009B77E000BF40F23C141F
:10401000C2F200048DF81E000DF11E052046782125
:1040200040220123CDE90059CDF80880FDF7DCF8E6
:1040300045F2A40647F00900C0F60006305C78217E
:104040008DF81E00204640220123CDE90059CDF80D
:104050000880FDF7C9F847F00A00305C78218DF838
:104060001E00204640220123CDE90059CDF80880EA
:10407000FDF7BAF847F00B00305C78218DF81E0090
:10408000204640220123CDE90059CDF80880FDF7F4
:10409000ABF847F00C00305C78218DF81E0020460C
:1040A00040220123CDE90059CDF80880FDF79CF8A6
:1040B00047F00D00305C78218DF81E00204640222C
:1040C0000123CDE90059CDF80880FDF78DF847F0C0
:1040D0000E00305C78218DF81E002046402201231E
:1040E000CDE90059CDF80880FDF77EF847F00F00C4
:1040F000305C8DF81E00CDE9005920467821402221
:104100000123CDF80880FDF76FF809B0BDE8F08F06
:104110002DE9F04F83B0924612780293E2B30F4636
:1041200002990646A1F11000B0FA80F04FEA50194A
:10413000A1F10C00B0FA80F04FF0080B00244FEA18
:1041400050180C2908BF4FF0060B00BF029B0C9DB6
:10415000F0B2F9B2D2B20095FFF760FC5E44F0B263
:104160007A284FF0000088BF012010EA080018BF2D
:104170000026F1B2013478294FF00001E2B288BF85
:1041800001211AF80220384411EA090118BF00265B
:10419000002A00EB0107D9D103B0BDE8F08F000081
:1041A00070470000704700002DE9F04F81B01446C1
:1041B0001269012A54D1FCF7CFF8D4F818B0074699
:1041C0005946FCF7C9F8D4E900518246D4E902986F
:1041D0003846FCF7C7F8064628465146FCF7C2F8B1
:1041E0003146FCF767F8054658465946FCF762F831
:1041F00001463846FCF7B0F8E169FCF75BF8014688
:104200004846FCF7AFF82946FCF754F861690246C6
:1042100008461146FCF74EF804F1140181E88108C4
:10422000FCF782FA2062FCF765FA0546404629460B
:10423000FCF752FA30B94046FCF776FA2062FCF7F8
:1042400059FA054688F0004628463146FCF744FAFC
:10425000E0B93046FCF768FA206201B0BDE8F08FA3
:1042600000200021C4F2C810C4F22001002200275F
:104270000026C4E9000104F10800C4F27022012301
:10428000C4F240078EC0C4E90666266201B0BDE8EC
:10429000F08F000010B500210022C4F2C811C4F252
:1042A0002002002340F2000E0024C0E9001200F1B9
:1042B0000801C4F270234FF0010CC4F2400E81E8F3
:1042C0000C50C0E90644046210BD0000FDF76AB856
:1042D0007047000040F29010C2F20000FEF738B8BC
:1042E00080B54BF65201C3F69E6149F6A632002313
:1042F00049F69A1CC3F64442C3F6995C4FF0010E8E
:1043000080E80E50C0E90533C0E9073380BD0000E6
:10431000FEE7000098B0FDF753F800240120CDE936
:104320001344CDE911440E9012904FF4E0104FF475
:104330008031022517900EA80894CDE90644CDE9F6
:104340000444CDE90F14CDE91551FDF771FA28B1F8
:10435000EFF3108072B600BFFEE700BF0F20CDE97B
:1043600009054FF48060CDE90C0409A802210B94E3
:10437000FDF756F920B1EFF3108072B6FEE700BFEB
:10438000022003904FF40040059003A8FDF7C2F807
:1043900020B1EFF3108072B6FEE700BFFEF7B4FE67
:1043A000FEF76EFFFEF7DEFFFFF712F8FFF7A6F845
:1043B000FFF7C2F8FEF77AFEFEF740FFFEF79EFF1A
:1043C000FFF7EAF9FFF792F940F29010C2F200000D
:1043D000FDF738FD40F2300440F2F820C2F200044C
:1043E000C2F2000021460122FEF7B6FB40F268252A
:1043F000C2F2000528460821FEF72EFA28460C21B5
:10440000FEF72AFA40F2D815C2F20005284600212C
:104410000027FDF73DFF28460421FDF739FF40F254
:104420002026C2F2000630460021FDF731FF30465B
:104430000421FDF72DFF286840F2A005C168C2F2F3
:10444000000541F00101C1603168CA6842F0010213
:10445000CA60476228464F62FFF71CFF05F124003F
:10446000FFF718FF05F14800FFF73AFF40F2300A66
:1044700004F1300004F1580704F14405C2F2000AC7
:1044800000260290DAF80800FCF767F9029C0B4658
:1044900045F2B16102462046C0F6000100F060F826
:1044A0000020002122460C230096FFF731FEDAE9B6
:1044B000040BFCF752F9804658468946FCF74DF943
:1044C0000C4645F2C66100903846C0F600014246EF
:1044D0004B46019400F044F8002002213A460C2398
:1044E0000096FFF715FEDAF81C2045F2A561284674
:1044F000C0F6000100F034F8002004212A460C2305
:104500000096FFF705FEDAF8202045F2AB61284659
:10451000C0F6000100F024F83C2004212A460C23B8
:104520000096FFF7F5FD40F22C00C2F20000026891
:1045300045F296612846C0F6000100F011F800200F
:1045400006212A460C230096FFF7E2FD40F2A00167
:10455000C2F20001086A496CFFF70EF892E700000A
:104560000FB4084B10B504A902AA039800F0DEF8B6
:10457000044602A9002000F070FC204610BC5DF843
:1045800014FB00005B4E000802E008C8121F08C1BF
:10459000002AFAD170477047002001E001C1121FC4
:1045A000002AFBD1704700002DE9FF5F82B0002197
:1045B000DDE90430020DDDF840B0034318D044F6C5
:1045C0001050A2F2FF3242431514119801281FD057
:1045D000A5EB0B00401C5FEA000A4FF000064E4FAF
:1045E000DFF83891B046504615D5CAF1000413E003
:1045F000119801244AA3012801D16FEA0B01029806
:10460000119AC0E90031C0E9024206B0BDE8F09F4E
:10461000CBF10000DFE704460021404A491842EB95
:104620000450CDE9001012E0E00707D032463B46C7
:1046300040464946FBF76FFF8046894632463B4677
:1046400010461946FBF767FF06460F466410002C1C
:10465000EAD1DDE90401DDE90023BAF1000F06DA51
:10466000FBF759FF42464B46FBF755FF05E0FBF7CA
:10467000C4FF42464B46FBF7C0FF04460E460022ED
:10468000284BFCF7BBF903D84FF0FF30014607E099
:104690000022254B20463146FBF796FEFCF796F9A3
:1046A000102409E0002C0ADB0A220023FCF79AF808
:1046B000039B30321A55641E50EA0102F2D1641C89
:1046C000039AC4F111031444119A012A03D0012260
:1046D00008430DD10AE0084304D000204FF0110B2D
:1046E000119072E7A3EB0B056D1E0DE05B4504DD39
:1046F0004FF0000205F1010504E003DA4FF000027B
:10470000A5F10105002AECD002981199C0E9023107
:10471000C0E9004579E70000000014400000F03FC8
:10472000300000000000F0430000E03F2DE9FF4FA3
:1047300095B09B468946064600250FE2252877D18D
:1047400000242746F84A0121059400E0044316F8A6
:10475000013F203B01FA03F01042F7D130782A28BC
:1047600011D06FF02F033078A0F13002092A16D84B
:10477000059A44F0020402EB820203EB4202104469
:10478000761C0590EFE759F8042B0592002A03DA0E
:10479000504244F40054059044F00204761C3078F2
:1047A0002E2816D116F8010F44F004042A280DD043
:1047B0006FF02F023078A0F13003092B09D807EBF6
:1047C000870302EB4303C718761CF3E759F8047B11
:1047D000761C30786C280FD006DC4C2817D068285F
:1047E0000DD06A2814D104E0742810D07A280FD193
:1047F0000DE044F400140AE044F4801401E044F4B1
:1048000040147278824202D104F58014761C761C22
:10481000307866280BD013DC582877D009DC0028C4
:1048200075D04528F6D04628F4D047281AD19DE106
:1048300018E0632835D0642879D0652812D195E135
:10484000702873D008DC6728F1D069286FD06E28F3
:104850000DD06F2806D1B5E073282CD0752875D0FF
:10486000782874D05A46179990476D1C75E1C4F3A7
:104870000250022809D003280DD0D9F800100428CE
:104880000DD00D6009F1040967E1D9F80010EA17AD
:10489000C1E90052F6E7D9F800100D80F2E70D707B
:1048A000F0E719F8041B8DF8001000208DF80100C6
:1048B000EA46012003E059F804AB4FF0FF306107EE
:1048C0004FF0000102D40DE008F101018846B94221
:1048D0000FDA8045F8DB1AF808100029F4D108E057
:1048E00008F1010188468142FADB1AF80810002914
:1048F000F6D105985B46A0EB080721463846179A83
:1049000000F094FA284400EB080507E04DE029E1A7
:104910000DE01AF8010B5A4617999047B8F10108B3
:10492000F7D25B4621463846179A13E142E00A2245
:104930000092C4F302524FF0000A022A08D059F83C
:1049400004CB032A4FEAEC710AD00DE029E02AE0FB
:1049500009F1070121F00702F2E802C1914609E0DE
:104960000FFA8CFC4FEAEC71042A03D14FFA8CFC4D
:104970004FEAEC71002907DA0A460021DCF1000C4D
:1049800061EB02012D2202E0220504D52B228DF8D5
:104990000420012203E0E20701D02022F7E790463D
:1049A00059E00A2102E010220DE010214FF0000A28
:1049B00000910BE010224FF0000A44F00404082795
:1049C000009203E008224FF0000A0092C4F3025262
:1049D000022A05D059F804CB0021032A08D009E0A7
:1049E00009F1070121F00702F2E802C1914605E052
:1049F0001FFA8CFC042A01D10CF0FF0C4FF00008C8
:104A0000220728D5702806D0009B83F0100353EAB4
:104A10000A0305D00EE040228DF80420012208E0B0
:104A20005CEA010206D030228DF804208DF80500E2
:104A300002229046009B83F0080353EA0A030AD13E
:104A40005CEA010201D1620705D530228DF804200D
:104A50004FF001087F1E582804D034A003900EA800
:104A600002900DE036A0F9E753466046009AFBF746
:104A7000B9FE84460398825C0298401E0290027040
:104A80005CEA0100F0D1029806A9081A00F1200A98
:104A9000600702D524F4803400E00127574502DD89
:104AA000A7EB0A0000E0002000EB0A010090059847
:104AB0004144401A0590E00306D45B462146179A0C
:104AC000059800F0B3F90544002706E001A85A460E
:104AD000C05D179990476D1C7F1C4745F6DBE003CE
:104AE0000CD55B462146179A059800F09FF90544BE
:104AF00004E030205A46179990476D1C0099481ED3
:104B000000900029F5DC08E0029802995A460078E6
:104B1000491C0291179990476D1CBAF10001AAF146
:104B2000010AF1DC65E1000009280100303132336F
:104B300034353637383961626364656600000000D9
:104B400030313233343536373839414243444546C3
:104B50000000000000F058F90544761C3078002869
:104B60007FF4ECAD19B02846BDE8F08F620700D4A1
:104B7000062709F1070222F0070CFCE80223E146B0
:104B800003F000485FEA080C02D00FF2702C0DE031
:104B90005FEA045C02D50FF2682C07E05FEAC47C90
:104BA00002D00FF2602C01E0AFF2700C4FF0FF3832
:104BB00023F00043CDF850C065280CD006DC452812
:104BC00009D046281DD047283DD13DE0662818D0A1
:104BD00067287ED138E00021112F01DB112000E091
:104BE000781CCDE9000106A90EA8FFF7DDFCDDE980
:104BF0000F010E9A03910021009207F1010A04911E
:104C00004DE04FF000400097CDE9011006A90EA835
:104C1000FFF7CAFCDDE90F0203920E9B11990022F7
:104C2000DDF80CA00093049211B9791C00EB010A85
:104C3000B7EB0A0004D4C0F1FF3007F1010A049079
:104C4000AAEB0700019044E0012F00DA01270021C0
:104C5000112F01DD112000E03846CDE9000106A941
:104C60000EA8FFF7A1FCDDE90F010E9A03910021C8
:104C700004910092BA4621070CD40399514500DAF9
:104C80008A46BAF1010F05DD009AAAF10101515CD3
:104C9000302908D0B84202DA10F1040F06DA0121F7
:104CA000CDE9011015E0AAF10101E9E7002805DCD2
:104CB000049901440491AAEB000102E0411C514512
:104CC00000DD8A460499401A401C01904FF00040D4
:104CD0000290200704D40198504501DBCDF80480F0
:104CE00000208DF84F0002980DF14F07B0F1004FF2
:104CF00025D02B200E9002984FF0020800280CDAE5
:104D0000404202902D200E9007E00A210298FBF706
:104D100053FD3031029007F8011DB8F10001A8F1F0
:104D20000108F2DC02980028EFD1791E0E98087075
:104D3000307800F0200040F0450007F8020D12A87E
:104D4000C01B00F107081498007800B1012000EBA7
:104D50000A01019801EBE07105984144401A401E98
:104D60000590E00306D45B462146179A059800F0AB
:104D70005DF805441498007818B15A461799904781
:104D80006D1CE00324D55B462146179A059800F078
:104D90004DF805441CE00498002807DBDDE9030119
:104DA000884203DD0098405C179901E01799302094
:104DB0005A469047049805F10105401C049001985B
:104DC000401E019004D12E205A46179990476D1C21
:104DD000BAF10001AAF1010ADDDC05E017F8010BC8
:104DE0005A46179990476D1CB8F10001A8F10108C7
:104DF000F4DC5B462146179A0598ABE62D000000CF
:104E00002B000000200000002DE9F04104460025A1
:104E10001E461746880404D405E039462020B047D2
:104E20006D1C641EF9D52846BDE8F0812DE9F041DE
:104E3000044600251E469046C80301D5302700E0F1
:104E40002027880404D505E041463846B0476D1C4C
:104E5000641EF9D52846BDE8F0810A68531C0B6032
:104E60001070704700000000000000000102030401
:104E7000060708090000000001020304000000000A
:104E800000000000002F00000000070007000014D1
:104E90007F147F1400242A7F2A12006264081323DF
:104EA00000364955225000000503000000001C2276
:104EB0004100000041221C000014083E08140008B4
:104EC000083E0808000000A0600000080808080864
:104ED000000060600000002010080402003E5149FC
:104EE000453E0000427F400000426151494600219A
:104EF00041454B31001814127F10002745454539B4
:104F0000003C4A494930000171090503003649490E
:104F1000493600064949291E0000363600000000C7
:104F20005636000000081422410000141414141412
:104F300000004122140800020151090600324959BB
:104F4000513E007C1211127C007F49494936003ED7
:104F500041414122007F4141221C007F4949494192
:104F6000007F09090901003E4149497A007F08088C
:104F7000087F0000417F4100002040413F01007F49
:104F800008142241007F40404040007F020C027F15
:104F9000007F0408107F003E4141413E007F090927
:104FA0000906003E4151215E007F0919294600464D
:104FB000494949310001017F0101003F4040403F24
:104FC000001F2040201F003F4038403F006314086E
:104FD0001463000708700807006151494543000049
:104FE0007F41410000552A552A55000041417F006C
:104FF0000004020102040040404040400000010261
:105000000400002054545478007F48444438003849
:105010004444442000384444487F003854545418D1
:1050200000087E0901020018A4A4A47C007F0804E3
:1050300004780000447D4000004080847D00007FB3
:10504000102844000000417F4000007C04180478D0
:10505000007C0804047800384444443800FC2424CC
:1050600024180018242418FC007C080404080048B4
:105070005454542000043F444020003C4040207CD5
:10508000001C2040201C003C4030403C00442810C4
:105090002844001CA0A0A07C004464544C44141478
:1050A00014141414000000000000000000000000B0
:1050B00000000000000000F80000000000000033C5
:1050C0003000000000100C06100C0600000000006C
:1050D0000000000040C07840C0784000043F040455
:1050E0003F040400007088FC08300000001820FF16
:1050F000211E0000F008F000E018000000211C0351
:105100001E211E0000F00888700000001E212324CC
:105110001927211010160E000000000000000000EA
:1051200000000000000000E018040200000000077A
:105130001820400000020418E00000000040201881
:1051400007000000404080F0804040000202010F54
:1051500001020200000000F0000000000101011F38
:1051600001010100000000000000000080B070009C
:10517000000000000000000000000000000101012C
:1051800001010101000000000000000000303000BB
:105190000000000000000000806018040060180695
:1051A0000100000000E010080810E000000F1020CF
:1051B00020100F00001010F8000000000020203F19
:1051C00020200000007008080888700000302824A3
:1051D0002221300000300888884830000018202044
:1051E00020110E000000C02010F800000007042469
:1051F000243F240000F808888808080000192120AE
:1052000020110E0000E0108888180000000F112007
:1052100020110E0000380808C83808000000003FC0
:10522000000000000070880808887000001C22211F
:1052300021221C0000E010080810E00000003122CC
:1052400022110F00000000C0C0000000000000306C
:1052500030000000000000800000000000008060BE
:10526000000000000000804020100800000102043F
:105270000810200040404040404040000404040426
:1052800004040400000810204080000000201008E2
:1052900004020100007048080808F0000000003017
:1052A00036010000C030C828E810E00007182724A5
:1052B00023140B000000C038E0000000203C230253
:1052C0000227382008F8888888700000203F2020B6
:1052D00020110E00C03008080808380007182020E8
:1052E0002010080008F808080810E000203F2020DF
:1052F00020100F0008F88888E8081000203F2020C0
:105300002320180008F88888E8081000203F2000B3
:1053100003000000C03008080838000007182020EB
:10532000221E020008F808000008F808203F2101AA
:1053300001213F20000808F8080800000020203F55
:105340002020000000000808F8080800C0808080C5
:105350007F00000008F888C028180800203F2001BE
:105360002638200008F8080000000000203F202018
:105370002020300008F8F800F8F80800203F003F2F
:10538000003F200008F830C00008F808203F200047
:1053900007183F00E01008080810E0000F10202058
:1053A00020100F0008F808080808F000203F21012D
:1053B00001010000E01008080810E0000F18242484
:1053C00038504F0008F8888888887000203F2000F7
:1053D000030C3020007088080808380000382021AD
:1053E00021221C00180808F8080818000000203FB7
:1053F0002000000008F808000008F808001F20201E
:1054000020201F000878880000C8380800000738EE
:105410000E010000F80800F80008F800033C07003F
:10542000073C0300081868808068180820302C03A7
:10543000032C30200838C800C83808000000203F7E
:105440002000000010080808C8380800203826216D
:1054500020201800000000FE020202000000007F71
:1054600040404000000C30C000000000000000017F
:105470000638C00000020202FE000000004040406A
:105480007F0000000000040202020400000000008F
:10549000000000000000000000000000808080800C
:1054A00080808080000202040000000000000000F4
:1054B000000000000000808080800000001924228D
:1054C00022223F2008F8008080000000003F1120C9
:1054D00020110E000000008080800000000E1120CE
:1054E00020201100000000808088F800000E1120AC
:1054F00020103F200000808080800000001F2222BA
:1055000022221300008080F0888888180020203F25
:10551000202000000000808080808000006B949438
:105520009493600008F8008080800000203F2100F4
:1055300000203F2000809898000000000020203FBD
:1055400020200000000000809898000000C08080AB
:10555000807F000008F8000080808000203F240247
:105560002D302000000808F8000000000020203F37
:10557000202000008080808080808000203F2000EC
:105580003F20003F8080008080800000203F21007D
:1055900000203F200000808080800000001F20202D
:1055A00020201F00808000808000000080FFA1205C
:1055B00020110E000000008080808000000E11206D
:1055C00020A0FF80808080008080800020203F21FC
:1055D00020000100000080808080800000332424AF
:1055E00024241900008080E0808000000000001F5B
:1055F000202000008080000000808000001F20200C
:1056000020103F20808080000080808000010E30CC
:105610000806010080800080008080800F300C032D
:105620000C300F0000808000808080000020312E30
:105630000E312000808080000080808080818E700C
:105640001806010000808080808080000021302CBE
:105650002221300000000000807C020200000000D7
:10566000003F40400002027C800000000040403FBC
:105670000000000000000000FF000000000000002B
:10568000FF000000010202030405060708090A0BD7
:105690000C0D0E0F1010676972644E756D3A25641B
:1056A0002020202000783A25642000793A256420C3
:1056B0000062617474657279566F6C746167653AE3
:1056C000252E31665600413A252E32666D2F732005
:1056D000423A252E32666D2F7300000000570008F5
:1056E0000000002030000000884500083057000806
:1056F0003000002018070000984500080000000056
:10570000CDCCCC3DCDCCCC3D010000001000000044
:10571000AED580A83FD30040A1C8DA1281CFD9F11D
:10572000DB40A4A68D14AF000024F400FFFFFFFFB0
:0400000508000131BD
:00000001FF
