:020000040800F2
:10000000200700204501000895460008A13B000894
:1000100021450008210A000895530008000000004F
:1000200000000000000000000000000079510008FE
:10003000450A000800000000755100085D520008E4
:100040005F0100085F0100085F0100085F01000810
:100050005F0100085F0100085F0100085F01000800
:100060005F0100085F0100085F0100085F010008F0
:100070005F0100085F0100085F0100085F010008E0
:100080005F0100085F0100085F0100085F010008D0
:100090005F0100085F0100085F0100085F010008C0
:1000A0005F010008655200085F0100085F01000859
:1000B0005F010008715200085F0100085F0100083D
:1000C0005F0100085F0100085F0100085F01000890
:1000D0005F0100085F010008895300085F01000804
:1000E0005F0100085F0100085F0100085F01000870
:1000F0005F0100085F0100085F0100085F01000860
:100100005F0100085F0100085F0100085F0100084F
:100110005F0100085F0100085F0100085F0100083F
:100120005F0100085F0100085F0100085F0100082F
:10013000DFF80CD000F0CCFB004800471D5400084D
:10014000200700200648804706480047FEE7FEE7F4
:10015000FEE7FEE7FEE7FEE7FEE7FEE7FEE7FEE777
:100160006152000831010008F0B480EA0102D40FA6
:100170004200B2EB410F02D20246084611464A0045
:1001800042D0C30DDDB2C1F3C752AD1A202D35DA0E
:10019000C1F3160141F4000204B15242C5F1200638
:1001A00002FA06F12A411044B3EBD05F23D0C4B168
:1001B000012DA0EBC35009DCF0BC4FF0004202EA75
:1001C000C352DBB200F5000000F0C6BA400000F1F7
:1001D000807000EBC350A0F1807040EAD1704900FC
:1001E00009E0490841EAC071A0EBC35000F50000E6
:1001F000400800EBC350F0BC00F0A5BA61420122F8
:1002000002EB4101001BF6E7F0BC704781F00041B2
:10021000AAE780F00040A7E780EA010210B502F0EB
:100220000043400022D04A001FD0010E01EB1261B2
:10023000C0F35600C2F3560240F4000042F400023C
:10024000A0FB022000047F39140400D0401C50EAB7
:10025000124001D44000491EC2B20C0604EBD0107B
:10026000401C4008802A02D003E0002010BD20F08E
:100270000100002900DA0020184310BD2DE9FE4FCF
:10028000804681EA0300C00F0C46009021F0004137
:1002900023F00045B8EB0200A94105D240462146B3
:1002A00090461C460B46024623F00040104347D0C0
:1002B000270DC7F30A00C3F30A510290401A0190B8
:1002C00040286BDAC3F3130040F4801B0098924679
:1002D00020B10023D2EB030A63EB0B0B01985946C4
:1002E000C0F14002504600F00DFA06460D46504659
:1002F0005946019A00F015FA10EB080061410024FC
:1003000087EA115284EAE7731A4340D0009A62B335
:10031000019A012A4FEA075215DC001B61EB02012A
:100320004FF0004202EA0752CDE90042001C41F5BD
:10033000801132462B4600F04CFA03B0BDE8F08F36
:1003400040462146F9E7001B61EB0201001C41F524
:10035000801300185B412018A2F5001747EB03013A
:1003600040EAD570B6196D4111E06D084FEA3606C6
:1003700045EAC0754FEA0752001B61EB0201001C01
:1003800041F5801149084FEA3000001951413246C9
:100390002B4603B0BDE8F04F00F00CBA00980122E4
:1003A00040000023D0EB020263EBE073009821468B
:1003B0004FEAE074B8EB000061EB0401E9E783F079
:1003C00000435BE781F0004158E72DE9FE4F81EAE9
:1003D000030404F0004421F0004100944FF0000BAE
:1003E00023F0004350EA01045ED052EA03045BD0DC
:1003F000C3F30A54C1F30A552C44A4F2F334019414
:10040000A0FB0254C1F3130141F48011C3F31303A1
:1004100043F4801301FB024400FB034E840A970A55
:1004200044EA815447EA8357A4FB076802958D0A82
:1004300005FB07854FEA932C04FB0C542705029D0E
:100440004FEA065847EA1637B5EB08056EEB070C7E
:10045000870E920E47EA811742EA8312A7FB020138
:10046000B6EB0B0164EB00042B0D43EA0C335E1872
:1004700044EB1C50DA465146E7FB0201C5F3130476
:100480004FEA0B3343EA14534FEA0432019C43EA28
:100490000603A4F10C040294009CCDE900B400F022
:1004A00098F903B0BDE8F08F00200146F9E72DE987
:1004B000F04D81EA030404F0004B21F0004514469E
:1004C0004FF0000A23F0004150EA050220D054EA20
:1004D00001021DD0C5F30A570246C5F31303C1F349
:1004E0001300C1F30A5640F4801543F48013A7EBC0
:1004F0000608101BD64608F2FD3873EB050002D340
:1005000008F1010801E092185B41B8F1000F03DA2D
:1005100000200146BDE8F08D00204FF48011064612
:1005200084460EE0171B73EB050705D3121B63EB24
:10053000050306434CEA010C49084FEA30009218C3
:100540005B4150EA0107EDD152EA030012D082EA82
:10055000040083EA0501084305D0101BAB4106D215
:100560000122002306E000224FF0004302E06FF07A
:10057000010253101AEB06004CEB085110EB0A0075
:1005800041EB0B01BDE8F04D00F014B9002801DB90
:10059000C0F10040002901DBC1F10041814201D3DB
:1005A0000120704700207047C10F80EAE0700844C6
:1005B000CA079623002100F0CFB8962300221146E7
:1005C00000F0CAB80EB5C10F80EAE0700844CA074F
:1005D000002140F233438DE80E000A460B4600F03E
:1005E000F8F803B000BD00F0004220F00040C10D5B
:1005F000C0F3160040F400007F2901DA00207047A4
:10060000962903DCC1F19601C84001E09639884083
:10061000002AF4D04042704700F0004230F0004021
:100620000AD0C10D01F56071C0F3160042EA015114
:10063000C20840071143704700200146704701F08F
:10064000004330B421F0004150EA010206D00A0D07
:10065000A2F56072C1F31301002A02DC30BC002055
:100660007047440F44EAC104C100E01830BC00EBFD
:10067000C25000F068B830B50B4601460020202279
:10068000012409E021FA02F59D4205D303FA02F59F
:10069000491B04FA02F52844151EA2F10102F1DCFF
:1006A00030BD2DE9F05F0546002092469B46884606
:1006B0000646814640241BE02846414647462246DE
:1006C00000F018F953465A46C01A914110D311460A
:1006D0001846224600F016F82D1A67EB01084F461F
:1006E00022460120002100F00DF817EB00094E41D1
:1006F000201EA4F10104DFDC484631462A46434669
:10070000BDE8F09F202A04DB203A00FA02F1002025
:1007100070479140C2F1200320FA03F3194390403F
:100720007047202A06DBCB17203A41FA02F043EA51
:10073000E07306E041FA02F3D040C2F1200291409A
:100740000843194670470029A8BF7047401C49005C
:1007500008BF20F00100704710B4B0FA80FC00FA26
:100760000CF050EA010404BF10BC704749B1CCF151
:10077000200421FA04F411FA0CF118BF01212143DD
:100780000843A3EB0C01CB1D4FEA00614FEA102098
:1007900042BF002010BC704700EBC350104400293A
:1007A000A4BF10BC7047401C490008BF20F00100E6
:1007B00010BC704710B5141E73F1000408DA401C19
:1007C00041F1000192185B411A4301D120F0010070
:1007D00010BD2DE9F04D92469B4611B1B1FA81F260
:1007E00002E0B0FA80F220329046FFF78BFF044619
:1007F0000F4640EA0A0041EA0B0153465A460843B5
:1008000013D0114653EA010019D0C8F140025046F6
:1008100000F070F805460E46504659464246FFF72E
:1008200071FF084305D0012004E020463946BDE8A9
:10083000F08D0020054346EAE0762C4337430A98C2
:100840006305E40AA0EB08000022FD0A44EA4754CD
:100850000A3002D500200146E9E701051019694177
:10086000DDE9084500196941BDE8F04DA2E7C1F393
:100870000A52C1F3130140F2FF3341F480119A424E
:1008800002DA00200146704740F233439A42A2F256
:10089000334202DC524200F02DB8FFF733BF0000B4
:1008A00030B5041E71F1000404DB4FF000444042F7
:1008B00064EB0101141E73F1000405DB1C464FF0CC
:1008C0000043524263EB0403994208BF904230BD9B
:1008D000064C074D06E0E06840F0010394E807008D
:1008E00098471034AC42F6D3FFF726FC1068000896
:1008F00030680008202A04DB203A21FA02F00021A7
:10090000704721FA02F3D040C2F12002914008431F
:1009100019467047B0B5044600688168C90709D018
:10092000816821F00101816000F056FE216889682C
:10093000C90701D10020B0BD054602E08068C007AC
:10094000F8D000F049FE411B20680329F6D38168E6
:10095000C907F3D0A06A40F01000A062E06A40F03E
:100960000100E0620120B0BDB0B582B004460020B5
:10097000019021688A68D2074FD1886840F0010051
:10098000886040F22C00C2F2000000684DF68361DE
:10099000C4F21B31A0FB0101880C01900198A0B1A9
:1009A000019801380190019878B1019801380190BF
:1009B000019850B1019801380190019828B101982F
:1009C0000138019001980028EAD100F005FE216865
:1009D0008968C9071CD1054603E000BF8068C007CD
:1009E0001AD100F0F9FD411B20680329F6D3816874
:1009F000C907F3D1A06A40F01000A062E06A40F09D
:100A00000100E062002084F82400012002B0B0BDA3
:100A1000002002B0B0BD00BF002002B0B0BD000099
:100A2000FEE7000080B5FFF7CDFD49F2FF524AF224
:100A3000A503C2F29562C3F68B73FFF7C6FCFFF7FE
:100A4000FEFD80BD70470000EFF3108072B600BF5E
:100A5000FEE7000040F2B410C2F20000006840F26D
:100A6000FC12416AC2F2000240F244031268C2F270
:100A700000031980516A4942598000214162516244
:100A80007047000070B582B004460020019094F8D1
:100A90002400012804D10225284602B070BD00BF01
:100AA000012084F824002046FFF734FF2046FFF79A
:100AB0005BFF0546002867D1A06A41F20211884316
:100AC0000230A06240F22C00C2F200000668022050
:100AD00000F0DAFFB6FBF0F0400001900198A0B101
:100AE000019801380190019878B10198013801907E
:100AF000019850B1019801380190019828B10198EE
:100B00000138019001980028EAD12068816841F0FD
:100B10000801816000F060FD21688A6812070DD429
:100B2000886840F00400886000F056FD21688968FC
:100B3000490713D401206FF0030121E0064602E0CB
:100B400088680007ECD500F047FD801B21680B2862
:100B5000F6D388680007F3D50EE000BF064602E032
:100B600080684007E6D500F037FD811B20680B291F
:100B7000F6D381684907F3D5012510206FF01201E3
:100B8000A26A11400843A062002084F8240028468D
:100B900002B070BD10B581B00022009290F8242000
:100BA000012A03D10221084601B010BD4B68012281
:100BB000062B80F8242017D8D0F800C003EB83035D
:100BC0005A1F1F23DCF834E003FA02F40B682EEA04
:100BD000040403FA02F22243CCF83420092B03EB7D
:100BE000430219D936E000BFD0F800C00C2B03EB4C
:100BF00083021DD8233A1F23DCF830E003FA02F405
:100C00000B682EEA040403FA02F22243CCF83020E7
:100C1000092B03EB43021DD8DCF810300724896848
:100C20009440A34391401943CCF81010002130E0C8
:100C3000413A1F23DCF82CE003FA02F40B682EEA99
:100C4000040403FA02F22243CCF82C20092B03EB14
:100C50004302E1D9DCF80CE01E3A0724896894408D
:100C60002EEA0404914023F001022143102ACCF81B
:100C70000C100DD142F20841C4F20101A1F10802A9
:100C800094450DD0816A41F020018162012100E08C
:100C90000021002280F82420084601B010BD00BFCA
:100CA0000A68120230D40A68102B42F400020A606B
:100CB0002CD140F22C01C2F2000109684DF683628A
:100CC000C4F21B32A1FB0212910C01EB810149001D
:100CD00000910099E1B10099013900910099C9B1E1
:100CE0000099013900910099B1B100990139009141
:100CF000009999B1009901390091009900294FF0AC
:100D00000001E8D1C5E700BF0021C2E70021C0E72C
:100D10000021BEE70021BCE70021BAE70021B8E7C7
:100D20000068C06C70470000B0B5002800F0B280C9
:100D30000446806A20B121688868C0070BD114E09E
:100D40000020E06284F82400204600F0A5F8216825
:100D50008868C00709D0886820F00100886000F02A
:100D60003BFC21688A68D20730D1A06AC00644D40F
:100D7000A06A41F2021290430230A062E36981F05E
:100D8000804080F49E3083F44022104308BF4FF42B
:100D90000023D4E9010243EA000C531EB3FA83F3A3
:100DA0005D091346B2F5807F18BF2B02207D257B9D
:100DB00001284CEA450030D135B3A56A45F020053D
:100DC000A562E56A45F00105E56226E0054602E018
:100DD0008868C007C9D000F0FFFB401B21680328CA
:100DE000F6D38868C007F3D0A06A40F01000A06274
:100DF000E06A40F00100E062A06AA06A40F01000E2
:100E0000A0620120B0BD00BFD4F818C04EF60005A6
:100E1000CFF6FF7505EB4C352B434D68B2F5807F5F
:100E200025F4694543EA05034B608B684FF2FD7575
:100E3000CFF6E17503EA050343EA00038B6001D0B6
:100E4000012A07D122690023CFF6F07303EB025287
:100E500001E000BF0022CB6A23F470031A43CA6288
:100E6000896840F6FE62CFF61F721140814207D1B9
:100E70000020E062A16A012262F30101A162B0BD1B
:100E8000A06A40F0100020F00200A062E06A40F08A
:100E90000100E0620120B0BD80B586B0014641F29C
:100EA0000000C4F20100096800F5A05291424FF021
:100EB0000001CDE9041101D006B080BD41F2180156
:100EC000C4F202010A6842F400720A600A6802F47D
:100ED00000720192019A0A6842F010020A600968E1
:100EE00001F0100101910199212102910321039147
:100EF00002A900F06DFA06B080BD0000F0B581B027
:100F000000270D460446009700F066FB21688A68BA
:100F1000D20543D406464868C00503D4C86A10F415
:100F2000700F45D040F22C00C2F20000076802208A
:100F300000F0AAFD216844F624130A69B7FBF0F01B
:100F4000C2F292431A4206D1CA6844F62413C0F290
:100F500092031A425ED00A6942F29243C1F24923D7
:100F60001A4207D1CA6842F29243C0F249031A42B8
:100F700000F0C0800A6949F24923C0F224031A42F2
:100F80004FF0FC0257D1CF681F4208BF5422009B8C
:100F900002FB00F7BB4253D3C3E000BFA06A40F09E
:100FA0002000A06284F82470012001B0F0BD00BFD1
:100FB0000868800700F1B580681C00F0A880FDB9C2
:100FC0000868800772D50868800700F1AA80086861
:100FD00080076BD50868800700F1A3800868800748
:100FE00064D50868800700F19C80086880075DD59B
:100FF00008688007E4D594E00868800700F19180D4
:1010000000F0EAFA801B2168A842F5D90868800739
:10101000F2D44BE00A6942F29243C1F249231A42E8
:101020004FF0290207D1CB6842F29247C0F249073C
:101030003B4208BF1422009B02FB00F7BB4270D268
:10104000681C4FD055BB0098B8422FD30098013090
:1010500000900098B84264D20098B84226D3009815
:10106000013000900098B8425BD20098B8421DD37E
:101070000098013000900098B84252D20098B842CF
:1010800014D30098013000900098B842DBD348E0B8
:101090000098013000900098B84233D200F09CFADA
:1010A000801BA842F4D90098B842F1D2A06A40F05F
:1010B0000400A062002084F82400032001B0F0BDE9
:1010C0000098013000900098B8422AD20098013070
:1010D00000900098B84224D2009801300090009807
:1010E000B8421ED20098013000900098B842E7D371
:1010F00017E000BF5422009B02FB00F7BB429FD3C6
:101100000FE000BF21680CE00868800709D4086878
:10111000800706D4086880075CBF08685FEA8070B3
:10112000F2D56FF012000860A06A40F40070A0626F
:10113000886800F46020B0F5602F01D1207B18B1E1
:10114000002001B0F0BD00BFA06A20F48070A06252
:10115000A06AC004F4D4A06A40F00100A06200209C
:1011600001B0F0BD10B5044690F82400012804BF7A
:10117000022010BD012084F824002046FFF7F4FB74
:1011800020B1002184F8241010BD00BF42F2044CAD
:101190002068A16AC4F2010C40F2013291430CF5BF
:1011A0007F7201F580719042A16233D0A16A21F46F
:1011B0008011A1624168490504D5A16A012363F346
:1011C0000D31A162A16A0023C9044FF0000144BFA0
:1011D000E16A21F00601E1626FF0020184F8243037
:1011E0000160816801F46021B1F5602F06D1904261
:1011F0000AD1DCF8001011F4702F05D0816841F499
:1012000080118160002010BD816841F4A0018160DF
:10121000002010BDDCF8001011F4702FC6D0A16AB8
:1012200041F48011A162DCF800104905C5D4C9E77A
:10123000014690F82100022816D10868D1E90FC3B1
:10124000026822F00E020260026822F001020260CF
:10125000012000FA03F2CCF8042081F821000020DC
:10126000002281F82020704704208863012000229A
:1012700081F820207047000080B590F821100229E5
:1012800028D1026840F2040C1368C4F2020C23F067
:101290000E03136013680CF17C018A4223F00101F4
:1012A00011601BD940F20841C4F202018A4249D0C0
:1012B00040F21C41C4F202018A4247D040F2304160
:1012C000C4F202018A4245D14FF48073CCF8003455
:1012D0005DE000BF04218163012080BD4321C4F291
:1012E00002018A420EDD6B21C4F202018A421BDC3C
:1012F0004421C4F202018A423CD05821C4F20201C6
:101300008A4233E00821C4F202018A4236D01C210D
:10131000C4F202018A4237D03021C4F202018A426B
:1013200024D14FF4807230E06C21C4F202018A4271
:1013300026D08021C4F202018A4217D14FF0807278
:1013400023E000BF0123CCF8003420E01023CCF8C8
:1013500000341CE00CF588614FF480338A4208BFEA
:101360004FF48053CCF8003411E000BF4FF48032CA
:101370000BE000BF4FF4805207E000BF012204E001
:101380004FF4801201E000BF1022CCF800200121B0
:1013900080F82110426B002180F820100AB190479C
:1013A0000021084680BD0000B0B5044600F014F9E5
:1013B000054640F20C00C2F200000078611C18BF24
:1013C000044400BF00F008F9401BA042FAD3B0BDAE
:1013D0002DE9F04F82B0D1F800C0BCF1000F00F051
:1013E000F180A0F1804241F60045A2F58432C4F2BA
:1013F000010540F2004E4FEAB2240627A842C4F28B
:10140000010E08BF0527052C4FF000044FF001081E
:101410004FF00F034FF0000A4FF0000B38BF4FEAB8
:10142000B22700970AE000BFD1F800C00AF1010A14
:101430003CFA0AF204F1040400F0C48008FA0AF944
:101440001CEA090FF0D04E684FF6FF72C1F210028D
:10145000964211DC122E55D8DFE806F0340A4448D3
:10146000545454545454545454545454544C50009C
:10147000D1F80CB046E000BF4FF6FF72C1F2210276
:1014800096420FDC0022C1F2110296421AD00022CD
:10149000C1F21202964215D00022C1F221029642F8
:1014A00010D02FE00022C1F2220296420AD0002280
:1014B000C1F23102964205D00022C1F232029642B8
:1014C00020D100BF8A684AB1012A14BFC0F8149025
:1014D000C0F810904FF0080B14E000BF4FF0040B61
:1014E00010E000BFCA6802F1080B0BE04FF0000BE0
:1014F00008E000BFCA6802F1040B03E0CA6802F109
:101500000C0B00BF22460646BAF1080F24BF203A52
:101510000436376803FA02F5AF430BFA02F23A4396
:101520003260CA79D2067FF57FAF41F21807C4F264
:1015300002073A684FF6084342F001023A603A68FF
:10154000CFF6FF7302F001020192019A2AF0030222
:1015500072440F25D75804F00C06B540AF43009DE8
:1015600005FA06F63743D7504E6840F20C45F202B2
:10157000DEF8082054BF22EA090242EA0902CEF846
:101580000820C4F201052A68B70254BF22EA090202
:1015900042EA09022A60DEF80420B70354BF22EAB7
:1015A000090242EA0902CEF804200F23DEF80020E7
:1015B000F70354BF22EA090242EA0902CEF80020EA
:1015C00032E700BF02B0BDE8F08F0000002A08BF7C
:1015D000090401617047000040F21C30C2F20000B3
:1015E0000068704770B5B8B3044690F83D0028B95C
:1015F000002084F83C00204600F05CF9242084F8A8
:101600003D002068016821F001010160016841F49A
:1016100000410160016821F40041016000F022FCFA
:1016200048F28041C0F21E0140F60013D4F804E0F5
:1016300088424FF00001C0F23D0348F2A16C4FF028
:10164000000238BF01219842C0F2010C38BF0122CC
:10165000E64538BF0A460AB1012070BD4DF68361E8
:10166000C4F21B31A0FB01122168950C4B684FF4AA
:10167000967623F03F0343EA9243754344F6D356EC
:101680004B60C1F262060B6AA5FB0656B50923F052
:101690003F03E64538BF950C6A1C1A430A62CA69C3
:1016A00048F2A0664CF6FF73C0F20106B64522EA86
:1016B00003020BD801384FEA4E03B0FBF3F00130C0
:1016C0006FF31F30042898BF04201EE0A368013880
:1016D00063B119230EFB03F3B0FBF3F001306FF39A
:1016E0001F3078B100F5804008E000BF0EEB4E03DC
:1016F000B0FBF3F001306FF31F3028B100F500406C
:1017000003E000BF012000E001201043C861086829
:10171000D4E9072320F0C00010431843086088680C
:1017200048F2FF3204F10C0690434CCE18431043AC
:10173000A5698860C86820F0FF0030432843C8606E
:10174000086840F00100086000202021206484F82F
:101750003D10206384F83E0070BD00002DE9F04389
:1017600083B0994616460F460446FFF735FF94F8B6
:101770003D10202920D10546206800BF81698907D6
:1017800016D5FFF729FF411B20681A29F6D3816976
:101790008907F3D500202021206384F83D1084F8C8
:1017A0003E00216C41F02001216484F83C0003E0FC
:1017B00094F83C10012903D1022003B0BDE8F08366
:1017C000012284F83C200368DDE90B180A9ADB0744
:1017D00003D1036843F001030360036823F400634B
:1017E0000360212084F83D00402084F83E00002062
:1017F000206462626185608D394620850020CFF6C5
:10180000FF70E062204632464B46CDF800800195DD
:1018100002F0C8F920B1012003B0BDE8F08300BF99
:10182000208D98B9204641462A4602F01FFA88B317
:10183000206C0428EFD12068016841F40071016038
:10184000012003B0BDE8F0830004EBD02046414600
:101850002A4602F0C5FB0028EAD1616A22680846E0
:1018600010F8013B1361238D6062581E2085678D3F
:10187000013F678557697F07E6D50704E4D04878BC
:101880001061881C6062981E2085618D0139618518
:10189000DAE700BF2068016841F400710160202090
:1018A00084F83D00002084F83E0084F83C0003B03A
:1018B000BDE8F08310B586B045F200410068C4F27F
:1018C000000100228842049202D006B010BD00BF81
:1018D00041F21804C4F20204206840F008002060BD
:1018E000206800F0080001900198C02002901220AA
:1018F00003900320059001F5384002A9FFF768FD29
:10190000606840F400106060606800F400100190AE
:10191000019806B010BD000040F20C0040F21C31EE
:10192000C2F20000C2F2000100780A6810440860A8
:101930007047000080B542F20000C4F20200016866
:1019400041F010010160032000F08EF80F2000F03C
:1019500005F800F027F8002080BD000070B540F2C7
:101960000C06C2F2000640F22C013278C2F20001ED
:101970004FF47A730968B3FBF2F20446B1FBF2F15B
:10198000084600F09DFC0F2C4FF0010508D838B92F
:101990004FF0FF3021460022002500F039F8746036
:1019A000284670BD82B041F21800C4F202000168FE
:1019B000022241F001010160016801F00101019181
:1019C0000199416841F080514160406800F08050C9
:1019D000009000980420C4F20100016862F31A61CB
:1019E000016002B070470000002848BF7047C1B2D4
:1019F00000F01F00012202FA00F04EF20012CEF2B7
:101A0000000242EAD10121F00301086070470000A2
:101A100010B54EF60C5CCEF2000CDCF80030C3F3CF
:101A2000022E8EF00704042C28BF0424BEF1030309
:101A30004FF0FF3E0EFA04F438BF0023A143994053
:101A40000EFA03F39A43114300F00F0200F16043D2
:101A50000901043A03F564436244002848BF02F1D7
:101A60000C03197010BD00004EF60C51CEF20001AF
:101A70000A684FF6FF031A4060F30A2242F08060C2
:101A800040F0FD700860704780B5411E0F294FF08F
:101A9000000039D8DFE801F00C2A38083838380857
:101AA000383838383838383ABDE8804000F002BA63
:101AB00041F20400C4F20200C16940F202320A405D
:101AC000B2F5817F04BF4FF4004080BD01F4407146
:101AD000B1F5407F4CD0B1F5007F51D1006A49F695
:101AE0004041800701EAE07080BD00BF00F0CEF900
:101AF00041F20401C4F2020109680222C1F38131FA
:101B000002EB4101B0FBF1F080BD00BF41F20401E6
:101B1000C4F202010A6851F8040CC0015CBF002045
:101B200080BDC2F3834017A3185CD20306D440F6ED
:101B30000012C0F23D0250430CE000BF0A6815A33A
:101B4000C2F340429A5C41F20023C0F27A03B3FB35
:101B5000F2F250430968490248BF80BD4AF6AB2102
:101B60004000CAF6AA21A0FB0101480880BD00BFC1
:101B700050F8040C4FF22441800301EAE07080BD6C
:101B8000002080BD02030405060708090A0B0C0D9E
:101B90000E0F1010010200002DE9F04182B0044642
:101BA000007841F21C06C007C4F202064AD0306831
:101BB00010F0805808D1306840F0805030603068B4
:101BC00000F080500190019847F20007C4F200072E
:101BD0003868C00512D4386840F480703860FFF768
:101BE000FBFC05463868C00508D4FFF7F5FC401B30
:101BF0006428F7D9032002B0BDE8F081706810F4C2
:101C0000407012D0616801F4407188420DD0706854
:101C100040F24042C4F24222012320F4407113609A
:101C20000023C007136071602AD17068616820F4D6
:101C300040700843B8F1000F706003D1306820F0A5
:101C4000805030602068810707D556F8181CA268BC
:101C500021F44041114346F8181CC00604D400206A
:101C600002B0BDE8F08100BF56F8180C616920F49D
:101C70008000084346F8180C002002B0BDE8F0814F
:101C8000FFF7AAFC054641F2883700BF706880075D
:101C9000CBD4FFF7A1FC401BB8424FF00300F5D9AD
:101CA000EBE700002DE9F04381B0002800F08580CB
:101CB00042F20008C4F202080446D8F800000D46BB
:101CC00000F0070088420CD2D8F8000020F007008E
:101CD0002843C8F80000D8F8000000F00700A84228
:101CE0006BD1206841F204098107C4F2020917D5BB
:101CF000410705D5D9F8001041F4E061C9F800109A
:101D0000010705D5D9F8001041F46051C9F8001059
:101D1000D9F80010A26821F0F0011143C9F80010B1
:101D2000C00741D1D8F8000000F00700A8420CD944
:101D3000D8F8000020F007002843C8F80000D8F8C1
:101D4000000000F00700A84237D12068410707D5FE
:101D5000D9F80010E26821F4E0611143C9F80010DD
:101D6000000708D5D9F80000216920F4605040EA46
:101D7000C100C9F80000D9F8002002F00C000828C2
:101D800041F20020C0F27A0050D146F2A273C2F3B1
:101D90008341C0F60003595CD2033BD440F60010E7
:101DA000C0F23D00484341E0606802280AD00128A3
:101DB0002AD159F8041C890308D4012001B0BDE8D8
:101DC000F08300BF59F8041C8901F6D5D9F800103A
:101DD00021F003010843C9F80000FFF7FDFB0646A8
:101DE00041F28837D9F80000616800F00C00B0EBD0
:101DF000810F97D0FFF7F0FB801BB842F2D9032088
:101E000001B0BDE8F08300BF59F8041C8907D4D5A0
:101E1000DCE700BFD9F8002046F2A073C2F34042CD
:101E2000C0F600039A5C4843B0FBF2F0D9F800100A
:101E300045F68072C1F30311C0F60002515C40F216
:101E40002C0220FA01F140F21000C2F200000068FA
:101E5000C2F200021160FFF781FD002001B0BDE871
:101E6000F083000040F22C0041F20401C2F20000B5
:101E7000C4F202010068096845F69072C1F30221BC
:101E8000C0F60002515CC8407047000040F22C00D0
:101E900041F20401C2F20000C4F2020100680968C4
:101EA00045F69072C1F3C221C0F60002515CC840F1
:101EB0007047000041F2040CC4F2020CDCF8003060
:101EC00003F00C00082841F20020C0F27A0018BF8D
:101ED000704746F2A271C3F38342C0F600018A5CE8
:101EE000D90305D440F60010C0F23D0050437047BE
:101EF000DCF8001046F2A073C1F34041C0F60003C5
:101F0000595C5043B0FBF1F0704700002DE9F041FF
:101F100082B0002868D00446007841F20006C0076D
:101F2000C4F2020625D0706800F00C0004281BD013
:101F3000706800F00C00082802D17068C00313D448
:101F40006068002800F06881B0F5A02F00F07C8167
:101F5000B0F5803F00F07C81306820F48030306044
:101F6000306820F4802076E13068800301D5606815
:101F7000D0B32078800718D5706810F00C0F07D008
:101F8000706800F00C0008286ED17068C0036BD434
:101F90003068800702D52069012825D13068616941
:101FA00020F0F80040EAC1003060207800071FD41C
:101FB0002078400732D4E56995B1706800F00C00D4
:101FC000082840F08F80012D0ED07068216A00F43F
:101FD00080328A4208D1616A00F47010884203D1CD
:101FE000002002B0BDE8F081012002B0BDE8F08120
:101FF000A069002862D00020C4F242200121C0F86C
:102000008014FFF7E9FA0546706A800700F18C80BA
:10201000FFF7E2FA401B0228F6D92AE1F06910F036
:10202000805808D1F06940F08050F061F06900F00C
:1020300080500090009847F20007C4F2000738680B
:10204000C00529D4386840F480703860FFF7C4FABE
:10205000054600BF3868C0051ED4FFF7BDFA401B17
:102060006428F7D905E100BF2069002840F200008C
:10207000C4F2422000F0828001210160FFF7ACFA37
:10208000054600BF306880073FF588AFFFF7A4FA28
:10209000401B0228F6D9ECE0E068002800F08080C0
:1020A000052800F09780012800F09880306A20F021
:1020B00001003062306A20F0040092E00020C4F297
:1020C00042200021C0F88014FFF786FA054600BFC1
:1020D000706A80077FF56CAFFFF77EFA401B02281D
:1020E000F6D9C6E00027C4F2422700203866FFF781
:1020F00073FA022D05460BD13068800140F1BE8095
:10210000FFF76AFA401B02284FF00300F4D968E792
:10211000306880017FF564AFFFF75EFA401B02284C
:102120004FF00300F4D95CE740F22C00C2F200004B
:10213000006844F6D351C1F26201A0FB0101480AD4
:10214000019000BF00BF0198411E002801913FF49B
:102150002FAF00BF0198411E002801913FF428AF26
:1021600000BF0198411E002801913FF421AF00BF3C
:102170000198411E00280191E4D119E70021016076
:10218000FFF72AFA054600BF306880077FF50DAFDC
:10219000FFF722FA401B02284FF00300F4D920E792
:1021A000306A20F001003062306A20F004003062B2
:1021B000FFF712FA054641F2883700BF306A800700
:1021C00020D5FFF709FA401BB8424FF00300F5D9BC
:1021D00007E700BF306A40F004003062306A40F028
:1021E00001003062FFF7F8F9054641F2883700BF79
:1021F000306A800706D4FFF7EFF9401BB842F7D9E1
:1022000037E000BFB8F1000F7FF4D5AEF06920F0E1
:102210008050F061CFE600BF306820F4803030603D
:10222000306820F480203060FFF7D6F9054600BF03
:10223000306880037FF59DAEFFF7CEF9401B642820
:102240004FF00300F4D9CCE6306840F480203060D1
:10225000306840F480303060FFF7BEF9054600BFBB
:10226000306880033FF585AEFFF7B6F9401B642860
:10227000F6D9032002B0BDE8F08100BF206AB0F5B6
:10228000803F05D17168A26821F40031114371606B
:102290007168626A21F4741111430843706001206F
:1022A0003866FFF799F90446306880013FF598AE2B
:1022B000FFF792F9001B02284FF00300F4D990E6D3
:1022C000411E0020B0EB116F1CBF012070474EF281
:1022D0001002CEF2000251604EF62351CEF2000100
:1022E000F0230B7007219060116070477047000069
:1022F0007047000010B590F83C20012A4FF0020210
:102300003FD080F83D200268D2F804E0D2F808C03F
:102310000C682EF07003234340F6FF34C4F200042F
:10232000A242536010DCB2F1804F1FD040F2004354
:10233000C4F200039A4219D040F60003C4F200032D
:102340009A4213D017E000BF40F60043C4F20003E6
:102350009A420BD043F20043C4F201039A4205D0E3
:1023600042F60043C4F201039A4204D149682CF0BA
:102370008003194391600121002280F83D1080F80C
:102380003C20104610BD0000002804BF012070470B
:1023900010B5044690F83D0028B9002084F83C00B0
:1023A000204600F085F8022084F83D00206840F6C1
:1023B000FF330268C4F2000343F2004C9842C4F2B7
:1023C000010C21DCB0F1804F2CD040F20041C4F26E
:1023D0000001884226D040F60001C4F20001884284
:1023E00020D0984224DCB0F1804F2FD040F2004141
:1023F000C4F20001884229D040F60001C4F2000175
:10240000884223D026E000BF40F60041C4F200011C
:10241000884207D0604505D042F60041C4F2010170
:102420008842DED1A16822F070020A439842DADDC8
:1024300040F60041C4F20001884207D0604505D053
:1024400042F60041C4F20101884203D1216922F41D
:1024500040720A43A36922F08001D4F804E0E268E4
:10246000194360450160C262C0F828E005D042F619
:102470000041C4F20101884201D161690163012177
:102480004161002084F8461084F83E1084F83F1023
:1024900084F8401084F8411084F8421084F8431006
:1024A00084F8441084F8451084F83D1010BD0000F5
:1024B00080B582B0006840F60001C4F20001884295
:1024C0001ED042F60041C4F20101884225D141F2FA
:1024D0001800C4F202000168002241F400610160AA
:1024E0000068002100F40060019001981920FFF7B6
:1024F0008FFA192002B0BDE88040FFF775BA00BF1F
:1025000041F21800C4F20200416841F00401416048
:10251000406800F004000090009802B080BD000008
:1025200090F83D1001291CBF01207047022180F85E
:102530003D10006840F6FF32C168C4F200029042CC
:1025400041F00101C1600FDCB0F1804F1ED040F2BC
:102550000041C4F20001884218D040F60001C4F2E4
:102560000001884212D018E040F60041C4F2000198
:1025700088420BD043F20041C4F20101884205D0E9
:1025800042F60041C4F20101884206D1816801F09F
:102590000701062904BF00207047016841F00101CE
:1025A000016000207047000080B590F83C20012AAF
:1025B0004FF0020200F0C28080F83D20D0F800C049
:1025C0004FF67772DCF8083023EA0202CCF80820D4
:1025D0000B684F2B28DC1F2B44DD202B45D0302BE4
:1025E00043D0402B40F0AC80D1F804E0C968DCF85F
:1025F0002030DCF8202022F00102CCF82020DCF88A
:10260000182022F0F00242EA011123F00A0242EA05
:102610000E02CCF81810CCF82020DCF8081041F09D
:10262000470121F0300180E06F2B27DDB3F5005F1B
:1026300048D0B3F5805F7AD0702B40F08180D1E92B
:1026400001E3C968DCF8082043EA0E0322F47F4264
:1026500043EA01211143CCF80810DCF8081041F0DE
:10266000770162E00BB1102B6AD1DCF8081021F081
:102670007001194341F0070157E000BF502B35D0DE
:10268000602B5DD1D1F804E0C968DCF82030DCF8BB
:10269000202022F01002CCF82020DCF8182022F4B0
:1026A000704242EA013123F0A00242EA0E12CCF855
:1026B0001810CCF82020DCF8081041F0670121F058
:1026C000100132E0D1E901E3C968DCF8082043EAEF
:1026D0000E0322F47F4243EA01211143CCF8081093
:1026E000DCF8081041F480411FE000BFD1F804E09D
:1026F000C968DCF82030DCF8202022F00102CCF898
:102700002020DCF8182022F0F00242EA011123F028
:102710000A0242EA0E02CCF81810CCF82020DCF8AD
:10272000081041F0570121F02001CCF808100022D8
:10273000012180F83D10002180F83C10104680BD3A
:102740000122F5E7002804BF012070472DE9F04F72
:1027500081B0044690F83D008B4628B9002084F8EB
:102760003C00204600F0B0F8022084F83D002068CC
:1027700044F20702816840F6FF33914381600268AA
:10278000C4F2000343F2004C9842C4F2010C21DC75
:10279000B0F1804F2CD040F20041C4F200018842D9
:1027A00026D040F60001C4F20001884220D09842B1
:1027B00024DCB0F1804F2FD040F20041C4F2000180
:1027C000884229D040F60001C4F20001884223D09B
:1027D00026E000BF40F60041C4F20001884207D065
:1027E000604505D042F60041C4F201018842DED1C5
:1027F000A16822F070020A439842DADD40F60041F7
:10280000C4F20001884207D0604505D042F600417D
:10281000C4F20101884203D1216922F440720A43C3
:10282000A36922F080016268E56819436045016090
:10283000C562826205D042F60041C4F201018842BD
:1028400001D1616901630121416182688369D0F826
:1028500020C0DBE9005EDBE9027845EA020ADBF82A
:1028600018504FF6FF7923EA090347EA05254FF68A
:10287000FC47BD43DBE9077643EA0803DBF8102099
:102880002B4343EA072343EA02122CF02203DBF82E
:10289000147043EA0E0342EA063243EA0713C0F813
:1028A00008A08261036284F8461084F83E1084F820
:1028B0003F1084F8421084F8431084F83D10002043
:1028C00001B0BDE8F08F000080B586B0006840F22E
:1028D0000042C4F20002002190420591CDE90311AB
:1028E000029127D0B0F1804F4ED141F21800C4F2CE
:1028F0000200416841F001014160416801F00101BD
:1029000001910199016841F004010160006802A988
:1029100000F0040001900198032002900020CDE90E
:10292000030040F60000C4F20100FEF751FD06B0BE
:1029300080BD00BF41F21800C4F20200426842F0BC
:1029400002024260426802F002020192019A0268A9
:1029500042F004020260006800F004000190019857
:10296000C020CDE902010120049040F60000C4F22D
:10297000010002A9FEF72CFD1D2000210022FFF717
:1029800047F81D20FFF730F806B080BD80B590F8FD
:102990003E2090F83F3090F842E090F843C0042980
:1029A0000AD0B9B9012A4FF0010208BFBEF1010FE8
:1029B00034D0104680BD00BF012B4FF0010208BF8C
:1029C000BCF1010FF5D1022180F83F1080F84310CF
:1029D00000681EE0012A4FF0010208BF012BE8D178
:1029E000BEF1010FE5D1BCF1010FE2D1022280F866
:1029F0003E2080F83F2080F8422080F8432091B1AB
:102A00000068016A21F001010162016A41F00101DF
:102A1000016210216FF0100209E000BF022180F86E
:102A20003E1080F84210006801216FF00102036A35
:102A30001A400262026A114301620168002241F0F9
:102A400001010160104680BD7047000010B50168AB
:102A500004460869800744BFC8685FEA807039D4BB
:102A60000869400744BFC8685FEA40703ED40869FF
:102A7000000744BFC8685FEA007045D40869C00613
:102A800044BFC8685FEAC0604AD40869C0071CBF79
:102A9000C8685FEAC07051D10869000644BFC868C1
:102AA0005FEA006052D40869400644BFC8685FEA24
:102AB000406053D40869800646BFC8685FEA8060FA
:102AC00010BD6FF0200220460A61BDE81040FFF7FC
:102AD0000FBC00BF6FF002000861012020778869F9
:102AE000800743D02046FFF7AFFF45E06FF00400BA
:102AF000086102202077886910F4407F40D020468A
:102B0000FFF7A2FF42E000BF6FF008000861042059
:102B10002077C86980073DD02046FFF795FF3FE04A
:102B20006FF01000086108202077C86910F4407F1A
:102B30003AD02046FFF788FF3CE000BF6FF001006D
:102B40000861204600F078FA2168A5E76FF0800060
:102B500008612046FFF7CAFB2168A4E76FF0400038
:102B60000861204600F0C4FA2168A3E7204600F07F
:102B700025F8204600F0ECF92168002020776FE767
:102B8000204600F01BF8204600F0E2F92168002002
:102B900020776CE7204600F011F8204600F0D8F9C5
:102BA00021680020207769E7204600F007F82046DA
:102BB00000F0CEF921680020207766E7704700001A
:102BC0002DE9F04190F83C30012B04BF0220BDE814
:102BD000F0814FEAB202032A00F21C81DFE802F022
:102BE000024690DA036843F200461D6A1A6A25F02D
:102BF000020522F001021A621A465C6852F818EFC8
:102C00008F68D1F800C0C4F20106B34245EA070557
:102C100005D042F60047C4F20107BB4205D1CF6898
:102C200025F00C0527F004073D43B34205D042F6DA
:102C30000046C4F20106B34205D1D1E9056724F488
:102C4000407434433C432EF0730747EA0C075C6042
:102C50009F614F6809695F631D629F6947F00807BC
:102C60009F619F6927F004079F61C9E0036843F2F1
:102C700000461D6A1A6A25F0200522F010021A6229
:102C80001A46D3F804C052F8188F8F68D1F800E0C4
:102C9000C4F20106B34245EA071505D042F60047E3
:102CA000C4F20107BB4207D1CF686FF0400425F0A2
:102CB000C00504EA07142543B34205D042F6004498
:102CC000C4F20104A34206D1D1E905462CF44067C1
:102CD000264347EA860C28F4E64444EA0E27C3F864
:102CE00004C09F614F6809699F631D629F6947F433
:102CF00000679F619F6927F480679F617FE000BF45
:102D0000036843F200461D6A1A6A25F4007522F42E
:102D100080721A621A46D3F804C052F81CEF8F680A
:102D2000D1F80080C4F20106B34245EA072505D078
:102D300042F60047C4F20107BB4208D1CF6840F217
:102D4000FF443F0225F4406527EA04042543B342CB
:102D500005D042F60044C4F20104A34206D1D1E9F1
:102D600005462CF44057264347EA061C2EF073070D
:102D700047EA0807C3F804C0DF614F680969DF63E9
:102D80001D62DF6947F00807DF61DF6927F004078C
:102D9000DF6135E0036843F20047D3F820C01A6AC8
:102DA000C4F2010722F480521A621A465C6852F893
:102DB0001C5FD1F800E08E68BB4205D042F60047A8
:102DC000C4F20107BB4204D14F6924F4804444EAB1
:102DD00087142CF4005747EA063725F4E64646EAFE
:102DE0000E265C60DE614E6809691E641F62DF6941
:102DF00047F40067DF61DF6927F48067DF6109025C
:102E00001368194311600021002280F83C20084615
:102E1000BDE8F0810121002280F83C200846BDE891
:102E2000F0810000002804BF0120704710B504465F
:102E300090F83D0028B9002084F83C00204600F0BE
:102E400085F8022084F83D00206840F6FF330268D0
:102E5000C4F2000343F2004C9842C4F2010C21DC9E
:102E6000B0F1804F2CD040F20041C4F20001884202
:102E700026D040F60001C4F20001884220D09842DA
:102E800024DCB0F1804F2FD040F20041C4F20001A9
:102E9000884229D040F60001C4F20001884223D0C4
:102EA00026E000BF40F60041C4F20001884207D08E
:102EB000604505D042F60041C4F201018842DED1EE
:102EC000A16822F070020A439842DADD40F6004120
:102ED000C4F20001884207D0604505D042F60041A7
:102EE000C4F20101884203D1216922F440720A43ED
:102EF000A36922F08001D4F804E0E2681943604538
:102F00000160C262C0F828E005D042F60041C4F278
:102F10000101884201D16169016301214161002001
:102F200084F8461084F83E1084F83F1084F840106E
:102F300084F8411084F8421084F8431084F8441057
:102F400084F8451084F83D1010BD00007047000063
:102F50007047000041B1082910D0042914BF00F1C6
:102F6000410200F13F020BE090F83E20012A1CBF15
:102F700001207047022280F83E2013E000F1400259
:102F80001278012A1CBF012070470222082907D0AD
:102F9000042914BF80F8412080F83F2002E000BFE0
:102FA00080F84020006801F01F010122036A02FA44
:102FB00001F123EA01020262026A114340F6FF3284
:102FC000C4F20002904201620EDCB0F1804F25D0C5
:102FD00040F20041C4F2000188421FD040F60001D7
:102FE000C4F2000118E000BF40F60041C4F2000145
:102FF000884213D043F20042C4F2010242F600417B
:103000009042C4F2010101D088420ED1436C90423B
:1030100043F40043436401D0884206D1816801F043
:103020000701062904BF00207047016841F0010133
:1030300001600020704700002DE9F04184B040F2AB
:103040006C11C2F20001884202D004B0BDE8F081E8
:10305000FDF700FD40F23005C2F20005B5F914009D
:10306000FDF7E0FCB5F91610A8610846FDF7DAFC9B
:1030700040F20407C2F200073A6840F29C04A969D2
:10308000C2F20004E8611046224602F077F8E969CE
:10309000786804F1240202F071F8206A616C01F092
:1030A00041FAD5E90604FDF7B7FA804620460E46F8
:1030B000FDF7B2FA044638680F46FDF7ADFA029004
:1030C00046F2B270C0F6000042463346CDE90047F2
:1030D000039102F0C3FAA868411C6428A960B4DB1C
:1030E00002F05AF90021C5E9021004B0BDE8F081F0
:1030F000704700007047000070470000B0B582B014
:10310000044600680168C368426901F02F05202D5C
:1031100003F0200506D12DB1204602B0BDE8B04035
:1031200002F0B2B85FEA017C1EBF02F0010E03F4A8
:10313000907212EB0E0253D1226B012A05D111F0CD
:10314000100218BF13F0100236D10A0622D513F070
:1031500080021FD094F8411021293FD1A168B1F518
:10316000805F03D12169002900F07082216A4A1C26
:10317000226209784160E18C01390A04E1842DD191
:10318000C16821F08001C160C16841F04001C160A7
:1031900002B0B0BD490621D513F040011ED0C16870
:1031A00021F04001C1602021204684F8411002B086
:1031B000BDE8B04000F0F2BC00210191016801912E
:1031C0004168019101994069400613D4A08DE18DB9
:1031D000E28D002A18BF884240F0BA8102B0B0BD2B
:1031E000CA0718BF13F4807240F0B6804A0700F196
:1031F000B980BEE0E06B016849688AB2002AEDD070
:10320000A38D9A42EAD2E1858069202800F09C8053
:10321000206850E8030F216820F4807041E8030221
:10322000DAB1206850E8030F216820F4807041E88B
:10323000030292B1206850E8030F216820F48070E7
:1032400041E803024AB1206850E8030F216820F4E6
:10325000807041E80302002ADAD1206850E8050FA7
:10326000216820F0010041E80502DAB1206850E849
:10327000050F216820F0010041E8050292B12068A5
:1032800050E8050F216820F0010041E805024AB12D
:10329000206850E8050F216820F0010041E8050290
:1032A000002ADAD1206850E8050F216820F040009C
:1032B00041E80502DAB1206850E8050F216820F0E6
:1032C000400041E8050292B1206850E8050F2168EE
:1032D00020F0400041E805024AB1206850E8050F9F
:1032E000216820F0400041E80502002ADAD12020C0
:1032F00084F8420000202063206850E8030F216812
:1033000020F0100041E80302DAB1206850E8030F12
:10331000216820F0100041E8030292B1206850E8D3
:10332000030F216820F0100041E803024AB1206831
:1033300050E8030F216820F0100041E80302002A42
:10334000DAD1E06BFDF774FF02206063A08DE18DA0
:10335000401A81B2204674E1626C42F0010262645C
:103360004A0706D5BEF1000F03D0626C42F002029C
:1033700062648A0706D5BEF1000F03D0626C42F08A
:1033800004026264BCF1000F09D545EA0E02B2FAEC
:1033900082F2520903D1626C42F008026264626CEC
:1033A000002A3FF41BAF11F0200118BF002D03D0FD
:1033B000204601F069FF20684069616C00F0400020
:1033C00001F00801401800F0B58000BF206850E807
:1033D000030F216820F4907041E80302BAB320681B
:1033E00050E8030F216820F4907041E8030272B3A3
:1033F000206850E8030F216820F4907041E8030230
:103400002AB3206850E8030F216820F4907041E847
:103410000302002ADAD11AE0206850E8050F21687B
:1034200020F0010041E80502DAB1206850E8050FFC
:10343000216820F0010041E8050292B1206850E8BF
:10344000050F216820F0010041E805024AB120681B
:1034500050E8050F216820F0010041E80502002A2C
:10346000DAD1206B012824D1206850E8030F2168AD
:1034700020F0100041E80302DAB1206850E8030FA1
:10348000216820F0100041E8030292B1206850E862
:10349000030F216820F0100041E803024AB12068C0
:1034A00050E8030F216820F0100041E80302002AD1
:1034B000DAD1202084F8420000202063206840698F
:1034C00040063FD5206850E8050F216820F04000F5
:1034D00041E80502DAB1206850E8050F216820F0C4
:1034E000400041E8050292B1206850E8050F2168CC
:1034F00020F0400041E805024AB1206850E8050F7D
:10350000216820F0400041E80502002ADAD1E06B92
:10351000C0B145F27D21C0F600014163FDF7ACFE6C
:1035200000283FF45BAEE06B416B02B0BDE8B040F9
:10353000084700BF2046FFF7DFFD0020606402B0AF
:10354000B0BD00BF204602B0BDE8B040FFF7D4BD1B
:10355000401A216851E8031F226821F4907142E863
:103560000313DBB1216851E8031F226821F4907135
:1035700042E8031393B1216851E8031F226821F444
:10358000907142E803134BB1216851E8031F226890
:1035900021F4907142E80313002BDAD1216851E83D
:1035A000051F226821F0010142E80513DBB1216803
:1035B00051E8051F226821F0010142E8051393B18B
:1035C000216851E8051F226821F0010142E8051336
:1035D0004BB1216851E8051F226821F0010142E842
:1035E0000513002BDAD1202184F842100021216339
:1035F000216851E8031F226821F0100142E80313FB
:10360000DBB1216851E8031F226821F0100142E874
:10361000031393B1216851E8031F226821F01001C0
:1036200042E803134BB1216851E8031F226821F0DF
:10363000100142E80313002BDAD1022281B22046A6
:10364000626302B0BDE8B040FFF754BD216A31F8B3
:10365000022B6FF35F22426021628CE5002804BFD9
:103660000120704710B5044690F8410028B90020A9
:1036700084F84000204600F063F8242084F84100DC
:103680002068D4E90212C36823F40053C3600369BD
:1036900023F440531A430261D4E904231143C2685E
:1036A000194341F20C639A431143C1604169A26915
:1036B00021F44071114343F60002C4F2010290422A
:1036C000416103D0FEF7CEFB02E000BFFEF7DEFB58
:1036D0006268192148439100B0FBF1F048F21F5194
:1036E000C5F2EB11A0FB01235A094FF69C73C0F6FB
:1036F000FF7302FB0300322303EB0010A0FB010168
:10370000F02303EA5113206803EB0212C1F34311C3
:1037100011448160016921F490410161416921F006
:103720002A014161C16841F40051C160002020219B
:10373000606484F8411084F84210606310BD00009A
:1037400070B586B0006844F20041C4F20001002662
:1037500088420596CDE90366029637D043F600010C
:10376000C4F20101884266D141F21800C4F202009D
:10377000016840F6000441F4804101600168C4F230
:10378000010401F4804101910199016802AD41F009
:10379000040101600068294600F0040001900198CE
:1037A0004FF4007002900220039003200590204601
:1037B000FDF70EFE4FF4806002900020CDE903007B
:1037C00020462946FDF704FE06B070BD41F2180000
:1037D000C4F20200416840F6000441F40031416047
:1037E0004168C4F2010401F40031019101990168BA
:1037F00002AD41F0040101600068294600F00400B8
:10380000019001980420029002200390032005906B
:103810002046FDF7DDFD0820CDE9020620462946B9
:103820000496FDF7D5FD262000210022FEF7F0F8D2
:103830002620FEF7D9F806B070BD000090F842309F
:10384000202B1CBF0220704700294FF0010318BF36
:10385000002A01D1184670470023036381622221A8
:103860008285C285436480F842100169006819B1FD
:10387000C16841F48071C1604169002341F00101D8
:103880004161C16841F02001C160184670470000E5
:1038900040F2D421C2F20001884218BF704710B52F
:1038A00040F23004C2F20004207830281AD03128C7
:1038B0001FD0322826D033282BD0342804D114200E
:1038C0006FF0130100F02EFE40F2D42040F23001E0
:1038D000C2F20000C2F200010122BDE81040FFF771
:1038E000ADBF00BF1920192100F01CFE207831283F
:1038F000DFD16FF018006FF0180100F013FE207890
:103900003228D8D10020002100F00CFE2078332886
:10391000D3D16FF01300142100F004FE2078342876
:10392000D2D1CCE72DE9F04381B0044690F84100B4
:10393000202840F0B180884600294FF0010000F0B7
:10394000D6801646002A00F0D28000206064212034
:103950001D4684F84100FDF73FFEA684E684A16879
:103960000646B1F5805F03D12069002800F09880F9
:1039700047464FF00008E18C2068002900F096804F
:1039800005F101090BE000BF47B317F8011B4160C7
:10399000E18C0139E184E18C002900F08780016825
:1039A0000906F1D4B9F1000F0AD0EDB1FDF714FE0C
:1039B000801BA84218D8206801680906F6D5E3E7FD
:1039C00001680906E0D4016809065CBF01685FEA86
:1039D0000161D9D401680906F2D5D5E738F8021B90
:1039E00000276FF35F21D2E7206850E8030F2168BA
:1039F00020F4D07041E80302BAB3206850E8030F06
:103A0000216820F4D07041E8030272B3206850E8C6
:103A1000030F216820F4D07041E803022AB3206824
:103A200050E8030F216820F4D07041E80302002A17
:103A3000DAD11AE0206850E8050F216820F0010073
:103A400041E80502DAB1206850E8050F216820F04E
:103A5000010041E8050292B1206850E8050F216895
:103A600020F0010041E805024AB1206850E8050F46
:103A7000216820F0010041E80502002ADAD1202067
:103A800084F8410084F84200002084F840000320BC
:103A900001B0BDE8F08300BF022001B0BDE8F083B3
:103AA0000027E18C206800297FF46AAF016849068D
:103AB00019D4FDB1691C0DD10168490613D4016800
:103AC00049065CBF01685FEA41610CD401684906A0
:103AD000F2D508E0FDF780FD801BA8420AD82068D7
:103AE00000684006F6D5202084F84100002001B08F
:103AF000BDE8F083206850E8030F216820F4D070FF
:103B000041E80302002A3ED0206850E8030F2168F4
:103B100020F4D07041E80302AAB3206850E8030FF4
:103B2000216820F4D07041E8030262B3206850E8B5
:103B3000030F216820F4D07041E80302002AD9D194
:103B400021E000BF206850E8050F216820F0010047
:103B500041E80502002A3FF492AF206850E8050FC3
:103B6000216820F0010041E80502002A3FF487AFF8
:103B7000206850E8050F216820F0010041E80502A7
:103B8000002A3FF47CAF206850E8050F216820F040
:103B9000010041E80502002AD4D170E77047000017
:103BA000FEE700002DE9F04383B0044600680D46AF
:103BB00001680A9F0B9E41F480719946904601600E
:103BC00020464FF0011100223B46009600F0AEF86F
:103BD00050B120680068C00544BF4FF400702064F5
:103BE000032003B0BDE8F083206805F0FE01016109
:103BF0000221C0F2010120463A46334600F080F926
:103C000020B1012003B0BDE8F08300BF0020029086
:103C100020683246416902918069394602900298D3
:103C2000204600F0DDF958B1206C0428E9D1206865
:103C3000016841F400710160012003B0BDE8F08328
:103C40002068B9F1010F0AD04FEA1821016120461E
:103C50003946324600F0C4F90028E5D120685FFA01
:103C600088F10161002003B0BDE8F08370B50368FE
:103C7000044653F8140F400711D40E46481C29D0AF
:103C800086BB00BF1868400527D4FDF7A5FC236854
:103C900053F8140F400739D518684007F2D50020B3
:103CA00070BD00BF18684007F9D41868400514D4E7
:103CB00018684007F3D4186840050ED41868400708
:103CC000EDD41868400508D4186840074FF000008C
:103CD00048BF70BD18684005E4D56FF48060186077
:103CE000042014E0154603E053F8140F4007D6D41F
:103CF00018684005F1D4FDF76FFC401B2368B04203
:103D0000F2D958694007EFD4202000E0202000219C
:103D10002022216384F83D2084F83E10226C104359
:103D20002064012084F83C1070BD00002DE9F041B2
:103D3000054600681E46144601F47F0201338FB227
:103D400042D0DDF81880B2F5803F40F087804069AE
:103D50003840C01BB0FA80F04009A04240F0C88053
:103D60004EB924E040693840C01BB0FA80F04009E9
:103D7000A04240F0BD80FDF72FFCA0EB08012868B1
:103D8000B142EFD941693940C91BB1FA81F1490902
:103D9000A142E7D19BE000BF40693840C01BB0FAA8
:103DA00080F04009A0424FF0000040F0A680FDF7EF
:103DB00013FC286841693940C91BB1FA81F14909EE
:103DC000A142E9D183E000BFB2F5803F24D100BF1A
:103DD00041693940C91BB1FA81F14909A14240F05A
:103DE000878041693940C91BB1FA81F14909A14273
:103DF00040F07E8041693940C91BB1FA81F149091F
:103E0000A14275D141693940C91BB1FA81F1490913
:103E1000A142DDD06CE000BF81693940C91BB1FA15
:103E200081F14909A14263D181693940C91BB1FAC5
:103E300081F14909A1425BD181693940C91BB1FABD
:103E400081F14909A14253D181693940C91BB1FAB5
:103E500081F14909A142DFD04AE000BF80693840C2
:103E6000C01BB0FA80F04009A04241D146B923E01E
:103E700080693840C01BB0FA80F04009A0423BD1B5
:103E8000FDF7AAFBA0EB08012868B142F0D98169CF
:103E90003940C91BB1FA81F14909A142E8D116E0C4
:103EA00080693840C01BB0FA80F04009A0424FF052
:103EB000000018BFBDE8F081FDF78EFB286881691E
:103EC0003940C91BB1FA81F14909A142E8D100206A
:103ED0002021286385F83D1085F83E00296C41F0CB
:103EE0002001296485F83C000120BDE8F08100BF75
:103EF0000020BDE8F08100BF0020BDE8F081000097
:103F0000F0B581B0044600681D4643698FB203EAEC
:103F10000701B94202D1002001B0F0BD4169164647
:103F2000013201F4806125D0002940D1CEB100BF1B
:103F3000FDF752FB411B2068B14203D9416939406A
:103F4000B9424BD141693940B942E4D04169490590
:103F5000EED52CE041693940B942DCD041694905D0
:103F600025D4FDF739FB206841693940B942F1D0C9
:103F7000202024E0D9B941693940B942CBD0416908
:103F8000490514D441693940B942C4D04169490551
:103F90000DD441693940B942BDD04169490506D4C3
:103FA00041693940B942B6D041694905E3D5016854
:103FB00041F4007101606FF48061416104200021CF
:103FC0002022216384F83D2084F83E10226C1043A7
:103FD000206484F83C10012001B0F0BD2020EEE701
:103FE00070B50368044653F8140F000611D40E464A
:103FF000481C29D086BB00BF1868400527D4FDF7B0
:10400000EBFA236853F8140F000639D51868000638
:10401000F2D5002070BD00BF18680006F9D41868FA
:10402000400514D418680006F3D4186840050ED46F
:1040300018680006EDD41868400508D41868000612
:104040004FF0000048BF70BD18684005E4D56FF41C
:1040500080601860042014E0154603E053F8140F44
:104060000006D6D418684005F1D4FDF7B5FA401B18
:104070002368B042F2D958690006EFD4202000E04E
:10408000202000212022216384F83D2084F83E1066
:10409000226C10432064012084F83C1070BD0000A5
:1040A00010B584B040F2E80042F20041C2F20000D4
:1040B000C4F2010100224FF460230124027302754F
:1040C000C361C0E9001282600461FCF72DFE002884
:1040D00018BFFCF7B9FC0F20CDE9010407200390BD
:1040E00040F2E800C2F2000001A9FCF753FD0028ED
:1040F00018BFFCF7A9FC04B010BD00002DE9F04F7B
:1041000085B041F21800C4F20200016840F6004890
:1041100041F0100101600168C4F2010801F01001D2
:1041200001910199016808F5806641F00401016080
:104130000168012201F0040101910199016806273B
:1041400041F0200101600168012401F0200101918A
:104150000199016841F480710160016801F4807186
:1041600001910199016841F0080101600068062190
:1041700000F00800019001983046FDF727FA08F595
:10418000A05528463C2100224FF03C094FF0000A80
:10419000FDF71CFA40464FF4407100224FF4407B7B
:1041A000FDF714FACDE9017401AF30463946CDE987
:1041B0000344FDF70DF90220049028463946CDE965
:1041C0000194CDF80CA0FDF703F91120CDE902040C
:1041D0000320049040463946CDF804B0FDF7F8F8C6
:1041E00005B0BDE8F08F000080B540F2181045F230
:1041F0000041C2F20000C4F2000148F2A0620023B4
:104200004FF4804CC0F2010280E80E00C0E9033C8C
:10421000C0E90533C0E90733FDF7E4F9002808BF1A
:1042200080BDBDE88040FCF70FBC000080B586B0C3
:1042300040F26C1042F600420021C2F20000C4F2CB
:104240000102472342F20F7C4FF0800E0591CDE929
:104250000311CDE90011C0E90023C0E9021CC0E947
:104260000411C0F818E0FEF78FF8002818BFFCF71B
:10427000EBFB4FF48050029040F26C10C2F2000051
:1042800002A9FEF791F9002818BFFCF7DDFB40F208
:104290006C10C2F200006946FEF72CF8002818BF27
:1042A000FCF7D2FB06B080BD80B58CB040F2B410F4
:1042B0000021C2F200004FF08042C0E900218022BC
:1042C000826103224FF6FF73CDE903210122CDE97C
:1042D0000011C0E902130161CDE90521CDE9071103
:1042E000CDE909210B9103A9FEF72CFA002818BF8C
:1042F000FCF7AAFB40F2B410C2F200006946FDF7D9
:10430000F9FF002818BFFCF79FFB0CB080BD000030
:1043100080B58CB040F2FC1040F200420021C2F2A5
:104320000000C4F20002C0E9002180224FF6FF73B2
:1043300082610322C0E90213CDE903210122062391
:10434000CDE900110161CDE90521CDE90731CDE9C4
:10435000092103A90B93FEF7F5F9002818BFFCF714
:1043600073FB40F2FC10C2F200006946FDF7C2FF89
:10437000002818BFFCF768FB0CB080BDB0B594B046
:1043800040F6000540F24420C4F200050021C2F2CC
:104390000000472263230E91CDE90C110991CDE96C
:1043A0000711CDE90511CDE90311CDE90111C0E9EE
:1043B0000052C0E9021301618161FDF7E5FF0028A9
:1043C00018BFFCF741FB4FF480500B9040F24420A3
:1043D000C2F200000BA9FEF7E7F8002818BFFCF7AF
:1043E00033FB40F24420C2F20000FEF71BFD002820
:1043F00018BFFCF729FB40F244200024C2F2000061
:1044000008A9CDE90844FDF775FF002818BFFCF79F
:104410001BFB6020CDE9010440F24420C2F2000001
:1044200001A9082203940594FEF7CAFB002818BFCF
:10443000FCF70AFB40F24424C2F2000401A9204622
:104440000C22FEF7BDFB002818BFFCF7FDFA206820
:104450000021A842129101D014B0B0BD41F2180061
:10446000C4F20200016841F020010160006810A957
:1044700000F020000F900F984FF440401090022061
:104480001190139041F20040C4F20100FCF7A0FF2C
:104490000420C4F20100016841F0E06141F4805160
:1044A000016014B0B0BD000080B540F28C2043F62E
:1044B0000001C2F20000C4F2010100234FF00C0C15
:1044C0004FF4E13280E80E00C0E90333C0E905C3D0
:1044D000C361FFF7C3F8002808BF80BDBDE8804076
:1044E000FCF7B2BA80B540F2D42044F20041C2F2E7
:1044F0000000C4F2000100234FF00C0C4FF4E13235
:1045000080E80E00C0E90333C0E905C3C361FFF7CB
:10451000A5F8002808BF80BDBDE88040FCF794BA2C
:10452000FEE7000070B542F200060C460546012881
:10453000C4F20106A8BF012C0ADA54EA050025D00E
:1045400004EA0500B0F1FF3F41DD012D5EDA7DE0B8
:10455000304604210122FDF739F8304608210022B7
:10456000FDF734F8304610210122FDF72FF83046D0
:1045700020210022FDF72AF840F24420C2F2000078
:104580000068C563046454EA0500D9D130460421AB
:104590000122FDF71BF8304608210122FDF716F82D
:1045A000304610210122FDF711F83046202101226A
:1045B000FDF70CF840F24420C2F200000068002130
:1045C000C163016404EA0500B0F1FF3FBDDC304681
:1045D00004210022FCF7FAFF304608210122FCF7F3
:1045E000F5FF304610210022FCF7F0FF3046202175
:1045F0000122FCF7EBFF40F24420C2F20000006809
:104600006942C16361420164012D1FDBB4F1FF3FC8
:104610001CDC304604210122FCF7D8FF304608217B
:104620000022FCF7D3FF304610210022FCF7CEFF1A
:10463000304620210122FCF7C9FF40F24420C2F29B
:10464000000000686442C56321E000BFB5F1FF3F90
:104650001EDC012CB8BF70BD304604210022FCF7DF
:10466000B5FF304608210122FCF7B0FF304610218B
:104670000122FCF7ABFF304620210022FCF7A6FF09
:1046800040F24420C2F2000000686942C163046441
:1046900070BD0000FEE700002DE9F04F85B040F24C
:1046A000181400254FF480760127C2F200040DF1A2
:1046B000120B0DF113084FF0000900BF09F1B00013
:1046C0008DF8100004A8CDE90007204678210022CB
:1046D00001230296FDF742F80DF11100CDE9000724
:1046E00020467821002201238DF811500296FDF713
:1046F00035F810208DF81200204678210022012381
:10470000CDE900B70296FDF729F84FF0000A00BF87
:1047100020467821402201238DF81350CDE90087EF
:104720000296FDF71BF80AF101004FFA80FABAF180
:10473000FF3FEDDCB9F1070F09F10109BED305B068
:10474000BDE8F08F2DE9F04184B0C820FCF72CFEC5
:1047500040F21406C2F20006307840F21814C2F299
:1047600000048DF80F004FF4807801270DF10F053C
:104770002046782100220123CDE90057CDF808809A
:10478000FCF7ECFF707878218DF80F0020460022AE
:104790000123CDE90057CDF80880FCF7DFFFB078A2
:1047A00078218DF80F00204600220123CDE9005723
:1047B000CDF80880FCF7D2FFF07878218DF80F0053
:1047C000204600220123CDE90057CDF80880FCF7F0
:1047D000C5FF307978218DF80F0020460022012393
:1047E000CDE90057CDF80880FCF7B8FF7079782143
:1047F0008DF80F00204600220123CDE90057CDF8A7
:104800000880FCF7ABFFB07978218DF80F002046C7
:1048100000220123CDE90057CDF80880FCF79EFF68
:10482000F07978218DF80F00204600220123CDE990
:104830000057CDF80880FCF791FF307A78218DF889
:104840000F00204600220123CDE90057CDF8088053
:10485000FCF784FF707A78218DF80F002046002243
:104860000123CDE90057CDF80880FCF777FFB07A37
:1048700078218DF80F00204600220123CDE9005752
:10488000CDF80880FCF76AFFF07A78218DF80F00E8
:10489000204600220123CDE90057CDF80880FCF71F
:1048A0005DFF307B78218DF80F0020460022012328
:1048B000CDE90057CDF80880FCF750FF707B7821D8
:1048C0008DF80F00204600220123CDE90057CDF8D6
:1048D0000880FCF743FFB07B78218DF80F0020465D
:1048E00000220123CDE90057CDF80880FCF736FF00
:1048F000F07B78218DF80F00204600220123CDE9BE
:104900000057CDF80880FCF729FF307C78218DF81E
:104910000F00204600220123CDE90057CDF8088082
:10492000FCF71CFF707C78218DF80F0020460022D8
:104930000123CDE90057CDF80880FCF70FFFB07CCC
:1049400078218DF80F00204600220123CDE9005781
:10495000CDF80880FCF702FFF07C78218DF80F007D
:10496000204600220123CDE90057CDF80880FCF74E
:10497000F5FE307D78218DF80F00204600220123BE
:10498000CDE90057CDF80880FCF7E8FE707D78216E
:104990008DF80F00204600220123CDE90057CDF805
:1049A0000880FCF7DBFEB07D78218DF80F002046F3
:1049B00000220123CDE90057CDF80880FCF7CEFE98
:1049C00004B0BDE8F08100002DE9F04F89B040B29D
:1049D0008B46DDF84890A2F12001002820EAE07221
:1049E0004FF0100748BF0BF1020BABF1500047EA44
:1049F000121602F00F05102BCFB240F0BD8040F22E
:104A000018148DF815004FF001080DF11500C2F2D1
:104A100000044FF4807ACDE9000820467821002276
:104A20000123CDF808A0FCF799FE0DF11600CDE9A1
:104A30000008204678210022012303968DF8166095
:104A4000CDF808A0FCF78AFE0DF11700CDE90008AB
:104A5000204678210022012304958DF81750CDF8C7
:104A600008A0FCF77BFE46F2C0103F01C0F6000034
:104A7000C05DB9F1000F00F0118140F21815C0437C
:104A8000C2F200058DF818000DF1180928467821AA
:104A900040220123CDE90098CDF808A0FCF75EFE86
:104AA00046F2C01447F00100C0F60004205C7821F3
:104AB000C0438DF81800284640220123CDE9009814
:104AC000CDF808A0FCF74AFE47F00200205C7821F0
:104AD000C0438DF81800284640220123CDE90098F4
:104AE000CDF808A0FCF73AFE47F00300205C7821DF
:104AF000C0438DF81800284640220123CDE90098D4
:104B0000CDF808A0FCF72AFE47F00400205C7821CD
:104B1000C0438DF81800284640220123CDE90098B3
:104B2000CDF808A0FCF71AFE47F00500205C7821BC
:104B3000C0438DF81800284640220123CDE9009893
:104B4000CDF808A0FCF70AFE47F00600205C7821AB
:104B5000C0438DF81800284640220123CDE9009873
:104B6000CDF808A0FCF7FAFD47F00700205CC04331
:104B70008DF8180007E100BF40F218148DF81F00EF
:104B80004FF0010B0DF11F00C2F200044FF48078CA
:104B9000CDE9000B2046782100220123CDF80880C2
:104BA000FCF7DCFD08A8CDE9000B204678210022A7
:104BB00001238DF82060CDF80880FCF7CFFD0DF1C2
:104BC0002100CDE9000B20467821002201238DF839
:104BD0002150CDF80880FCF7C1FD07EB470545F6ED
:104BE0009877C0F6000717F81500B9F1000F00F02C
:104BF000938140F21814C043C2F200048DF82200E1
:104C00000DF122092046782140220123CDE9009BA5
:104C1000CDF80880FCF7A2FD07EB45056878AF7872
:104C2000C043EE7895F804A08DF822002046782144
:104C300040220123CDE9009BCDF80880FCF78EFDD2
:104C4000F8438DF822002046782140220123CDE947
:104C5000009BCDF80880FCF781FDF0438DF8220021
:104C60002046782140220123CDE9009BCDF8088021
:104C7000FCF774FD6FEA0A008DF8220020467821C7
:104C800040220123CDE9009BCDF80880FCF766FDAA
:104C90006879C0438DF822008AE100BF40F2181500
:104CA000C2F200058DF819000DF119092846782186
:104CB00040220123CDE90098CDF808A0FCF74EFD75
:104CC00046F2C01447F00100C0F60004205C7821D1
:104CD0008DF81900284640220123CDE90098CDF82F
:104CE00008A0FCF73BFD47F00200205C78218DF81E
:104CF0001900284640220123CDE90098CDF808A0EC
:104D0000FCF72CFD47F00300205C78218DF819009A
:104D1000284640220123CDE90098CDF808A0FCF7F1
:104D20001DFD47F00400205C78218DF8190028460D
:104D300040220123CDE90098CDF808A0FCF70EFD34
:104D400047F00500205C78218DF8190028464022A4
:104D50000123CDE90098CDF808A0FCF7FFFC47F04F
:104D60000600205C78218DF8190028464022012396
:104D7000CDE90098CDF808A0FCF7F0FC47F007005B
:104D8000205C8DF819002846782140220123CDE9C6
:104D90000098CDF808A0FCF7E1FCABF14F0040F221
:104DA00018148DF81A004FF001090DF11A00C2F223
:104DB00000044FF48078CDE90009204678210022D4
:104DC0000123CDF80880FCF7C9FC039878218DF801
:104DD0001B000DF11B00CDE9000920460022012334
:104DE000CDF80880FCF7BAFC049878218DF81C00F7
:104DF00007A8CDE90009204600220123CDF808804C
:104E0000FCF7ACFC46F2C01147F00800C0F6000108
:104E1000085C1299002900F0CF8040F21814C043BA
:104E2000C2F200048DF81D000DF11D052046782109
:104E300040220123CDE90059CDF80880FCF78EFC13
:104E400046F2C01647F00900C0F60006305C782133
:104E5000C0438DF81D00204640220123CDE90059B2
:104E6000CDF80880FCF77AFC47F00A00305C782126
:104E7000C0438DF81D00204640220123CDE9005992
:104E8000CDF80880FCF76AFC47F00B00305C782115
:104E9000C0438DF81D00204640220123CDE9005972
:104EA000CDF80880FCF75AFC47F00C00305C782104
:104EB000C0438DF81D00204640220123CDE9005952
:104EC000CDF80880FCF74AFC47F00D00305C7821F3
:104ED000C0438DF81D00204640220123CDE9005932
:104EE000CDF80880FCF73AFC47F00E00305C7821E2
:104EF000C0438DF81D00204640220123CDE9005912
:104F0000CDF80880FCF72AFC47F00F00305CC04366
:104F10008DF81D00C5E000BF40F21814C2F2000475
:104F20008DF823000DF1230920467821402201232A
:104F3000CDE9009BCDF80880FCF710FC07EB450598
:104F40006878AE78EF7895F804A08DF823002046B5
:104F5000782140220123CDE9009BCDF80880FCF7A1
:104F6000FDFB20467821402201238DF82360CDE906
:104F7000009BCDF80880FCF7F1FB20467821402209
:104F800001238DF82370CDE9009BCDF80880FCF754
:104F9000E5FB20467821402201238DF823A0CDE9AE
:104FA000009BCDF80880FCF7D9FB68798DF82300C9
:104FB000CDE9009B77E000BF40F21814C2F2000474
:104FC0008DF81E000DF11E05204678214022012398
:104FD000CDE90059CDF80880FCF7C0FB46F2C016B9
:104FE00047F00900C0F60006305C78218DF81E00FD
:104FF000204640220123CDE90059CDF80880FCF776
:10500000ADFB47F00A00305C78218DF81E00204689
:1050100040220123CDE90059CDF80880FCF79EFB22
:1050200047F00B00305C78218DF81E0020464022AE
:105030000123CDE90059CDF80880FCF78FFB47F03C
:105040000C00305C78218DF81E00204640220123A0
:10505000CDE90059CDF80880FCF780FB47F00D0042
:10506000305C78218DF81E00204640220123CDE9D6
:105070000059CDF80880FCF771FB47F00E00305C5A
:1050800078218DF81E00204640220123CDE90059E9
:10509000CDF80880FCF762FB47F00F00305C8DF81C
:1050A0001E00CDE900592046782140220123CDF889
:1050B0000880FCF753FB09B0BDE8F08F2DE9F04FF5
:1050C00083B0924612780293E2B30F4602990646E5
:1050D000A1F11000B0FA80F04FEA5019A1F10C00D4
:1050E000B0FA80F04FF0080B00244FEA50180C295A
:1050F00008BF4FF0060B00BF029B0C9DF0B2F9B247
:10510000D2B20095FFF760FC5E44F0B27A284FF00F
:10511000000088BF012010EA080018BF0026F1B285
:10512000013478294FF00001E2B288BF01211AF85A
:105130000220384411EA090118BF0026002A00EBBA
:105140000107D9D103B0BDE8F08F000080B5002180
:10515000C4F22001002340F2000C4FF07C52C4F254
:10516000702C4FF0010E80E80E50C0E90533C0E905
:10517000073380BD70470000704700002DE9F04FF5
:1051800081B014461269012A54D1FBF73FF8D4F8D4
:1051900018B007465946FBF739F8D4E90051824662
:1051A000D4E902983846FBF737F8064628465146B8
:1051B000FBF732F83146FAF7D7FF0546584659460D
:1051C000FAF7D2FF01463846FBF720F8E169FAF713
:1051D000CBFF01464846FBF71FF82946FAF7C4FF04
:1051E0006169024608461146FAF7BEFF04F1140150
:1051F00081E88108FBF7F7F92062FBF7D5F905464E
:1052000040462946FBF7C2F930B94046FBF7EBF9B7
:105210002062FBF7C9F9054688F00046284631466A
:10522000FBF7B4F9B0B93046FBF7DDF9206201B005
:10523000BDE8F08F0020C4F22000002200234FF0D0
:105240007C51C4F27023012784E88F00C4E9052251
:10525000C4E9072201B0BDE8F08F0000FCF75CBB99
:105260007047000040F26C10C2F20000FDF7EEBB88
:1052700040F2FC10C2F20000FDF7E8BB406A0021DA
:10528000C185C184FDF738BF81B090F84210222952
:1052900021D183680246B3F5805F09D152F8281FF7
:1052A00052F8183C002B63D003685B680AE000BF2B
:1052B00052F8281F13B90369002BF5D003685B6807
:1052C00003F07F030B70116801311160C18D01394A
:1052D0000A04C18502D001B0704700BF0168CA68E6
:1052E00022F02002CA60CA6822F48072CA604A6949
:1052F00022F001024A61202180F84210002141631E
:10530000026B012A3CD10163016851E8031F026866
:1053100021F0100142E80313DBB1016851E8031FDB
:10532000026821F0100142E8031393B1016851E8CB
:10533000031F026821F0100142E803134BB101681A
:1053400051E8031F026821F0100142E80313002B0B
:10535000DAD101680A68D20606D5002200920A68EE
:105360000092496800910099818D01B0FDF7C2BE9D
:10537000026852686FF35F2221F8022B8162A5E771
:1053800001B0FEF785BA000040F2D420C2F200005E
:10539000FDF7B4BEFEE7000010B540F2E804C2F22B
:1053A00000042046FBF7DEFE20463221FBF7A6FD77
:1053B00020B10020CBF6807010BD00BF40F2E800A5
:1053C000C2F20000FBF7ACFCFBF7F7F84FF06651B8
:1053D000FAF722FFFBF720F946F26663C4F20A03EC
:1053E0004FF06632FAF7F1FF0023C4F214030022F3
:1053F000FAF7EBFFFBF723F910BD000080B582B090
:10540000019040F28C20C2F2000001A901224FF667
:10541000FF73FEF787FA019802B080BD98B0FCF7E1
:1054200089FA00240120CDE91344CDE911440E90FE
:1054300012904FF4E0104FF48031022517900EA81F
:105440000894CDE90644CDE90444CDE90F14CDE933
:105450001551FCF75BFD28B1EFF3108072B600BF69
:10546000FEE700BF0F20CDE909054FF48060CDE9CC
:105470000C0409A802210B94FCF714FC20B1EFF3F3
:10548000108072B6FEE700BF022003904FF4004088
:10549000059003A8FCF780FB20B1EFF3108072B6F3
:1054A000FEE700BFFEF72AFEFEF7C0FEFEF7FCFE99
:1054B000FEF72EFFFEF762FFFEF7F6FFFFF712F88A
:1054C000FEF7EEFDFEF790FEFFF73CF9FFF7E4F87C
:1054D00040F26C10C2F20000FDF722F840F23004F6
:1054E00040F2D420C2F20004C2F2000021460122A0
:1054F000FEF7A4F940F24425C2F20005284608212F
:10550000FDF728FD28460C21FDF724FD40F2B415D7
:10551000C2F2000528460021FDF738FA284604218A
:10552000FDF734FA40F2FC16C2F2000630460021C4
:10553000FDF72CFA30460421FDF728FA40F2E80086
:10554000C2F20000FBF79EFA286840F29C05C16891
:10555000C2F2000541F00101C1603168CA6842F041
:105560000102CA6047F23052426228464A62FFF79F
:10557000EDFD05F12400FFF7E9FD40F2300804F1EC
:105580002C0004F1540704F14006C2F20008002583
:10559000029000BFD8F80C00FBF73EF8029C0B46C7
:1055A00046F2C87102462046C0F6000100F066F8D7
:1055B0000020002122460C230095FFF77FFDD8E94B
:1055C0000609FBF729F8824648468B46FBF724F884
:1055D0000C4646F2FB7100903846C0F60001524678
:1055E0005B46019400F04AF8002002213A460C2361
:1055F0000095FFF763FDD8F8102046F2DD713046C4
:10560000C0F6000100F03AF80020042132460C23D5
:105610000095FFF753FD40F2E404C2F20004227843
:1056200046F2EA713046C0F6000100F027F800208B
:10563000062132460C230095FFF740FD627846F2C2
:10564000F2713046C0F6000100F018F83220062151
:1056500032460C230095FFF731FD9BE70FB4054B55
:1056600010B503A9044A029800F0EEF810BC5DF8EA
:1056700014FB0000FD530008000000200FB4084B8D
:1056800010B504A902AA039800F0DEF8044602A9A6
:10569000002000F070FC204610BC5DF814FB0000F8
:1056A000775F000802E008C8121F08C1002AFAD17B
:1056B00070477047002001E001C1121F002AFBD192
:1056C000704700002DE9FF5F82B00021DDE9043062
:1056D000020DDDF840B0034318D044F61050A2F29A
:1056E000FF3242431514119801281FD0A5EB0B007F
:1056F000401C5FEA000A4FF000064E4FDFF8389179
:10570000B046504615D5CAF1000413E011980124A3
:105710004AA3012801D16FEA0B010298119AC0E94E
:105720000031C0E9024206B0BDE8F09FCBF10000B5
:10573000DFE704460021404A491842EB0450CDE916
:10574000001012E0E00707D032463B46404649468B
:10575000FAF73BFE8046894632463B4610461946DC
:10576000FAF733FE06460F466410002CEAD1DDE955
:105770000401DDE90023BAF1000F06DAFAF725FE8D
:1057800042464B46FAF721FE05E0FAF790FE424604
:105790004B46FAF78CFE04460E460022284BFBF7D8
:1057A0007FF803D84FF0FF30014607E00022254B79
:1057B00020463146FAF762FDFBF759F8102409E05C
:1057C000002C0ADB0A220023FAF76BFF039B30321E
:1057D0001A55641E50EA0102F2D1641C039AC4F106
:1057E00011031444119A012A03D0012208430DD158
:1057F0000AE0084304D000204FF0110B119072E72B
:10580000A3EB0B056D1E0DE05B4504DD4FF00002C0
:1058100005F1010504E003DA4FF00002A5F10105EE
:10582000002AECD002981199C0E90231C0E9004584
:1058300079E70000000014400000F03F3000000055
:105840000000F0430000E03F2DE9FF4F95B09B467C
:105850008946064600250FE2252877D100242746F1
:10586000F84A0121059400E0044316F8013F203B6B
:1058700001FA03F01042F7D130782A2811D06FF0E6
:105880002F033078A0F13002092A16D8059A44F087
:10589000020402EB820203EB42021044761C0590E4
:1058A000EFE759F8042B0592002A03DA504244F43A
:1058B0000054059044F00204761C30782E2816D14E
:1058C00016F8010F44F004042A280DD06FF02F02BF
:1058D0003078A0F13003092B09D807EB870302EBDE
:1058E0004303C718761CF3E759F8047B761C30781D
:1058F0006C280FD006DC4C2817D068280DD06A28F9
:1059000014D104E0742810D07A280FD10DE044F4AB
:1059100000140AE044F4801401E044F44014727866
:10592000824202D104F58014761C761C30786628F9
:105930000BD013DC582877D009DC002875D0452817
:10594000F6D04628F4D047281AD19DE118E0632804
:1059500035D0642879D0652812D195E1702873D0AC
:1059600008DC6728F1D069286FD06E280DD06F2829
:1059700006D1B5E073282CD0752875D0782874D05E
:105980005A46179990476D1C75E1C4F302500228DE
:1059900009D003280DD0D9F8001004280DD00D60CF
:1059A00009F1040967E1D9F80010EA17C1E90052CA
:1059B000F6E7D9F800100D80F2E70D70F0E719F85E
:1059C000041B8DF8001000208DF80100EA4601202C
:1059D00003E059F804AB4FF0FF3061074FF00001CE
:1059E00002D40DE008F101018846B9420FDA804582
:1059F000F8DB1AF808100029F4D108E008F10101D9
:105A000088468142FADB1AF808100029F6D1059879
:105A10005B46A0EB080721463846179A00F094FA37
:105A2000284400EB080507E04DE029E10DE01AF8F5
:105A3000010B5A4617999047B8F10108F7D25B4617
:105A400021463846179A13E142E00A220092C4F335
:105A500002524FF0000A022A08D059F804CB032A58
:105A60004FEAEC710AD00DE029E02AE009F10701C4
:105A700021F00702F2E802C1914609E00FFA8CFC1E
:105A80004FEAEC71042A03D14FFA8CFC4FEAEC7117
:105A9000002907DA0A460021DCF1000C61EB020163
:105AA0002D2202E0220504D52B228DF804200122AC
:105AB00003E0E20701D02022F7E7904659E00A21EF
:105AC00002E010220DE010214FF0000A00910BE0DF
:105AD00010224FF0000A44F004040827009203E06B
