:020000040800F2
:10000000781D002045010008515C0008DD4E000805
:10001000DD5A0008051200083D6C000800000000D1
:10002000000000000000000000000000BD680008A3
:100030002912000800000000B9680008E5690008FE
:100040005F0100085F0100085F0100085F01000810
:100050005F0100085F0100085F0100085F01000800
:100060005F0100085F0100085F0100085F010008F0
:100070005F0100085F0100085F0100085F010008E0
:100080005F0100085F0100085F0100085F010008D0
:100090005F0100085F0100085F0100085F010008C0
:1000A0005F010008ED6900085F0100085F010008BA
:1000B0005F0100085F0100085F0100085F010008A0
:1000C0005F0100085F0100085F0100085F01000890
:1000D0005F0100085F010008256C0008316C000812
:1000E0005F0100085F0100085F0100085F01000870
:1000F0005F0100085F0100085F0100085F01000860
:100100005F0100085F0100085F0100085F0100084F
:100110005F0100085F0100085F0100085F0100083F
:100120005F0100085F0100085F0100085F0100082F
:10013000DFF80CD000F02AFD0048004725800008B9
:10014000781D00200648804706480047FEE7FEE786
:10015000FEE7FEE7FEE7FEE7FEE7FEE7FEE7FEE777
:10016000E96900083101000810B5431A934209D229
:100170008318881803E010F8011D03F8011D521EB2
:10018000F9D210BD40EA01039B0703D009E008C97A
:10019000121F08C0042AFAD203E011F8013B00F84C
:1001A000013B521EF9D210BDD2B201E000F8012B82
:1001B000491EFBD270470022F6E710B513460A46E7
:1001C00004461946FFF7F0FF204610BD0FB400B5F6
:1001D0008DB010A909900B9000914FF0FF300A905C
:1001E00000200C9005480690054807906A4609A82B
:1001F0000F9900F0D9FB0DB05DF814FBC50900089C
:10020000E30900082DE9FF5F1D464FF0FF3BD5E9EC
:10021000014691465F464FF00008A9697F1C01988E
:100220008847296A824688470028F6D1BAF1FF3FFD
:100230000CD024F4C064002E19DD600614D5BAF188
:100240002B0F09D0BAF12D0F0ED103E0584604B0A0
:10025000BDE8F09F44F48064A9697F1C0198884739
:10026000761E8246002E02DDBAF1300F03D0B9F1BE
:10027000000F26D032E0A969761E44F400747F1C7A
:10028000019888478246002E05DDBAF1780F06D026
:10029000BAF1580F03D0B9F1000F10D01EE0B9F138
:1002A000000F02D0B9F1100F18D1A969761E24F4FD
:1002B00000747F1C019888478246102002E00820C5
:1002C00000E00A20814609E008FB0908A969761EBA
:1002D00044F400747F1C019888478246002E05DD97
:1002E0004946504600F04CFB0028EDDAE9690198D8
:1002F0008847A00502D46FF00100A8E7E00725D1E8
:10030000600613D5600502D5C8F1000000E0404644
:1003100029680A1D2A600968220501D5087015E0C0
:10032000220701D5088011E008600FE02868011D50
:1003300029600068210502D580F8008006E02107C9
:1003400002D5A0F8008001E0C0F8008038467EE7C2
:10035000F0B480EA0102D40F4200B2EB410F02D2A6
:100360000246084611464A0042D0C30DDDB2C1F331
:10037000C752AD1A202D35DAC1F3160141F400023F
:1003800004B15242C5F1200602FA06F12A41104496
:10039000B3EBD05F23D0C4B1012DA0EBC35009DC77
:1003A000F0BC4FF0004202EAC352DBB200F500009D
:1003B00000F031BB400000F1807000EBC350A0F1B1
:1003C000807040EAD170490009E0490841EAC071F3
:1003D000A0EBC35000F50000400800EBC350F0BC98
:1003E00000F010BB6142012202EB4101001BF6E765
:1003F000F0BC704781F00041AAE780F00040A7E719
:1004000080EA010210B502F00043400022D04A0009
:100410001FD0010E01EB1261C0F35600C2F3560269
:1004200040F4000042F40002A0FB022000047F39E7
:10043000140400D0401C50EA124001D44000491E70
:10044000C2B20C0604EBD010401C4008802A02D037
:1004500003E0002010BD20F00100002900DA002098
:10046000184310BD2DE9FE4F804681EA0300C00FFE
:100470000C46009021F0004123F00045B8EB02004B
:10048000A94105D24046214690461C460B460246ED
:1004900023F00040104347D0270DC7F30A00C3F3F1
:1004A0000A510290401A019040286BDAC3F31300FE
:1004B00040F4801B0098924620B10023D2EB030A3F
:1004C00063EB0B0B01985946C0F14002504600F017
:1004D00036FA06460D4650465946019A00F03EFA55
:1004E00010EB08006141002487EA115284EAE773A7
:1004F0001A4340D0009A62B3019A012A4FEA075288
:1005000015DC001B61EB02014FF0004202EA0752CA
:10051000CDE90042001C41F5801132462B4600F027
:10052000B7FA03B0BDE8F08F40462146F9E7001B5B
:1005300061EB0201001C41F5801300185B4120189B
:10054000A2F5001747EB030140EAD570B6196D41DB
:1005500011E06D084FEA360645EAC0754FEA0752CA
:10056000001B61EB0201001C41F5801149084FEAB4
:1005700030000019514132462B4603B0BDE8F04F20
:1005800000F077BA0098012240000023D0EB02026D
:1005900063EBE073009821464FEAE074B8EB00008B
:1005A00061EB0401E9E783F000435BE781F0004180
:1005B00058E72DE9FE4F81EA030404F0004421F0DE
:1005C000004100944FF0000B23F0004350EA010477
:1005D0005ED052EA03045BD0C3F30A54C1F30A5558
:1005E0002C44A4F2F3340194A0FB0254C1F3130190
:1005F00041F48011C3F3130343F4801301FB02445D
:1006000000FB034E840A970A44EA815447EA835761
:10061000A4FB076802958D0A05FB07854FEA932C1A
:1006200004FB0C542705029D4FEA065847EA16378B
:10063000B5EB08056EEB070C870E920E47EA8117A3
:1006400042EA8312A7FB0201B6EB0B0164EB000444
:100650002B0D43EA0C335E1844EB1C50DA4651462E
:10066000E7FB0201C5F313044FEA0B3343EA1453CB
:100670004FEA0432019C43EA0603A4F10C040294FD
:10068000009CCDE900B400F003FA03B0BDE8F08FA0
:1006900000200146F9E72DE9F04D81EA030404F05A
:1006A000004B21F0004514464FF0000A23F00041B2
:1006B00050EA050220D054EA01021DD0C5F30A57C2
:1006C0000246C5F31303C1F31300C1F30A5640F405
:1006D000801543F48013A7EB0608101BD64608F2DA
:1006E000FD3873EB050002D308F1010801E0921810
:1006F0005B41B8F1000F03DA00200146BDE8F08D40
:1007000000204FF48011064684460EE0171B73EB61
:10071000050705D3121B63EB050306434CEA010CE6
:1007200049084FEA300092185B4150EA0107EDD1C9
:1007300052EA030012D082EA040083EA050108436A
:1007400005D0101BAB4106D20122002306E0002297
:100750004FF0004302E06FF0010253101AEB060065
:100760004CEB085110EB0A0041EB0B01BDE8F04DDA
:1007700000F07FB9002801DBC0F10040002901DB57
:10078000C1F10041814201D2012070470020704731
:10079000002801DBC0F10040002901DBC1F100416C
:1007A000814201D3012070470020704730B5041EFC
:1007B00071F1000404DB4FF00044404264EB01019E
:1007C000141E73F1000405DB1C464FF00043524237
:1007D00063EB0403801A994101D2012030BD00204F
:1007E00030BDC10F80EAE0700844CA07962300219B
:1007F00000F011B996230022114600F00CB90EB595
:10080000C10F80EAE0700844CA07002140F2334378
:100810008DE80E000A460B4600F03AF903B000BD21
:1008200000F0004220F00040C10DC0F3160040F47B
:1008300000007F2901DA00207047962903DCC1F10E
:100840009601C84001E096398840002AF4D0404221
:10085000704700F0004230F000400AD0C10D01F5B1
:100860006071C0F3160042EA0151C208400711430B
:10087000704700200146704701F0004330B421F07A
:10088000004150EA010206D00A0DA2F56072C1F3E0
:100890001301002A02DC30BC00207047440F44EAF8
:1008A000C104C100E01830BC00EBC25000F0AAB88F
:1008B00030B50B46014600202022012409E021FA30
:1008C00002F59D4205D303FA02F5491B04FA02F52D
:1008D0002844151EA2F10102F1DC30BD2DE9F05FC4
:1008E0000546002092469B4688460646814640249F
:1008F0001BE0284641464746224600F059F9534638
:100900005A46C01A914110D311461846224600F0AB
:1009100016F82D1A67EB01084F46224601200021E8
:1009200000F00DF817EB00094E41201EA4F1010460
:10093000DFDC484631462A464346BDE8F09F202A80
:1009400004DB203A00FA02F1002070479140C2F126
:10095000200320FA03F3194390407047202A06DB56
:10096000CB17203A41FA02F043EAE07306E041FA7D
:1009700002F3D040C2F1200291400843194670476B
:100980003A2800D2303820F02002412A01D3A2F1C7
:100990003700884201D34FF0FF307047026811449E
:1009A0001378016018467047D160044951610449C9
:1009B000116200211161114600F010B99D09000873
:1009C000D10B0008426842B1016811F8013B23B124
:1009D000521EC0E90012184670470121C160881EEE
:1009E000704742685AB1C368016843B983688B4253
:1009F00005D0491E521CC0E90012002070474FF07C
:100A0000FF3070470029A8BF7047401C490008BF4D
:100A100020F00100704710B4B0FA80FC00FA0CF02E
:100A200050EA010404BF10BC704749B1CCF1200466
:100A300021FA04F411FA0CF118BF012121430843F3
:100A4000A3EB0C01CB1D4FEA00614FEA102042BF1F
:100A5000002010BC704700EBC35010440029A4BF15
:100A600010BC7047401C490008BF20F0010010BCBA
:100A7000704710B5141E73F1000408DA401C41F1F0
:100A8000000192185B411A4301D120F0010010BD12
:100A90002DE9F04D92469B4611B1B1FA81F202E088
:100AA000B0FA80F220329046FFF749FF04460F4625
:100AB00040EA0A0041EA0B0153465A46084313D064
:100AC000114653EA010019D0C8F14002504600F027
:100AD0006FF805460E46504659464246FFF72FFF2F
:100AE000084305D0012004E020463946BDE8F08DDA
:100AF0000020054346EAE0762C4337430A98630515
:100B0000E40AA0EB08000022FD0A44EA47540A3038
:100B100002D500200146E9E7010510196941DDE928
:100B2000084500196941BDE8F04DA2E7C1F30A523A
:100B3000C1F3130140F2FF3341F480119A4202DA0B
:100B400000200146704740F233439A42A2F23342FA
:100B500002DC524200F02CB8FFF7F1BE30B5041EA3
:100B600071F1000404DB4FF00044404264EB0101EA
:100B7000141E73F1000405DB1C464FF00043524283
:100B800063EB0403994208BF904230BD064C074D09
:100B900006E0E06840F0010394E80700984710344D
:100BA000AC42F6D3FFF7C8FA049E0008249E000862
:100BB000202A04DB203A21FA02F00021704721FAB2
:100BC00002F3D040C2F12002914008431946704719
:100BD000C0B24FF4F05100F097B900002DE9F34F87
:100BE0008BB04FF0000801F10C000C464FF0010BE8
:100BF00046460DF1080A019062690121019890476B
:100C0000051E2DD0252D2CD0216A8847C0B16269E0
:100C1000012101989047216A88470028F7D1411E99
:100C200062690198904700E0761CA1690B9888479B
:100C3000216A88470028F7D1E1690B988847DBE7EC
:100C4000A1690B9888470746A84201D1761CD3E7D3
:100C5000E1690B9888477F1C02D1B8F1000F6FD073
:100C600046E1002762693D463946019890472A28A7
:100C700004D162690121019890470125DFF884922F
:100C80006269012101989047A0F130010A290AD236
:100C90004F45E5DC07EB870100EB4107303FDFD430
:100CA00045F01005ECE7E90601D46FF000476C2829
:100CB0000AD04C2814D0682815D06A280DD0742882
:100CC0001CD07A281AD01DE0626901210198904752
:100CD0006C2802D045F0040514E045F002050DE053
:100CE00045F020050AE062690121019890476828D3
:100CF00002D045F0080505E045F400656269012170
:100D000001989047C4E9015765283DD019DC58285F
:100D10007AD00CDC452837D004DC252826D04128A1
:100D200031D131E046282FD047282CD12CE05B2848
:100D300077D0612828D063287CD0642823D15AE05A
:100D4000D0E06F2848D008DC66281DD067281BD06B
:100D5000692821D06E2816D127E0702845D0732845
:100D600068D0752847D078280DD14DE0A1690B983F
:100D70008847054625283FF469AFE1690B98884705
:100D80006D1C3FF46AAFB3E023466A466FF0010082
:100D90000B99AFF300809EE045F040006060A8072B
:100DA00023464FF0000236D43EE0E8077FF447AF19
:100DB0002068011D21600068290501D506701BE728
:100DC000290701D5068017E7A90703D5F117C0E960
:100DD000006111E706600FE745F040006060A8077A
:100DE00023464FF0080216D41EE040F60E0125EA15
:100DF0000100606016E045F040006060A8072346EF
:100E00004FF00A0207D40FE045F040006060A807E9
:100E100008D5234610226FF001000B99AFF3008034
:100E200059E007E0234610226FF001000B99FFF70D
:100E3000E9F950E04FF000094F464B46632802D0D5
:100E40005B2806D040E0E80601D40120A06001271D
:100E50003AE062690121019890475E2805D14FF080
:100E600001096269494601989047216939B9002111
:100E70000A46534643F82120491C0829FADBB0B33F
:100E8000216969B9C11700EBD16253110AEB8301E3
:100E900022F01F02821A01200B68904003430B606E
:100EA00062690121019890475D28E8D1B9F1000FEE
:100EB00009D00020514651F82020D24341F820208B
:100EC000401C0828F7DB02AB224600976FF00100B8
:100ED0000B99AFF3008000280CDA401C08D1BBF15D
:100EE000000F05D04FF0FF300DB0BDE8F08FFFE7E9
:100EF0004046F9E7E90701D108F1010806444FF03F
:100F0000000B79E6CCCCCC0C7F2801D9002208E07C
:100F1000064A02EB5002C007127800D1120902F013
:100F20000F0201209040084070470000849500089F
:100F3000B0B582B004460020019021688A68D207CB
:100F40004FD1886840F00100886040F22C00C2F266
:100F5000000000684DF68361C4F21B31A0FB010163
:100F6000880C01900198A0B1019801380190019876
:100F700078B1019801380190019850B10198013879
:100F80000190019828B1019801380190019800283A
:100F9000EAD101F067F921688968C9071CD10546C3
:100FA00003E000BF8068C0071AD101F05BF9411B64
:100FB00020680329F6D38168C907F3D1A06A40F0FD
:100FC0001000A062E06A40F00100E062002084F8B6
:100FD0002400012002B0B0BD002002B0B0BD00BFAF
:100FE000002002B0B0BD00002DE9F04140F208152C
:100FF000C2F20005286A40F200060228C2F200068A
:1010000002D1022051E000BFE96B4CF6CD474CF60F
:10101000CD480128C3F6CC57CBF6CC5808BF0129E0
:1010200004D0012808BF02293FD127E041F600047F
:101030000020C4F20104C6E9000020464FF400512C
:10104000012201F009F94FF4C87000F0E5FF2046D5
:101050004FF40051002201F0FFF841F2883000F017
:10106000DBFF4FF42F60C6E9007800F0D5FF286A57
:101070000221E963012808BF022916D1B1680929B4
:1010800013D10020C6E900000020002104F028FD53
:101090004FF4AF60C6E9007800F0BEFF40F6C41020
:1010A000C6E9007700F0B8FF286A02281ED1E86B75
:1010B000032818BFBDE8F081B068B8B90420E86320
:1010C0000020C6E900004FF4C87000F0A5FF41F60B
:1010D0000000C4F201004FF40041002201F0BCF80E
:1010E00000200021BDE8F04104F0FABCBDE8F08129
:1010F0002DE9F04140F20815C2F20005296AE86BBB
:1011000040F200044CF6CD464CF6CD480429C2F21C
:101110000004C3F6CC56CBF6CC5808BF052822D124
:101120000027C820C4E9007700F076FF00200021E6
:1011300004F0D6FC40F65430C4E9006800F06CFFBF
:101140000620E86340F63400C5E9066600F064FF57
:10115000C820C4E9007700F05FFF0020002104F000
:10116000BFFC296AE86BA268042908BF06281ED1C3
:10117000092A1CD10020C4E90000C82000F04CFF5F
:101180000020002104F0ACFC4FF4AF60C4E900681B
:1011900000F042FF49F69A10C3F61960C4E9000056
:1011A0004FF4FA6000F038FF296AE86BA26804295E
:1011B00008BF072802D0BDE8F08100BF002A18BF91
:1011C000BDE8F0810820E8630020C4E90000642045
:1011D00000F022FF0020002104F082FC41F6000410
:1011E000C4F2010420464FF40041002201F034F81B
:1011F00020464FF48041002201F02EF8052028629D
:10120000BDE8F081FEE7000080B5FFF7F8FA49F28B
:10121000FF524AF2A503C2F29562C3F68B73FFF741
:10122000C8F9FFF729FB80BD70470000EFF310807D
:1012300072B600BFFEE700002DE9F04381B040F236
:101240000819C2F20009D9F8240058B941F628104B
:1012500009F10101C2F200000122012403F046FD60
:10126000C9F82440D9F8200040F200050228C2F253
:10127000000501D1022055E0D9F83C104CF6CD46CE
:101280004CF6CD480128C3F6CC56CBF6CC5808BF57
:10129000012905D0012808BF022943D12AE000BF57
:1012A00041F600040020C4F20104C5E90000204614
:1012B0004FF40051012200F0CFFF4FF4C87000F04E
:1012C000ABFE20464FF40051002200F0C5FF41F272
:1012D000883000F0A1FE4FF42F60C5E9006800F0EF
:1012E0009BFED9F820000221C9F83C10012808BF54
:1012F000022917D1A968092914D10020C5E90000E5
:101300000020002104F0ECFB4FF4AF60C5E9006859
:1013100000F082FE40F6C410C5E9006600F07CFED5
:10132000D9F82000D9F83C10022808BF03291AD1A7
:10133000A868C0B90420C9F83C000020C5E9000035
:101340004FF4C87000F068FE41F60000C4F20100DE
:101350004FF40041002200F07FFF0020002104F044
:10136000BFFBD9F83C10042940F0E38140F2B02ED5
:101370000020C2F2000E09F1540C4FF000080026C4
:101380000023C9E915000AE0624680461C46C9F8F8
:101390005830264643461060192800F087800EEB2F
:1013A000800467685EF82320451C974206DDC9F873
:1013B00058306246A8461F460CE000BF9E4209F125
:1013C000580201D12F4605E05EF826108F422F46C5
:1013D00003DD00BF3E4643461560A5685EF8231056
:1013E000871C8D4206DD6246B8461D46C9F8583056
:1013F0000CE000BF9E4209F1580201D13D4605E0D4
:101400005EF826108D423D4603DD00BF2E46434662
:101410001760E7685EF82310C21C8F4206DD654640
:1014200090461F46C9F858300CE000BF9E4209F1B3
:10143000580501D1174605E05EF826108F42174681
:1014400003DD00BF3E4643462A6027695EF823104D
:10145000021D8F4206DD654690461F46C9F858308A
:101460000CE000BF9E4209F1580501D1174605E086
:101470005EF826108F42174603DD00BF3E46434606
:101480002A6064695EF8231005308C423FF77CAF18
:101490009E4209F1580201D104467AE75EF826100F
:1014A0008C4204463FF775AF76E700BF40F2482E06
:1014B0000020C2F2000E09F15C0C4FF0000800267B
:1014C0000023C9E917000AE0624680461C46C9F8B5
:1014D0006030264643461060192800F087800EEBE6
:1014E000800467685EF82320451C974206DDC9F832
:1014F00060306246A8461F460CE000BF9E4209F1DC
:10150000600201D12F4605E05EF826108F422F467B
:1015100003DD00BF3E4643461560A5685EF8231014
:10152000871C8D4206DD6246B8461D46C9F860300C
:101530000CE000BF9E4209F1600201D13D4605E08A
:101540005EF826108D423D4603DD00BF2E46434621
:101550001760E7685EF82310C21C8F4206DD6546FF
:1015600090461F46C9F860300CE000BF9E4209F16A
:10157000600501D1174605E05EF826108F42174638
:1015800003DD00BF3E4643462A6027695EF823100C
:10159000021D8F4206DD654690461F46C9F8603041
:1015A0000CE000BF9E4209F1600501D1174605E03D
:1015B0005EF826108F42174603DD00BF3E464346C5
:1015C0002A6064695EF8231005308C423FF77CAFD7
:1015D0009E4209F1600201D104467AE75EF82610C6
:1015E0008C4204463FF775AF76E700BF40F2DC1E41
:1015F0000020C2F2000E09F1640C4FF00008002632
:101600000023C9E919000AE0624680461C46C9F871
:101610006830264643461060192800F087800EEB9C
:10162000800467685EF82320451C974206DDC9F8F0
:1016300068306246A8461F460CE000BF9E4209F192
:10164000680201D12F4605E05EF826108F422F4632
:1016500003DD00BF3E4643461560A5685EF82310D3
:10166000871C8D4206DD6246B8461D46C9F86830C3
:101670000CE000BF9E4209F1680201D13D4605E041
:101680005EF826108D423D4603DD00BF2E464346E0
:101690001760E7685EF82310C21C8F4206DD6546BE
:1016A00090461F46C9F868300CE000BF9E4209F121
:1016B000680501D1174605E05EF826108F421746EF
:1016C00003DD00BF3E4643462A6027695EF82310CB
:1016D000021D8F4206DD654690461F46C9F86830F8
:1016E0000CE000BF9E4209F1680501D1174605E0F4
:1016F0005EF826108F42174603DD00BF3E46434684
:101700002A6064695EF8231005308C423FF77CAF95
:101710009E4209F1680201D104467AE75EF826107C
:101720008C4204463FF775AF76E700BF0520C9F845
:101730003C0001B0BDE8F08341F2C070C2F200008D
:10174000006841F60802416AC2F2000240F21C132E
:101750001268C2F200031980516A4942598000217F
:10176000416251627047000010B541F60004C4F2B6
:10177000010420464FF4805100F060FD70B1204616
:101780004FF4805100F05AFD012818BF10BD40F2FF
:101790000810C2F20000002181632AE040F2081123
:1017A000C2F20001886B01300528886321D1086AE4
:1017B000C96B50EA010207D140F20000C2F20000FA
:1017C00081680131816010BD012808BF022911D054
:1017D000022808BF03290DD040F28011C2F2000197
:1017E0004968002808BF0129E6D0042808BF01295C
:1017F00000D010BD40F20000C2F200008168013943
:10180000816010BD10B581B00022009290F82420B4
:10181000012A03D10221084601B010BD4B68012204
:10182000062B80F8242017D8D0F800C003EB8303E0
:101830005A1F1F23DCF834E003FA02F40B682EEA87
:10184000040403FA02F22243CCF83420092B03EB00
:10185000430219D936E000BFD0F800C00C2B03EBCF
:1018600083021DD8233A1F23DCF830E003FA02F488
:101870000B682EEA040403FA02F22243CCF830206B
:10188000092B03EB43021DD8DCF8103007248968CC
:101890009440A34391401943CCF81010002130E04C
:1018A000413A1F23DCF82CE003FA02F40B682EEA1D
:1018B000040403FA02F22243CCF82C20092B03EB98
:1018C0004302E1D9DCF80CE01E3A07248968944011
:1018D0002EEA0404914023F001022143102ACCF89F
:1018E0000C100DD142F20841C4F20101A1F108022D
:1018F00094450DD0816A41F020018162012100E010
:101900000021002280F82420084601B010BD00BF4D
:101910000A68120230D40A68102B42F400020A60EE
:101920002CD140F22C01C2F2000109684DF683620D
:10193000C4F21B32A1FB0212910C01EB81014900A0
:1019400000910099E1B10099013900910099C9B164
:101950000099013900910099B1B1009901390091C4
:10196000009999B1009901390091009900294FF02F
:101970000001E8D1C5E700BF0021C2E70021C0E7B0
:101980000021BEE70021BCE70021BAE70021B8E74B
:101990000068C06C70470000B0B5002800F0B2804D
:1019A0000446806A20B121688868C0070BD114E022
:1019B0000020E06284F82400204600F0A5F82168A9
:1019C0008868C00709D0886820F00100886000F0AE
:1019D00049FC21688A68D20730D1A06AC00644D485
:1019E000A06A41F2021290430230A062E36981F0E2
:1019F000804080F49E3083F44022104308BF4FF4AF
:101A00000023D4E9010243EA000C531EB3FA83F326
:101A10005D091346B2F5807F18BF2B02207D257B20
:101A200001284CEA450030D135B3A56A45F02005C0
:101A3000A562E56A45F00105E56226E0054602E09B
:101A40008868C007C9D000F00DFC401B216803283E
:101A5000F6D38868C007F3D0A06A40F01000A062F7
:101A6000E06A40F00100E062A06AA06A40F0100065
:101A7000A0620120B0BD00BFD4F818C04EF600052A
:101A8000CFF6FF7505EB4C352B434D68B2F5807FE3
:101A900025F4694543EA05034B608B684FF2FD75F9
:101AA000CFF6E17503EA050343EA00038B6001D03A
:101AB000012A07D122690023CFF6F07303EB02520B
:101AC00001E000BF0022CB6A23F470031A43CA620C
:101AD000896840F6FE62CFF61F721140814207D13D
:101AE0000020E062A16A012262F30101A162B0BD9F
:101AF000A06A40F0100020F00200A062E06A40F00E
:101B00000100E0620120B0BD80B586B0014641F21F
:101B10000000C4F20100096800F5A05291424FF0A4
:101B20000001CDE9041101D006B080BD41F21801D9
:101B3000C4F202010A6842F400720A600A6802F400
:101B400000720192019A0A6842F010020A60096864
:101B500001F01001019101992121029103210391CA
:101B600002A900F06DFA06B080BD0000F0B581B0AA
:101B700000270D460446009700F074FB21688A6830
:101B8000D20543D406464868C00503D4C86A10F499
:101B9000700F45D040F22C00C2F20000076802200E
:101BA00000F08CFF216844F624130A69B7FBF0F0BB
:101BB000C2F292431A4206D1CA6844F62413C0F214
:101BC00092031A425ED00A6942F29243C1F249235B
:101BD0001A4207D1CA6842F29243C0F249031A423C
:101BE00000F0C0800A6949F24923C0F224031A4276
:101BF0004FF0FC0257D1CF681F4208BF5422009B10
:101C000002FB00F7BB4253D3C3E000BFA06A40F021
:101C10002000A06284F82470012001B0F0BD00BF54
:101C20000868800700F1B580681C00F0A880FDB945
:101C30000868800772D50868800700F1AA800868E4
:101C400080076BD50868800700F1A38008688007CB
:101C500064D50868800700F19C80086880075DD51E
:101C600008688007E4D594E00868800700F1918057
:101C700000F0F8FA801B2168A842F5D908688007AF
:101C8000F2D44BE00A6942F29243C1F249231A426C
:101C90004FF0290207D1CB6842F29247C0F24907C0
:101CA0003B4208BF1422009B02FB00F7BB4270D2EC
:101CB000681C4FD055BB0098B8422FD30098013014
:101CC00000900098B84264D20098B84226D3009899
:101CD000013000900098B8425BD20098B8421DD302
:101CE0000098013000900098B84252D20098B84253
:101CF00014D30098013000900098B842DBD348E03C
:101D00000098013000900098B84233D200F0AAFA4F
:101D1000801BA842F4D90098B842F1D2A06A40F0E2
:101D20000400A062002084F82400032001B0F0BD6C
:101D30000098013000900098B8422AD200980130F3
:101D400000900098B84224D200980130009000988A
:101D5000B8421ED20098013000900098B842E7D3F4
:101D600017E000BF5422009B02FB00F7BB429FD349
:101D70000FE000BF21680CE00868800709D40868FC
:101D8000800706D4086880075CBF08685FEA807037
:101D9000F2D56FF012000860A06A40F40070A062F3
:101DA000886800F46020B0F5602F01D1207B18B165
:101DB000002001B0F0BD00BFA06A20F48070A062D6
:101DC000A06AC004F4D4A06A40F00100A062002020
:101DD00001B0F0BD10B5044690F82400012804BFFE
:101DE000022010BD012084F824002046FFF7A0F84F
:101DF00020B1002184F8241010BD00BF42F2044C31
:101E00002068A16AC4F2010C40F2013291430CF542
:101E10007F7201F580719042A16233D0A16A21F4F2
:101E20008011A1624168490504D5A16A012363F3C9
:101E30000D31A162A16A0023C9044FF0000144BF23
:101E4000E16A21F00601E1626FF0020184F82430BA
:101E50000160816801F46021B1F5602F06D19042E4
:101E60000AD1DCF8001011F4702F05D0816841F41C
:101E700080118160002010BD816841F4A001816063
:101E8000002010BDDCF8001011F4702FC6D0A16A3C
:101E900041F48011A162DCF800104905C5D4C9E7FE
:101EA000014690F82100022816D10868D1E90FC335
:101EB000026822F00E020260026822F00102026053
:101EC000012000FA03F2CCF8042081F82100002060
:101ED000002281F82020704704208863012000221E
:101EE00081F820207047000080B590F82110022969
:101EF00028D1026840F2040C1368C4F2020C23F0EB
:101F00000E03136013680CF17C018A4223F0010177
:101F100011601BD940F20841C4F202018A4249D043
:101F200040F21C41C4F202018A4247D040F23041E3
:101F3000C4F202018A4245D14FF48073CCF80034D8
:101F40005DE000BF04218163012080BD4321C4F214
:101F500002018A420EDD6B21C4F202018A421BDCBF
:101F60004421C4F202018A423CD05821C4F2020149
:101F70008A4233E00821C4F202018A4236D01C2191
:101F8000C4F202018A4237D03021C4F202018A42EF
:101F900024D14FF4807230E06C21C4F202018A42F5
:101FA00026D08021C4F202018A4217D14FF08072FC
:101FB00023E000BF0123CCF8003420E01023CCF84C
:101FC00000341CE00CF588614FF480338A4208BF6E
:101FD0004FF48053CCF8003411E000BF4FF480324E
:101FE0000BE000BF4FF4805207E000BF012204E085
:101FF0004FF4801201E000BF1022CCF80020012134
:1020000080F82110426B002180F820100AB190471F
:102010000021084680BD0000B0B5044600F022F95A
:10202000054640F20C00C2F200000078611C18BFA7
:10203000044400BF00F016F9401BA042FAD3B0BD23
:102040002DE9F04F82B0D1F800C0BCF1000F00F0D4
:10205000F180A0F1804241F60045A2F58432C4F23D
:10206000010540F2004E4FEAB2240627A842C4F20E
:10207000010E08BF0527052C4FF000044FF00108A2
:102080004FF00F034FF0000A4FF0000B38BF4FEA3C
:10209000B22700970AE000BFD1F800C00AF1010A98
:1020A0003CFA0AF204F1040400F0C48008FA0AF9C8
:1020B0001CEA090FF0D04E684FF6FF72C1F2100211
:1020C000964211DC122E55D8DFE806F0340A444857
:1020D000545454545454545454545454544C500020
:1020E000D1F80CB046E000BF4FF6FF72C1F22102FA
:1020F00096420FDC0022C1F2110296421AD0002251
:10210000C1F21202964215D00022C1F2210296427B
:1021100010D02FE00022C1F2220296420AD0002203
:10212000C1F23102964205D00022C1F2320296423B
:1021300020D100BF8A684AB1012A14BFC0F81490A8
:10214000C0F810904FF0080B14E000BF4FF0040BE4
:1021500010E000BFCA6802F1080B0BE04FF0000B63
:1021600008E000BFCA6802F1040B03E0CA6802F18C
:102170000C0B00BF22460646BAF1080F24BF203AD6
:102180000436376803FA02F5AF430BFA02F23A431A
:102190003260CA79D2067FF57FAF41F21807C4F2E8
:1021A00002073A684FF6084342F001023A603A6883
:1021B000CFF6FF7302F001020192019A2AF00302A6
:1021C00072440F25D75804F00C06B540AF43009D6C
:1021D00005FA06F63743D7504E6840F20C45F20236
:1021E000DEF8082054BF22EA090242EA0902CEF8CA
:1021F0000820C4F201052A68B70254BF22EA090286
:1022000042EA09022A60DEF80420B70354BF22EA3A
:10221000090242EA0902CEF804200F23DEF800206A
:10222000F70354BF22EA090242EA0902CEF800206D
:1022300032E700BF02B0BDE8F08F000080680840C0
:1022400018BF012070470000C26802EA01039143F1
:1022500041EA034101617047002A08BF0904016196
:102260007047000041F67010C2F20000006870472D
:1022700070B5B8B3044690F83D0028B9002084F842
:102280003C00204600F002FB242084F83D0020683A
:10229000016821F001010160016841F40041016021
:1022A000016821F40041016000F0F6FD48F2804130
:1022B000C0F21E0140F60013D4F804E088424FF04B
:1022C0000001C0F23D0348F2A16C4FF0000238BF9C
:1022D00001219842C0F2010C38BF0122E64538BF07
:1022E0000A460AB1012070BD4DF68361C4F21B316C
:1022F000A0FB01122168950C4B684FF4967623F0F1
:102300003F0343EA9243754344F6D3564B60C1F210
:1023100062060B6AA5FB0656B50923F03F03E645A6
:1023200038BF950C6A1C1A430A62CA6948F2A06653
:102330004CF6FF73C0F20106B64522EA03020BD841
:1023400001384FEA4E03B0FBF3F001306FF31F305A
:10235000042898BF04201EE0A368013863B1192344
:102360000EFB03F3B0FBF3F001306FF31F3078B1D5
:1023700000F5804008E000BF0EEB4E03B0FBF3F029
:1023800001306FF31F3028B100F5004003E000BFBB
:10239000012000E001201043C8610868D4E9072348
:1023A00020F0C000104318430860886848F2FF32EC
:1023B00004F10C0690434CCE18431043A569886085
:1023C000C86820F0FF0030432843C860086840F028
:1023D0000100086000202021206484F83D10206363
:1023E00084F83E0070BD00002DE9F04F85B0044632
:1023F0000020994616460F460490FFF733FF94F8E5
:102400003D10202927D10546206800BF8169890732
:102410001CD5FFF727FF411B20681A29F6D38169D5
:102420008907F3D500202021206384F83D1084F82B
:102430003E00206C04F13C0A40F0200020640220A1
:1024400000218AF8001005B0BDE8F08FA2461AF806
:102450003C1F012904D1022005B0BDE8F08F00BF68
:1024600001228AF800200368DDE90F180E9ADB07C5
:1024700003D1036843F001030360036823F400639E
:102480000360222084F83D00402084F83E000020B4
:10249000206462626185608D394620850020CFF618
:1024A000FF70E062204632464B46CDF80080019531
:1024B00002F016FD20B1012005B0BDE8F08F00BF8D
:1024C000208D022810D0012824D0002838D10020E7
:1024D0000390206841690391816903910399016820
:1024E00041F40071016037E02068016841F4006147
:1024F0000160EFF3108072B60020039020684169FC
:102500000391816903910399016821F4806101605D
:1025100062B621E02068016821F480610160EFF378
:10252000108072B600200390206841690391816990
:1025300003910399016841F40071016062B60BE0F8
:102540002068016841F480610160002103914169C4
:102550000391806903900398208D002800F0CA80C1
:10256000042740F22C094BF2895BC0F20107C2F24A
:102570000009C1F2F84B232617E000BF2046414670
:102580002A4602F057FF002895D12068616A006949
:102590000870606A218D01306062481E2085618D5F
:1025A00001396185010400F0A58080B2032865D857
:1025B000022800F07F800128E0D020463946002222
:1025C0004346009502F0DCFD00287FF474AF2068DC
:1025D000016821F480610160EFF3108072B6206819
:1025E000616A00690870606A218D0130013960629A
:1025F0002185618D01396185D9F80010C908A1FBD9
:102600000B12110A71430491049901390491049940
:10261000002900F07B8021684A6952071DD4049983
:10262000013904910499002970D021684A69520740
:1026300013D40499013904910499002966D02168C2
:102640004A69520709D4049901390491049900296F
:102650005CD021684A695207D6D50A6842F40072F4
:102660000A6009690170606A218D01306062481E4C
:102670002085608D0138608562B686E72046414638
:102680002A4602F0D7FE00287FF415AF2068616A61
:1026900000690870606A2268411C208D61620138FF
:1026A0002085638D013B638553695B077FF57AAFB6
:1026B00010696DE72046394600224346009502F036
:1026C0005FFD00287FF4F7AEEFF3108072B620684C
:1026D000616A026842F40072026000690870606A10
:1026E000218D01306062481E2085608D0138608533
:1026F00062B64AE7202084F83D00002084F83E00BE
:1027000000218AF8001005B0BDE8F08F00202021DC
:10271000206384F83D1084F83E00206C40F02000D7
:10272000206462B6012000218AF8001005B0BDE8DF
:10273000F08F00002DE9F04383B0994616460F460E
:102740000446FFF78FFD94F83D10202920D105465F
:10275000206800BF8169890716D5FFF783FD411BFB
:1027600020681A29F6D381698907F3D50020202132
:10277000206384F83D1084F83E00216C41F0200174
:10278000216484F83C0003E094F83C10012903D153
:10279000022003B0BDE8F083012284F83C200368E6
:1027A000DDE90B180A9ADB0703D1036843F0010344
:1027B0000360036823F400630360212084F83D0074
:1027C000402084F83E000020206462626185608DB4
:1027D000394620850020CFF6FF70E0622046324661
:1027E0004B46CDF80080019502F006FC20B1012097
:1027F00003B0BDE8F08300BF208D98B92046414664
:102800002A4602F05DFC88B3206C0428EFD12068D2
:10281000016841F400710160012003B0BDE8F0835C
:102820000004EBD0204641462A4602F04BFE002829
:10283000EAD1616A2268084610F8013B1361238DD2
:102840006062581E2085678D013F678557697F0745
:10285000E6D50704E4D048781061881C6062981EB1
:102860002085618D01396185DAE700BF2068016844
:1028700041F400710160202084F83D00002084F8BC
:102880003E0084F83C0003B0BDE8F08310B586B08C
:10289000006845F60001C4F2000188424FF00001D3
:1028A000CDE90411CDE902112AD045F20041C4F26C
:1028B0000001884248D141F21804C4F202042068A1
:1028C00002A940F008002060206800F00800019094
:1028D0000198C0200290122003900320059040F63A
:1028E0000040C4F20100FFF7ABFB606840F4001049
:1028F0006060606800F400100190019806B010BD9F
:1029000041F21804C4F20204206802A940F0080051
:102910002060206800F00800019001984FF44060AA
:102920000290122003900320059040F60040C4F26C
:102930000100FFF785FB606840F48000606060681C
:1029400000F480000190019806B010BD40F20C0028
:1029500041F67011C2F20000C2F2000100780A686C
:10296000104408607047000080B542F20000C4F2D5
:102970000200016841F010010160032000F08EF8B0
:102980000F2000F005F800F027F8002080BD0000BF
:1029900070B540F20C06C2F2000640F22C0132780B
:1029A000C2F200014FF47A730968B3FBF2F20446F5
:1029B000B1FBF2F1084600F09DFC0F2C4FF0010531
:1029C00008D838B94FF0FF3021460022002500F02A
:1029D00039F87460284670BD82B041F21800C4F224
:1029E00002000168022241F001010160016801F06A
:1029F000010101910199416841F0805141604068B5
:102A000000F08050009000980420C4F2010001689A
:102A100062F31A61016002B070470000002848BFED
:102A20007047C1B200F01F00012202FA00F04EF21E
:102A30000012CEF2000242EAD10121F00301086047
:102A40007047000010B54EF60C5CCEF2000CDCF8BE
:102A50000030C3F3022E8EF00704042C28BF042498
:102A6000BEF103034FF0FF3E0EFA04F438BF00231B
:102A7000A14399400EFA03F39A43114300F00F0269
:102A800000F160430901043A03F5644362440028FD
:102A900048BF02F10C03197010BD00004EF60C5136
:102AA000CEF200010A684FF6FF031A4060F30A22D3
:102AB00042F0806040F0FD700860704780B5411EB4
:102AC0000F294FF0000039D8DFE801F00C2A380850
:102AD00038383808383838383838383ABDE880401F
:102AE00000F002BA41F20400C4F20200C16940F2EF
:102AF00002320A40B2F5817F04BF4FF4004080BD2E
:102B000001F44071B1F5407F4CD0B1F5007F51D157
:102B1000006A49F64041800701EAE07080BD00BFCD
:102B200000F0CEF941F20401C4F202010968022268
:102B3000C1F3813102EB4101B0FBF1F080BD00BF78
:102B400041F20401C4F202010A6851F8040CC00108
:102B50005CBF002080BDC2F3834017A3185CD20382
:102B600006D440F60012C0F23D0250430CE000BF14
:102B70000A6815A3C2F340429A5C41F20023C0F2F6
:102B80007A03B3FBF2F250430968490248BF80BDA3
:102B90004AF6AB214000CAF6AA21A0FB0101480871
:102BA00080BD00BF50F8040C4FF22441800301EABD
:102BB000E07080BD002080BD0203040506070809FF
:102BC0000A0B0C0D0E0F1010010200002DE9F04150
:102BD00082B00446007841F21C06C007C4F2020627
:102BE0004AD0306810F0805808D1306840F08050EA
:102BF0003060306800F080500190019847F2000783
:102C0000C4F200073868C00512D4386840F48070F8
:102C10003860FFF727FB05463868C00508D4FFF782
:102C200021FB401B6428F7D9032002B0BDE8F081E6
:102C3000706810F4407012D0616801F440718842ED
:102C40000DD0706840F24042C4F24222012320F4C9
:102C5000407113600023C007136071602AD170684F
:102C6000616820F440700843B8F1000F706003D130
:102C7000306820F0805030602068810707D556F812
:102C8000181CA26821F44041114346F8181CC006E4
:102C900004D4002002B0BDE8F08100BF56F8180C43
:102CA000616920F48000084346F8180C002002B047
:102CB000BDE8F081FFF7D6FA054641F2883700BF3C
:102CC00070688007CBD4FFF7CDFA401BB8424FF0B5
:102CD0000300F5D9EBE700002DE9F04381B00028AF
:102CE00000F0858042F20008C4F202080446D8F8D9
:102CF00000000D4600F0070088420CD2D8F8000012
:102D000020F007002843C8F80000D8F8000000F0C1
:102D10000700A8426BD1206841F204098107C4F280
:102D2000020917D5410705D5D9F8001041F4E06133
:102D3000C9F80010010705D5D9F8001041F4605119
:102D4000C9F80010D9F80010A26821F0F001114371
:102D5000C9F80010C00741D1D8F8000000F0070002
:102D6000A8420CD9D8F8000020F007002843C8F882
:102D70000000D8F8000000F00700A84237D1206812
:102D8000410707D5D9F80010E26821F4E06111434A
:102D9000C9F80010000708D5D9F80000216920F40F
:102DA000605040EAC100C9F80000D9F8002002F0E4
:102DB0000C00082841F20020C0F27A0050D149F6F8
:102DC000E653C2F38341C0F60003595CD2033BD4FF
:102DD00040F60010C0F23D00484341E06068022820
:102DE0000AD001282AD159F8041C890308D40120EB
:102DF00001B0BDE8F08300BF59F8041C8901F6D585
:102E0000D9F8001021F003010843C9F80000FFF7CA
:102E100029FA064641F28837D9F80000616800F0C7
:102E20000C00B0EB810F97D0FFF71CFA801BB84263
:102E3000F2D9032001B0BDE8F08300BF59F8041CAB
:102E40008907D4D5DCE700BFD9F8002049F6E45360
:102E5000C2F34042C0F600039A5C4843B0FBF2F074
:102E6000D9F8001049F2C452C1F30311C0F60002B0
:102E7000515C40F22C0220FA01F140F21000C2F243
:102E800000000068C2F200021160FFF781FD00201F
:102E900001B0BDE8F083000040F22C0041F20401D3
:102EA000C2F20000C4F202010068096849F2D4527B
:102EB000C1F30221C0F60002515CC8407047000017
:102EC00040F22C0041F20401C2F20000C4F20201FF
:102ED0000068096849F2D452C1F3C221C0F6000269
:102EE000515CC8407047000041F2040CC4F2020C6F
:102EF000DCF8003003F00C00082841F20020C0F29A
:102F00007A0018BF704749F6E651C3F38342C0F612
:102F100000018A5CD90305D440F60010C0F23D00E0
:102F200050437047DCF8001049F6E453C1F34041C8
:102F3000C0F60003595C5043B0FBF1F0704700004D
:102F40002DE9F04182B0002868D00446007841F2B3
:102F50000006C007C4F2020625D0706800F00C001D
:102F600004281BD0706800F00C00082802D170689B
:102F7000C00313D46068002800F06881B0F5A02F6A
:102F800000F07C81B0F5803F00F07C81306820F457
:102F900080303060306820F4802076E13068800333
:102FA00001D56068D0B32078800718D5706810F01C
:102FB0000C0F07D0706800F00C0008286ED1706804
:102FC000C0036BD43068800702D52069012825D161
:102FD0003068616920F0F80040EAC1003060207874
:102FE00000071FD42078400732D4E56995B1706896
:102FF00000F00C00082840F08F80012D0ED0706882
:10300000216A00F480328A4208D1616A00F47010AB
:10301000884203D1002002B0BDE8F081012002B057
:10302000BDE8F081A069002862D00020C4F24220EF
:103030000121C0F88014FFF715F90546706A800772
:1030400000F18C80FFF70EF9401B0228F6D92AE127
:10305000F06910F0805808D1F06940F08050F061BC
:10306000F06900F080500090009847F20007C4F229
:1030700000073868C00529D4386840F4807038608B
:10308000FFF7F0F8054600BF3868C0051ED4FFF70B
:10309000E9F8401B6428F7D905E100BF2069002842
:1030A00040F20000C4F2422000F082800121016061
:1030B000FFF7D8F8054600BF306880073FF588AFB6
:1030C000FFF7D0F8401B0228F6D9ECE0E0680028B2
:1030D00000F08080052800F09780012800F098809B
:1030E000306A20F001003062306A20F0040092E083
:1030F0000020C4F242200021C0F88014FFF7B2F88B
:10310000054600BF706A80077FF56CAFFFF7AAF82D
:10311000401B0228F6D9C6E00027C4F2422700204F
:103120003866FFF79FF8022D05460BD13068800105
:1031300040F1BE80FFF796F8401B02284FF00300D5
:10314000F4D968E7306880017FF564AFFFF78AF84B
:10315000401B02284FF00300F4D95CE740F22C003A
:10316000C2F20000006844F6D351C1F26201A0FB34
:103170000101480A019000BF00BF0198411E0028CC
:1031800001913FF42FAF00BF0198411E002801912B
:103190003FF428AF00BF0198411E002801913FF481
:1031A00021AF00BF0198411E00280191E4D119E729
:1031B00000210160FFF756F8054600BF3068800720
:1031C0007FF50DAFFFF74EF8401B02284FF00300CC
:1031D000F4D920E7306A20F001003062306A20F034
:1031E00004003062FFF73EF8054641F2883700BF21
:1031F000306A800720D5FFF735F8401BB8424FF002
:103200000300F5D907E700BF306A40F004003062E0
:10321000306A40F001003062FFF724F8054641F2C1
:10322000883700BF306A800706D4FFF71BF8401BC1
:10323000B842F7D937E000BFB8F1000F7FF4D5AE40
:10324000F06920F08050F061CFE600BF306820F4D4
:1032500080303060306820F480203060FFF702F862
:10326000054600BF306880037FF59DAEFEF7FAFF8C
:10327000401B64284FF00300F4D9CCE6306840F4DA
:1032800080203060306840F480303060FEF7EAFF24
:10329000054600BF306880033FF585AEFEF7E2FFCC
:1032A000401B6428F6D9032002B0BDE8F08100BFBE
:1032B000206AB0F5803F05D17168A26821F4003121
:1032C000114371607168626A21F4741111430843FB
:1032D000706001203866FEF7C5FF04463068800143
:1032E0003FF598AEFEF7BEFF001B02284FF003002B
:1032F000F4D990E6411E0020B0EB116F1CBF0120F5
:1033000070474EF21002CEF2000251604EF6235189
:10331000CEF20001F0230B7007219060116070471E
:10332000704700007047000010B590F83C20012A5B
:103330004FF002023FD080F83D200268D2F804E04E
:10334000D2F808C00C682EF07003234340F6FF3417
:10335000C4F20004A242536010DCB2F1804F1FD0CF
:1033600040F20043C4F200039A4219D040F6000331
:10337000C4F200039A4213D017E000BF40F60043A6
:10338000C4F200039A420BD043F20043C4F201039B
:103390009A4205D042F60043C4F201039A4204D196
:1033A00049682CF08003194391600121002280F8C4
:1033B0003D1080F83C20104610BD0000002804BFDE
:1033C0000120704710B5044690F83D0028B9002050
:1033D00084F83C00204600F085F8022084F83D0087
:1033E000206840F6FF330268C4F2000343F2004C49
:1033F0009842C4F2010C21DCB0F1804F2CD040F295
:103400000041C4F20001884226D040F60001C4F217
:103410000001884220D0984224DCB0F1804F2FD0A8
:1034200040F20041C4F20001884229D040F6000178
:10343000C4F20001884223D026E000BF40F60041DC
:10344000C4F20001884207D0604505D042F6004131
:10345000C4F201018842DED1A16822F070020A4361
:103460009842DADD40F60041C4F20001884207D0FC
:10347000604505D042F60041C4F20101884203D103
:10348000216922F440720A43A36922F08001D4F832
:1034900004E0E268194360450160C262C0F828E0B8
:1034A00005D042F60041C4F20101884201D16169B0
:1034B000016301214161002084F8461084F83E1028
:1034C00084F83F1084F8401084F8411084F84210CA
:1034D00084F8431084F8441084F8451084F83D10B3
:1034E00010BD000080B582B0006840F60001C4F253
:1034F000000188421ED042F60041C4F20101884218
:1035000025D141F21800C4F202000168002241F402
:10351000006101600068012100F4006001900198E1
:103520001920FFF78FFA192002B0BDE88040FFF79D
:1035300075BA00BF41F21800C4F20200416841F0C0
:1035400004014160406800F004000090009802B05F
:1035500080BD000090F83D1001291CBF012070477C
:10356000022180F83D10006840F6FF32C168C4F2C5
:103570000002904241F00101C1600FDCB0F1804FC8
:103580001ED040F20041C4F20001884218D040F63B
:103590000001C4F20001884212D018E040F6004158
:1035A000C4F2000188420BD043F20041C4F2010191
:1035B000884205D042F60041C4F20101884206D19A
:1035C000816801F00701062904BF002070470168E7
:1035D00041F00101016000207047000080B590F8C3
:1035E0003C20012A4FF0020200F0C28080F83D200A
:1035F000D0F800C04FF67772DCF8083023EA0202F8
:10360000CCF808200B684F2B28DC1F2B44DD202B27
:1036100045D0302B43D0402B40F0AC80D1F804E0B3
:10362000C968DCF82030DCF8202022F00102CCF858
:103630002020DCF8182022F0F00242EA011123F0E9
:103640000A0242EA0E02CCF81810CCF82020DCF86E
:10365000081041F0470121F0300180E06F2B27DD99
:10366000B3F5005F48D0B3F5805F7AD0702B40F09F
:103670008180D1E901E3C968DCF8082043EA0E0340
:1036800022F47F4243EA01211143CCF80810DCF810
:10369000081041F0770162E00BB1102B6AD1DCF821
:1036A000081021F07001194341F0070157E000BFF5
:1036B000502B35D0602B5DD1D1F804E0C968DCF81F
:1036C0002030DCF8202022F01002CCF82020DCF89A
:1036D000182022F4704242EA013123F0A00242EAAB
:1036E0000E12CCF81810CCF82020DCF8081041F0AD
:1036F000670121F0100132E0D1E901E3C968DCF88B
:10370000082043EA0E0322F47F4243EA01211143D9
:10371000CCF80810DCF8081041F480411FE000BF2D
:10372000D1F804E0C968DCF82030DCF8202022F071
:103730000102CCF82020DCF8182022F0F00242EA46
:10374000011123F00A0242EA0E02CCF81810CCF85C
:103750002020DCF8081041F0570121F02001CCF8BE
:1037600008100022012180F83D10002180F83C1053
:10377000104680BD0122F5E7002804BF01207047F4
:103780002DE9F04F81B0044690F83D008B4628B9F2
:10379000002084F83C00204600F0B0F8022084F8B5
:1037A0003D00206844F20702816840F6FF339143F0
:1037B00081600268C4F2000343F2004C9842C4F2F4
:1037C000010C21DCB0F1804F2CD040F20041C4F25A
:1037D0000001884226D040F60001C4F20001884270
:1037E00020D0984224DCB0F1804F2FD040F200412D
:1037F000C4F20001884229D040F60001C4F2000161
:10380000884223D026E000BF40F60041C4F2000108
:10381000884207D0604505D042F60041C4F201015C
:103820008842DED1A16822F070020A439842DADDB4
:1038300040F60041C4F20001884207D0604505D03F
:1038400042F60041C4F20101884203D1216922F409
:1038500040720A43A36922F080016268E568194357
:1038600060450160C562826205D042F60041C4F243
:103870000101884201D161690163012141618268CE
:103880008369D0F820C0DBE9005EDBE9027845EA15
:10389000020ADBF818504FF6FF7923EA090347EADA
:1038A00005254FF6FC47BD43DBE9077643EA0803ED
:1038B000DBF810202B4343EA072343EA02122CF0E3
:1038C0002203DBF8147043EA0E0342EA063243EAAD
:1038D0000713C0F808A08261036284F8461084F8D8
:1038E0003E1084F83F1084F8421084F8431084F8A6
:1038F0003D10002001B0BDE8F08F000080B586B01B
:10390000006840F20041C4F2000188424FF000011B
:10391000CDE90411CDE902111CD0B0F1804F3CD1AA
:1039200041F21800C4F20200416841F00101416017
:10393000416801F0010101910199016841F0040120
:1039400001600068032100F004000190019800204C
:1039500018E000BF41F21800C4F20200416841F0D3
:1039600002014160416801F0020101910199016881
:1039700041F0040101600068C02100F004000190E2
:103980000198012002910021CDE9031040F60000CA
:10399000C4F2010002A9FEF753FB06B080BD00008F
:1039A00080B590F83E2090F83F3090F842E090F8D3
:1039B00043C004290AD0B9B9012A4FF0010208BF57
:1039C000BEF1010F34D0104680BD00BF012B4FF077
:1039D000010208BFBCF1010FF5D1022180F83F10B0
:1039E00080F8431000681EE0012A4FF0010208BF72
:1039F000012BE8D1BEF1010FE5D1BCF1010FE2D1FD
:103A0000022280F83E2080F83F2080F8422080F893
:103A1000432091B10068016A21F001010162016A4D
:103A200041F00101016210216FF0100209E000BFB6
:103A3000022180F83E1080F84210006801216FF0EA
:103A40000102036A1A400262026A114301620168BC
:103A5000002241F001010160104680BD7047000066
:103A600010B5016804460869800744BFC8685FEA6A
:103A7000807039D40869400744BFC8685FEA407065
:103A80003ED40869000744BFC8685FEA007045D4A7
:103A90000869C00644BFC8685FEAC0604AD40869C4
:103AA000C0071CBFC8685FEAC07051D10869000632
:103AB00044BFC8685FEA006052D40869400644BF4A
:103AC000C8685FEA406053D40869800646BFC8688A
:103AD0005FEA806010BD6FF0200220460A61BDE8F9
:103AE0001040FFF71FBC00BF6FF00200086101200B
:103AF00020778869800743D02046FFF7AFFF45E075
:103B00006FF00400086102202077886910F4407F7C
:103B100040D02046FFF7A2FF42E000BF6FF0080050
:103B2000086104202077C86980073DD02046FFF750
:103B300095FF3FE06FF01000086108202077C8690A
:103B400010F4407F3AD02046FFF788FF3CE000BFEA
:103B50006FF001000861204600F078FA2168A5E7BF
:103B60006FF0800008612046FFF7DAFB2168A4E7C8
:103B70006FF040000861204600F0C4FC2168A3E714
:103B8000204600F025F8204600F0ECF921680020DE
:103B900020776FE7204600F01BF8204600F0E2F99E
:103BA0002168002020776CE7204600F011F82046BD
:103BB00000F0D8F921680020207769E7204600F05E
:103BC00007F8204600F0CEF921680020207766E74C
:103BD000704700002DE9F04190F83C30012B04BF04
:103BE0000220BDE8F0814FEAB202032A00F21C81F4
:103BF000DFE802F0024690DA036843F200461D6AED
:103C00001A6A25F0020522F001021A621A465C685F
:103C100052F818EF8F68D1F800C0C4F20106B34221
:103C200045EA070505D042F60047C4F20107BB424A
:103C300005D1CF6825F00C0527F004073D43B342BA
:103C400005D042F60046C4F20106B34205D1D1E9DF
:103C5000056724F4407434433C432EF0730747EA6D
:103C60000C075C609F614F6809695F631D629F6913
:103C700047F008079F619F6927F004079F61C9E02B
:103C8000036843F200461D6A1A6A25F0200522F0F7
:103C900010021A621A46D3F804C052F8188F8F68BF
:103CA000D1F800E0C4F20106B34245EA071505D099
:103CB00042F60047C4F20107BB4207D1CF686FF05C
:103CC000400425F0C00504EA07142543B34205D09B
:103CD00042F60044C4F20104A34206D1D1E90546EC
:103CE0002CF44067264347EA860C28F4E64444EA6D
:103CF0000E27C3F804C09F614F6809699F631D6266
:103D00009F6947F400679F619F6927F480679F61FF
:103D10007FE000BF036843F200461D6A1A6A25F47B
:103D2000007522F480721A621A46D3F804C052F861
:103D30001CEF8F68D1F80080C4F20106B34245EA57
:103D4000072505D042F60047C4F20107BB4208D15F
:103D5000CF6840F2FF443F0225F4406527EA04049F
:103D60002543B34205D042F60044C4F20104A34205
:103D700006D1D1E905462CF44057264347EA061CF4
:103D80002EF0730747EA0807C3F804C0DF614F68E5
:103D90000969DF631D62DF6947F00807DF61DF69DA
:103DA00027F00407DF6135E0036843F20047D3F8EA
:103DB00020C01A6AC4F2010722F480521A621A461D
:103DC0005C6852F81C5FD1F800E08E68BB4205D0F9
:103DD00042F60047C4F20107BB4204D14F6924F404
:103DE000804444EA87142CF4005747EA063725F448
:103DF000E64646EA0E265C60DE614E6809691E648E
:103E00001F62DF6947F40067DF61DF6927F48067BD
:103E1000DF6109021368194311600021002280F854
:103E20003C200846BDE8F0810121002280F83C20BA
:103E30000846BDE8F0810000002804BF012070475B
:103E400010B5044690F83D0028B9002084F83C00E5
:103E5000204600F085F8022084F83D00206840F6F6
:103E6000FF330268C4F2000343F2004C9842C4F2EC
:103E7000010C21DCB0F1804F2CD040F20041C4F2A3
:103E80000001884226D040F60001C4F200018842B9
:103E900020D0984224DCB0F1804F2FD040F2004176
:103EA000C4F20001884229D040F60001C4F20001AA
:103EB000884223D026E000BF40F60041C4F2000152
:103EC000884207D0604505D042F60041C4F20101A6
:103ED0008842DED1A16822F070020A439842DADDFE
:103EE00040F60041C4F20001884207D0604505D089
:103EF00042F60041C4F20101884203D1216922F453
:103F000040720A43A36922F08001D4F804E0E26819
:103F1000194360450160C262C0F828E005D042F64E
:103F20000041C4F20101884201D1616901630121AC
:103F30004161002084F8461084F83E1084F83F1058
:103F400084F8401084F8411084F8421084F843103B
:103F500084F8441084F8451084F83D1010BD00002A
:103F6000704700007047000041B1082910D00429B3
:103F700014BF00F1410200F13F020BE090F83E2037
:103F8000012A1CBF01207047022280F83E2013E066
:103F900000F140021278012A1CBF01207047022262
:103FA000082907D0042914BF80F8412080F83F2059
:103FB00002E000BF80F84020006801F01F010122EC
:103FC000036A02FA01F123EA01020262026A114362
:103FD00040F6FF32C4F20002904201620EDCB0F102
:103FE000804F25D040F20041C4F2000188421FD02A
:103FF00040F60001C4F2000118E000BF40F60041A5
:10400000C4F20001884213D043F20042C4F201021C
:1040100042F600419042C4F2010101D088420ED123
:10402000436C904243F40043436401D0884206D17C
:10403000816801F00701062904BF0020704701686C
:1040400041F0010101600020704700002DE9F04FB0
:1040500081B040F20817C2F20007D7E91023F968CF
:1040600001320133C7E9102341F27872C2F2000233
:1040700001319042F96040F0FE8141F60005C4F242
:10408000010528464FF48071FEF7D8F840F2801BF6
:10409000C2F2000BC0B128464FF40071FEF7CEF813
:1040A000B0B128464FF48061FEF7C8F8002800F050
:1040B000B58028464FF40061FEF7C0F870B90123BF
:1040C00000200021002207E00021012002E000BFC3
:1040D00001210020002200238BE80F00FDF744FBA4
:1040E000FDF72AFBB7F91400FDF78EF8B7F91610A3
:1040F000B8610846FDF788F840F2000AC2F2000AEB
:10410000DAF8002040F29C08B969C2F20008F861B0
:104110001046424602F0D4FBF969DAF8040008F1CF
:10412000240202F0CDFBF868652804DB02F088FD6C
:104130000021C7E90310396C386AC92909DB012855
:1041400007DC28464FF40041FEF77EF8386A00216C
:104150003964796C65290DDB04280BD128464FF4AE
:104160008041FEF771F828464FF40051FEF76CF8D5
:1041700000207864386B00284AD1786B002847D13A
:10418000DBF80000012843D1396AF86B51EA0002DC
:1041900032D1F86A08F14801DB28C6BF3C20B8627A
:1041A000B86A02F029FCD8F85C00FCF752FB49F62B
:1041B0009A1949F69914C9F69919C3F6B9744A4679
:1041C000234605460E46FCF74DF9FCF755FBCAF8A9
:1041D0000000484621462A463346FCF7E4F9FCF73E
:1041E0004BFBDAF80810CAF80400192954D1012051
:1041F0000121F86339624FE0012908BF01284BD043
:10420000012908BF02280DD0022908BF032843D086
:10421000DBF80400012840F0918047E001220020F3
:10422000002158E7DAF8080009282AD0F86A08F1CE
:104230004801DB28C6BF4FF48270B862B86A02F04A
:10424000DBFBD8F85C00FCF704FB49F69A1649F64C
:104250009919C9F69916C3F6B97932464B46044600
:104260000D46FCF7FFF8FCF707FBCAF800003046E4
:10427000494622462B46FCF796F9FCF7FDFACAF8A8
:104280000400DAF80800012806D1F86B022803D1EF
:1042900002210320ADE700BFD8F82000D8F8441071
:1042A00001F01EFCDBF80400012847D1DAF8081001
:1042B000386A0A2939DCC0BBF86A08F14801DB28F2
:1042C000C6BF3C20B862B86A02F096FBD8F85C0022
:1042D000FCF7BFFA49F69A1649F69919C9F69916E4
:1042E000C3F6B97932464B4604460D46FCF7BAF898
:1042F000FCF7C2FACAF800003046494622462B466F
:10430000FCF751F9FCF7B8FADAF80810CAF804001B
:104310000A2903D10520F86304203862D8F8200068
:10432000D8F8441001F0DCFB386AF96B042808BFA8
:10433000052951D0042808BF062959D0DBF8080008
:10434000012840F09880396AF86B51EA000233D1B5
:10435000F86A08F14801DB28C6BF3C20B862B86A99
:1043600002F04AFBD8F85C00FCF773FA49F69A169B
:1043700049F69919C9F69916C3F6B97932464B46EA
:1043800004460D46FCF76EF8FCF776FACAF8000012
:104390003046494622462B46FCF705F9FCF76CFAF5
:1043A000DAF80810CAF80400192940F0A1800120A9
:1043B0000121F86339629BE0012908BF012800F060
:1043C0009780012908BF022858D0022908BF032876
:1043D00000F08E804FE000BFD8F82000D8F84410DD
:1043E00001F07EFB386AF96B042808BF0629A5D1C5
:1043F000DAF80800092833D049F69A11F86AC3F6AA
:104400001961C8F85410DB28C6BFFA20B862B86A30
:1044100008F1480102F0F0FAD8F85C00FCF719FA4C
:1044200043F23336C3F6C3764FF033323346044695
:104430000D46FCF717F8FCF71FFACAF800004FF01A
:104440003330314622462B46FCF7ADF8FCF714FA20
:10445000DAF80810CAF80400012904BF0720F8633D
:10446000D8F82000D8F8441001F03AFBDBF8080037
:1044700001283FF468AF01B0BDE8F08FDAF808001A
:1044800009282AD0F86A08F14801DB28C6BF4FF492
:104490008270B862B86A02F0AFFAD8F85C00FCF734
:1044A000D8F949F69A1649F69919C9F69916C3F634
:1044B000B97932464B4604460D46FBF7D3FFFCF76D
:1044C000DBF9CAF800003046494622462B46FCF785
:1044D0006AF8FCF7D1F9CAF80400DAF808000128F4
:1044E00006D1F86B022803D10221032061E700BF47
:1044F000D8F82000D8F8441001B0BDE8F04F01F022
:10450000EFBA0000704700007047000070470000DD
:10451000B0B582B0044600680168C368426901F022
:104520002F05202D03F0200506D12DB1204602B025
:10453000BDE8B04002F0F6BA5FEA017C1EBF02F0AF
:10454000010E03F4907212EB0E0253D1226B012A7A
:1045500005D111F0100218BF13F0100236D10A066F
:1045600022D513F080021FD094F8411021293FD1A9
:10457000A168B1F5805F03D12169002900F0708244
:10458000216A4A1C226209784160E18C01390A04DF
:10459000E1842DD1C16821F08001C160C16841F082
:1045A0004001C16002B0B0BD490621D513F0400101
:1045B0001ED0C16821F04001C1602021204684F84E
:1045C000411002B0BDE8B04000F086BC002101916E
:1045D000016801914168019101994069400613D435
:1045E000A08DE18DE28D002A18BF884240F0BA818B
:1045F00002B0B0BDCA0718BF13F4807240F0B68095
:104600004A0700F1B980BEE0E06B016849688AB2F0
:10461000002AEDD0A38D9A42EAD2E1858069202854
:1046200000F09C80206850E8030F216820F480701F
:1046300041E80302DAB1206850E8030F216820F452
:10464000807041E8030292B1206850E8030F2168AE
:1046500020F4807041E803024AB1206850E8030F5B
:10466000216820F4807041E80302002ADAD1206832
:1046700050E8050F216820F0010041E80502DAB199
:10468000206850E8050F216820F0010041E805028C
:1046900092B1206850E8050F216820F0010041E840
:1046A00005024AB1206850E8050F216820F001009A
:1046B00041E80502002ADAD1206850E8050F216898
:1046C00020F0400041E80502DAB1206850E8050F0B
:1046D000216820F0400041E8050292B1206850E8CE
:1046E000050F216820F0400041E805024AB120682A
:1046F00050E8050F216820F0400041E80502002A3B
:10470000DAD1202084F8420000202063206850E89D
:10471000030F216820F0100041E80302DAB120689D
:1047200050E8030F216820F0100041E8030292B125
:10473000206850E8030F216820F0100041E80302D0
:104740004AB1206850E8030F216820F0100041E8CA
:104750000302002ADAD1E06BFDF7A2FB02206063BE
:10476000A08DE18D401A81B2204674E1626C42F066
:10477000010262644A0706D5BEF1000F03D0626CE5
:1047800042F0020262648A0706D5BEF1000F03D030
:10479000626C42F004026264BCF1000F09D545EA84
:1047A0000E02B2FA82F2520903D1626C42F00802A0
:1047B0006264626C002A3FF41BAF11F0200118BF45
:1047C000002D03D0204602F0ADF920684069616CED
:1047D00000F0400001F00801401800F0B58000BF73
:1047E000206850E8030F216820F4907041E803022C
:1047F000BAB3206850E8030F216820F4907041E8B4
:10480000030272B3206850E8030F216820F490700F
:1048100041E803022AB3206850E8030F216820F41E
:10482000907041E80302002ADAD11AE0206850E8CB
:10483000050F216820F0010041E80502DAB1206887
:1048400050E8050F216820F0010041E8050292B10F
:10485000206850E8050F216820F0010041E80502BA
:104860004AB1206850E8050F216820F0010041E8B6
:104870000502002ADAD1206B012824D1206850E8F3
:10488000030F216820F0100041E80302DAB120682C
:1048900050E8030F216820F0100041E8030292B1B4
:1048A000206850E8030F216820F0100041E803025F
:1048B0004AB1206850E8030F216820F0100041E859
:1048C0000302002ADAD1202084F84200002020636D
:1048D0002068406940063FD5206850E8050F2168F0
:1048E00020F0400041E80502DAB1206850E8050FE9
:1048F000216820F0400041E8050292B1206850E8AC
:10490000050F216820F0400041E805024AB1206807
:1049100050E8050F216820F0400041E80502002A18
:10492000DAD1E06BC0B146F61931C0F6000141633F
:10493000FDF7DAFA00283FF45BAEE06B416B02B0A2
:10494000BDE8B040084700BF2046FFF7DFFD00206C
:10495000606402B0B0BD00BF204602B0BDE8B04008
:10496000FFF7D4BD401A216851E8031F226821F4E3
:10497000907142E80313DBB1216851E8031F2268FC
:1049800021F4907142E8031393B1216851E8031FA9
:10499000226821F4907142E803134BB1216851E879
:1049A000031F226821F4907142E80313002BDAD12F
:1049B000216851E8051F226821F0010142E8051332
:1049C000DBB1216851E8051F226821F0010142E8AE
:1049D000051393B1216851E8051F226821F00101F8
:1049E00042E805134BB1216851E8051F226821F008
:1049F000010142E80513002BDAD1202184F842108E
:104A000000212163216851E8031F226821F0100171
:104A100042E80313DBB1216851E8031F226821F04B
:104A2000100142E8031393B1216851E8031F226883
:104A300021F0100142E803134BB1216851E8031F34
:104A4000226821F0100142E80313002BDAD1022280
:104A500081B22046626302B0BDE8B040FFF754BDAA
:104A6000216A31F8022B6FF35F22426021628CE5EC
:104A7000002804BF0120704710B5044690F841009B
:104A800028B9002084F84000204600F063F8242074
:104A900084F841002068D4E90212C36823F400536B
:104AA000C360036923F440531A430261D4E9042329
:104AB0001143C268194341F20C639A431143C16028
:104AC0004169A26921F44071114343F60002C4F226
:104AD00001029042416103D0FEF7DEF902E000BF1F
:104AE000FEF7EEF96268192148439100B0FBF1F03E
:104AF00048F21F51C5F2EB11A0FB01235A094FF6F2
:104B00009C73C0F6FF7302FB0300322303EB00101B
:104B1000A0FB0101F02303EA5113206803EB02120A
:104B2000C1F3431111448160016921F49041016195
:104B3000416921F02A014161C16841F40051C1601D
:104B400000202021606484F8411084F842106063E2
:104B500010BD000070B586B0006844F20041C4F298
:104B60000001002688420596CDE9036602963FD0F3
:104B700044F60001C4F20001884271D043F60001FE
:104B8000C4F20101884240F0AE8041F21800C4F244
:104B90000200016840F6000441F4804101600168B0
:104BA000C4F2010401F4804101910199016802AD50
:104BB00041F0040101600068294600F00400019002
:104BC00001984FF40070029002200390032005909A
:104BD0002046FDF735FA4FF4806002900020CDE9C1
:104BE000030020462946FDF72BFA06B070BD00BF32
:104BF00041F21800C4F20200416840F6000441F49A
:104C0000003141604168C4F2010401F400310191B6
:104C10000199016802AD41F0040101600068294674
:104C200000F00400019001980420029002200390FB
:104C3000032005902046FDF703FA0820CDE902067F
:104C4000204629460496FDF7FBF926200221002282
:104C5000FDF7F8FE2620FDF7E1FE06B070BD00BFAF
:104C600041F21800C4F20200416802AD41F4802113
:104C70004160416801F4802101910199016841F08E
:104C8000200101600068294600F020000190019891
:104C90004FF480700290022003900320059040F6AC
:104CA0000000C4F2010000F540642046FDF7C8F999
:104CB0004FF4007002900020CDE903002046294601
:104CC000FDF7BEF90420C4F201000168002241F0A2
:104CD000E06141F03001016027200321FDF7B2FEC1
:104CE0002720FDF79BFE06B070BD000090F8423013
:104CF000202B1CBF0220704700294FF0010318BF72
:104D0000002A01D1184670470023036381622221E3
:104D10008285C285436480F842100169006819B138
:104D2000C16841F48071C1604169002341F0010113
:104D30004161C16841F02001C16018467047000020
:104D4000F0B581B041F6E006C2F20006B04225D0CF
:104D500041F62812C2F2000290421CBF01B0F0BD21
:104D600040F20911C2F200010878332858D03228E5
:104D700066D0312840F08E8040F22810C2F2000048
:104D8000036840F20800C2F200000068002B77D0F0
:104D900040F2B023C2F2000361E000BF40F24427BA
:104DA000C2F20007386840F20814411CC2F2000445
:104DB0003960217840F21832C2F200020A291154F7
:104DC00016D140F21835C2F2000540F2301240F21E
:104DD00034133EA1C2F20002C2F200032846FBF7E0
:104DE000F5F9284641F28831FBF7E5F900203860F3
:104DF00030680068000705D544F20040C4F20000A6
:104E000001684068002341F6E000C2F2000021463C
:104E10000122237001B0BDE8F040FFF767BF00BF7B
:104E200040F22810C2F20000036840F20800C2F20B
:104E300000000068C3B140F2DC13C2F200030EE0D0
:104E400040F22810C2F20000036840F20800C2F2EB
:104E50000000006873B140F24823C2F2000303EB84
:104E60008000043813E000BF40F2DC13C2F20003FC
:104E70000AE000BF40F24823C2F2000304E000BF92
:104E800040F2B023C2F2000303EB80000430036859
:104E9000013303601068006800070AD544F200403F
:104EA000C4F20000D0F8000444F60400C4F200008C
:104EB000006841F628100023C2F2000001220B70A6
:104EC00001B0BDE8F040FFF711BF00BF783D256499
:104ED0002C793D25640D0A0070470000FEE70000B4
:104EE0002DE9F04782B0044600680E460168DDF8FF
:104EF00028A041F4806101600168DDF82C9041F444
:104F000080711D461746016020464FF001110022B6
:104F10005346CDF8009000F033F958B1206800688E
:104F2000C00544BF4FF400702064032002B0BDE808
:104F3000F08700BF40F202082068C0F2010806F0C6
:104F4000FE0606612046414652464B4600F002FAF4
:104F500020B1012002B0BDE8F08700BF0020019021
:104F600020684A4641690191806951460190019843
:104F7000204600F0A7FA98B92068012D08D0390A18
:104F80000161204651464A4600F09CFA40B920682B
:104F9000F9B20161204651464A4600F093FA58B1F1
:104FA000206C0428D5D12068016841F400710160AB
:104FB000012002B0BDE8F087206800220168534656
:104FC00041F48071016020464FF00111CDF800904E
:104FD00000F0D6F80028A1D1206846F00101016157
:104FE0002046414652464B4600F0B4F9002818BF0F
:104FF000012002B0BDE8F0872DE9F04383B00446FC
:1050000000680D4601680A9F0B9E41F48071994625
:105010009046016020464FF0011100223B46009669
:1050200000F0AEF850B120680068C00544BF4FF4EE
:1050300000702064032003B0BDE8F083206805F011
:10504000FE0101610221C0F2010120463A463346C9
:1050500000F080F920B1012003B0BDE8F08300BF6B
:1050600000200290206832464169029180693946E9
:1050700002900298204600F025FA58B1206C0428CE
:10508000E9D12068016841F400710160012003B09A
:10509000BDE8F0832068B9F1010F0AD04FEA18216A
:1050A000016120463946324600F00CFA0028E5D16D
:1050B00020685FFA88F10161002003B0BDE8F08349
:1050C00070B50368044653F8140F400711D40E4618
:1050D000481C29D086BB00BF1868400527D4FDF7BF
:1050E000C1F8236853F8140F400739D518684007F2
:1050F000F2D5002070BD00BF18684007F9D41868C9
:10510000400514D418684007F3D4186840050ED43D
:1051100018684007EDD41868400508D4186840079F
:105120004FF0000048BF70BD18684005E4D56FF42B
:1051300080601860042014E0154603E053F8140F53
:105140004007D6D418684005F1D4FDF78BF8401B12
:105150002368B042F2D958694007EFD4202000E01C
:10516000202000212022216384F83D2084F83E1075
:10517000226C10432064012084F83C1070BD0000B4
:105180002DE9F041054600681E46144601F47F02F1
:1051900001338FB242D0DDF81880B2F5803F40F085
:1051A000878040693840C01BB0FA80F04009A042B7
:1051B00040F0C8804EB924E040693840C01BB0FAC6
:1051C00080F04009A04240F0BD80FDF74BF8A0EB15
:1051D00008012868B142EFD941693940C91BB1FAC9
:1051E00081F14909A142E7D19BE000BF4069384005
:1051F000C01BB0FA80F04009A0424FF0000040F020
:10520000A680FDF72FF8286841693940C91BB1FA1B
:1052100081F14909A142E9D183E000BFB2F5803FA5
:1052200024D100BF41693940C91BB1FA81F1490954
:10523000A14240F0878041693940C91BB1FA81F130
:105240004909A14240F07E8041693940C91BB1FA49
:1052500081F14909A14275D141693940C91BB1FAAF
:1052600081F14909A142DDD06CE000BF816939407C
:10527000C91BB1FA81F14909A14263D18169394061
:10528000C91BB1FA81F14909A1425BD18169394059
:10529000C91BB1FA81F14909A14253D18169394051
:1052A000C91BB1FA81F14909A142DFD04AE000BF30
:1052B00080693840C01BB0FA80F04009A04241D15B
:1052C00046B923E080693840C01BB0FA80F040093D
:1052D000A0423BD1FCF7C6FFA0EB08012868B14211
:1052E000F0D981693940C91BB1FA81F14909A1425C
:1052F000E8D116E080693840C01BB0FA80F0400960
:10530000A0424FF0000018BFBDE8F081FCF7AAFFF3
:10531000286881693940C91BB1FA81F14909A14264
:10532000E8D100202021286385F83D1085F83E0053
:10533000296C41F02001296485F83C000120BDE87A
:10534000F08100BF0020BDE8F08100BF0020BDE873
:10535000F0810000F0B581B0044600681D46436945
:105360008FB203EA0701B94202D1002001B0F0BDBB
:1053700041691646013201F4806125D0002940D1EF
:10538000CEB100BFFCF76EFF411B2068B14203D9CC
:1053900041693940B9424BD141693940B942E4D001
:1053A00041694905EED52CE041693940B942DCD06C
:1053B0004169490525D4FCF755FF2068416939400A
:1053C000B942F1D0202024E0D9B941693940B9422D
:1053D000CBD04169490514D441693940B942C4D0A0
:1053E000416949050DD441693940B942BDD041698F
:1053F000490506D441693940B942B6D041694905E9
:10540000E3D5016841F4007101606FF4806141618E
:10541000042000212022216384F83D2084F83E10DE
:10542000226C1043206484F83C10012001B0F0BDD0
:105430002020EEE770B504460068154650F8143F8A
:105440005A063DD40E4629B926E000BF50F8141F75
:10545000490635D40168C90621D4FCF703FF411B76
:105460002068B142F2D941694906EFD400202021D9
:10547000206384F83D1084F83E00206C40F020004A
:1054800018E000BFFCF7EEFE206850F8141F490634
:10549000ECD50168490613D40168C906F2D56FF04E
:1054A0001001016000202021206384F83D1084F861
:1054B0003E00206C2064002084F83C00012070BD78
:1054C000002070BD70B50368044653F8140F000641
:1054D00011D40E46481C29D086BB00BF1868400571
:1054E00027D4FCF7BFFE236853F8140F000639D504
:1054F00018680006F2D5002070BD00BF18680006CD
:10550000F9D41868400514D418680006F3D4186854
:1055100040050ED418680006EDD41868400508D47C
:10552000186800064FF0000048BF70BD18684005BD
:10553000E4D56FF480601860042014E0154603E0A1
:1055400053F8140F0006D6D418684005F1D4FCF7C0
:1055500089FE401B2368B042F2D958690006EFD497
:10556000202000E0202000212022216384F83D201B
:1055700084F83E10226C10432064012084F83C1013
:1055800070BD000010B584B041F2A06042F200414D
:10559000C2F20000C4F2010100224FF46023012492
:1055A00002730275C361C0E9001282600461FCF7F6
:1055B000F3F9002818BFFBF739FE0F20CDE90104ED
:1055C0000720039041F2A060C2F2000001A9FCF79D
:1055D00019F9002818BFFBF729FE04B010BD000020
:1055E0002DE9F04F85B041F21800C4F202000168C5
:1055F00041F6000441F0100101600168C4F20104A9
:1056000001F01001019101990168A4F5006541F0D4
:10561000040101600168012201F004010191019976
:105620000168062741F0400101600168012601F090
:10563000400101910199016841F008010160016890
:1056400001F0080101910199016841F02001016018
:10565000016801F0200101910199016841F4807114
:1056600001600068062100F48070019001982846CE
:10567000FCF7F2FD20464FF4604100224FF0000A93
:10568000FCF7EAFD04F5006948463C2100224FF092
:105690003C0BFCF7E1FDA4F5406840464FF4407137
:1056A0000022FCF7D9FDCDE9017601AF2846394645
:1056B000CDE90366FCF7C4FC4FF47060CDE9010A44
:1056C000204639460396FCF7BBFC4FF48050CDE9E9
:1056D000010A20463946CDF80CA0FCF7B1FC4FF486
:1056E000604001A981E8410402252046394604951D
:1056F000FCF7A6FC48463946CDE901B6CDE903A53D
:10570000FCF79EFC4FF4407001901120CDE9020699
:105710000320049040463946FCF792FC05B0BDE8F2
:10572000F08F000080B541F2D06045F20041C2F236
:105730000000C4F2000148F2A06200234FF4804C44
:10574000C0F2010280E80E00C0E9033CC0E9053365
:10575000C0E90733FCF78CFD002808BF80BDBDE819
:105760008040FBF763BD000080B541F2247045F630
:105770000001C2F20000C4F2000141F680220023C1
:105780004FF4804CC0F2060280E80E00C0E9033CF2
:10579000C0E90533C0E90733FCF76AFD002808BFFC
:1057A00080BDBDE88040FBF741BD000080B586B0FC
:1057B00041F2787042F600420021C2F20000C4F2C9
:1057C0000102472342F20F7C4FF0800E0591CDE994
:1057D0000311CDE90011C0E90023C0E9021CC0E9B2
:1057E0000411C0F818E0FDF7E9FD002818BFFBF729
:1057F0001DFD4FF48050029041F27870C2F200001B
:1058000002A9FDF7EBFE002818BFFBF70FFD41F2E0
:105810007870C2F200006946FDF786FD002818BFC7
:10582000FBF704FD06B080BD80B58CB041F2C070BE
:105830000021C2F200004FF08042C0E90021802226
:10584000826103224FF6FF73CDE903210122CDE9E6
:105850000011C0E902130161CDE90521CDE907116D
:10586000CDE909210B9103A9FDF786FF002818BF98
:10587000FBF7DCFC41F2C070C2F200006946FDF7A4
:1058800053FD002818BFFBF7D1FC0CB080BD000011
:1058900080B58CB041F6080040F200420021C2F20F
:1058A0000000C4F20002C0E9002180224FF6FF731D
:1058B00082610322C0E90213CDE9032101220623FC
:1058C000CDE900110161CDE90521CDE90731CDE92F
:1058D000092103A90B93FDF74FFF002818BFFBF721
:1058E000A5FC41F60800C2F200006946FDF71CFD68
:1058F000002818BFFBF79AFC0CB080BDB0B594B07F
:1059000040F6000541F65000C4F200050021C2F245
:105910000000472263230E91CDE90C110991CDE9D6
:105920000711CDE90511CDE90311CDE90111C0E958
:105930000052C0E9021301618161FDF73FFD0028BB
:1059400018BFFBF773FC4FF480500B9041F65000EA
:10595000C2F200000BA9FDF741FE002818BFFBF7BB
:1059600065FC41F65000C2F20000FEF765FA00281F
:1059700018BFFBF75BFC41F650000024C2F20000A8
:1059800008A9CDE90844FDF7CFFC002818BFFBF7B4
:105990004DFC6020CDE9010441F65000C2F2000048
:1059A00001A9082203940594FEF714F9002818BFF2
:1059B000FBF73CFC41F65004C2F2000401A920466A
:1059C0000C22FEF707F9002818BFFBF72FFC206810
:1059D0000021A842129101D014B0B0BD41F21800CC
:1059E000C4F20200016841F020010160006810A9C2
:1059F00000F020000F900F984FF4404010900220CC
:105A00001190139041F20040C4F20100FCF718FB22
:105A10000420C4F20100016841F0E06141F48051CA
:105A2000016014B0B0BD000080B541F6980043F6A7
:105A30000001C2F20000C4F2010100234FF00C0C7F
:105A40004FF4E13280E80E00C0E90333C0E905C33A
:105A5000C361FFF70DF8002808BF80BDBDE8804096
:105A6000FBF7E4BB80B541F6E00044F20041C2F22E
:105A70000000C4F2000100234FF00C0C4FF4E1329F
:105A800080E80E00C0E90333C0E905C3C361FEF737
:105A9000EFFF002808BF80BDBDE88040FBF7C6BB14
:105AA00080B541F6281044F60001C2F20000C4F2AD
:105AB000000100234FF00C0C4FF4E13280E80E009F
:105AC000C0E90333C0E905C3C361FEF7D1FF002875
:105AD00008BF80BDBDE88040FBF7A8BBFEE7000023
