:020000040800F2
:100000006806002045010008E53200083129000893
:10001000593200088D010008E93E00080000000088
:10002000000000000000000000000000A13D0008EA
:1000300091010008000000009D3D0008A53D00085A
:100040005F0100085F0100085F0100085F01000810
:100050005F0100085F0100085F0100085F01000800
:100060005F0100085F0100085F0100085F010008F0
:100070005F0100085F0100085F0100085F010008E0
:100080005F0100085F0100085F0100085F010008D0
:100090005F0100085F0100085F0100085F010008C0
:1000A0005F010008AD3D00085F0100085F01000826
:1000B000B93D0008C53D00085F0100085F01000868
:1000C0005F0100085F0100085F0100085F01000890
:1000D0005F0100085F010008DD3E00085F010008C5
:1000E0005F0100085F0100085F0100085F01000870
:1000F0005F0100085F0100085F0100085F01000860
:100100005F0100085F0100085F0100085F0100084F
:100110005F0100085F0100085F0100085F0100083F
:100120005F0100085F0100085F0100085F0100082F
:10013000DFF80CD000F018F800480047ED3E00084A
:10014000680600200648804706480047FEE7FEE7AD
:10015000FEE7FEE7FEE7FEE7FEE7FEE7FEE7FEE777
:10016000A93D000831010008064C074D06E0E06893
:1001700040F0010394E8070098471034AC42F6D3EE
:10018000FFF7DAFF5048000870480008FEE700005B
:1001900070470000EFF3108072B600BFFEE700006A
:1001A00010B581B00022009290F82420012A03D1DA
:1001B0000221084601B010BD4B680122062B80F8D1
:1001C000242017D8D0F800C003EB83035A1F1F2345
:1001D000DCF834E003FA02F40B682EEA040403FAB4
:1001E00002F22243CCF83420092B03EB430219D945
:1001F00036E000BFD0F800C00C2B03EB83021DD803
:10020000233A1F23DCF830E003FA02F40B682EEAED
:10021000040403FA02F22243CCF83020092B03EB4A
:1002200043021DD8DCF81030072489689440A343AA
:1002300091401943CCF81010002130E0413A1F23BF
:10024000DCF82CE003FA02F40B682EEA040403FA4B
:1002500002F22243CCF82C20092B03EB4302E1D914
:10026000DCF80CE01E3A0724896894402EEA040466
:10027000914023F001022143102ACCF80C100DD13B
:1002800042F20841C4F20101A1F1080294450DD0E7
:10029000816A41F020018162012100E000210022F9
:1002A00080F82420084601B010BD00BF0A68120281
:1002B00030D40A68102B42F400020A602CD140F2BC
:1002C0002001C2F2000109684DF68362C4F21B32BC
:1002D000A1FB0212910C01EB8101490000910099F0
:1002E000E1B10099013900910099C9B10099013932
:1002F00000910099B1B1009901390091009999B12B
:10030000009901390091009900294FF00001E8D1CE
:10031000C5E700BF0021C2E70021C0E70021BEE71A
:100320000021BCE70021BAE70021B8E7B0B50028FA
:1003300000F0B2800446806A20B121688868C00756
:100340000BD114E00020E06284F82400204600F085
:10035000A5F821688868C00709D0886820F00100E6
:10036000886000F0A1FA21688A68D20730D1A06ABB
:10037000C00644D4A06A41F2021290430230A06247
:10038000E36981F0804080F49E3083F44022104382
:1003900008BF4FF40023D4E9010243EA000C531EC6
:1003A000B3FA83F35D091346B2F5807F18BF2B02C1
:1003B000207D257B01284CEA450030D135B3A56A64
:1003C00045F02005A562E56A45F00105E56226E0F5
:1003D000054602E08868C007C9D000F065FA401BF6
:1003E00021680328F6D38868C007F3D0A06A40F0DC
:1003F0001000A062E06A40F00100E062A06AA06A1A
:1004000040F01000A0620120B0BD00BFD4F818C0B9
:100410004EF60005CFF6FF7505EB4C352B434D68C6
:10042000B2F5807F25F4694543EA05034B608B688C
:100430004FF2FD75CFF6E17503EA050343EA0003C9
:100440008B6001D0012A07D122690023CFF6F07317
:1004500003EB025201E000BF0022CB6A23F47003D9
:100460001A43CA62896840F6FE62CFF61F721140D5
:10047000814207D10020E062A16A012262F30101FA
:10048000A162B0BDA06A40F0100020F00200A0629E
:10049000E06A40F00100E0620120B0BD80B586B0A6
:1004A000014641F20000C4F20100096800F5A052C3
:1004B00091424FF00001CDE9041101D006B080BD9A
:1004C00041F21801C4F202010A6842F400720A60A3
:1004D0000A6802F400720192019A0A6842F010025E
:1004E0000A60096801F0100101910199202102912F
:1004F0000321039102A900F0D3F806B080BD0000EB
:10050000014690F82100022816D10868D1E90FC3EE
:10051000026822F00E020260026822F0010202600C
:10052000012000FA03F2CCF8042081F82100002019
:10053000002281F8202070470420886301200022D7
:1005400081F820207047000080B590F82110022922
:1005500028D1026840F2040C1368C4F2020C23F0A4
:100560000E03136013680CF17C018A4223F0010131
:1005700011601BD940F20841C4F202018A4249D0FD
:1005800040F21C41C4F202018A4247D040F230419D
:10059000C4F202018A4245D14FF48073CCF8003492
:1005A0005DE000BF04218163012080BD4321C4F2CE
:1005B00002018A420EDD6B21C4F202018A421BDC79
:1005C0004421C4F202018A423CD05821C4F2020103
:1005D0008A4233E00821C4F202018A4236D01C214B
:1005E000C4F202018A4237D03021C4F202018A42A9
:1005F00024D14FF4807230E06C21C4F202018A42AF
:1006000026D08021C4F202018A4217D14FF08072B5
:1006100023E000BF0123CCF8003420E01023CCF805
:1006200000341CE00CF588614FF480338A4208BF27
:100630004FF48053CCF8003411E000BF4FF4803207
:100640000BE000BF4FF4805207E000BF012204E03E
:100650004FF4801201E000BF1022CCF800200121ED
:1006600080F82110426B002180F820100AB19047D9
:100670000021084680BD0000B0B5044600F014F922
:10068000054640F20000C2F200000078611C18BF6D
:10069000044400BF00F008F9401BA042FAD3B0BDEB
:1006A0002DE9F04F82B0D1F800C0BCF1000F00F08E
:1006B000F180A0F1804241F60045A2F58432C4F2F7
:1006C000010540F2004E4FEAB2240627A842C4F2C8
:1006D000010E08BF0527052C4FF000044FF001085C
:1006E0004FF00F034FF0000A4FF0000B38BF4FEAF6
:1006F000B22700970AE000BFD1F800C00AF1010A52
:100700003CFA0AF204F1040400F0C48008FA0AF981
:100710001CEA090FF0D04E684FF6FF72C1F21002CA
:10072000964211DC122E55D8DFE806F0340A444810
:10073000545454545454545454545454544C5000D9
:10074000D1F80CB046E000BF4FF6FF72C1F22102B3
:1007500096420FDC0022C1F2110296421AD000220A
:10076000C1F21202964215D00022C1F22102964235
:1007700010D02FE00022C1F2220296420AD00022BD
:10078000C1F23102964205D00022C1F232029642F5
:1007900020D100BF8A684AB1012A14BFC0F8149062
:1007A000C0F810904FF0080B14E000BF4FF0040B9E
:1007B00010E000BFCA6802F1080B0BE04FF0000B1D
:1007C00008E000BFCA6802F1040B03E0CA6802F146
:1007D0000C0B00BF22460646BAF1080F24BF203A90
:1007E0000436376803FA02F5AF430BFA02F23A43D4
:1007F0003260CA79D2067FF57FAF41F21807C4F2A2
:1008000002073A684FF6084342F001023A603A683C
:10081000CFF6FF7302F001020192019A2AF003025F
:1008200072440F25D75804F00C06B540AF43009D25
:1008300005FA06F63743D7504E6840F20C45F202EF
:10084000DEF8082054BF22EA090242EA0902CEF883
:100850000820C4F201052A68B70254BF22EA09023F
:1008600042EA09022A60DEF80420B70354BF22EAF4
:10087000090242EA0902CEF804200F23DEF8002024
:10088000F70354BF22EA090242EA0902CEF8002027
:1008900032E700BF02B0BDE8F08F0000002A08BFB9
:1008A000090401617047000040F26420C2F20000B8
:1008B0000068704770B5B8B3044690F83D0028B999
:1008C000002084F83C00204600F05CF9242084F8E5
:1008D0003D002068016821F001010160016841F4D8
:1008E00000410160016821F40041016000F09AFBC1
:1008F00048F28041C0F21E0140F60013D4F804E033
:1009000088424FF00001C0F23D0348F2A16C4FF065
:10091000000238BF01219842C0F2010C38BF012209
:10092000E64538BF0A460AB1012070BD4DF6836125
:10093000C4F21B31A0FB01122168950C4B684FF4E7
:10094000967623F03F0343EA9243754344F6D35629
:100950004B60C1F262060B6AA5FB0656B50923F08F
:100960003F03E64538BF950C6A1C1A430A62CA6900
:1009700048F2A0664CF6FF73C0F20106B64522EAC3
:1009800003020BD801384FEA4E03B0FBF3F00130FD
:100990006FF31F30042898BF04201EE0A3680138BD
:1009A00063B119230EFB03F3B0FBF3F001306FF3D7
:1009B0001F3078B100F5804008E000BF0EEB4E0319
:1009C000B0FBF3F001306FF31F3028B100F50040A9
:1009D00003E000BF012000E001201043C861086867
:1009E000D4E9072320F0C00010431843086088684A
:1009F00048F2FF3204F10C0690434CCE18431043EA
:100A0000A5698860C86820F0FF0030432843C860AB
:100A1000086840F00100086000202021206484F86C
:100A20003D10206384F83E0070BD00002DE9F043C6
:100A300083B0994616460F460446FFF735FF94F8F3
:100A40003D10202920D10546206800BF8169890713
:100A500016D5FFF729FF411B20681A29F6D38169B3
:100A60008907F3D500202021206384F83D1084F805
:100A70003E00216C41F02001216484F83C0003E039
:100A800094F83C10012903D1022003B0BDE8F083A3
:100A9000012284F83C200368DDE90B180A9ADB0781
:100AA00003D1036843F001030360036823F4006388
:100AB0000360212084F83D00402084F83E0000209F
:100AC000206462626185608D394620850020CFF602
:100AD000FF70E062204632464B46CDF8008001951B
:100AE00001F028FF20B1012003B0BDE8F08300BF72
:100AF000208D98B9204641462A4601F07FFF88B3F1
:100B0000206C0428EFD12068016841F40071016075
:100B1000012003B0BDE8F0830004EBD0204641463D
:100B20002A4602F025F90028EAD1616A22680846BF
:100B300010F8013B1361238D6062581E2085678D7C
:100B4000013F678557697F07E6D50704E4D04878F9
:100B50001061881C6062981E2085618D0139618555
:100B6000DAE700BF2068016841F4007101602020CD
:100B700084F83D00002084F83E0084F83C0003B077
:100B8000BDE8F08310B586B045F200410068C4F2BC
:100B9000000100228842049202D006B010BD00BFBE
:100BA00041F21804C4F20204206840F008002060FA
:100BB000206800F0080001900198C02002901220E7
:100BC00003900320059001F5384002A9FFF768FD66
:100BD000606840F400106060606800F400100190EC
:100BE000019806B010BD000040F2000040F2642100
:100BF000C2F20000C2F2000100780A6810440860E6
:100C00007047000080B542F20000C4F202000168A3
:100C100041F010010160032000F08EF80F2000F079
:100C200005F800F027F8002080BD000070B540F204
:100C30000006C2F2000640F220013278C2F2000142
:100C40004FF47A730968B3FBF2F20446B1FBF2F198
:100C5000084600F0E9FB0F2C4FF0010508D838B921
:100C60004FF0FF3021460022002500F039F8746073
:100C7000284670BD82B041F21800C4F2020001683B
:100C8000022241F001010160016801F001010191BE
:100C90000199416841F080514160406800F0805006
:100CA000009000980420C4F20100016862F31A6108
:100CB000016002B070470000002848BF7047C1B211
:100CC00000F01F00012202FA00F04EF20012CEF2F4
:100CD000000242EAD10121F00301086070470000E0
:100CE00010B54EF60C5CCEF2000CDCF80030C3F30D
:100CF000022E8EF00704042C28BF0424BEF1030347
:100D00004FF0FF3E0EFA04F438BF0023A143994090
:100D10000EFA03F39A43114300F00F0200F160430F
:100D20000901043A03F564436244002848BF02F114
:100D30000C03197010BD00004EF60C51CEF20001EC
:100D40000A684FF6FF031A4060F30A2242F08060FF
:100D500040F0FD70086070472DE9F04182B0044614
:100D6000007841F21C06C007C4F202064AD030687F
:100D700010F0805808D1306840F080503060306802
:100D800000F080500190019847F20007C4F200077C
:100D90003868C00512D4386840F480703860FFF7B6
:100DA00083FD05463868C00508D4FFF77DFD401B6C
:100DB0006428F7D9032002B0BDE8F081706810F410
:100DC000407012D0616801F4407188420DD07068A3
:100DD00040F24042C4F24222012320F440711360E9
:100DE0000023C007136071602AD17068616820F425
:100DF00040700843B8F1000F706003D1306820F0F4
:100E0000805030602068810707D556F8181CA2680A
:100E100021F44041114346F8181CC00604D40020B8
:100E200002B0BDE8F08100BF56F8180C616920F4EB
:100E30008000084346F8180C002002B0BDE8F0819D
:100E4000FFF732FD054641F2883700BF7068800722
:100E5000CBD4FFF729FD401BB8424FF00300F5D972
:100E6000EBE700002DE9F04381B0002800F0858019
:100E700042F20008C4F202080446D8F800000D4609
:100E800000F0070088420CD2D8F8000020F00700DC
:100E90002843C8F80000D8F8000000F00700A84276
:100EA0006BD1206841F204098107C4F2020917D509
:100EB000410705D5D9F8001041F4E061C9F80010E8
:100EC000010705D5D9F8001041F46051C9F80010A8
:100ED000D9F80010A26821F0F0011143C9F8001000
:100EE000C00741D1D8F8000000F00700A8420CD993
:100EF000D8F8000020F007002843C8F80000D8F810
:100F0000000000F00700A84237D12068410707D54C
:100F1000D9F80010E26821F4E0611143C9F800102B
:100F2000000708D5D9F80000216920F4605040EA94
:100F3000C100C9F80000D9F8002002F00C00082810
:100F400041F20020C0F27A0050D144F64003C2F3CF
:100F50008341C0F60003595CD2033BD440F6001035
:100F6000C0F23D00484341E0606802280AD00128F1
:100F70002AD159F8041C890308D4012001B0BDE826
:100F8000F08300BF59F8041C8901F6D5D9F8001088
:100F900021F003010843C9F80000FFF785FC06466D
:100FA00041F28837D9F80000616800F00C00B0EB1E
:100FB000810F97D0FFF778FC801BB842F2D903204D
:100FC00001B0BDE8F08300BF59F8041C8907D4D5EF
:100FD000DCE700BFD9F8002044F63E03C2F34042EC
:100FE000C0F600039A5C4843B0FBF2F0D9F8001059
:100FF00044F21E02C1F30311C0F60002515C40F23C
:10100000200220FA01F140F20400C2F20000006860
:10101000C2F200021160FFF709FE002001B0BDE836
:10102000F083000040F2200041F20401C2F200000F
:10103000C4F202010068096844F22E02C1F30221E1
:10104000C0F60002515CC8407047000040F220002A
:1010500041F20401C2F20000C4F202010068096812
:1010600044F22E02C1F3C221C0F60002515CC84016
:10107000704700002DE9F04182B0002868D0044696
:10108000007841F20006C007C4F2020625D070685D
:1010900000F00C0004281BD0706800F00C00082839
:1010A00002D17068C00313D46068002800F0688122
:1010B000B0F5A02F00F07C81B0F5803F00F07C817E
:1010C000306820F480303060306820F4802076E191
:1010D0003068800301D56068D0B32078800718D5C8
:1010E000706810F00C0F07D0706800F00C00082832
:1010F0006ED17068C0036BD43068800702D5206958
:10110000012825D13068616920F0F80040EAC1006B
:101110003060207800071FD42078400732D4E5697A
:1011200095B1706800F00C00082840F08F80012D08
:101130000ED07068216A00F480328A4208D1616A58
:1011400000F47010884203D1002002B0BDE8F081A5
:10115000012002B0BDE8F081A069002862D0002023
:10116000C4F242200121C0F88014FFF79DFB054620
:10117000706A800700F18C80FFF796FB401B022805
:10118000F6D92AE1F06910F0805808D1F06940F0F2
:101190008050F061F06900F080500090009847F2B4
:1011A0000007C4F200073868C00529D4386840F445
:1011B00080703860FFF778FB054600BF3868C005CF
:1011C0001ED4FFF771FB401B6428F7D905E100BF6F
:1011D0002069002840F20000C4F2422000F0828022
:1011E00001210160FFF760FB054600BF3068800702
:1011F0003FF588AFFFF758FB401B0228F6D9ECE01B
:10120000E068002800F08080052800F09780012821
:1012100000F09880306A20F001003062306A20F0DF
:10122000040092E00020C4F242200021C0F88014A3
:10123000FFF73AFB054600BF706A80077FF56CAF89
:10124000FFF732FB401B0228F6D9C6E00027C4F2A4
:10125000422700203866FFF727FB022D05460BD1F9
:101260003068800140F1BE80FFF71EFB401B022862
:101270004FF00300F4D968E7306880017FF564AF70
:10128000FFF712FB401B02284FF00300F4D95CE784
:1012900040F22000C2F20000006844F6D351C1F2CF
:1012A0006201A0FB0101480A019000BF00BF019844
:1012B000411E002801913FF42FAF00BF0198411E4D
:1012C000002801913FF428AF00BF0198411E00287B
:1012D00001913FF421AF00BF0198411E0028019108
:1012E000E4D119E700210160FFF7DEFA054600BFEF
:1012F000306880077FF50DAFFFF7D6FA401B022854
:101300004FF00300F4D920E7306A20F0010030628A
:10131000306A20F004003062FFF7C6FA054641F259
:10132000883700BF306A800720D5FFF7BDFA401B21
:10133000B8424FF00300F5D907E700BF306A40F02C
:1013400004003062306A40F001003062FFF7ACFA0E
:10135000054641F2883700BF306A800706D4FFF7A0
:10136000A3FA401BB842F7D937E000BFB8F1000F2D
:101370007FF4D5AEF06920F08050F061CFE600BF79
:10138000306820F480303060306820F48020306095
:10139000FFF78AFA054600BF306880037FF59DAEEF
:1013A000FFF782FA401B64284FF00300F4D9CCE623
:1013B000306840F480203060306840F48030306025
:1013C000FFF772FA054600BF306880033FF585AE2F
:1013D000FFF76AFA401B6428F6D9032002B0BDE883
:1013E000F08100BF206AB0F5803F05D17168A26826
:1013F00021F40031114371607168626A21F4741143
:1014000011430843706001203866FFF74DFA044627
:10141000306880013FF598AEFFF746FA001B0228BE
:101420004FF00300F4D990E6411E0020B0EB116F9D
:101430001CBF012070474EF21002CEF20002516034
:101440004EF62351CEF20001F0230B70072190607D
:1014500011607047704700007047000010B590F8A9
:101460003C20012A4FF002023FD080F83D20026864
:10147000D2F804E0D2F808C00C682EF070032343C1
:1014800040F6FF34C4F20004A242536010DCB2F113
:10149000804F1FD040F20043C4F200039A4219D09B
:1014A00040F60003C4F200039A4213D017E000BFD5
:1014B00040F60043C4F200039A420BD043F20043CB
:1014C000C4F201039A4205D042F60043C4F201037C
:1014D0009A4204D149682CF080031943916001219C
:1014E000002280F83D1080F83C20104610BD00001E
:1014F000002804BF0120704710B5044690F83D0055
:1015000028B9002084F83C00204600F085F802202D
:1015100084F83D00206840F6FF330268C4F20003FF
:1015200043F2004C9842C4F2010C21DCB0F1804F30
:101530002CD040F20041C4F20001884226D040F68F
:101540000001C4F20001884220D0984224DCB0F1AE
:10155000804F2FD040F20041C4F20001884229D0D0
:1015600040F60001C4F20001884223D026E000BF0B
:1015700040F60041C4F20001884207D0604505D022
:1015800042F60041C4F201018842DED1A16822F096
:1015900070020A439842DADD40F60041C4F20001CD
:1015A000884207D0604505D042F60041C4F20101EF
:1015B000884203D1216922F440720A43A36922F0D0
:1015C0008001D4F804E0E268194360450160C2621A
:1015D000C0F828E005D042F60041C4F2010188427B
:1015E00001D16169016301214161002084F8461045
:1015F00084F83E1084F83F1084F8401084F84110BD
:1016000084F8421084F8431084F8441084F845109C
:1016100084F83D1010BD000080B582B0006840F62F
:101620000001C4F2000188421ED042F60041C4F21B
:101630000101884225D141F21800C4F2020001687C
:10164000002241F4006101600068002100F40060A4
:10165000019001981920FFF743FB192002B0BDE863
:101660008040FFF729BB00BF41F21800C4F202001E
:10167000416841F004014160406800F004000090BE
:10168000009802B080BD000090F83D1001291CBFF9
:1016900001207047022180F83D10006840F6FF32BB
:1016A000C168C4F20002904241F00101C1600FDC48
:1016B000B0F1804F1ED040F20041C4F200018842D8
:1016C00018D040F60001C4F20001884212D018E0A0
:1016D00040F60041C4F2000188420BD043F20041C1
:1016E000C4F20101884205D042F60041C4F2010172
:1016F000884206D1816801F00701062904BF002055
:101700007047016841F0010101600020704700004E
:1017100080B590F83C20012A4FF0020200F0C28010
:1017200080F83D20D0F800C04FF67772DCF8083022
:1017300023EA0202CCF808200B684F2B28DC1F2B71
:1017400044DD202B45D0302B43D0402B40F0AC80E3
:10175000D1F804E0C968DCF82030DCF8202022F061
:101760000102CCF82020DCF8182022F0F00242EA36
:10177000011123F00A0242EA0E02CCF81810CCF84C
:101780002020DCF8081041F0470121F0300180E012
:101790006F2B27DDB3F5005F48D0B3F5805F7AD0BB
:1017A000702B40F08180D1E901E3C968DCF80820A2
:1017B00043EA0E0322F47F4243EA01211143CCF8AD
:1017C0000810DCF8081041F0770162E00BB1102B33
:1017D0006AD1DCF8081021F07001194341F00701CB
:1017E00057E000BF502B35D0602B5DD1D1F804E01D
:1017F000C968DCF82030DCF8202022F01002CCF898
:101800002020DCF8182022F4704242EA013123F053
:10181000A00242EA0E12CCF81810CCF82020DCF816
:10182000081041F0670121F0100132E0D1E901E335
:10183000C968DCF8082043EA0E0322F47F4243EA39
:1018400001211143CCF80810DCF8081041F4804164
:101850001FE000BFD1F804E0C968DCF82030DCF8F4
:10186000202022F00102CCF82020DCF8182022F001
:10187000F00242EA011123F00A0242EA0E02CCF819
:101880001810CCF82020DCF8081041F0570121F0A6
:101890002001CCF808100022012180F83D10002121
:1018A00080F83C10104680BD0122F5E7002804BFF7
:1018B000012070472DE9F04F81B0044690F83D00BB
:1018C0008B4628B9002084F83C00204600F0B0F890
:1018D000022084F83D00206844F20702816840F647
:1018E000FF33914381600268C4F2000343F2004C6D
:1018F0009842C4F2010C21DCB0F1804F2CD040F2B0
:101900000041C4F20001884226D040F60001C4F232
:101910000001884220D0984224DCB0F1804F2FD0C3
:1019200040F20041C4F20001884229D040F6000193
:10193000C4F20001884223D026E000BF40F60041F7
:10194000C4F20001884207D0604505D042F600414C
:10195000C4F201018842DED1A16822F070020A437C
:101960009842DADD40F60041C4F20001884207D017
:10197000604505D042F60041C4F20101884203D11E
:10198000216922F440720A43A36922F0800162684F
:10199000E568194360450160C562826205D042F680
:1019A0000041C4F20101884201D161690163012152
:1019B000416182688369D0F820C0DBE9005EDBE921
:1019C000027845EA020ADBF818504FF6FF7923EA5D
:1019D000090347EA05254FF6FC47BD43DBE90776D7
:1019E00043EA0803DBF810202B4343EA072343EACA
:1019F00002122CF02203DBF8147043EA0E0342EAD1
:101A0000063243EA0713C0F808A08261036284F833
:101A1000461084F83E1084F83F1084F8421084F891
:101A2000431084F83D10002001B0BDE8F08F0000A5
:101A300010B586B0006840F20041C4F2000188424F
:101A40004FF00001CDE90411CDE902111CD0B0F135
:101A5000804F45D141F21800C4F2020041681C24B5
:101A600041F001014160416801F0010101910199DA
:101A7000016841F004010160006800F00400019079
:101A80000198032018E000BF41F21800C4F20200E0
:101A900041681D2441F002014160416801F00201EA
:101AA00001910199016841F004010160006800F0B2
:101AB000040001900198C0200290002003900120B2
:101AC000049040F60000C4F2010002A9FEF7E8FD10
:101AD000204600210022FFF703F92046FFF7ECF82B
:101AE00006B010BD7047000010B5016804460869D3
:101AF000800744BFC8685FEA807039D4086940072E
:101B000044BFC8685FEA40703ED40869000744BF1C
:101B1000C8685FEA007045D40869C00644BFC86859
:101B20005FEAC0604AD40869C0071CBFC8685FEAA2
:101B3000C07051D10869000644BFC8685FEA006000
:101B400052D40869400644BFC8685FEA406053D475
:101B50000869800646BFC8685FEA806010BD6FF004
:101B6000200220460A61BDE81040FFF775BC00BFA7
:101B70006FF002000861012020778869800743D058
:101B80002046FFF7AFFF45E06FF004000861022038
:101B90002077886910F4407F40D02046FFF7A2FFED
:101BA00042E000BF6FF00800086104202077C86998
:101BB00080073DD02046FFF795FF3FE06FF0100013
:101BC000086108202077C86910F4407F3AD0204689
:101BD000FFF788FF3CE000BF6FF00100086120467E
:101BE00000F078FA2168A5E76FF0800008612046D0
:101BF000FFF730FC2168A4E76FF040000861204641
:101C000000F078FA2168A3E7204600F025F8204686
:101C100000F0ECF92168002020776FE7204600F003
:101C20001BF8204600F0E2F92168002020776CE7DD
:101C3000204600F011F8204600F0D8F92168002075
:101C4000207769E7204600F007F8204600F0CEF93B
:101C500021680020207766E7704700002DE9F041F9
:101C600090F83C30012B04BF0220BDE8F0814FEA20
:101C7000B202032A00F21C81DFE802F0024690DA89
:101C8000036843F200461D6A1A6A25F0020522F035
:101C900001021A621A465C6852F818EF8F68D1F890
:101CA00000C0C4F20106B34245EA070505D042F67A
:101CB0000047C4F20107BB4205D1CF6825F00C05EF
:101CC00027F004073D43B34205D042F60046C4F274
:101CD0000106B34205D1D1E9056724F440743443C9
:101CE0003C432EF0730747EA0C075C609F614F6826
:101CF00009695F631D629F6947F008079F619F69DB
:101D000027F004079F61C9E0036843F200461D6A9B
:101D10001A6A25F0200522F010021A621A46D3F83A
:101D200004C052F8188F8F68D1F800E0C4F20106A1
:101D3000B34245EA071505D042F60047C4F2010751
:101D4000BB4207D1CF686FF0400425F0C00504EA1C
:101D500007142543B34205D042F60044C4F20104FF
:101D6000A34206D1D1E905462CF44067264347EA51
:101D7000860C28F4E64444EA0E27C3F804C09F61A9
:101D80004F6809699F631D629F6947F400679F61FF
:101D90009F6927F480679F617FE000BF036843F27B
:101DA00000461D6A1A6A25F4007522F480721A62D0
:101DB0001A46D3F804C052F81CEF8F68D1F800809F
:101DC000C4F20106B34245EA072505D042F60047B2
:101DD000C4F20107BB4208D1CF6840F2FF443F0282
:101DE00025F4406527EA04042543B34205D042F6B2
:101DF0000044C4F20104A34206D1D1E905462CF403
:101E00004057264347EA061C2EF0730747EA0807A7
:101E1000C3F804C0DF614F680969DF631D62DF69D1
:101E200047F00807DF61DF6927F00407DF6135E06D
:101E3000036843F20047D3F820C01A6AC4F20107CE
:101E400022F480521A621A465C6852F81C5FD1F87C
:101E500000E08E68BB4205D042F60047C4F201079D
:101E6000BB4204D14F6924F4804444EA87142CF423
:101E7000005747EA063725F4E64646EA0E265C6038
:101E8000DE614E6809691E641F62DF6947F40067FE
:101E9000DF61DF6927F48067DF6109021368194396
:101EA00011600021002280F83C200846BDE8F08146
:101EB0000121002280F83C200846BDE8F0810000A6
:101EC000002804BF0120704710B5044690F83D007B
:101ED00028B9002084F83C00204600F085F8022054
:101EE00084F83D00206840F6FF330268C4F2000326
:101EF00043F2004C9842C4F2010C21DCB0F1804F57
:101F00002CD040F20041C4F20001884226D040F6B5
:101F10000001C4F20001884220D0984224DCB0F1D4
:101F2000804F2FD040F20041C4F20001884229D0F6
:101F300040F60001C4F20001884223D026E000BF31
:101F400040F60041C4F20001884207D0604505D048
:101F500042F60041C4F201018842DED1A16822F0BC
:101F600070020A439842DADD40F60041C4F20001F3
:101F7000884207D0604505D042F60041C4F2010115
:101F8000884203D1216922F440720A43A36922F0F6
:101F90008001D4F804E0E268194360450160C26240
:101FA000C0F828E005D042F60041C4F201018842A1
:101FB00001D16169016301214161002084F846106B
:101FC00084F83E1084F83F1084F8401084F84110E3
:101FD00084F8421084F8431084F8441084F84510C3
:101FE00084F83D1010BD00007047000070470000ED
:101FF00041B1082910D0042914BF00F1410200F1B9
:102000003F020BE090F83E20012A1CBF01207047E0
:10201000022280F83E2013E000F140021278012AEB
:102020001CBF012070470222082907D0042914BFD1
:1020300080F8412080F83F2002E000BF80F8402077
:10204000006801F01F010122036A02FA01F123EA8C
:1020500001020262026A114340F6FF32C4F200023A
:10206000904201620EDCB0F1804F25D040F2004179
:10207000C4F2000188421FD040F60001C4F2000102
:1020800018E000BF40F60041C4F20001884213D0BE
:1020900043F20042C4F2010242F600419042C4F20F
:1020A000010101D088420ED1436C904243F40043B9
:1020B000436401D0884206D1816801F007010629F6
:1020C00004BF00207047016841F001010160002059
:1020D0007047000040F2B001C2F20001884218BF10
:1020E000704740F26020C2F20000016801310160D7
:1020F0007047000070470000704700007047000004
:10210000B0B582B0044600680168C368426901F056
:102110002F05202D03F0200506D12DB1204602B059
:10212000BDE8B04001F05ABE5FEA017C1EBF02F07C
:10213000010E03F4907212EB0E0253D1226B012AAE
:1021400005D111F0100218BF13F0100236D10A06A3
:1021500022D513F080021FD094F8411021293FD1DD
:10216000A168B1F5805F03D12169002900F0708278
:10217000216A4A1C226209784160E18C01390A0413
:10218000E1842DD1C16821F08001C160C16841F0B6
:102190004001C16002B0B0BD490621D513F0400135
:1021A0001ED0C16821F04001C1602021204684F882
:1021B000411002B0BDE8B04000F0B8BB0021019171
:1021C000016801914168019101994069400613D469
:1021D000A08DE18DE28D002A18BF884240F0BA81BF
:1021E00002B0B0BDCA0718BF13F4807240F0B680C9
:1021F0004A0700F1B980BEE0E06B016849688AB225
:10220000002AEDD0A38D9A42EAD2E1858069202888
:1022100000F09C80206850E8030F216820F4807053
:1022200041E80302DAB1206850E8030F216820F486
:10223000807041E8030292B1206850E8030F2168E2
:1022400020F4807041E803024AB1206850E8030F8F
:10225000216820F4807041E80302002ADAD1206866
:1022600050E8050F216820F0010041E80502DAB1CD
:10227000206850E8050F216820F0010041E80502C0
:1022800092B1206850E8050F216820F0010041E874
:1022900005024AB1206850E8050F216820F00100CE
:1022A00041E80502002ADAD1206850E8050F2168CC
:1022B00020F0400041E80502DAB1206850E8050F3F
:1022C000216820F0400041E8050292B1206850E802
:1022D000050F216820F0400041E805024AB120685E
:1022E00050E8050F216820F0400041E80502002A6F
:1022F000DAD1202084F8420000202063206850E8D2
:10230000030F216820F0100041E80302DAB12068D1
:1023100050E8030F216820F0100041E8030292B159
:10232000206850E8030F216820F0100041E8030204
:102330004AB1206850E8030F216820F0100041E8FE
:102340000302002ADAD1E06BFEF7DAF802206063BC
:10235000A08DE18D401A81B2204674E1626C42F09A
:10236000010262644A0706D5BEF1000F03D0626C19
:1023700042F0020262648A0706D5BEF1000F03D064
:10238000626C42F004026264BCF1000F09D545EAB8
:102390000E02B2FA82F2520903D1626C42F00802D4
:1023A0006264626C002A3FF41BAF11F0200118BF79
:1023B000002D03D0204601F011FD20684069616CBA
:1023C00000F0400001F00801401800F0B58000BFA7
:1023D000206850E8030F216820F4907041E8030260
:1023E000BAB3206850E8030F216820F4907041E8E8
:1023F000030272B3206850E8030F216820F4907044
:1024000041E803022AB3206850E8030F216820F452
:10241000907041E80302002ADAD11AE0206850E8FF
:10242000050F216820F0010041E80502DAB12068BB
:1024300050E8050F216820F0010041E8050292B143
:10244000206850E8050F216820F0010041E80502EE
:102450004AB1206850E8050F216820F0010041E8EA
:102460000502002ADAD1206B012824D1206850E827
:10247000030F216820F0100041E80302DAB1206860
:1024800050E8030F216820F0100041E8030292B1E8
:10249000206850E8030F216820F0100041E8030293
:1024A0004AB1206850E8030F216820F0100041E88D
:1024B0000302002ADAD1202084F8420000202063A1
:1024C0002068406940063FD5206850E8050F216824
:1024D00020F0400041E80502DAB1206850E8050F1D
:1024E000216820F0400041E8050292B1206850E8E0
:1024F000050F216820F0400041E805024AB120683C
:1025000050E8050F216820F0400041E80502002A4C
:10251000DAD1E06BC0B143F6D151C0F6000141639E
:10252000FEF712F800283FF45BAEE06B416B02B09F
:10253000BDE8B040084700BF2046FFF7DFFD0020A0
:10254000606402B0B0BD00BF204602B0BDE8B0403C
:10255000FFF7D4BD401A216851E8031F226821F417
:10256000907142E80313DBB1216851E8031F226830
:1025700021F4907142E8031393B1216851E8031FDD
:10258000226821F4907142E803134BB1216851E8AD
:10259000031F226821F4907142E80313002BDAD163
:1025A000216851E8051F226821F0010142E8051366
:1025B000DBB1216851E8051F226821F0010142E8E2
:1025C000051393B1216851E8051F226821F001012C
:1025D00042E805134BB1216851E8051F226821F03C
:1025E000010142E80513002BDAD1202184F84210C2
:1025F00000212163216851E8031F226821F01001A6
:1026000042E80313DBB1216851E8031F226821F07F
:10261000100142E8031393B1216851E8031F2268B7
:1026200021F0100142E803134BB1216851E8031F68
:10263000226821F0100142E80313002BDAD10222B4
:1026400081B22046626302B0BDE8B040FFF754BDDE
:10265000216A31F8022B6FF35F22426021628CE520
:10266000002804BF0120704710B5044690F84100CF
:1026700028B9002084F84000204600F063F82420A8
:1026800084F841002068D4E90212C36823F400539F
:10269000C360036923F440531A430261D4E904235D
:1026A0001143C268194341F20C639A431143C1605C
:1026B0004169A26921F44071114343F60002C4F25A
:1026C00001029042416103D0FEF7ACFC02E000BF82
:1026D000FEF7BCFC6268192148439100B0FBF1F0A1
:1026E00048F21F51C5F2EB11A0FB01235A094FF626
:1026F0009C73C0F6FF7302FB0300322303EB001050
:10270000A0FB0101F02303EA5113206803EB02123E
:10271000C1F3431111448160016921F490410161C9
:10272000416921F02A014161C16841F40051C16051
:1027300000202021606484F8411084F84210606316
:1027400010BD000070B586B0006844F20041C4F2CC
:102750000001002688420596CDE90366029637D02F
:1027600043F60001C4F20101884266D141F218002B
:10277000C4F20200016840F6000441F480410160A7
:102780000168C4F2010401F48041019101990168DA
:1027900002AD41F0040101600068294600F0040028
:1027A000019001984FF400700290022003900320E2
:1027B00005902046FDF774FF4FF4806002900020E2
:1027C000CDE9030020462946FDF76AFF06B070BD3B
:1027D00041F21800C4F20200416840F6000441F4DE
:1027E000003141604168C4F2010401F400310191FB
:1027F0000199016802AD41F00401016000682946B9
:1028000000F004000190019804200290022003903F
:10281000032005902046FDF743FF0820CDE902067E
:10282000204629460496FDF73BFF26200021002282
:10283000FEF756FA2620FEF73FFA06B070BD0000FC
:1028400090F84230202B1CBF0220704700294FF027
:10285000010318BF002A01D1184670470023036303
:10286000816222218285C285436480F84210016919
:10287000006819B1C16841F48071C16041690023E9
:1028800041F001014161C16841F02001C160184679
:102890007047000040F21821C2F20001884218BFC0
:1028A000704710B540F22804C2F2000420783028A6
:1028B0001AD0312820D0322826D033282CD03428E2
:1028C00004D104201421142200F0C8FC40F2182086
:1028D00040F22801C2F20000C2F200010122BDE86C
:1028E0001040FFF7ADBF00BF00201921192200F0F2
:1028F000B5FC20783128DED101201921192200F001
:10290000ADFC20783228D8D102200021002200F02E
:10291000A5FC20783328D2D103201421142200F002
:102920009DFC20783428D1D1CBE70000704700000F
:10293000FEE700002DE9F04383B0044600680D4631
:1029400001680A9F0B9E41F4807199469046016090
:1029500020464FF0011100223B46009600F0AEF8F1
:1029600050B120680068C00544BF4FF40070206477
:10297000032003B0BDE8F083206805F0FE0101618B
:102980000221C0F2010120463A46334600F080F9A8
:1029900020B1012003B0BDE8F08300BF0020029009
:1029A0002068324641690291806939460290029856
:1029B000204600F0DDF958B1206C0428E9D12068E8
:1029C000016841F400710160012003B0BDE8F083AB
:1029D0002068B9F1010F0AD04FEA182101612046A1
:1029E0003946324600F0C4F90028E5D120685FFA84
:1029F00088F10161002003B0BDE8F08370B5036881
:102A0000044653F8140F400711D40E46481C29D031
:102A100086BB00BF1868400527D4FDF745FF236833
:102A200053F8140F400739D518684007F2D5002035
:102A300070BD00BF18684007F9D41868400514D469
:102A400018684007F3D4186840050ED4186840078A
:102A5000EDD41868400508D4186840074FF000000E
:102A600048BF70BD18684005E4D56FF480601860F9
:102A7000042014E0154603E053F8140F4007D6D4A1
:102A800018684005F1D4FDF70FFF401B2368B042E2
:102A9000F2D958694007EFD4202000E0202000211F
:102AA0002022216384F83D2084F83E10226C1043DC
:102AB0002064012084F83C1070BD00002DE9F04135
:102AC000054600681E46144601F47F0201338FB2AA
:102AD00042D0DDF81880B2F5803F40F08780406931
:102AE0003840C01BB0FA80F04009A04240F0C880D6
:102AF0004EB924E040693840C01BB0FA80F040096C
:102B0000A04240F0BD80FDF7CFFEA0EB0801286891
:102B1000B142EFD941693940C91BB1FA81F1490984
:102B2000A142E7D19BE000BF40693840C01BB0FA2A
:102B300080F04009A0424FF0000040F0A680FDF771
:102B4000B3FE286841693940C91BB1FA81F14909CE
:102B5000A142E9D183E000BFB2F5803F24D100BF9C
:102B600041693940C91BB1FA81F14909A14240F0DC
:102B7000878041693940C91BB1FA81F14909A142F5
:102B800040F07E8041693940C91BB1FA81F14909A1
:102B9000A14275D141693940C91BB1FA81F1490996
:102BA000A142DDD06CE000BF81693940C91BB1FA98
:102BB00081F14909A14263D181693940C91BB1FA48
:102BC00081F14909A1425BD181693940C91BB1FA40
:102BD00081F14909A14253D181693940C91BB1FA38
:102BE00081F14909A142DFD04AE000BF8069384045
:102BF000C01BB0FA80F04009A04241D146B923E0A1
:102C000080693840C01BB0FA80F04009A0423BD137
:102C1000FDF74AFEA0EB08012868B142F0D98169AE
:102C20003940C91BB1FA81F14909A142E8D116E046
:102C300080693840C01BB0FA80F04009A0424FF0D4
:102C4000000018BFBDE8F081FDF72EFE28688169FD
:102C50003940C91BB1FA81F14909A142E8D10020EC
:102C60002021286385F83D1085F83E00296C41F04D
:102C70002001296485F83C000120BDE8F08100BFF7
:102C80000020BDE8F08100BF0020BDE8F081000019
:102C9000F0B581B0044600681D4643698FB203EA6F
:102CA0000701B94202D1002001B0F0BD41691646CA
:102CB000013201F4806125D0002940D1CEB100BF9E
:102CC000FDF7F2FD411B2068B14203D9416939404B
:102CD000B9424BD141693940B942E4D04169490513
:102CE000EED52CE041693940B942DCD04169490553
:102CF00025D4FDF7D9FD206841693940B942F1D0AA
:102D0000202024E0D9B941693940B942CBD041698A
:102D1000490514D441693940B942C4D041694905D3
:102D20000DD441693940B942BDD04169490506D445
:102D300041693940B942B6D041694905E3D50168D6
:102D400041F4007101606FF4806141610420002151
:102D50002022216384F83D2084F83E10226C104329
:102D6000206484F83C10012001B0F0BD2020EEE783
:102D700070B50368044653F8140F000611D40E46CC
:102D8000481C29D086BB00BF1868400527D4FDF732
:102D90008BFD236853F8140F000639D51868000618
:102DA000F2D5002070BD00BF18680006F9D418687D
:102DB000400514D418680006F3D4186840050ED4F2
:102DC00018680006EDD41868400508D41868000695
:102DD0004FF0000048BF70BD18684005E4D56FF49F
:102DE00080601860042014E0154603E053F8140FC7
:102DF0000006D6D418684005F1D4FDF755FD401BF8
:102E00002368B042F2D958690006EFD4202000E0D0
:102E1000202000212022216384F83D2084F83E10E8
:102E2000226C10432064012084F83C1070BD000027
:102E300010B584B040F22C0042F20041C2F2000012
:102E4000C4F2010100224FF46023012402730275D1
:102E5000C361C0E9001282600461FDF767FA0028CF
:102E600018BFFDF797F90F20CDE901040720039063
:102E700040F22C00C2F2000001A9FDF791F90028F0
:102E800018BFFDF787F904B010BD000070B584B01D
:102E900041F21800C4F20200016842F2000441F05D
:102EA000100101600168C4F2010401F010010091F9
:102EB00000990168002241F00401016001683C258D
:102EC00001F00401009100990168002641F0200101
:102ED0000160016801F0200100910099016841F44E
:102EE00080710160016801F48071009100990168AE
:102EF00041F00801016000683C2100F008000090EA
:102F000000982046FDF7CAFC0120CDE90106022009
:102F10000390694620460095FDF7C2FB04B070BDE2
:102F200080B540F25C0045F20041C2F20000C4F2FC
:102F3000000148F2A06200234FF4804CC0F201026D
:102F400080E80E00C0E9033CC0E90533C0E907335F
:102F5000FDF7B0FC002808BF80BDBDE88040FDF74C
:102F600019B9000080B586B040F2B00042F60042C8
:102F70000021C2F20000C4F20102472342F20F7C9A
:102F80004FF0800E0591CDE90311CDE90011C0E9A4
:102F90000023C0E9021CC0E90411C0F818E0FEF7E4
:102FA000A7FA002818BFFDF7F5F84FF480500290FB
:102FB00040F2B000C2F2000002A9FEF7A9FB00280F
:102FC00018BFFDF7E7F840F2B000C2F20000694612
:102FD000FEF744FA002818BFFDF7DCF806B080BD04
:102FE00080B58CB040F2F8000021C2F200004FF032
:102FF00080424FF6FF73C0E900210322C0E90213AB
:10300000CDE9032101220623CDE90011016181618F
:10301000CDE90521CDE90731CDE9092103A90B93BC
:10302000FEF744FC002818BFFDF7B4F840F2F800A2
:10303000C2F200006946FEF711FA002818BFFDF73A
:10304000A9F80CB080BD000080B58CB040F24010F3
:1030500040F200420021C2F20000C4F200024FF62A
:10306000FF73C0E900210322C0E90213CDE9032167
:1030700001220623CDE9001101618161CDE905211D
:10308000CDE90731CDE9092103A90B93FEF70EFC29
:10309000002818BFFDF77EF840F24010C2F2000091
:1030A0006946FEF7DBF9002818BFFDF773F80CB08E
:1030B00080BD0000B0B594B040F6000540F2881025
:1030C000C4F200050021C2F20000472263230E91E2
:1030D000CDE90C110991CDE90711CDE90511CDE933
:1030E0000311CDE90111C0E90052C0E902130161E9
:1030F0008161FEF7FDF9002818BFFDF74BF84FF48A
:1031000080500B9040F28810C2F200000BA9FEF72D
:10311000FFFA002818BFFDF73DF840F28810C2F210
:103120000000FEF7CDFE002818BFFDF733F840F28F
:1031300088100024C2F2000008A9CDE90844FEF777
:103140008DF9002818BFFDF725F86020CDE90104AE
:1031500040F28810C2F2000001A9082203940594ED
:10316000FEF77CFD002818BFFDF714F840F2881424
:10317000C2F2000401A920460C22FEF76FFD0028D0
:1031800018BFFDF707F820680021A842129101D06E
:1031900014B0B0BD41F21800C4F20200016841F061
:1031A00020010160006810A900F020000F900F9826
:1031B0004FF44040109002201190139041F20040D3
:1031C000C4F20100FDF76CFA0420C4F201000168AA
:1031D00041F0E06141F48051016014B0B0BD0000E5
:1031E00080B540F2D01043F60001C2F20000C4F2F4
:1031F000010100234FF00C0C4FF4E13280E80E0087
:10320000C0E90333C0E905C3C361FFF729FA002809
:1032100008BF80BDBDE88040FCF7BCBF80B540F270
:10322000182044F20041C2F20000C4F20001002361
:103230004FF00C0C4FF4E13280E80E00C0E903338C
:10324000C0E905C3C361FFF70BFA002808BF80BDC2
:10325000BDE88040FCF79EBFFEE70000042888BF61
:1032600070472DE9F04381B00D4616A191460A5CE6
:1032700016A10E5C17A142F200040F5C17A1C4F264
:10328000010411F8008020460421FDF707FB2046C9
:1032900008213246FDF702FB204610213A46FDF791
:1032A000FDFA204620214246FDF7F8FA40F2881048
:1032B000C2F200000068C563C0F8409001B0BDE8EC
:1032C000F04370470100010001000000000101010E
:1032D00000000000010001010000000000010100E9
:1032E00001000000FEE700002DE9F04F85B040F23C
:1032F0005C0400254FF480760127C2F200040DF132
:10330000120B0DF113084FF0000900BF09F1B000D6
:103310008DF8100004A8CDE900072046782100228E
:1033200001230296FDF782FB0DF11100CDE90007A4
:1033300020467821002201238DF811500296FDF7D6
:1033400075FB10208DF81200204678210022012301
:10335000CDE900B70296FDF769FB4FF0000A00BF08
:1033600020467821402201238DF81350CDE90087B3
:103370000296FDF75BFB0AF101004FFA80FABAF101
:10338000FF3FEDDCB9F1070F09F10109BED305B02C
:10339000BDE8F08F2DE9F04184B0C820FDF76CF94D
:1033A00040F20806C2F20006307840F25C04C2F235
:1033B00000048DF80F004FF4807801270DF10F0500
:1033C0002046782100220123CDE90057CDF808805E
:1033D000FDF72CFB707878218DF80F002046002235
:1033E0000123CDE90057CDF80880FDF71FFBB07829
:1033F00078218DF80F00204600220123CDE90057E7
:10340000CDF80880FDF712FBF07878218DF80F00D9
:10341000204600220123CDE90057CDF80880FDF7B2
:1034200005FB307978218DF80F002046002201231A
:10343000CDE90057CDF80880FDF7F8FA70797821CA
:103440008DF80F00204600220123CDE90057CDF86A
:103450000880FDF7EBFAB07978218DF80F0020464F
:1034600000220123CDE90057CDF80880FDF7DEFAF0
:10347000F07978218DF80F00204600220123CDE954
:103480000057CDF80880FDF7D1FA307A78218DF811
:103490000F00204600220123CDE90057CDF8088017
:1034A000FDF7C4FA707A78218DF80F0020460022CB
:1034B0000123CDE90057CDF80880FDF7B7FAB07ABF
:1034C00078218DF80F00204600220123CDE9005716
:1034D000CDF80880FDF7AAFAF07A78218DF80F0070
:1034E000204600220123CDE90057CDF80880FDF7E2
:1034F0009DFA307B78218DF80F00204600220123B1
:10350000CDE90057CDF80880FDF790FA707B78215F
:103510008DF80F00204600220123CDE90057CDF899
:103520000880FDF783FAB07B78218DF80F002046E4
:1035300000220123CDE90057CDF80880FDF776FA87
:10354000F07B78218DF80F00204600220123CDE981
:103550000057CDF80880FDF769FA307C78218DF8A6
:103560000F00204600220123CDE90057CDF8088046
:10357000FDF75CFA707C78218DF80F002046002260
:103580000123CDE90057CDF80880FDF74FFAB07C54
:1035900078218DF80F00204600220123CDE9005745
:1035A000CDF80880FDF742FAF07C78218DF80F0005
:1035B000204600220123CDE90057CDF80880FDF711
:1035C00035FA307D78218DF80F0020460022012346
:1035D000CDE90057CDF80880FDF728FA707D7821F5
:1035E0008DF80F00204600220123CDE90057CDF8C9
:1035F0000880FDF71BFAB07D78218DF80F0020467A
:1036000000220123CDE90057CDF80880FDF70EFA1E
:1036100004B0BDE8F08100002DE9F04F89B040B260
:103620008B46DDF84890A2F12001002820EAE072E4
:103630004FF0100748BF0BF1020BABF1500047EA07
:10364000121602F00F05102BCFB240F0BD8040F2F1
:103650005C048DF815004FF001080DF11500C2F261
:1036600000044FF4807ACDE900082046782100223A
:103670000123CDF808A0FDF7D9F90DF11600CDE929
:103680000008204678210022012303968DF8166059
:10369000CDF808A0FDF7CAF90DF11700CDE9000833
:1036A000204678210022012304958DF81750CDF88B
:1036B00008A0FDF7BBF944F25E203F01C0F6000010
:1036C000C05DB9F1000F00F0118140F25C05C0430C
:1036D000C2F200058DF818000DF11809284678216E
:1036E00040220123CDE90098CDF808A0FDF79EF90E
:1036F00044F25E2447F00100C0F60004205C78210B
:10370000C0438DF81800284640220123CDE90098D7
:10371000CDF808A0FDF78AF947F00200205C782177
:10372000C0438DF81800284640220123CDE90098B7
:10373000CDF808A0FDF77AF947F00300205C782166
:10374000C0438DF81800284640220123CDE9009897
:10375000CDF808A0FDF76AF947F00400205C782155
:10376000C0438DF81800284640220123CDE9009877
:10377000CDF808A0FDF75AF947F00500205C782144
:10378000C0438DF81800284640220123CDE9009857
:10379000CDF808A0FDF74AF947F00600205C782133
:1037A000C0438DF81800284640220123CDE9009837
:1037B000CDF808A0FDF73AF947F00700205CC043B8
:1037C0008DF8180007E100BF40F25C048DF81F007F
:1037D0004FF0010B0DF11F00C2F200044FF480788E
:1037E000CDE9000B2046782100220123CDF8088086
:1037F000FDF71CF908A8CDE9000B2046782100222E
:1038000001238DF82060CDF80880FDF70FF90DF148
:103810002100CDE9000B20467821002201238DF8FC
:103820002150CDF80880FDF701F907EB470544F278
:103830003607C0F6000717F81500B9F1000F00F0C1
:10384000938140F25C04C043C2F200048DF8220070
:103850000DF122092046782140220123CDE9009B69
:10386000CDF80880FDF7E2F807EB45056878AF78FA
:10387000C043EE7895F804A08DF822002046782108
:1038800040220123CDE9009BCDF80880FDF7CEF85A
:10389000F8438DF822002046782140220123CDE90B
:1038A000009BCDF80880FDF7C1F8F0438DF82200A9
:1038B0002046782140220123CDE9009BCDF80880E5
:1038C000FDF7B4F86FEA0A008DF82200204678214F
:1038D00040220123CDE9009BCDF80880FDF7A6F832
:1038E0006879C0438DF822008AE100BF40F25C0590
:1038F000C2F200058DF819000DF11909284678214A
:1039000040220123CDE90098CDF808A0FDF78EF8FC
:1039100044F25E2447F00100C0F60004205C7821E8
:103920008DF81900284640220123CDE90098CDF8F2
:1039300008A0FDF77BF847F00200205C78218DF8A5
:103940001900284640220123CDE90098CDF808A0AF
:10395000FDF76CF847F00300205C78218DF8190022
:10396000284640220123CDE90098CDF808A0FDF7B4
:103970005DF847F00400205C78218DF81900284696
:1039800040220123CDE90098CDF808A0FDF74EF8BC
:1039900047F00500205C78218DF819002846402268
:1039A0000123CDE90098CDF808A0FDF73FF847F0D6
:1039B0000600205C78218DF819002846402201235A
:1039C000CDE90098CDF808A0FDF730F847F00700E2
:1039D000205C8DF819002846782140220123CDE98A
:1039E0000098CDF808A0FDF721F8ABF14F0040F2A8
:1039F0005C048DF81A004FF001090DF11A00C2F2B3
:103A000000044FF48078CDE9000920467821002297
:103A10000123CDF80880FDF709F8039878218DF887
:103A20001B000DF11B00CDE90009204600220123F7
:103A3000CDF80880FCF7FAFF049878218DF81C0077
:103A400007A8CDE90009204600220123CDF808800F
:103A5000FCF7ECFF44F25E2147F00800C0F60001DD
:103A6000085C1299002900F0CF8040F25C04C0434A
:103A7000C2F200048DF81D000DF11D0520467821CD
:103A800040220123CDE90059CDF80880FCF7CEFF94
:103A900044F25E2647F00900C0F60006305C78214B
:103AA000C0438DF81D00204640220123CDE9005976
:103AB000CDF80880FCF7BAFF47F00A00305C7821A7
:103AC000C0438DF81D00204640220123CDE9005956
:103AD000CDF80880FCF7AAFF47F00B00305C782196
:103AE000C0438DF81D00204640220123CDE9005936
:103AF000CDF80880FCF79AFF47F00C00305C782185
:103B0000C0438DF81D00204640220123CDE9005915
:103B1000CDF80880FCF78AFF47F00D00305C782173
:103B2000C0438DF81D00204640220123CDE90059F5
:103B3000CDF80880FCF77AFF47F00E00305C782162
:103B4000C0438DF81D00204640220123CDE90059D5
:103B5000CDF80880FCF76AFF47F00F00305CC043E7
:103B60008DF81D00C5E000BF40F25C04C2F2000405
:103B70008DF823000DF123092046782140220123EE
:103B8000CDE9009BCDF80880FCF750FF07EB450519
:103B90006878AE78EF7895F804A08DF82300204679
:103BA000782140220123CDE9009BCDF80880FCF765
:103BB0003DFF20467821402201238DF82360CDE986
:103BC000009BCDF80880FCF731FF20467821402289
:103BD00001238DF82370CDE9009BCDF80880FCF718
:103BE00025FF20467821402201238DF823A0CDE92E
:103BF000009BCDF80880FCF719FF68798DF8230049
:103C0000CDE9009B77E000BF40F25C04C2F2000403
:103C10008DF81E000DF11E0520467821402201235B
:103C2000CDE90059CDF80880FCF700FF44F25E268C
:103C300047F00900C0F60006305C78218DF81E00C0
:103C4000204640220123CDE90059CDF80880FCF739
:103C5000EDFE47F00A00305C78218DF81E0020460A
:103C600040220123CDE90059CDF80880FCF7DEFEA3
:103C700047F00B00305C78218DF81E002046402272
:103C80000123CDE90059CDF80880FCF7CFFE47F0BD
:103C90000C00305C78218DF81E0020464022012364
:103CA000CDE90059CDF80880FCF7C0FE47F00D00C3
:103CB000305C78218DF81E00204640220123CDE99A
:103CC0000059CDF80880FCF7B1FE47F00E00305CDB
:103CD00078218DF81E00204640220123CDE90059AD
:103CE000CDF80880FCF7A2FE47F00F00305C8DF89D
:103CF0001E00CDE900592046782140220123CDF84D
:103D00000880FCF793FE09B0BDE8F08F2DE9F04F75
:103D100083B0924612780293E2B30F4602990646A8
:103D2000A1F11000B0FA80F04FEA5019A1F10C0097
:103D3000B0FA80F04FF0080B00244FEA50180C291D
:103D400008BF4FF0060B00BF029B0C9DF0B2F9B20A
:103D5000D2B20095FFF760FC5E44F0B27A284FF0D3
:103D6000000088BF012010EA080018BF0026F1B249
:103D7000013478294FF00001E2B288BF01211AF81E
:103D80000220384411EA090118BF0026002A00EB7E
:103D90000107D9D103B0BDE8F08F000070470000E3
:103DA00070470000FCF720BF7047000040F2B000F1
:103DB000C2F20000FDF798BE40F2F800C2F2000027
:103DC000FDF792BE40F24010C2F20000FDF78CBE3B
:103DD000406A0021C185C184FEF790B981B090F896
:103DE0004210222921D183680246B3F5805F09D1B0
:103DF00052F8281F52F8183C002B63D003685B6808
:103E00000AE000BF52F8281F13B90369002BF5D050
:103E100003685B6803F07F030B7011680131116068
:103E2000C18D01390A04C18502D001B0704700BFBD
:103E30000168CA6822F02002CA60CA6822F480724F
:103E4000CA604A6922F001024A61202180F84210CA
:103E500000214163026B012A3CD10163016851E8F2
:103E6000031F026821F0100142E80313DBB101686F
:103E700051E8031F026821F0100142E8031393B1D7
:103E8000016851E8031F026821F0100142E80313A2
:103E90004BB1016851E8031F026821F0100142E8AC
:103EA0000313002BDAD101680A68D20606D5002276
:103EB00000920A680092496800910099818D01B0D2
:103EC000FEF71AB9026852686FF35F2221F8022BDD
:103ED0008162A5E701B0FEF7DDBC000040F21820CA
:103EE000C2F20000FEF70CB9FEE7000096B0FCF746
:103EF00089FE00240120CDE91144CDE90F440C9046
:103F000010904FF4E0104FF48031022515900CA86A
:103F10000694CDE90444CDE90244CDE90D14CDE980
:103F20001351FDF7A7F828B1EFF3108072B600BF68
:103F3000FEE700BF0F20CDE907054FF48060CDE913
:103F40000A0407A802210994FCF78CFF20B1EFF3C3
:103F5000108072B6FEE700BF022001904FF40040CF
:103F6000039001A8FCF7F8FE20B1EFF3108072B6C1
:103F7000FEE700BFFEF78AFFFEF7F4FFFFF730F819
:103F8000FFF762F8FFF796F8FFF72AF9FFF746F90F
:103F9000FEF74EFFFEF7C4FFFFF7FCF9FFF7A4F9A9
:103FA000002513A2002002210C230095FFF7AEFE8E
:103FB00040F2B000C2F20000FDF766FB40F21820AC
:103FC00040F22801C2F20000C2F200010122FEF715
:103FD00037FC40F28814C2F2000420460821FEF7A4
:103FE00007F820460C21FEF703F800BFFEE700BFEC
:103FF00068656C6C6F20776F726C64210000000044
:1040000002E008C8121F08C1002AFAD170477047A1
:10401000002001E001C1121F002AFBD170470000FF
:104020000000000000000102030406070809000068
:104030000000010203040000000000000000002F47
:10404000000000000700070000147F147F14002404
:104050002A7F2A1200626408132300364955225031
:1040600000000503000000001C2241000000412266
:104070001C000014083E08140008083E0808000050
:1040800000A0600000080808080800006060000048
:10409000002010080402003E5149453E0000427FC6
:1040A0004000004261514946002141454B31001812
:1040B00014127F10002745454539003C4A494930D4
:1040C000000171090503003649494936000649498E
:1040D000291E000036360000000056360000000899
:1040E0001422410000141414141400004122140876
:1040F00000020151090600324959513E007C12115B
:10410000127C007F49494936003E41414122007FEF
:104110004141221C007F49494941007F09090901A9
:10412000003E4149497A007F0808087F0000417F2E
:104130004100002040413F01007F08142241007FE0
:1041400040404040007F020C027F007F0408107F47
:10415000003E4141413E007F09090906003E4151B0
:10416000215E007F0919294600464949493100016D
:10417000017F0101003F4040403F001F2040201FC1
:10418000003F4038403F0063140814630007087084
:10419000080700615149454300007F414100005537
:1041A0002A552A55000041417F0000040201020403
:1041B00000404040404000000102040000205454F0
:1041C0005478007F48444438003844444420003840
:1041D0004444487F00385454541800087E090102B2
:1041E0000018A4A4A47C007F080404780000447D87
:1041F0004000004080847D00007F102844000000C3
:10420000417F4000007C04180478007C0804047896
:1042100000384444443800FC242424180018242482
:1042200018FC007C0804040800485454542000047E
:104230003F444020003C4040207C001C2040201C8B
:10424000003C4030403C004428102844001CA0A002
:10425000A07C004464544C4414141414141400003E
:10426000000000000000000000000000000000004E
:1042700000F80000000000000033300000000010D3
:104280000C06100C0600000000000000000040C0FA
:104290007840C0784000043F04043F0404000070EC
:1042A00088FC08300000001820FF211E0000F008E4
:1042B000F000E018000000211C031E211E0000F089
:1042C0000888700000001E212324192721101016D1
:1042D0000E000000000000000000000000000000D0
:1042E00000E018040200000000071820400000024F
:1042F0000418E000000000402018070000004040C3
:1043000080F0804040000202010F01020200000024
:1043100000F0000000000101011F01010100000088
:1043200000000000000080B07000000000000000ED
:104330000000000000000001010101010101000076
:10434000000000000000003030000000000000000D
:10435000000080601804006018060100000000E002
:1043600010080810E000000F102020100F000010AF
:1043700010F8000000000020203F20200000007006
:1043800008080888700000302824222130000030FE
:104390000888884830000018202020110E000000F6
:1043A000C02010F8000000070424243F240000F877
:1043B0000888880808000019212020110E0000E05C
:1043C000108888180000000F112020110E000038FE
:1043D0000808C83808000000003F00000000007016
:1043E000880808887000001C222121221C0000E09F
:1043F00010080810E0000000312222110F00000018
:1044000000C0C000000000000030300000000000CC
:10441000008000000000000080600000000000003C
:1044200080402010080000010204081020004040D5
:104430004040404040000404040404040400000818
:1044400010204080000000201008040201000070CD
:1044500048080808F0000000003036010000C030B5
:10446000C828E810E0000718272423140B000000D8
:10447000C038E0000000203C23020227382008F862
:10448000888888700000203F202020110E00C03056
:10449000080808083800071820202010080008F82D
:1044A00008080810E000203F202020100F0008F826
:1044B0008888E8081000203F20202320180008F8F2
:1044C0008888E8081000203F200003000000C0306A
:1044D00008080838000007182020221E020008F8EB
:1044E00008000008F808203F210101213F200008B2
:1044F00008F8080800000020203F202000000000ED
:104500000808F8080800C08080807F00000008F8D4
:1045100088C028180800203F20012638200008F80D
:10452000080000000000203F20202020300008F874
:10453000F800F8F80800203F003F003F200008F88E
:1045400030C00008F808203F200007183F00E010A6
:1045500008080810E0000F10202020100F0008F8B5
:1045600008080808F000203F210101010000E010C8
:1045700008080810E0000F18242438504F0008F8ED
:10458000888888887000203F2000030C302000704D
:104590008808080838000038202121221C0018084B
:1045A00008F8080818000000203F2000000008F864
:1045B00008000008F808001F202020201F000878AD
:1045C000880000C83808000007380E010000F8080D
:1045D00000F80008F800033C0700073C0300081837
:1045E00068808068180820302C03032C302008389D
:1045F000C800C83808000000203F20000000100854
:104600000808C8380800203826212020180000009B
:1046100000FE020202000000007F40404000000C4B
:1046200030C000000000000000010638C000000299
:104630000202FE000000004040407F000000000039
:10464000040202020400000000000000000000005C
:104650000000000000008080808080808080000258
:104660000204000000000000000000000000000044
:104670008080808000000019242222223F2008F838
:10468000008080000000003F112020110E0000007B
:10469000008080800000000E11202020110000000A
:1046A00000808088F800000E112020103F200000BC
:1046B000808080800000001F2222222213000080C0
:1046C00080F0888888180020203F2020000000000B
:1046D000808080808000006B94949493600008F840
:1046E000008080800000203F210000203F200080CB
:1046F0009898000000000020203F202000000000CB
:1047000000809898000000C08080807F000008F83A
:10471000000080808000203F24022D30200000080F
:1047200008F8000000000020203F202000008080CA
:10473000808080808000203F20003F20003F8080DC
:10474000008080800000203F210000203F200000EA
:10475000808080800000001F202020201F0080809B
:1047600000808000000080FFA12020110E000000CA
:10477000008080808000000E112020A0FF808080BB
:1047800080008080800020203F2120000100000068
:10479000808080808000003324242424190000803D
:1047A00080E0808000000000001F2020000080804A
:1047B000000000808000001F202020103F2080800B
:1047C00080000080808000010E300806010080809B
:1047D0000080008080800F300C030C300F000080C0
:1047E0008000808080000020312E0E3120008080EB
:1047F00080000080808080818E701806010000801B
:104800008080808080000021302C22213000000038
:104810000000807C020200000000003F40400002D7
:10482000027C800000000040403F000000000000CB
:104830000000FF00000000000000FF000000010277
:1048400002030405060708090A0B0C0D0E0F1010D1
:104850007048000800000020280000000040000808
:10486000984800082800002040060000104000087A
:104870000100000010000000AED580A83FD300402A
:10488000A1C8DA1281CFD9F1DB40A4A68D14AF0004
:084890000024F4000000000008
:0400000508000131BD
:00000001FF
