:020000040800F2
:10000000701C002045010008515200087944000886
:10001000DD5000085D100008915F0008000000003E
:100020000000000000000000000000000D5D00085E
:10003000A910000800000000095D0008355E0008F6
:100040005F0100085F0100085F0100085F01000810
:100050005F0100085F0100085F0100085F01000800
:100060005F0100085F0100085F0100089D100008A3
:100070005F0100085F0100085F0100085F010008E0
:100080005F0100085F0100085F0100085F010008D0
:100090005F0100085F0100085F0100085F010008C0
:1000A0005F0100083D5E00085F0100085F01000875
:1000B0005F0100085F0100085F0100085F010008A0
:1000C0005F0100085F0100085F0100085F01000890
:1000D0005F010008855F00085F0100085F010008FC
:1000E0005F0100085F0100085F0100085F01000870
:1000F0005F0100085F0100085F0100085F01000860
:100100005F0100085F0100085F0100085F0100084F
:100110005F0100085F0100085F0100085F0100083F
:100120005F0100085F0100085F0100085F0100082F
:10013000DFF80CD000F02AFD0048004715730008D6
:10014000701C00200648804706480047FEE7FEE78F
:10015000FEE7FEE7FEE7FEE7FEE7FEE7FEE7FEE777
:10016000395E00083101000810B5431A934209D2E4
:100170008318881803E010F8011D03F8011D521EB2
:10018000F9D210BD40EA01039B0703D009E008C97A
:10019000121F08C0042AFAD203E011F8013B00F84C
:1001A000013B521EF9D210BDD2B201E000F8012B82
:1001B000491EFBD270470022F6E710B513460A46E7
:1001C00004461946FFF7F0FF204610BD0FB400B5F6
:1001D0008DB010A909900B9000914FF0FF300A905C
:1001E00000200C9005480690054807906A4609A82B
:1001F0000F9900F0D9FB0DB05DF814FBC50900089C
:10020000E30900082DE9FF5F1D464FF0FF3BD5E9EC
:10021000014691465F464FF00008A9697F1C01988E
:100220008847296A824688470028F6D1BAF1FF3FFD
:100230000CD024F4C064002E19DD600614D5BAF188
:100240002B0F09D0BAF12D0F0ED103E0584604B0A0
:10025000BDE8F09F44F48064A9697F1C0198884739
:10026000761E8246002E02DDBAF1300F03D0B9F1BE
:10027000000F26D032E0A969761E44F400747F1C7A
:10028000019888478246002E05DDBAF1780F06D026
:10029000BAF1580F03D0B9F1000F10D01EE0B9F138
:1002A000000F02D0B9F1100F18D1A969761E24F4FD
:1002B00000747F1C019888478246102002E00820C5
:1002C00000E00A20814609E008FB0908A969761EBA
:1002D00044F400747F1C019888478246002E05DD97
:1002E0004946504600F04CFB0028EDDAE9690198D8
:1002F0008847A00502D46FF00100A8E7E00725D1E8
:10030000600613D5600502D5C8F1000000E0404644
:1003100029680A1D2A600968220501D5087015E0C0
:10032000220701D5088011E008600FE02868011D50
:1003300029600068210502D580F8008006E02107C9
:1003400002D5A0F8008001E0C0F8008038467EE7C2
:10035000F0B480EA0102D40F4200B2EB410F02D2A6
:100360000246084611464A0042D0C30DDDB2C1F331
:10037000C752AD1A202D35DAC1F3160141F400023F
:1003800004B15242C5F1200602FA06F12A41104496
:10039000B3EBD05F23D0C4B1012DA0EBC35009DC77
:1003A000F0BC4FF0004202EAC352DBB200F500009D
:1003B00000F031BB400000F1807000EBC350A0F1B1
:1003C000807040EAD170490009E0490841EAC071F3
:1003D000A0EBC35000F50000400800EBC350F0BC98
:1003E00000F010BB6142012202EB4101001BF6E765
:1003F000F0BC704781F00041AAE780F00040A7E719
:1004000080EA010210B502F00043400022D04A0009
:100410001FD0010E01EB1261C0F35600C2F3560269
:1004200040F4000042F40002A0FB022000047F39E7
:10043000140400D0401C50EA124001D44000491E70
:10044000C2B20C0604EBD010401C4008802A02D037
:1004500003E0002010BD20F00100002900DA002098
:10046000184310BD2DE9FE4F804681EA0300C00FFE
:100470000C46009021F0004123F00045B8EB02004B
:10048000A94105D24046214690461C460B460246ED
:1004900023F00040104347D0270DC7F30A00C3F3F1
:1004A0000A510290401A019040286BDAC3F31300FE
:1004B00040F4801B0098924620B10023D2EB030A3F
:1004C00063EB0B0B01985946C0F14002504600F017
:1004D00036FA06460D4650465946019A00F03EFA55
:1004E00010EB08006141002487EA115284EAE773A7
:1004F0001A4340D0009A62B3019A012A4FEA075288
:1005000015DC001B61EB02014FF0004202EA0752CA
:10051000CDE90042001C41F5801132462B4600F027
:10052000B7FA03B0BDE8F08F40462146F9E7001B5B
:1005300061EB0201001C41F5801300185B4120189B
:10054000A2F5001747EB030140EAD570B6196D41DB
:1005500011E06D084FEA360645EAC0754FEA0752CA
:10056000001B61EB0201001C41F5801149084FEAB4
:1005700030000019514132462B4603B0BDE8F04F20
:1005800000F077BA0098012240000023D0EB02026D
:1005900063EBE073009821464FEAE074B8EB00008B
:1005A00061EB0401E9E783F000435BE781F0004180
:1005B00058E72DE9FE4F81EA030404F0004421F0DE
:1005C000004100944FF0000B23F0004350EA010477
:1005D0005ED052EA03045BD0C3F30A54C1F30A5558
:1005E0002C44A4F2F3340194A0FB0254C1F3130190
:1005F00041F48011C3F3130343F4801301FB02445D
:1006000000FB034E840A970A44EA815447EA835761
:10061000A4FB076802958D0A05FB07854FEA932C1A
:1006200004FB0C542705029D4FEA065847EA16378B
:10063000B5EB08056EEB070C870E920E47EA8117A3
:1006400042EA8312A7FB0201B6EB0B0164EB000444
:100650002B0D43EA0C335E1844EB1C50DA4651462E
:10066000E7FB0201C5F313044FEA0B3343EA1453CB
:100670004FEA0432019C43EA0603A4F10C040294FD
:10068000009CCDE900B400F003FA03B0BDE8F08FA0
:1006900000200146F9E72DE9F04D81EA030404F05A
:1006A000004B21F0004514464FF0000A23F00041B2
:1006B00050EA050220D054EA01021DD0C5F30A57C2
:1006C0000246C5F31303C1F31300C1F30A5640F405
:1006D000801543F48013A7EB0608101BD64608F2DA
:1006E000FD3873EB050002D308F1010801E0921810
:1006F0005B41B8F1000F03DA00200146BDE8F08D40
:1007000000204FF48011064684460EE0171B73EB61
:10071000050705D3121B63EB050306434CEA010CE6
:1007200049084FEA300092185B4150EA0107EDD1C9
:1007300052EA030012D082EA040083EA050108436A
:1007400005D0101BAB4106D20122002306E0002297
:100750004FF0004302E06FF0010253101AEB060065
:100760004CEB085110EB0A0041EB0B01BDE8F04DDA
:1007700000F07FB9002801DBC0F10040002901DB57
:10078000C1F10041814201D2012070470020704731
:10079000002801DBC0F10040002901DBC1F100416C
:1007A000814201D3012070470020704730B5041EFC
:1007B00071F1000404DB4FF00044404264EB01019E
:1007C000141E73F1000405DB1C464FF00043524237
:1007D00063EB0403801A994101D2012030BD00204F
:1007E00030BDC10F80EAE0700844CA07962300219B
:1007F00000F011B996230022114600F00CB90EB595
:10080000C10F80EAE0700844CA07002140F2334378
:100810008DE80E000A460B4600F03AF903B000BD21
:1008200000F0004220F00040C10DC0F3160040F47B
:1008300000007F2901DA00207047962903DCC1F10E
:100840009601C84001E096398840002AF4D0404221
:10085000704700F0004230F000400AD0C10D01F5B1
:100860006071C0F3160042EA0151C208400711430B
:10087000704700200146704701F0004330B421F07A
:10088000004150EA010206D00A0DA2F56072C1F3E0
:100890001301002A02DC30BC00207047440F44EAF8
:1008A000C104C100E01830BC00EBC25000F0AAB88F
:1008B00030B50B46014600202022012409E021FA30
:1008C00002F59D4205D303FA02F5491B04FA02F52D
:1008D0002844151EA2F10102F1DC30BD2DE9F05FC4
:1008E0000546002092469B4688460646814640249F
:1008F0001BE0284641464746224600F059F9534638
:100900005A46C01A914110D311461846224600F0AB
:1009100016F82D1A67EB01084F46224601200021E8
:1009200000F00DF817EB00094E41201EA4F1010460
:10093000DFDC484631462A464346BDE8F09F202A80
:1009400004DB203A00FA02F1002070479140C2F126
:10095000200320FA03F3194390407047202A06DB56
:10096000CB17203A41FA02F043EAE07306E041FA7D
:1009700002F3D040C2F1200291400843194670476B
:100980003A2800D2303820F02002412A01D3A2F1C7
:100990003700884201D34FF0FF307047026811449E
:1009A0001378016018467047D160044951610449C9
:1009B000116200211161114600F010B99D09000873
:1009C000D10B0008426842B1016811F8013B23B124
:1009D000521EC0E90012184670470121C160881EEE
:1009E000704742685AB1C368016843B983688B4253
:1009F00005D0491E521CC0E90012002070474FF07C
:100A0000FF3070470029A8BF7047401C490008BF4D
:100A100020F00100704710B4B0FA80FC00FA0CF02E
:100A200050EA010404BF10BC704749B1CCF1200466
:100A300021FA04F411FA0CF118BF012121430843F3
:100A4000A3EB0C01CB1D4FEA00614FEA102042BF1F
:100A5000002010BC704700EBC35010440029A4BF15
:100A600010BC7047401C490008BF20F0010010BCBA
:100A7000704710B5141E73F1000408DA401C41F1F0
:100A8000000192185B411A4301D120F0010010BD12
:100A90002DE9F04D92469B4611B1B1FA81F202E088
:100AA000B0FA80F220329046FFF749FF04460F4625
:100AB00040EA0A0041EA0B0153465A46084313D064
:100AC000114653EA010019D0C8F14002504600F027
:100AD0006FF805460E46504659464246FFF72FFF2F
:100AE000084305D0012004E020463946BDE8F08DDA
:100AF0000020054346EAE0762C4337430A98630515
:100B0000E40AA0EB08000022FD0A44EA47540A3038
:100B100002D500200146E9E7010510196941DDE928
:100B2000084500196941BDE8F04DA2E7C1F30A523A
:100B3000C1F3130140F2FF3341F480119A4202DA0B
:100B400000200146704740F233439A42A2F23342FA
:100B500002DC524200F02CB8FFF7F1BE30B5041EA3
:100B600071F1000404DB4FF00044404264EB0101EA
:100B7000141E73F1000405DB1C464FF00043524283
:100B800063EB0403994208BF904230BD064C074D09
:100B900006E0E06840F0010394E80700984710344D
:100BA000AC42F6D3FFF7C8FA188F0008388F000858
:100BB000202A04DB203A21FA02F00021704721FAB2
:100BC00002F3D040C2F12002914008431946704719
:100BD000C0B24FF4F05100F097B900002DE9F34F87
:100BE0008BB04FF0000801F10C000C464FF0010BE8
:100BF00046460DF1080A019062690121019890476B
:100C0000051E2DD0252D2CD0216A8847C0B16269E0
:100C1000012101989047216A88470028F7D1411E99
:100C200062690198904700E0761CA1690B9888479B
:100C3000216A88470028F7D1E1690B988847DBE7EC
:100C4000A1690B9888470746A84201D1761CD3E7D3
:100C5000E1690B9888477F1C02D1B8F1000F6FD073
:100C600046E1002762693D463946019890472A28A7
:100C700004D162690121019890470125DFF884922F
:100C80006269012101989047A0F130010A290AD236
:100C90004F45E5DC07EB870100EB4107303FDFD430
:100CA00045F01005ECE7E90601D46FF000476C2829
:100CB0000AD04C2814D0682815D06A280DD0742882
:100CC0001CD07A281AD01DE0626901210198904752
:100CD0006C2802D045F0040514E045F002050DE053
:100CE00045F020050AE062690121019890476828D3
:100CF00002D045F0080505E045F400656269012170
:100D000001989047C4E9015765283DD019DC58285F
:100D10007AD00CDC452837D004DC252826D04128A1
:100D200031D131E046282FD047282CD12CE05B2848
:100D300077D0612828D063287CD0642823D15AE05A
:100D4000D0E06F2848D008DC66281DD067281BD06B
:100D5000692821D06E2816D127E0702845D0732845
:100D600068D0752847D078280DD14DE0A1690B983F
:100D70008847054625283FF469AFE1690B98884705
:100D80006D1C3FF46AAFB3E023466A466FF0010082
:100D90000B99AFF300809EE045F040006060A8072B
:100DA00023464FF0000236D43EE0E8077FF447AF19
:100DB0002068011D21600068290501D506701BE728
:100DC000290701D5068017E7A90703D5F117C0E960
:100DD000006111E706600FE745F040006060A8077A
:100DE00023464FF0080216D41EE040F60E0125EA15
:100DF0000100606016E045F040006060A8072346EF
:100E00004FF00A0207D40FE045F040006060A807E9
:100E100008D5234610226FF001000B99AFF3008034
:100E200059E007E0234610226FF001000B99FFF70D
:100E3000E9F950E04FF000094F464B46632802D0D5
:100E40005B2806D040E0E80601D40120A06001271D
:100E50003AE062690121019890475E2805D14FF080
:100E600001096269494601989047216939B9002111
:100E70000A46534643F82120491C0829FADBB0B33F
:100E8000216969B9C11700EBD16253110AEB8301E3
:100E900022F01F02821A01200B68904003430B606E
:100EA00062690121019890475D28E8D1B9F1000FEE
:100EB00009D00020514651F82020D24341F820208B
:100EC000401C0828F7DB02AB224600976FF00100B8
:100ED0000B99AFF3008000280CDA401C08D1BBF15D
:100EE000000F05D04FF0FF300DB0BDE8F08FFFE7E9
:100EF0004046F9E7E90701D108F1010806444FF03F
:100F0000000B79E6CCCCCC0C7F2801D9002208E07C
:100F1000064A02EB5002C007127800D1120902F013
:100F20000F020120904008407047000060860008D2
:100F30000146406A826A12F0500F03D0006A026BC9
:100F4000084610470168826A42F40072826289682A
:100F500001F46021B1F5602F01D1017B11B100F0E6
:100F60009BB900BF816A21F480718162816AC904E2
:100F700048BF00F091B9816A41F00101816200F03F
:100F80008BB90000406A816A41F040018162C16A08
:100F900041F00401C16200F0F7B90000406A00F0BE
:100FA000F1B90000B0B582B004460020019021687C
:100FB0008A68D2074FD1886840F00100886040F20B
:100FC0002000C2F2000000684DF68361C4F21B31BC
:100FD000A0FB0101880C01900198A0B10198013893
:100FE0000190019878B1019801380190019850B1B1
:100FF000019801380190019828B1019801380190B9
:1010000001980028EAD100F017FF21688968C90714
:101010001CD1054603E000BF8068C0071AD100F06C
:101020000BFF411B20680329F6D38168C907F3D160
:10103000A06A40F01000A062E06A40F00100E062A7
:10104000002084F82400012002B0B0BD002002B0CE
:10105000B0BD00BF002002B0B0BD0000FEE7000040
:1010600080B5FFF7CCFB49F2FF524AF2A503C2F26A
:101070009562C3F68B73FFF79CFAFFF7FDFB80BD0B
:1010800080B5FFF7BCFB46F20003C4F298030022D0
:10109000FFF701FBFFF7F0FB80BD000041F27C5041
:1010A000C2F2000000F0C4BB70470000EFF31080F4
:1010B00072B600BFFEE7000010B541F2B060C2F2A8
:1010C0000000D0F800E041F2F863DEF8241040F2AE
:1010D0003C0CC2F20003C2F2000C1B68ACF800101A
:1010E0005A6A40F24C005242C2F20000ACF80220B0
:1010F0000FFA81FCD0E9001412B261442244C0E925
:1011000000120020CEF82400586210BD10B581B046
:101110000022009290F82420012A03D102210846DF
:1011200001B010BD4B680122062B80F8242017D88F
:10113000D0F800C003EB83035A1F1F23DCF834E010
:1011400003FA02F40B682EEA040403FA02F22243C3
:10115000CCF83420092B03EB430219D936E000BF49
:10116000D0F800C00C2B03EB83021DD8233A1F23B9
:10117000DCF830E003FA02F40B682EEA040403FA08
:1011800002F22243CCF83020092B03EB43021DD896
:10119000DCF81030072489689440A3439140194338
:1011A000CCF81010002130E0413A1F23DCF82CE08D
:1011B00003FA02F40B682EEA040403FA02F2224353
:1011C000CCF82C20092B03EB4302E1D9DCF80CE02E
:1011D0001E3A0724896894402EEA0404914023F0C3
:1011E00001022143102ACCF80C100DD142F2084123
:1011F000C4F20101A1F1080294450DD0816A41F0C9
:1012000020018162012100E00021002280F82420D9
:10121000084601B010BD00BF0A68120230D40A6847
:10122000102B42F400020A602CD140F22001C2F2DD
:10123000000109684DF68362C4F21B32A1FB021261
:10124000910C01EB8101490000910099E1B10099F5
:10125000013900910099C9B10099013900910099B3
:10126000B1B1009901390091009999B10099013902
:101270000091009900294FF00001E8D1C5E700BFB7
:101280000021C2E70021C0E70021BEE70021BCE742
:101290000021BAE70021B8E72DE9F047006842F2E3
:1012A0000041C4F20101884218BFBDE8F08740F256
:1012B0002010C2F200000268D0F804C08368D0F8A1
:1012C0000CE00669D718D0F81480856937442F449C
:1012D000D0F81C90056AD0F824A0816A2F443944C4
:1012E000C76A056B426B836B29441944C36B056C59
:1012F000466C846C294421444CF6CD44CCF6CC4455
:10130000A1FB04150CEB0E014144494451443944FE
:1013100011441944C06C31440E18E808FFF76AFA0A
:10132000A6FB04120546D008FFF764FA04462846D7
:10133000FFF78FFA46F26665C4F20A054FF066328F
:101340002B46FFF736F90026C3F6307600223346E7
:10135000FFF72FF9FFF790FA40F26C07C2F200078F
:1013600038602046FFF775FA4FF066322B46FFF7DC
:1013700020F900223346FFF71CF9FFF77DFA786069
:10138000BDE8F0877047000070470000B0B5002846
:1013900000F0B2800446806A20B121688868C007E6
:1013A0000BD114E00020E06284F82400204600F015
:1013B000A5F821688868C00709D0886820F0010076
:1013C000886000F039FD21688A68D20730D1A06AB0
:1013D000C00644D4A06A41F2021290430230A062D7
:1013E000E36981F0804080F49E3083F44022104312
:1013F00008BF4FF40023D4E9010243EA000C531E56
:10140000B3FA83F35D091346B2F5807F18BF2B0250
:10141000207D257B01284CEA450030D135B3A56AF3
:1014200045F02005A562E56A45F00105E56226E084
:10143000054602E08868C007C9D000F0FDFC401BEB
:1014400021680328F6D38868C007F3D0A06A40F06B
:101450001000A062E06A40F00100E062A06AA06AA9
:1014600040F01000A0620120B0BD00BFD4F818C049
:101470004EF60005CFF6FF7505EB4C352B434D6856
:10148000B2F5807F25F4694543EA05034B608B681C
:101490004FF2FD75CFF6E17503EA050343EA000359
:1014A0008B6001D0012A07D122690023CFF6F073A7
:1014B00003EB025201E000BF0022CB6A23F4700369
:1014C0001A43CA62896840F6FE62CFF61F72114065
:1014D000814207D10020E062A16A012262F301018A
:1014E000A162B0BDA06A40F0100020F00200A0622E
:1014F000E06A40F00100E0620120B0BD70B586B046
:10150000044641F20000C4F20100216800F5A05237
:10151000002691420596049602D006B070BD00BF29
:1015200041F21801C4F202010A6842F400720A6032
:101530000A6802F400720192019A0A6842F01002ED
:101540000A60096801F010010191019921210291BD
:101550000321039102A900F06BFB41F27C550820A6
:10156000C2F20005C4F202004FF40072C5E90006A1
:1015700005F1100080214FF400634FF0200C4FF470
:10158000805E80E80C502846C5E9026100F09EFAB2
:10159000002818BFFFF78AFD25626C6206B070BD97
:1015A00070B515460446006842F60002C4F2010216
:1015B00090420E4605D042F20041C4F20101884239
:1015C00009D142F20440C4F20100006810F4702F07
:1015D0001CBF012070BD94F82400012804BF022024
:1015E00070BD012084F824002046FFF7DBFC18B111
:1015F000002184F8241070BD42F204402168A26AE0
:10160000C4F2010040F601739A4300F57F7302F5BE
:1016100080729942A26243D0A06A20F48010A06236
:101620004868400504D5A06A012262F30D30A0622B
:10163000A26A0020D2044FF0000244BFE26A22F006
:101640000602E26284F82400206A40F63172C0F695
:10165000000240F69D7340F6857C00F1280EC0F62E
:101660000003C0F6000C8EE80C106FF002020A6056
:101670008A682B4642F480728A604C31324600F010
:1016800075FA2068816801F460228168B2F5602FE4
:101690000CBF41F4A00141F480118160002070BDB5
:1016A000026812F4702FB7D0A26A42F48012A262CC
:1016B00000684005BCD5B6E7014690F82100022835
:1016C00016D10868D1E90FC3026822F00E02026049
:1016D000026822F001020260012000FA03F2CCF855
:1016E000042081F821000020002281F8202070478A
:1016F000042088630120002281F820207047000028
:1017000080B590F82110022928D1026840F2040C1B
:101710001368C4F2020C23F00E03136013680CF17B
:101720007C018A4223F0010111601BD940F208417B
:10173000C4F202018A4249D040F21C41C4F20201C3
:101740008A4247D040F23041C4F202018A4245D178
:101750004FF48073CCF800345DE000BF0421816356
:10176000012080BD4321C4F202018A420EDD6B21BB
:10177000C4F202018A421BDC4421C4F202018A4203
:101780003CD05821C4F202018A4233E00821C4F25D
:1017900002018A4236D01C21C4F202018A4237D0AB
:1017A0003021C4F202018A4224D14FF4807230E029
:1017B0006C21C4F202018A4226D08021C4F20201C7
:1017C0008A4217D14FF0807223E000BF0123CCF88A
:1017D000003420E01023CCF800341CE00CF58861C4
:1017E0004FF480338A4208BF4FF48053CCF8003462
:1017F00011E000BF4FF480320BE000BF4FF4805285
:1018000007E000BF012204E04FF4801201E000BFB6
:101810001022CCF80020012180F82110426B002119
:1018200080F820100AB190470021084680BD0000D2
:1018300010B5D0E90FE3D0F800C0DEF80020DCF8E6
:101840000010DA4054072DD511F004042AD0DCF83A
:101850000010890605D4DCF8001021F00401CCF852
:1018600000100422C4F2020202F17C018C454DD921
:1018700040F20841C4F202018C4500F0B18040F210
:101880001C41C4F202018C4500F0AE8040F23041B0
:10189000C4F202018C4540F0AB804FF48061C2F885
:1018A0000014F9E0940747D511F0020444D0DCF8A5
:1018B0000010890608D4DCF8001021F00A01CCF8E9
:1018C0000010012180F821100422C4F2020202F16A
:1018D0007C018C454ED940F20841C4F202018C458E
:1018E00000F0B68040F21C41C4F202018C4500F0C9
:1018F000B38040F23041C4F202018C4540F0B08028
:101900004FF40071C2F80014D8E000BF4321C4F2C4
:1019100002018C4544DD6B21C4F202018C4551DC8F
:101920004421C4F202018C4500F0A6805821C4F283
:1019300002018C4568E000BF120740F1C58011F03C
:10194000080108BF10BDDCF8001021F00E01CCF832
:101950000010012101FA03F2CEF80420816380F81F
:101960002110016B0022002980F8202040F0968091
:10197000AAE000BF4321C4F202018C4548DD6B217F
:10198000C4F202018C4555DC4421C4F202018C45AD
:1019900000F088805821C4F202018C4576E000BF37
:1019A0000821C4F202018C456AD01C21C4F2020154
:1019B0008C456FD03021C4F202018C4524D14FF404
:1019C000806168E06C21C4F202018C455AD080210C
:1019D000C4F202018C4517D14FF080615BE000BF7B
:1019E0000421C2F8001457E04021C2F8001453E06B
:1019F00002F588634FF480219C4508BF4FF4804175
:101A0000C2F8001448E000BF4FF4802143E000BF5B
:101A10000821C4F202018C4548D01C21C4F2020105
:101A20008C4549D03021C4F202018C452ED14FF4AF
:101A3000007142E06C21C4F202018C4538D0802153
:101A4000C4F202018C4521D14FF0007135E000BF96
:101A50000221C2F8001431E02021C2F800142DE068
:101A600002F588634FF400319C4508BF4FF40051E4
:101A7000C2F8001422E000BF4FF480410BE000BF29
:101A8000042108E04FF4800105E000BF4FF400316D
:101A900013E000BF40211160C16AA9B1BDE8104048
:101AA000084700BF4FF4005107E000BF022104E0E7
:101AB0004FF4001101E000BF20211160816A002273
:101AC000002980F82020E9D110BD0000014600283F
:101AD0004FF0010008BF70472DE9F04740F2000CBD
:101AE000C4F2020C0A684FF6F8330CF5816ECBF69F
:101AF000FD73724538BF03F5806303EB020E4CF6AD
:101B0000CD43CCF6CC43AEFB033E6FF003060CF5A1
:101B1000806506EA9E06D1E901A9D1F80C803CBF98
:101B20000025C4F20205C1E90F56022681F82160A2
:101B3000166843F6F075AE4346EA0A06D1E9045743
:101B400046EA090646EA0806D1E906432E4337432A
:101B500027433B43136000228A6381F8210081F808
:101B600020200020BDE8F04770470000F0B590F855
:101B700020C0BCF1010F32D04FF0010E80F820E000
:101B800090F821C0BCF1010F26D14FF0020C80F873
:101B900021C04FF0000CC0F838C0D0E900C4C56ABD
:101BA000C66BDCF80070102C27F00107CCF8007031
:101BB000006C0EFA00F070600846CCF8043004BFE8
:101BC00010460A46CCF80800CCF80C20DCF80000DF
:101BD00045B140F00E000DE0002180F820100220F9
:101BE000F0BD00BF20F00400CCF80000DCF80000DD
:101BF00040F00A00CCF80000DCF8000040F00100E2
:101C0000CCF800000020F0BDB0B5044600F014F997
:101C1000054640F20000C2F200000078611C18BFC7
:101C2000044400BF00F008F9401BA042FAD3B0BD45
:101C30002DE9F04F82B0D1F800C0BCF1000F00F0E8
:101C4000F180A0F1804241F60045A2F58432C4F251
:101C5000010540F2004E4FEAB2240627A842C4F222
:101C6000010E08BF0527052C4FF000044FF00108B6
:101C70004FF00F034FF0000A4FF0000B38BF4FEA50
:101C8000B22700970AE000BFD1F800C00AF1010AAC
:101C90003CFA0AF204F1040400F0C48008FA0AF9DC
:101CA0001CEA090FF0D04E684FF6FF72C1F2100225
:101CB000964211DC122E55D8DFE806F0340A44486B
:101CC000545454545454545454545454544C500034
:101CD000D1F80CB046E000BF4FF6FF72C1F221020E
:101CE00096420FDC0022C1F2110296421AD0002265
:101CF000C1F21202964215D00022C1F22102964290
:101D000010D02FE00022C1F2220296420AD0002217
:101D1000C1F23102964205D00022C1F2320296424F
:101D200020D100BF8A684AB1012A14BFC0F81490BC
:101D3000C0F810904FF0080B14E000BF4FF0040BF8
:101D400010E000BFCA6802F1080B0BE04FF0000B77
:101D500008E000BFCA6802F1040B03E0CA6802F1A0
:101D60000C0B00BF22460646BAF1080F24BF203AEA
:101D70000436376803FA02F5AF430BFA02F23A432E
:101D80003260CA79D2067FF57FAF41F21807C4F2FC
:101D900002073A684FF6084342F001023A603A6897
:101DA000CFF6FF7302F001020192019A2AF00302BA
:101DB00072440F25D75804F00C06B540AF43009D80
:101DC00005FA06F63743D7504E6840F20C45F2024A
:101DD000DEF8082054BF22EA090242EA0902CEF8DE
:101DE0000820C4F201052A68B70254BF22EA09029A
:101DF00042EA09022A60DEF80420B70354BF22EA4F
:101E0000090242EA0902CEF804200F23DEF800207E
:101E1000F70354BF22EA090242EA0902CEF8002081
:101E200032E700BF02B0BDE8F08F0000002A08BF13
:101E3000090401617047000041F66800C2F2000029
:101E40000068704770B5B8B3044690F83D0028B9F3
:101E5000002084F83C00204600F002FB242084F897
:101E60003D002068016821F001010160016841F432
:101E700000410160016821F40041016000F06EFD45
:101E800048F28041C0F21E0140F60013D4F804E08D
:101E900088424FF00001C0F23D0348F2A16C4FF0C0
:101EA000000238BF01219842C0F2010C38BF012264
:101EB000E64538BF0A460AB1012070BD4DF6836180
:101EC000C4F21B31A0FB01122168950C4B684FF442
:101ED000967623F03F0343EA9243754344F6D35684
:101EE0004B60C1F262060B6AA5FB0656B50923F0EA
:101EF0003F03E64538BF950C6A1C1A430A62CA695B
:101F000048F2A0664CF6FF73C0F20106B64522EA1D
:101F100003020BD801384FEA4E03B0FBF3F0013057
:101F20006FF31F30042898BF04201EE0A368013817
:101F300063B119230EFB03F3B0FBF3F001306FF331
:101F40001F3078B100F5804008E000BF0EEB4E0373
:101F5000B0FBF3F001306FF31F3028B100F5004003
:101F600003E000BF012000E001201043C8610868C1
:101F7000D4E9072320F0C0001043184308608868A4
:101F800048F2FF3204F10C0690434CCE1843104344
:101F9000A5698860C86820F0FF0030432843C86006
:101FA000086840F00100086000202021206484F8C7
:101FB0003D10206384F83E0070BD00002DE9F04F15
:101FC00085B004460020994616460F460490FFF758
:101FD00033FF94F83D10202927D10546206800BF23
:101FE000816989071CD5FFF727FF411B20681A2943
:101FF000F6D381698907F3D500202021206384F876
:102000003D1084F83E00206C04F13C0A40F02000B2
:102010002064022000218AF8001005B0BDE8F08F8E
:10202000A2461AF83C1F012904D1022005B0BDE8E0
:10203000F08F00BF01228AF800200368DDE90F1845
:102040000E9ADB0703D1036843F0010303600368C2
:1020500023F400630360222084F83D00402084F8CC
:102060003E000020206462626185608D39462085D3
:102070000020CFF6FF70E062204632464B46CDF896
:102080000080019502F0FAF920B1012005B0BDE809
:10209000F08F00BF208D022810D0012824D0002806
:1020A00038D1002003902068416903918169039130
:1020B0000399016841F40071016037E0206801680C
:1020C00041F400610160EFF3108072B600200390CC
:1020D000206841690391816903910399016821F4A2
:1020E0008061016062B621E02068016821F48061AE
:1020F0000160EFF3108072B6002003902068416900
:102100000391816903910399016841F400710160B1
:1021100062B60BE02068016841F480610160002133
:10212000039141690391806903900398208D0028F1
:1021300000F0CA80042740F220094BF2895BC0F20C
:102140000107C2F20009C1F2F84B232617E000BFD5
:10215000204641462A4602F03BFC002895D12068E3
:10216000616A00690870606A218D01306062481EF2
:102170002085618D01396185010400F0A58080B260
:10218000032865D8022800F07F800128E0D020468F
:10219000394600224346009502F0C0FA00287FF439
:1021A00074AF2068016821F480610160EFF3108052
:1021B00072B62068616A00690870606A218D01301A
:1021C000013960622185618D01396185D9F800107E
:1021D000C908A1FB0B12110A71430491049901393A
:1021E00004910499002900F07B8021684A69520714
:1021F0001DD40499013904910499002970D02168F3
:102200004A69520713D404990139049104990029A9
:1022100066D021684A69520709D4049901390491AA
:10222000049900295CD021684A695207D6D50A680A
:1022300042F400720A6009690170606A218D013000
:102240006062481E2085608D0138608562B686E731
:10225000204641462A4602F0BBFB00287FF415AF1A
:102260002068616A00690870606A2268411C208DDC
:10227000616201382085638D013B638553695B078B
:102280007FF57AAF10696DE7204639460022434654
:10229000009502F043FA00287FF4F7AEEFF31080C8
:1022A00072B62068616A026842F4007202600069D6
:1022B0000870606A218D01306062481E2085608D43
:1022C0000138608562B64AE7202084F83D0000208E
:1022D00084F83E0000218AF8001005B0BDE8F08FB8
:1022E00000202021206384F83D1084F83E00206CFB
:1022F00040F02000206462B6012000218AF800101E
:1023000005B0BDE8F08F00002DE9F04383B0994699
:1023100016460F460446FFF78FFD94F83D1020291E
:1023200020D10546206800BF8169890716D5FFF7CF
:1023300083FD411B20681A29F6D381698907F3D5EB
:1023400000202021206384F83D1084F83E00216C99
:1023500041F02001216484F83C0003E094F83C1033
:10236000012903D1022003B0BDE8F083012284F8E3
:102370003C200368DDE90B180A9ADB0703D10368E8
:1023800043F001030360036823F40063036021202A
:1023900084F83D00402084F83E0000202064626202
:1023A0006185608D394620850020CFF6FF70E062A0
:1023B000204632464B46CDF80080019502F0EAF8FF
:1023C00020B1012003B0BDE8F08300BF208D98B993
:1023D000204641462A4602F041F988B3206C042881
:1023E000EFD12068016841F400710160012003B061
:1023F000BDE8F0830004EBD0204641462A4602F0B7
:102400002FFB0028EAD1616A2268084610F8013BD8
:102410001361238D6062581E2085678D013F67859B
:1024200057697F07E6D50704E4D048781061881C17
:102430006062981E2085618D01396185DAE700BFF1
:102440002068016841F400710160202084F83D009B
:10245000002084F83E0084F83C0003B0BDE8F0831F
:1024600010B586B0006845F60001C4F2000188424C
:102470004FF00001CDE90411CDE902112AD045F257
:102480000041C4F20001884248D141F21804C4F26C
:102490000204206802A940F008002060206800F0D3
:1024A000080001900198C0200290122003900320A0
:1024B000059040F60040C4F20100FFF7B9FB6068E8
:1024C00040F400106060606800F400100190019812
:1024D00006B010BD41F21804C4F20204206802A93B
:1024E00040F008002060206800F00800019001988A
:1024F0004FF440600290122003900320059040F6B4
:102500000040C4F20100FFF793FB606840F48000D4
:102510006060606800F480000190019806B010BD12
:1025200040F2000041F66801C2F20000C2F2000170
:1025300000780A68104408607047000080B542F2D5
:102540000000C4F20200016841F0100101600320A4
:1025500000F08EF80F2000F005F800F027F80020BA
:1025600080BD000070B540F20006C2F2000640F2E5
:1025700020013278C2F200014FF47A730968B3FB8C
:10258000F2F20446B1FBF2F1084600F0E9FB0F2C31
:102590004FF0010508D838B94FF0FF30214600222E
:1025A000002500F039F87460284670BD82B041F211
:1025B0001800C4F202000168022241F0010101602A
:1025C000016801F0010101910199416841F08051D8
:1025D0004160406800F08050009000980420C4F2F0
:1025E0000100016862F31A61016002B070470000E7
:1025F000002848BF7047C1B200F01F00012202FA54
:1026000000F04EF20012CEF2000242EAD10121F0B7
:10261000030108607047000010B54EF60C5CCEF266
:10262000000CDCF80030C3F3022E8EF00704042CFB
:1026300028BF0424BEF103034FF0FF3E0EFA04F45A
:1026400038BF0023A14399400EFA03F39A43114384
:1026500000F00F0200F160430901043A03F56443FE
:102660006244002848BF02F10C03197010BD00003D
:102670004EF60C51CEF200010A684FF6FF031A40E5
:1026800060F30A2242F0806040F0FD7008607047FD
:102690002DE9F04182B00446007841F21C06C007E3
:1026A000C4F202064AD0306810F0805808D1306871
:1026B00040F080503060306800F080500190019808
:1026C00047F20007C4F200073868C00512D4386822
:1026D00040F480703860FFF7AFFB05463868C005EE
:1026E00008D4FFF7A9FB401B6428F7D9032002B0E8
:1026F000BDE8F081706810F4407012D0616801F498
:10270000407188420DD0706840F24042C4F24222CB
:10271000012320F4407113600023C007136071602F
:102720002AD17068616820F440700843B8F1000F46
:10273000706003D1306820F08050306020688107DD
:1027400007D556F8181CA26821F44041114346F8F9
:10275000181CC00604D4002002B0BDE8F08100BF00
:1027600056F8180C616920F48000084346F8180CEC
:10277000002002B0BDE8F081FFF75EFB054641F2A4
:10278000883700BF70688007CBD4FFF755FB401B2C
:10279000B8424FF00300F5D9EBE700002DE9F04314
:1027A00081B0002800F0858042F20008C4F20208DF
:1027B0000446D8F800000D4600F0070088420CD20D
:1027C000D8F8000020F007002843C8F80000D8F827
:1027D000000000F00700A8426BD1206841F2040914
:1027E0008107C4F2020917D5410705D5D9F80010B1
:1027F00041F4E061C9F80010010705D5D9F80010CF
:1028000041F46051C9F80010D9F80010A26821F015
:10281000F0011143C9F80010C00741D1D8F80000F9
:1028200000F00700A8420CD9D8F8000020F00700FB
:102830002843C8F80000D8F8000000F00700A842BC
:1028400037D12068410707D5D9F80010E26821F494
:10285000E0611143C9F80010000708D5D9F800005D
:10286000216920F4605040EAC100C9F80000D9F89D
:10287000002002F00C00082841F20020C0F27A008B
:1028800050D148F6C263C2F38341C0F60003595CDD
:10289000D2033BD440F60010C0F23D00484341E073
:1028A000606802280AD001282AD159F8041C89033B
:1028B00008D4012001B0BDE8F08300BF59F8041C22
:1028C0008901F6D5D9F8001021F003010843C9F8B1
:1028D0000000FFF7B1FA064641F28837D9F8000048
:1028E000616800F00C00B0EB810F97D0FFF7A4FAFD
:1028F000801BB842F2D9032001B0BDE8F08300BFCD
:1029000059F8041C8907D4D5DCE700BFD9F80020AA
:1029100048F6C063C2F34042C0F600039A5C4843E5
:10292000B0FBF2F0D9F8001048F2A062C1F3031135
:10293000C0F60002515C40F2200220FA01F140F2A0
:102940000400C2F200000068C2F200021160FFF74A
:1029500009FE002001B0BDE8F083000040F2200035
:1029600041F20401C2F20000C4F2020100680968E9
:1029700048F2B062C1F30221C0F60002515CC840C7
:102980007047000040F2200041F20401C2F2000052
:10299000C4F202010068096848F2B062C1F3C221C2
:1029A000C0F60002515CC840704700002DE9F041BC
:1029B00082B0002868D00446007841F20006C007C3
:1029C000C4F2020625D0706800F00C0004281BD069
:1029D000706800F00C00082802D17068C00313D49E
:1029E0006068002800F06881B0F5A02F00F07C81BD
:1029F000B0F5803F00F07C81306820F4803030609A
:102A0000306820F4802076E13068800301D560686A
:102A1000D0B32078800718D5706810F00C0F07D05D
:102A2000706800F00C0008286ED17068C0036BD489
:102A30003068800702D52069012825D13068616996
:102A400020F0F80040EAC1003060207800071FD471
:102A50002078400732D4E56995B1706800F00C0029
:102A6000082840F08F80012D0ED07068216A00F494
:102A700080328A4208D1616A00F47010884203D122
:102A8000002002B0BDE8F081012002B0BDE8F08175
:102A9000A069002862D00020C4F242200121C0F8C1
:102AA0008014FFF7C9F90546706A800700F18C8031
:102AB000FFF7C2F9401B0228F6D92AE1F06910F0AD
:102AC000805808D1F06940F08050F061F06900F062
:102AD00080500090009847F20007C4F20007386861
:102AE000C00529D4386840F480703860FFF7A4F935
:102AF000054600BF3868C0051ED4FFF79DF9401B8E
:102B00006428F7D905E100BF2069002840F20000E1
:102B1000C4F2422000F0828001210160FFF78CF9AD
:102B2000054600BF306880073FF588AFFFF784F99E
:102B3000401B0228F6D9ECE0E068002800F0808015
:102B4000052800F09780012800F09880306A20F076
:102B500001003062306A20F0040092E00020C4F2EC
:102B600042200021C0F88014FFF766F9054600BF37
:102B7000706A80077FF56CAFFFF75EF9401B022893
:102B8000F6D9C6E00027C4F2422700203866FFF7D6
:102B900053F9022D05460BD13068800140F1BE800B
:102BA000FFF74AF9401B02284FF00300F4D968E709
:102BB000306880017FF564AFFFF73EF9401B0228C3
:102BC0004FF00300F4D95CE740F22000C2F20000AD
:102BD000006844F6D351C1F26201A0FB0101480A2A
:102BE000019000BF00BF0198411E002801913FF4F1
:102BF0002FAF00BF0198411E002801913FF428AF7C
:102C000000BF0198411E002801913FF421AF00BF91
:102C10000198411E00280191E4D119E700210160CB
:102C2000FFF70AF9054600BF306880077FF50DAF52
:102C3000FFF702F9401B02284FF00300F4D920E708
:102C4000306A20F001003062306A20F00400306207
:102C5000FFF7F2F8054641F2883700BF306A800777
:102C600020D5FFF7E9F8401BB8424FF00300F5D933
:102C700007E700BF306A40F004003062306A40F07D
:102C800001003062FFF7D8F8054641F2883700BFEF
:102C9000306A800706D4FFF7CFF8401BB842F7D957
:102CA00037E000BFB8F1000F7FF4D5AEF06920F037
:102CB0008050F061CFE600BF306820F48030306093
:102CC000306820F480203060FFF7B6F8054600BF7A
:102CD000306880037FF59DAEFFF7AEF8401B642897
:102CE0004FF00300F4D9CCE6306840F48020306027
:102CF000306840F480303060FFF79EF8054600BF32
:102D0000306880033FF585AEFFF796F8401B6428D6
:102D1000F6D9032002B0BDE8F08100BF206AB0F50B
:102D2000803F05D17168A26821F4003111437160C0
:102D30007168626A21F474111143084370600120C4
:102D40003866FFF779F80446306880013FF598AEA1
:102D5000FFF772F8001B02284FF00300F4D990E649
:102D6000411E0020B0EB116F1CBF012070474EF2D6
:102D70001002CEF2000251604EF62351CEF2000155
:102D8000F0230B70072190601160704770470000BE
:102D90007047000010B590F83C20012A4FF0020265
:102DA0003FD080F83D200268D2F804E0D2F808C095
:102DB0000C682EF07003234340F6FF34C4F2000485
:102DC000A242536010DCB2F1804F1FD040F20043AA
:102DD000C4F200039A4219D040F60003C4F2000383
:102DE0009A4213D017E000BF40F60043C4F200033C
:102DF0009A420BD043F20043C4F201039A4205D039
:102E000042F60043C4F201039A4204D149682CF00F
:102E10008003194391600121002280F83D1080F861
:102E20003C20104610BD0000002804BF0120704760
:102E300010B5044690F83D0028B9002084F83C0005
:102E4000204600F085F8022084F83D00206840F616
:102E5000FF330268C4F2000343F2004C9842C4F20C
:102E6000010C21DCB0F1804F2CD040F20041C4F2C3
:102E70000001884226D040F60001C4F200018842D9
:102E800020D0984224DCB0F1804F2FD040F2004196
:102E9000C4F20001884229D040F60001C4F20001CA
:102EA000884223D026E000BF40F60041C4F2000172
:102EB000884207D0604505D042F60041C4F20101C6
:102EC0008842DED1A16822F070020A439842DADD1E
:102ED00040F60041C4F20001884207D0604505D0A9
:102EE00042F60041C4F20101884203D1216922F473
:102EF00040720A43A36922F08001D4F804E0E2683A
:102F0000194360450160C262C0F828E005D042F66E
:102F10000041C4F20101884201D1616901630121CC
:102F20004161002084F8461084F83E1084F83F1078
:102F300084F8401084F8411084F8421084F843105B
:102F400084F8441084F8451084F83D1010BD00004A
:102F500080B582B0006840F60001C4F200018842EA
:102F60001ED042F60041C4F20101884225D141F24F
:102F70001800C4F202000168002241F400610160FF
:102F80000068012100F40060019001981920FFF70A
:102F900043FB192002B0BDE88040FFF729BB00BF0A
:102FA00041F21800C4F20200416841F0040141609E
:102FB000406800F004000090009802B080BD00005E
:102FC00090F83D1001291CBF01207047022180F8B4
:102FD0003D10006840F6FF32C168C4F20002904222
:102FE00041F00101C1600FDCB0F1804F1ED040F212
:102FF0000041C4F20001884218D040F60001C4F23A
:103000000001884212D018E040F60041C4F20001ED
:1030100088420BD043F20041C4F20101884205D03E
:1030200042F60041C4F20101884206D1816801F0F4
:103030000701062904BF00207047016841F0010123
:10304000016000207047000080B590F83C20012A04
:103050004FF0020200F0C28080F83D20D0F800C09E
:103060004FF67772DCF8083023EA0202CCF8082029
:103070000B684F2B28DC1F2B44DD202B45D0302B39
:1030800043D0402B40F0AC80D1F804E0C968DCF8B4
:103090002030DCF8202022F00102CCF82020DCF8DF
:1030A000182022F0F00242EA011123F00A0242EA5B
:1030B0000E02CCF81810CCF82020DCF8081041F0F3
:1030C000470121F0300180E06F2B27DDB3F5005F71
:1030D00048D0B3F5805F7AD0702B40F08180D1E981
:1030E00001E3C968DCF8082043EA0E0322F47F42BA
:1030F00043EA01211143CCF80810DCF8081041F034
:10310000770162E00BB1102B6AD1DCF8081021F0D6
:103110007001194341F0070157E000BF502B35D033
:10312000602B5DD1D1F804E0C968DCF82030DCF810
:10313000202022F01002CCF82020DCF8182022F405
:10314000704242EA013123F0A00242EA0E12CCF8AA
:103150001810CCF82020DCF8081041F0670121F0AD
:10316000100132E0D1E901E3C968DCF8082043EA44
:103170000E0322F47F4243EA01211143CCF80810E8
:10318000DCF8081041F480411FE000BFD1F804E0F2
:10319000C968DCF82030DCF8202022F00102CCF8ED
:1031A0002020DCF8182022F0F00242EA011123F07E
:1031B0000A0242EA0E02CCF81810CCF82020DCF803
:1031C000081041F0570121F02001CCF8081000222E
:1031D000012180F83D10002180F83C10104680BD90
:1031E0000122F5E7002804BF012070472DE9F04FC8
:1031F00081B0044690F83D008B4628B9002084F841
:103200003C00204600F0B0F8022084F83D00206821
:1032100044F20702816840F6FF33914381600268FF
:10322000C4F2000343F2004C9842C4F2010C21DCCA
:10323000B0F1804F2CD040F20041C4F2000188422E
:1032400026D040F60001C4F20001884220D0984206
:1032500024DCB0F1804F2FD040F20041C4F20001D5
:10326000884229D040F60001C4F20001884223D0F0
:1032700026E000BF40F60041C4F20001884207D0BA
:10328000604505D042F60041C4F201018842DED11A
:10329000A16822F070020A439842DADD40F600414C
:1032A000C4F20001884207D0604505D042F60041D3
:1032B000C4F20101884203D1216922F440720A4319
:1032C000A36922F080016268E568194360450160E6
:1032D000C562826205D042F60041C4F20101884213
:1032E00001D1616901630121416182688369D0F87C
:1032F00020C0DBE9005EDBE9027845EA020ADBF880
:1033000018504FF6FF7923EA090347EA05254FF6DF
:10331000FC47BD43DBE9077643EA0803DBF81020EE
:103320002B4343EA072343EA02122CF02203DBF883
:10333000147043EA0E0342EA063243EA0713C0F868
:1033400008A08261036284F8461084F83E1084F875
:103350003F1084F8421084F8431084F83D10002098
:1033600001B0BDE8F08F000080B586B0006840F283
:103370000041C4F2000188424FF00001CDE9041180
:10338000CDE902111CD0B0F1804F3CD141F21800C0
:10339000C4F20200416841F001014160416801F05E
:1033A000010101910199016841F004010160006887
:1033B000032100F0040001900198002018E000BFF4
:1033C00041F21800C4F20200416841F0020141607C
:1033D000416801F0020101910199016841F0040185
:1033E00001600068C02100F00400019001980120F4
:1033F00002910021CDE9031040F60000C4F2010063
:1034000002A9FEF715FC06B080BD000080B590F85B
:103410003E2090F83F3090F842E090F843C00429F5
:103420000AD0B9B9012A4FF0010208BFBEF1010F5D
:1034300034D0104680BD00BF012B4FF0010208BF01
:10344000BCF1010FF5D1022180F83F1080F8431044
:1034500000681EE0012A4FF0010208BF012BE8D1ED
:10346000BEF1010FE5D1BCF1010FE2D1022280F8DB
:103470003E2080F83F2080F8422080F8432091B120
:103480000068016A21F001010162016A41F0010155
:10349000016210216FF0100209E000BF022180F8E4
:1034A0003E1080F84210006801216FF00102036AAB
:1034B0001A400262026A114301620168002241F06F
:1034C00001010160104680BD7047000010B5016821
:1034D00004460869800744BFC8685FEA807039D431
:1034E0000869400744BFC8685FEA40703ED4086975
:1034F000000744BFC8685FEA007045D40869C00689
:1035000044BFC8685FEAC0604AD40869C0071CBFEE
:10351000C8685FEAC07051D10869000644BFC86836
:103520005FEA006052D40869400644BFC8685FEA99
:10353000406053D40869800646BFC8685FEA80606F
:1035400010BD6FF0200220460A61BDE81040FFF771
:103550001FBC00BF6FF0020008610120207788695E
:10356000800743D02046FFF7AFFF45E06FF004002F
:10357000086102202077886910F4407F40D02046FF
:10358000FFF7A2FF42E000BF6FF0080008610420CF
:103590002077C86980073DD02046FFF795FF3FE0C0
:1035A0006FF01000086108202077C86910F4407F90
:1035B0003AD02046FFF788FF3CE000BF6FF00100E3
:1035C0000861204600F078FA2168A5E76FF08000D6
:1035D00008612046FFF7DAFB2168A4E76FF040009E
:1035E0000861204600F0B2FA2168A3E7204600F007
:1035F00025F8204600F0ECF92168002020776FE7DD
:10360000204600F01BF8204600F0E2F92168002077
:1036100020776CE7204600F011F8204600F0D8F93A
:1036200021680020207769E7204600F007F820464F
:1036300000F0CEF921680020207766E7704700008F
:103640002DE9F04190F83C30012B04BF0220BDE889
:10365000F0814FEAB202032A00F21C81DFE802F097
:10366000024690DA036843F200461D6A1A6A25F0A2
:10367000020522F001021A621A465C6852F818EF3D
:103680008F68D1F800C0C4F20106B34245EA0705CD
:1036900005D042F60047C4F20107BB4205D1CF680E
:1036A00025F00C0527F004073D43B34205D042F650
:1036B0000046C4F20106B34205D1D1E9056724F4FE
:1036C000407434433C432EF0730747EA0C075C60B8
:1036D0009F614F6809695F631D629F6947F0080732
:1036E0009F619F6927F004079F61C9E0036843F267
:1036F00000461D6A1A6A25F0200522F010021A629F
:103700001A46D3F804C052F8188F8F68D1F800E039
:10371000C4F20106B34245EA071505D042F6004758
:10372000C4F20107BB4207D1CF686FF0400425F017
:10373000C00504EA07142543B34205D042F600440D
:10374000C4F20104A34206D1D1E905462CF4406736
:10375000264347EA860C28F4E64444EA0E27C3F8D9
:1037600004C09F614F6809699F631D629F6947F4A8
:1037700000679F619F6927F480679F617FE000BFBA
:10378000036843F200461D6A1A6A25F4007522F4A4
:1037900080721A621A46D3F804C052F81CEF8F6880
:1037A000D1F80080C4F20106B34245EA072505D0EE
:1037B00042F60047C4F20107BB4208D1CF6840F28D
:1037C000FF443F0225F4406527EA04042543B34241
:1037D00005D042F60044C4F20104A34206D1D1E967
:1037E00005462CF44057264347EA061C2EF0730783
:1037F00047EA0807C3F804C0DF614F680969DF635F
:103800001D62DF6947F00807DF61DF6927F0040701
:10381000DF6135E0036843F20047D3F820C01A6A3D
:10382000C4F2010722F480521A621A465C6852F808
:103830001C5FD1F800E08E68BB4205D042F600471D
:10384000C4F20107BB4204D14F6924F4804444EA26
:1038500087142CF4005747EA063725F4E64646EA73
:103860000E265C60DE614E6809691E641F62DF69B6
:1038700047F40067DF61DF6927F48067DF610902D1
:103880001368194311600021002280F83C2008468B
:10389000BDE8F0810121002280F83C200846BDE807
:1038A000F0810000002804BF0120704710B50446D5
:1038B00090F83D0028B9002084F83C00204600F034
:1038C00085F8022084F83D00206840F6FF33026846
:1038D000C4F2000343F2004C9842C4F2010C21DC14
:1038E000B0F1804F2CD040F20041C4F20001884278
:1038F00026D040F60001C4F20001884220D0984250
:1039000024DCB0F1804F2FD040F20041C4F200011E
:10391000884229D040F60001C4F20001884223D039
:1039200026E000BF40F60041C4F20001884207D003
:10393000604505D042F60041C4F201018842DED163
:10394000A16822F070020A439842DADD40F6004195
:10395000C4F20001884207D0604505D042F600411C
:10396000C4F20101884203D1216922F440720A4362
:10397000A36922F08001D4F804E0E26819436045AD
:103980000160C262C0F828E005D042F60041C4F2EE
:103990000101884201D16169016301214161002077
:1039A00084F8461084F83E1084F83F1084F84010E4
:1039B00084F8411084F8421084F8431084F84410CD
:1039C00084F8451084F83D1010BD000070470000D9
:1039D0007047000041B1082910D0042914BF00F13C
:1039E000410200F13F020BE090F83E20012A1CBF8B
:1039F00001207047022280F83E2013E000F14002CF
:103A00001278012A1CBF012070470222082907D022
:103A1000042914BF80F8412080F83F2002E000BF55
:103A200080F84020006801F01F010122036A02FAB9
:103A300001F123EA01020262026A114340F6FF32F9
:103A4000C4F20002904201620EDCB0F1804F25D03A
:103A500040F20041C4F2000188421FD040F600014C
:103A6000C4F2000118E000BF40F60041C4F20001BA
:103A7000884213D043F20042C4F2010242F60041F0
:103A80009042C4F2010101D088420ED1436C9042B1
:103A900043F40043436401D0884206D1816801F0B9
:103AA0000701062904BF00207047016841F00101A9
:103AB0000160002070470000B0B540F22805C2F256
:103AC0000005E96841F26862C2F2000201319042E9
:103AD000E96001D0B0BD00BFFDF7EEFA686AFDF7FE
:103AE000CFFAA96AE8620846FDF7CAFAB5F91410D8
:103AF00028630846FDF7B4FAB5F91610686308465E
:103B0000FDF7AEFAEA6B40F27014696BC2F2000482
:103B1000A8631046224602F0FBF8A96B286C04F15A
:103B2000280202F0F5F8606AE16C01F0D9FAE86861
:103B30006528B8BFB0BD686C0021C4F2A001FCF7D5
:103B40005FFC0021C5E90310B0BD00007047000014
:103B50007047000070470000B0B582B004460068AE
:103B60000168C368426901F02F05202D03F020058C
:103B700006D12DB1204602B0BDE8B04002F082B9B6
:103B80005FEA017C1EBF02F0010E03F4907212EB9B
:103B90000E0253D1226B012A05D111F0100218BF79
:103BA00013F0100236D10A0622D513F080021FD07E
:103BB00094F8411021293FD1A168B1F5805F03D16C
:103BC0002169002900F07082216A4A1C226209786A
:103BD0004160E18C01390A04E1842DD1C16821F0F2
:103BE0008001C160C16841F04001C16002B0B0BD58
:103BF000490621D513F040011ED0C16821F04001D3
:103C0000C1602021204684F8411002B0BDE8B040D8
:103C100000F030BC002101910168019141680191DF
:103C200001994069400613D4A08DE18DE28D002AF0
:103C300018BF884240F0BA8102B0B0BDCA0718BFB1
:103C400013F4807240F0B6804A0700F1B980BEE0FC
:103C5000E06B016849688AB2002AEDD0A38D9A42D0
:103C6000EAD2E1858069202800F09C80206850E835
:103C7000030F216820F4807041E80302DAB1206864
:103C800050E8030F216820F4807041E8030292B1EC
:103C9000206850E8030F216820F4807041E8030297
:103CA0004AB1206850E8030F216820F4807041E891
:103CB0000302002ADAD1206850E8050F216820F0BD
:103CC000010041E80502DAB1206850E8050F2168DB
:103CD00020F0010041E8050292B1206850E8050F8C
:103CE000216820F0010041E805024AB1206850E84F
:103CF000050F216820F0010041E80502002ADAD111
:103D0000206850E8050F216820F0400041E80502D6
:103D1000DAB1206850E8050F216820F0400041E842
:103D2000050292B1206850E8050F216820F040009C
:103D300041E805024AB1206850E8050F216820F0EB
:103D4000400041E80502002ADAD1202084F8420030
:103D500000202063206850E8030F216820F0100045
:103D600041E80302DAB1206850E8030F216820F02F
:103D7000100041E8030292B1206850E8030F216867
:103D800020F0100041E803024AB1206850E8030F18
:103D9000216820F0100041E80302002ADAD1E06B2C
:103DA000FDF78AFC02206063A08DE18D401A81B28C
:103DB000204674E1626C42F0010262644A0706D553
:103DC000BEF1000F03D0626C42F0020262648A0707
:103DD00006D5BEF1000F03D0626C42F004026264AB
:103DE000BCF1000F09D545EA0E02B2FA82F252097F
:103DF00003D1626C42F008026264626C002A3FF4F4
:103E00001BAF11F0200118BF002D03D0204602F097
:103E100039F820684069616C00F0400001F0080149
:103E2000401800F0B58000BF206850E8030F2168FB
:103E300020F4907041E80302BAB3206850E8030F01
:103E4000216820F4907041E8030272B3206850E8C2
:103E5000030F216820F4907041E803022AB3206820
:103E600050E8030F216820F4907041E80302002A13
:103E7000DAD11AE0206850E8050F216820F001002F
:103E800041E80502DAB1206850E8050F216820F00A
:103E9000010041E8050292B1206850E8050F216851
:103EA00020F0010041E805024AB1206850E8050F02
:103EB000216820F0010041E80502002ADAD1206BD8
:103EC000012824D1206850E8030F216820F0100059
:103ED00041E80302DAB1206850E8030F216820F0BE
:103EE000100041E8030292B1206850E8030F2168F6
:103EF00020F0100041E803024AB1206850E8030FA7
:103F0000216820F0100041E80302002ADAD12020C5
:103F100084F84200002020632068406940063FD5B5
:103F2000206850E8050F216820F0400041E80502B4
:103F3000DAB1206850E8050F216820F0400041E820
:103F4000050292B1206850E8050F216820F040007A
:103F500041E805024AB1206850E8050F216820F0C9
:103F6000400041E80502002ADAD1E06BC0B145F615
:103F70007961C0F600014163FDF7C2FB00283FF400
:103F80005BAEE06B416B02B0BDE8B040084700BFDC
:103F90002046FFF7DFFD0020606402B0B0BD00BF27
:103FA000204602B0BDE8B040FFF7D4BD401A2168FA
:103FB00051E8031F226821F4907142E80313DBB13A
:103FC000216851E8031F226821F4907142E803132D
:103FD00093B1216851E8031F226821F4907142E8EF
:103FE00003134BB1216851E8031F226821F490713B
:103FF00042E80313002BDAD1216851E8051F22683B
:1040000021F0010142E80513DBB1216851E8051FE9
:10401000226821F0010142E8051393B1216851E8BB
:10402000051F226821F0010142E805134BB1216808
:1040300051E8051F226821F0010142E80513002B19
:10404000DAD1202184F8421000212163216851E84F
:10405000031F226821F0100142E80313DBB121683D
:1040600051E8031F226821F0100142E8031393B1C5
:10407000216851E8031F226821F0100142E8031370
:104080004BB1216851E8031F226821F0100142E87A
:104090000313002BDAD1022281B22046626302B000
:1040A000BDE8B040FFF754BD216A31F8022B6FF331
:1040B0005F22426021628CE5002804BF0120704726
:1040C00010B5044690F8410028B9002084F840005B
:1040D000204600F063F8242084F841002068D4E9E9
:1040E0000212C36823F40053C360036923F44053EE
:1040F0001A430261D4E904231143C268194341F20F
:104100000C639A431143C1604169A26921F4407173
:10411000114343F60002C4F201029042416103D010
:10412000FEF71CFC02E000BFFEF72CFC62681921C0
:1041300048439100B0FBF1F048F21F51C5F2EB117A
:10414000A0FB01235A094FF69C73C0F6FF7302FBD4
:104150000300322303EB0010A0FB0101F02303EA6C
:104160005113206803EB0212C1F343111144816023
:10417000016921F490410161416921F02A01416105
:10418000C16841F40051C16000202021606484F8BE
:10419000411084F84210606310BD000070B586B015
:1041A000006844F20041C4F20001002688420596EE
:1041B000CDE90366029647D044F60001C4F200013F
:1041C000884271D043F60001C4F20101884240F0F8
:1041D000A68041F21800C4F20200016840F6000413
:1041E00041F4804101600168C4F2010401F480419E
:1041F00001910199016802AD41F00401016000687C
:10420000294600F00400019001984FF400700290DC
:1042100002200390032005902046FDF709FD4FF48E
:10422000806002900020CDE9030020462946FDF77A
:10423000FFFC252002210022FEF7EEF92520FEF7E3
:10424000D7F906B070BD00BF41F21800C4F20200F9
:10425000416840F6000441F4003141604168C4F215
:10426000010401F4003101910199016802AD41F0AE
:10427000040101600068294600F0040001900198E3
:104280000420029002200390032005902046FDF7B1
:10429000CFFC0820CDE90206204629460496FDF70A
:1042A000C7FC06B070BD00BF41F21800C4F20200A6
:1042B000416802AD41F480214160416801F48021F0
:1042C00001910199016841F02001016000682946CF
:1042D00000F02000019001984FF4807002900220BD
:1042E00003900320059040F60000C4F2010000F5A1
:1042F00040642046FDF79CFC4FF4007002900020C3
:10430000CDE9030020462946FDF792FC0420C4F2C3
:104310000100016841F0E06141F03001016006B048
:1043200070BD000090F84230202B1CBF0220704767
:1043300000294FF0010318BF002A01D11846704729
:1043400000230363816222218285C285436480F851
:1043500042100169006819B1C16841F48071C160FF
:104360004169002341F001014161C16841F0200130
:10437000C1601846704700002DE9F04381B041F25A
:104380008877C2F20007B8421CBF01B0BDE8F083D5
:1043900040F2C016C2F20006306840F22804411C08
:1043A000C2F200043160217840F2C412C2F200026D
:1043B0000A29115437D141F66005C2F2000540F2D6
:1043C000C4102B1DC2F2000022A12A46FBF7FEFEFC
:1043D00002281ED1D5E90005FCF711FA40F20008C9
:1043E000C4F2590800224346FCF755F9FCF744FA99
:1043F00040F26409C2F20009C9F800002846FCF73F
:10440000FEF900224346FCF746F9FCF735FAC9F8F5
:10441000040040F2C410C2F2000041F28831FBF700
:10442000CAFE0020306038680068000705D543F6F2
:104430000000C4F2010001684068002341F2887066
:10444000C2F2000021460122237001B0BDE8F04312
:10445000FFF768BF6C65667453706565643A2564E0
:104460002C726967687453706565643A25640D0A37
:104470000000000070470000FEE700002DE9F04753
:1044800082B0044600680E460168DDF828A041F4B9
:10449000806101600168DDF82C9041F480711D4657
:1044A0001746016020464FF0011100225346CDF817
:1044B000009000F033F958B120680068C00544BF8F
:1044C0004FF400702064032002B0BDE8F08700BF05
:1044D00040F202082068C0F2010806F0FE060661FC
:1044E0002046414652464B4600F002FA20B10120D8
:1044F00002B0BDE8F08700BF0020019020684A4666
:10450000416901918069514601900198204600F06F
:10451000A7FA98B92068012D08D0390A0161204610
:1045200051464A4600F09CFA40B92068F9B2016150
:10453000204651464A4600F093FA58B1206C0428B0
:10454000D5D12068016841F400710160012002B0FA
:10455000BDE8F087206800220168534641F480716D
:10456000016020464FF00111CDF8009000F0D6F820
:104570000028A1D1206846F0010101612046414692
:1045800052464B4600F0B4F9002818BF012002B093
:10459000BDE8F0872DE9F04383B0044600680D467E
:1045A00001680A9F0B9E41F4807199469046016014
:1045B00020464FF0011100223B46009600F0AEF875
:1045C00050B120680068C00544BF4FF400702064FB
:1045D000032003B0BDE8F083206805F0FE0101610F
:1045E0000221C0F2010120463A46334600F080F92C
:1045F00020B1012003B0BDE8F08300BF002002908D
:1046000020683246416902918069394602900298D9
:10461000204600F025FA58B1206C0428E9D1206822
:10462000016841F400710160012003B0BDE8F0832E
:104630002068B9F1010F0AD04FEA18210161204624
:104640003946324600F00CFA0028E5D120685FFABE
:1046500088F10161002003B0BDE8F08370B5036804
:10466000044653F8140F400711D40E46481C29D0B5
:1046700086BB00BF1868400527D4FDF7DDFB236823
:1046800053F8140F400739D518684007F2D50020B9
:1046900070BD00BF18684007F9D41868400514D4ED
:1046A00018684007F3D4186840050ED4186840070E
:1046B000EDD41868400508D4186840074FF0000092
:1046C00048BF70BD18684005E4D56FF4806018607D
:1046D000042014E0154603E053F8140F4007D6D425
:1046E00018684005F1D4FDF7A7FB401B2368B042D2
:1046F000F2D958694007EFD4202000E020200021A3
:104700002022216384F83D2084F83E10226C10435F
:104710002064012084F83C1070BD00002DE9F041B8
:10472000054600681E46144601F47F0201338FB22D
:1047300042D0DDF81880B2F5803F40F087804069B4
:104740003840C01BB0FA80F04009A04240F0C88059
:104750004EB924E040693840C01BB0FA80F04009EF
:10476000A04240F0BD80FDF767FBA0EB0801286880
:10477000B142EFD941693940C91BB1FA81F1490908
:10478000A142E7D19BE000BF40693840C01BB0FAAE
:1047900080F04009A0424FF0000040F0A680FDF7F5
:1047A0004BFB286841693940C91BB1FA81F14909BD
:1047B000A142E9D183E000BFB2F5803F24D100BF20
:1047C00041693940C91BB1FA81F14909A14240F060
:1047D000878041693940C91BB1FA81F14909A14279
:1047E00040F07E8041693940C91BB1FA81F1490925
:1047F000A14275D141693940C91BB1FA81F149091A
:10480000A142DDD06CE000BF81693940C91BB1FA1B
:1048100081F14909A14263D181693940C91BB1FACB
:1048200081F14909A1425BD181693940C91BB1FAC3
:1048300081F14909A14253D181693940C91BB1FABB
:1048400081F14909A142DFD04AE000BF80693840C8
:10485000C01BB0FA80F04009A04241D146B923E024
:1048600080693840C01BB0FA80F04009A0423BD1BB
:10487000FDF7E2FAA0EB08012868B142F0D981699E
:104880003940C91BB1FA81F14909A142E8D116E0CA
:1048900080693840C01BB0FA80F04009A0424FF058
:1048A000000018BFBDE8F081FDF7C6FA28688169ED
:1048B0003940C91BB1FA81F14909A142E8D1002070
:1048C0002021286385F83D1085F83E00296C41F0D1
:1048D0002001296485F83C000120BDE8F08100BF7B
:1048E0000020BDE8F08100BF0020BDE8F08100009D
:1048F000F0B581B0044600681D4643698FB203EAF3
:104900000701B94202D1002001B0F0BD416916464D
:10491000013201F4806125D0002940D1CEB100BF21
:10492000FDF78AFA411B2068B14203D94169394039
:10493000B9424BD141693940B942E4D04169490596
:10494000EED52CE041693940B942DCD041694905D6
:1049500025D4FDF771FA206841693940B942F1D098
:10496000202024E0D9B941693940B942CBD041690E
:10497000490514D441693940B942C4D04169490557
:104980000DD441693940B942BDD04169490506D4C9
:1049900041693940B942B6D041694905E3D501685A
:1049A00041F4007101606FF48061416104200021D5
:1049B0002022216384F83D2084F83E10226C1043AD
:1049C000206484F83C10012001B0F0BD2020EEE707
:1049D00070B504460068154650F8143F5A063DD499
:1049E0000E4629B926E000BF50F8141F490635D4F9
:1049F0000168C90621D4FDF71FFA411B2068B142A6
:104A0000F2D941694906EFD400202021206384F8BF
:104A10003D1084F83E00206C40F0200018E000BFFC
:104A2000FDF70AFA206850F8141F4906ECD5016812
:104A3000490613D40168C906F2D56FF01001016070
:104A400000202021206384F83D1084F83E00206C73
:104A50002064002084F83C00012070BD002070BD5F
:104A600070B50368044653F8140F000611D40E46BF
:104A7000481C29D086BB00BF1868400527D4FDF725
:104A8000DBF9236853F8140F000639D518680006BF
:104A9000F2D5002070BD00BF18680006F9D4186870
:104AA000400514D418680006F3D4186840050ED4E5
:104AB00018680006EDD41868400508D41868000688
:104AC0004FF0000048BF70BD18684005E4D56FF492
:104AD00080601860042014E0154603E053F8140FBA
:104AE0000006D6D418684005F1D4FDF7A5F9401B9F
:104AF0002368B042F2D958690006EFD4202000E0C4
:104B0000202000212022216384F83D2084F83E10DB
:104B1000226C10432064012084F83C1070BD00001A
:104B200010B584B041F24C5042F20041C2F2000094
:104B3000C4F201014FF4807C012400234FF4602271
:104B400080E80A10022104730375C2610161FCF759
:104B50001DFC002818BFFCF7A9FA0F20CDE90104BD
:104B60000720039041F24C50C2F2000001A9FCF76B
:104B7000CDFA002818BFFCF799FA10200190022006
:104B8000029041F24C50C2F2000001A9FCF7BEFABB
:104B9000002818BFFCF78AFA04B010BD80B582B0B7
:104BA00041F21400C4F202000168002241F0010148
:104BB00001600068002100F00100019001980B20C5
:104BC000FDF72AFD0B2002B0BDE88040FDF710BDC7
:104BD0002DE9F04F85B041F21800C4F202000168DF
:104BE00041F6000441F0100101600168C4F20104C3
:104BF00001F01001019101990168A4F5006541F0EF
:104C0000040101600168012201F004010191019990
:104C10000168062741F04001016001684FF0010A78
:104C200001F0400101910199016841F00801016022
:104C3000016801F0080101910199016841F020012A
:104C40000160016801F0200101910199016841F4BE
:104C5000807101600068062100F480700190019865
:104C60002846FDF7E3F820464FF4604100224FF458
:104C7000604B0026FDF7DAF804F5006948463C2150
:104C80000022FDF7D3F8A4F5406840464FF4407188
:104C90000022FDF7CBF8CDE9017A01AF284639466D
:104CA000CDE903AAFCF7C4FF4FF4706001A981E8C5
:104CB000410420463946FCF7BBFF4FF4805520469F
:104CC0003946CDE901560396FCF7B2FFCDE901BAAA
:104CD0004FF0020B204639460396CDF810B0FCF792
:104CE000A7FFA4F580603946CDE901560396FCF78D
:104CF0009FFF3C20CDE9010A48463946CDE9036BC8
:104D0000FCF796FF4FF4407001901120CDE9020AA4
:104D10000320049040463946FCF78AFF05B0BDE801
:104D2000F08F000080B541F2C05045F20041C2F260
:104D30000000C4F2000148F2A06200234FF4804C4E
:104D4000C0F2010280E80E00C0E9033CC0E905336F
:104D5000C0E90733FDF776F8002808BF80BDBDE83D
:104D60008040FCF7A3B9000080B541F2146045F61D
:104D70000001C2F20000C4F2000141F680220023CB
:104D80004FF4804CC0F2060280E80E00C0E9033CFC
:104D9000C0E90533C0E90733FDF754F8002808BF20
:104DA00080BDBDE88040FCF781B9000080B586B0C9
:104DB00041F2686042F600420021C2F20000C4F2F3
:104DC0000102472342F20F7C4FF0800E0591CDE99E
:104DD0000311CDE90011C0E90023C0E9021CC0E9BC
:104DE0000411C0F818E0FEF71FF8002818BFFCF700
:104DF0005DF94FF48050029041F26860C2F2000009
:104E000002A9FEF721F9002818BFFCF74FF941F27B
:104E10006860C2F200006946FDF7BCFF002818BFB9
:104E2000FCF744F906B080BD80B58CB041F2B060AB
:104E30000021C2F200004FF08042C0E90021802230
:104E4000826103224FF6FF73CDE903210122CDE9F0
:104E50000011C0E902130161CDE90521CDE9071177
:104E6000CDE909210B9103A9FEF7BCF9002818BF71
:104E7000FCF71CF941F2B060C2F200006946FDF790
:104E800089FF002818BFFCF711F90CB080BD0000A5
:104E900080B58CB041F2F86040F200420021C2F2CD
:104EA0000000C4F20002C0E9002180224FF6FF7327
:104EB00082610322C0E90213CDE903210122062306
:104EC000CDE900110161CDE90521CDE90731CDE939
:104ED000092103A90B93FEF785F9002818BFFCF7F9
:104EE000E5F841F2F860C2F200006946FDF752FFB2
:104EF000002818BFFCF7DAF80CB080BDB0B594B04C
:104F000040F6000541F24070C4F200050021C2F2F3
:104F10000000472263230E91CDE90C110991CDE9E0
:104F20000711CDE90511CDE90311CDE90111C0E962
:104F30000052C0E9021301618161FDF775FF00288D
:104F400018BFFCF7B3F84FF480500B9041F240705B
:104F5000C2F200000BA9FEF777F8002818BFFCF793
:104F6000A5F841F24070C2F20000FEF79BFC002859
:104F700018BFFCF79BF841F240700024C2F2000019
:104F800008A9CDE90844FDF705FF002818BFFCF784
:104F90008DF86020CDE9010441F24070C2F20000BA
:104FA00001A9082203940594FEF74AFB002818BFC4
:104FB000FCF77CF841F24074C2F2000401A92046DB
:104FC0000C22FEF73DFB002818BFFCF76FF82068A5
:104FD0000021A842129101D014B0B0BD41F21800D6
:104FE000C4F20200016841F020010160006810A9CC
:104FF00000F020000F900F984FF4404010900220D6
:105000001190139041F20040C4F20100FCF710FE31
:105010000420C4F20100016841F0E06141F48051D4
:10502000016014B0B0BD000080B541F2887043F655
:105030000001C2F20000C4F2010100234FF00C0C89
:105040004FF4E13280E80E00C0E90333C0E905C344
:10505000C361FFF731F8002808BF80BDBDE880407C
:10506000FCF724B880B541F2D07044F20041C2F29E
:105070000000C4F2000100234FF00C0C4FF4E132A9
:1050800080E80E00C0E90333C0E905C3C361FFF740
:1050900013F8002808BF80BDBDE88040FCF706B8C3
:1050A00080B541F6180044F60001C2F20000C4F2D7
:1050B000000100234FF00C0C4FF4E13280E80E00A9
:1050C000C0E90333C0E905C3C361FEF7F5FF00285B
:1050D00008BF80BDBDE88040FBF7E8BFFEE70000E9
:1050E00070B542F200060C4605460128C4F20106DE
:1050F000A8BF012C0ADA54EA050025D004EA05000D
:10510000B0F1FF3F41DD012D5EDA7DE03046042144
:105110000122FCF78BFE304608210022FCF786FEB8
:10512000304610210122FCF781FE3046202100226A
:10513000FCF77CFE41F24070C2F200000068C563DB
:10514000046454EA0500D9D1304604210122FCF759
:105150006DFE304608210122FCF768FE3046102122
:105160000122FCF763FE304620210122FCF75EFE9F
:1051700041F24070C2F2000000680021C163016486
:1051800004EA0500B0F1FF3FBDDC304604210022F7
:10519000FCF74CFE304608210122FCF747FE304662
:1051A00010210022FCF742FE304620210122FCF7AC
:1051B0003DFE41F24070C2F2000000686942C163E6
:1051C00061420164012D1FDBB4F1FF3F1CDC30465E
:1051D00004210122FCF72AFE304608210022FCF7B8
:1051E00025FE304610210022FCF720FE304620210B
:1051F0000122FCF71BFE41F24070C2F20000006881
:105200006442C56321E000BFB5F1FF3F1EDC012C05
:10521000B8BF70BD304604210022FCF707FE3046BF
:1052200008210122FCF702FE304610210122FCF782
:10523000FDFD304620210022FCF7F8FD41F24070D0
:10524000C2F2000000686942C163046470BD0000DE
:10525000FEE700002DE9F04F85B041F2C054002573
:105260004FF480760127C2F200040DF1120B0DF10C
:1052700013084FF0000900BF09F1B0008DF81000CD
:1052800004A8CDE9000720467821002201230296D8
:10529000FDF73AF80DF11100CDE90007204678211D
:1052A000002201238DF811500296FDF72DF81020F1
:1052B0008DF812002046782100220123CDE900B7A5
:1052C0000296FDF721F84FF0000A00BF2046782132
:1052D000402201238DF81350CDE900870296FDF797
:1052E00013F80AF101004FFA80FABAF1FF3FEDDC42
:1052F000B9F1070F09F10109BED305B0BDE8F08F80
:105300002DE9F04184B0C820FCF77EFC40F208068D
:10531000C2F20006307841F2C054C2F200048DF8A7
:105320000F004FF4807801270DF10F0520467821FA
:1053300000220123CDE90057CDF80880FCF7E4FFF7
:10534000707878218DF80F00204600220123CDE9E6
:105350000057CDF80880FCF7D7FFB07878218DF89A
:105360000F00204600220123CDE90057CDF8088028
:10537000FCF7CAFFF07878218DF80F002046002254
:105380000123CDE90057CDF80880FCF7BDFF307947
:1053900078218DF80F00204600220123CDE9005727
:1053A000CDF80880FCF7B0FF707978218DF80F00F8
:1053B000204600220123CDE90057CDF80880FCF7F4
:1053C000A3FFB07978218DF80F0020460022012339
:1053D000CDE90057CDF80880FCF796FFF0797821E9
:1053E0008DF80F00204600220123CDE90057CDF8AB
:1053F0000880FCF789FF307A78218DF80F0020466D
:1054000000220123CDE90057CDF80880FCF77CFF8E
:10541000707A78218DF80F00204600220123CDE913
:105420000057CDF80880FCF76FFFB07A78218DF82F
:105430000F00204600220123CDE90057CDF8088057
:10544000FCF762FFF07A78218DF80F0020460022E9
:105450000123CDE90057CDF80880FCF755FF307BDC
:1054600078218DF80F00204600220123CDE9005756
:10547000CDF80880FCF748FF707B78218DF80F008D
:10548000204600220123CDE90057CDF80880FCF723
:105490003BFFB07B78218DF80F00204600220123CE
:1054A000CDE90057CDF80880FCF72EFFF07B78217E
:1054B0008DF80F00204600220123CDE90057CDF8DA
:1054C0000880FCF721FF307C78218DF80F00204602
:1054D00000220123CDE90057CDF80880FCF714FF26
:1054E000707C78218DF80F00204600220123CDE941
:1054F0000057CDF80880FCF707FFB07C78218DF8C5
:105500000F00204600220123CDE90057CDF8088086
:10551000FCF7FAFEF07C78218DF80F00204600227F
:105520000123CDE90057CDF80880FCF7EDFE307D72
:1055300078218DF80F00204600220123CDE9005785
:10554000CDF80880FCF7E0FE707D78218DF80F0023
:10555000204600220123CDE90057CDF80880FCF752
:10556000D3FEB07D78218DF80F0020460022012364
:10557000CDE90057CDF80880FCF7C6FE04B0BDE8C1
:10558000F08100002DE9F04F89B040B28B46DDF884
:105590004890A2F12001002820EAE0724FF01007A5
:1055A00048BF0BF1020BABF1500047EA121602F0B4
:1055B0000F05102BCFB240F0BD8041F2C0548DF8E2
:1055C00015004FF001080DF11500C2F200044FF470
:1055D000807ACDE900082046782100220123CDF809
:1055E00008A0FCF791FE0DF11600CDE90008204659
:1055F00078210022012303968DF81660CDF808A0CB
:10560000FCF782FE0DF11700CDE900082046782155
:105610000022012304958DF81750CDF808A0FCF75F
:1056200073FE48F6E0003F01C0F60000C05DB9F12E
:10563000000F00F0118141F2C055C043C2F20005D5
:105640008DF818000DF11809284678214022012311
:10565000CDE90098CDF808A0FCF756FE48F6E00426
:1056600047F00100C0F60004205C7821C0438DF8AB
:105670001800284640220123CDE90098CDF808A063
:10568000FCF742FE47F00200205C7821C0438DF811
:105690001800284640220123CDE90098CDF808A043
:1056A000FCF732FE47F00300205C7821C0438DF800
:1056B0001800284640220123CDE90098CDF808A023
:1056C000FCF722FE47F00400205C7821C0438DF8EF
:1056D0001800284640220123CDE90098CDF808A003
:1056E000FCF712FE47F00500205C7821C0438DF8DE
:1056F0001800284640220123CDE90098CDF808A0E3
:10570000FCF702FE47F00600205C7821C0438DF8CC
:105710001800284640220123CDE90098CDF808A0C2
:10572000FCF7F2FD47F00700205CC0438DF818003D
:1057300007E100BF41F2C0548DF81F004FF0010B8C
:105740000DF11F00C2F200044FF48078CDE9000B88
:105750002046782100220123CDF80880FCF7D4FDF3
:1057600008A8CDE9000B20467821002201238DF8FE
:105770002060CDF80880FCF7C7FD0DF12100CDE9D0
:10578000000B20467821002201238DF82150CDF80E
:105790000880FCF7B9FD07EB470548F2B867C0F68B
:1057A000000717F81500B9F1000F00F0938141F2DE
:1057B000C054C043C2F200048DF822000DF122094A
:1057C0002046782140220123CDE9009BCDF80880B6
:1057D000FCF79AFD07EB45056878AF78C043EE7893
:1057E00095F804A08DF8220020467821402201235C
:1057F000CDE9009BCDF80880FCF786FDF8438DF8D5
:1058000022002046782140220123CDE9009BCDF8DB
:105810000880FCF779FDF0438DF8220020467821BE
:1058200040220123CDE9009BCDF80880FCF76CFDF8
:105830006FEA0A008DF822002046782140220123D9
:10584000CDE9009BCDF80880FCF75EFD6879C04388
:105850008DF822008AE100BF41F2C055C2F2000576
:105860008DF819000DF119092846782140220123ED
:10587000CDE90098CDF808A0FCF746FD48F6E00415
:1058800047F00100C0F60004205C78218DF8190073
:10589000284640220123CDE90098CDF808A0FCF766
:1058A00033FD47F00200205C78218DF8190028466E
:1058B00040220123CDE90098CDF808A0FCF724FD93
:1058C00047F00300205C78218DF81900284640221B
:1058D0000123CDE90098CDF808A0FCF715FD47F0AD
:1058E0000400205C78218DF819002846402201230D
:1058F000CDE90098CDF808A0FCF706FD47F00500BB
:10590000205C78218DF81900284640220123CDE93A
:105910000098CDF808A0FCF7F7FC47F00600205CE3
:1059200078218DF81900284640220123CDE90098FE
:10593000CDF808A0FCF7E8FC47F00700205C8DF8E4
:1059400019002846782140220123CDE90098CDF89E
:1059500008A0FCF7D9FCABF14F0041F2C0548DF820
:105960001A004FF001090DF11A00C2F200044FF4C1
:105970008078CDE900092046782100220123CDF866
:105980000880FCF7C1FC039878218DF81B000DF10D
:105990001B00CDE90009204600220123CDF8088034
:1059A000FCF7B2FC049878218DF81C0007A8CDE91B
:1059B0000009204600220123CDF80880FCF7A4FC52
:1059C00048F6E00147F00800C0F60001085C1299B3
:1059D000002900F0CF8041F2C054C043C2F200045D
:1059E0008DF81D000DF11D05204678214022012370
:1059F000CDE90059CDF80880FCF786FC48F6E006B2
:105A000047F00900C0F60006305C7821C0438DF8ED
:105A10001D00204640220123CDE90059CDF8088021
:105A2000FCF772FC47F00A00305C7821C0438DF827
:105A30001D00204640220123CDE90059CDF8088001
:105A4000FCF762FC47F00B00305C7821C0438DF816
:105A50001D00204640220123CDE90059CDF80880E1
:105A6000FCF752FC47F00C00305C7821C0438DF805
:105A70001D00204640220123CDE90059CDF80880C1
:105A8000FCF742FC47F00D00305C7821C0438DF8F4
:105A90001D00204640220123CDE90059CDF80880A1
:105AA000FCF732FC47F00E00305C7821C0438DF8E3
:105AB0001D00204640220123CDE90059CDF8088081
:105AC000FCF722FC47F00F00305CC0438DF81D004E
:105AD000C5E000BF41F2C054C2F200048DF82300BB
