:020000040800F2
:10000000580B00200D020008A71600085D13000819
:10001000A5160008130300082D1C000800000000AE
:10002000000000000000000000000000531800085D
:1000300015030008000000005118000855180008BA
:1000400027020008270200082702000827020008EC
:1000500027020008270200082702000827020008DC
:1000600027020008270200082702000827020008CC
:1000700027020008270200082702000827020008BC
:1000800027020008270200082702000827020008AC
:10009000270200082702000827020008270200089C
:1000A00027020008B91800082702000827020008E4
:1000B000C5180008D1180008270200082702000808
:1000C000270200082702000827020008270200086C
:1000D000270200082702000827020008270200085C
:1000E000270200082702000827020008270200084C
:1000F000270200082702000827020008270200083C
:10010000270200082702000827020008270200082B
:10011000270200082702000827020008270200081B
:10012000270200082702000827020008270200080B
:1001300000F002F800F05AF80AA090E8000C82449F
:100140008344AAF10107DA4501D100F04FF8AFF27C
:10015000090EBAE80F0013F0010F18BFFB1A43F0A5
:1001600001031847481C0000681C00000A444FF0B7
:10017000000C10F8013B13F0070408BF10F8014B06
:100180001D1108BF10F8015B641E05D010F8016B4B
:10019000641E01F8016BF9D113F0080F1EBF10F8AF
:1001A000014BAD1C0C1B09D16D1E58BF01F801CBD2
:1001B000FAD505E014F8016B01F8016B6D1EF9D555
:1001C0009142D6D37047000000230024002500266A
:1001D000103A28BF78C1FBD8520728BF30C148BFAA
:1001E0000B6070471FB51FBD10B510BD00F058F86B
:1001F0001146FFF7F7FF01F081FD00F076F803B438
:10020000FFF7F2FF03BC00F07DF8000009488047CB
:1002100009480047FEE7FEE7FEE7FEE7FEE7FEE7E8
:10022000FEE7FEE7FEE7FEE704480549054A064B00
:1002300070470000B7180008310100085805002079
:10024000580B002058070020580700204FF00002EC
:1002500000B5134694469646203922BFA0E80C50BC
:10026000A0E80C50B1F12001BFF4F7AF090728BF97
:10027000A0E80C5048BF0CC05DF804EB890028BF13
:1002800040F8042B08BF704748BF20F8022B11F03C
:10029000804F18BF00F8012B7047704770477047B8
:1002A000754600F02BF8AE4605006946534620F02F
:1002B0000700854618B020B5FFF7B6FFBDE820401F
:1002C0004FF000064FF000074FF000084FF0000B12
:1002D00021F00701AC46ACE8C009ACE8C009ACE8C5
:1002E000C009ACE8C0098D46704710B50446AFF3AD
:1002F00000802046BDE81040FFF781BF00487047EE
:10030000F804002001491820ABBEFEE726000200D9
:100310007047FEE7704772B6FEE7000070B504460E
:1003200000F010F90546601C02D00448007804442F
:1003300000F008F9401BA042FAD370BD0000002075
:100340002DE9F84FDFF8C8910024A9F1040B2346EA
:100350000F2709F1040AABF1040ED1E00125A540F5
:1003600006EA0502AA4276D1DFF8A8C14E68A6EBDC
:100370000C0866452BD00DDC032E34D005DC36B3DB
:10038000012E19D0022E2FD11BE0112E16D0122EC5
:100390002AD119E0B8F5881F19D006DCB8F5803FDE
:1003A00015D0B8F5801F1FD111E0B8F5001F0ED091
:1003B000B8F5041F18D10AE0CB6815E0CB681B1D07
:1003C00012E0CB6808330FE0CB680C330CE08B688D
:1003D0002BB1012B4FF0080303D0456104E0042347
:1003E00002E0056100E00023FF2A01D8064601E093
:1003F00000F104064FEA840501D9A5F12005D6F8DD
:10040000008007FA05FC28EA0C0803FA05F548EA1B
:100410000508C6F800804D68ED0070D53E4DAE6908
:1004200046F00106AE61AD6924F0030605F0010552
:1004300000953A4D06EB050CDCF80850A607360F80
:1004400007FA06F825EA0805DFF8D480404503D10D
:100450004FF0000825E052E0DFF8C880404502D1A7
:100460004FF001081DE0DFF8C080404502D14FF099
:10047000020816E0DFF8B480404502D14FF00308CF
:100480000FE0DFF8AC80404502D14FF0040808E0EF
:10049000DFF8A080404502D14FF0050801E04FF0A1
:1004A000060808FA06F848EA0508CCF808804D68FE
:1004B000D9F80060ED024D4601D5164300E09643A1
:1004C0002E604D68DAF80060AD02554601D516433E
:1004D00000E096432E604D68DBF80060AD035D469A
:1004E00001D5164300E096432E604D68DEF80060AB
:1004F000ED03754601D5164300E096432E60641C5B
:100500000A681646E2407FF429AFBDE8F88F000084
:1005100008040140000011100010024000000140DA
:1005200000080140000C014000100140001401408F
:1005300000180140001C01400AB101617047090424
:10054000FBE70000014880687047000000000020C1
:1005500002488168027811448160704700000020E1
:10056000074810B5016841F010010160032000F058
:1005700075F80F2000F006F800F024F8002010BDF8
:100580000020024070B50D4D04464FF47A71287872
:10059000B1FBF0F00A490968B1FBF0F000F0DCFAB9
:1005A00048B9102C07D200222146501E00F036F820
:1005B00000206C6070BD012070BD000000000020B4
:1005C0000C0000200C4808B5816941F001018161EF
:1005D000816901F001010091C16941F08051C1615F
:1005E000C06900F0805000900448416821F0E0614B
:1005F00041F00071416008BD001002400000014060
:10060000002809DB00F01F02012191404009800011
:1006100000F1E020C0F8001170470000F0B40E4B6C
:100620001B680C46C3F30223C3F10705042D00D950
:100630000425191D072901D2002300E0DB1E012635
:1006400006FA05F1491E214099409E40761E16404B
:100650003143F0BC01F042BB0CED00E0064900F074
:10066000070208684FF6FF03184040EA0220034AD9
:1006700010430860704700000CED00E00000FA0530
:100680002DE9F0470F46050061D0434E306800F079
:100690000700B84209D2306820F0070038433060C4
:1006A000306800F00700B84251D128683B4C810700
:1006B00012D5400703D5606840F4E0606060287898
:1006C000000703D5606840F4605060606068A96806
:1006D00020F0F000084360602878C00728D06868E0
:1006E000012810D02168022810D0890700292EDAAD
:1006F000616821F0030101436160FFF723FF804639
:1007000041F288390DE021688903EFE78901EDE7BF
:10071000FFF718FFA0EB0801494502D90320BDE807
:10072000F0876068696800F00C00B0EB810FEFD1D2
:10073000306800F00700B8420BD9306820F007009D
:1007400038433060306800F00700B84201D0012023
:10075000E5E72878400705D56068E96820F4E0609F
:10076000084360602878000706D56068296920F48E
:10077000605040EAC100606000F038F86168084AE3
:10078000C1F30311515CC84006490860064800687F
:10079000FFF7F8FE0020C2E70020024000100240F0
:1007A000921D00080C0000200400002004480549A8
:1007B00000684968044AC1F30221515CC84070478F
:1007C0000C00002000100240A21D0008044805494A
:1007D00000684968044AC1F3C221515CC8407047AF
:1007E0000C00002000100240A21D00080E4A5168B3
:1007F0000E4801F00C03042B11D0082B0FD10C482C
:10080000C1F38343C903C05C0AD55168084AC1F3E8
:100810004041921E515C054A5043B0FBF1F07047D5
:1008200004494843704700000010024000127A005B
:10083000821D000800093D002DE9F84F040070D02A
:100840002078C04DC00749D06868C0F381000128F6
:1008500007D06868C0F38100022809D16868C00326
:1008600006D52868800339D560680028E7D035E0D0
:100870006068B0F5803F0BD010B1B0F5A02F11D05B
:10088000286820F480302860286820F4802002E066
:10089000286840F480302860606890B1FFF752FE0D
:1008A00006460AE0286840F480202860F0E700BF90
:1008B000FFF748FE801B642873D828688003F7D5AB
:1008C0000CE0FFF73FFE064605E000BFFFF73AFEEB
:1008D000801B6428F0D828688003F7D420789A4ECB
:1008E00080074FF001094FF0000839D5686810F013
:1008F0000C0F07D06868C0F38100022809D168682E
:10090000C00306D42868800714D52069012808D1BF
:1009100010E02069B0B1C6F80090FFF713FE07465B
:1009200005E00AE1FFF70EFEC01B0228C4D82868C4
:100930008007F7D52868616920F0F80040EAC10017
:1009400028600DE0C6F80080FFF7FCFD074604E0D4
:10095000FFF7F8FDC01B022823D828688007F7D4CA
:10096000207800072CD57948A169D9B1C0F800904A
:10097000FFF7E8FD074604E0FFF7E4FDC01B02288F
:100980000FD8686A8007F7D571484FF4FA510068AC
:10099000B0FBF1F0009000BF0098411E0091FAD228
:1009A0000EE080E0C0F80080FFF7CCFD074604E0D1
:1009B000FFF7C8FDC01B022875D8686A8007F7D406
:1009C0002078400760D5E8690027C00008D4E869AE
:1009D00040F08050E861E869012700F08050009005
:1009E0005C480168C90513D40168834641F48071ED
:1009F0000160FFF7A7FD824606E000BFFFF7A2FDFA
:100A0000A0EB0A0064284ED8DBF80000C005F5D53D
:100A1000E06801280AD008B1052813D0286A20F020
:100A200001002862286A20F0040002E0286A40F0F1
:100A300001002862E06841F2883B98B1FFF782FD2F
:100A400082460BE0286A40F004002862EEE700BF0F
:100A5000FFF778FDA0EB0A0159455AD8286A8007AC
:100A6000F6D50CE0FFF76EFD824605E0FFF76AFD64
:100A7000A0EB0A0159454CD8286A8007F6D41FB16B
:100A8000E86920F08050E861E06988B36968C1F3E3
:100A90008101022944D00228C6F8608004D0FFF703
:100AA00051FD044638E034E0FFF74CFD074604E012
:100AB000FFF748FDC01B02282BD828688001F7D417
:100AC000206AB0F5803F05D16868A16820F4003045
:100AD00008436860D4E908010843696821F4741187
:100AE00008436860C6F86090FFF72CFD044606E0F6
:100AF00025E000BFFFF726FD001B022809D8286863
:100B00008001F7D51BE000BFFFF71CFD001B02288A
:100B100002D90320BDE8F88F28688001F4D40EE0E4
:100B20000128F7D06868226A00F48031914204D12C
:100B3000616A00F47010884201D00120EAE70020C9
:100B4000E8E70000001002400000424280044242F8
:100B50000C0000200070004010B5401EB0F1807FF6
:100B600001D3012010BD4FF0E02460610F21601718
:100B700001F0B4F80020A06107202061002010BD22
:100B80007047704770B590F83C20012A2CD00124A2
:100B900080F83C40022280F83D2003685A689D6836
:100BA00022F070060A6832435A60104B02689A427B
:100BB0000ED00F4B9A420BD0B2F1804F08D00D4BA4
:100BC0009A4205D00C4B9A4202D00C4B9A4204D167
:100BD000496825F080031943916080F83D40002169
:100BE00080F83C10084670BD022070BD002C01400A
:100BF000003401400004004000080040000C0040A8
:100C000010B5040003D094F83D0010B107E00120B6
:100C100010BD002084F83C00204600F01FF80220A0
:100C200084F83D00211D206800F058FE012084F862
:100C3000460084F83E0084F83F0084F8400084F8C1
:100C4000410084F8420084F8430084F8440084F8AA
:100C5000450084F83D00002010BD000008B5114A91
:100C600001681148914211D1816941F400618161AB
:100C70008069002200F40060009011461920FFF7FF
:100C8000CDFCBDE808401920FFF7BABC074A9142E5
:100C900007D1C16941F00401C161C06900F00400DD
:100CA000009008BD002C01400010024000080040E8
:100CB00070B5044690F83C000025012817D00126A5
:100CC00084F83C60022084F83D002068826822F0AD
:100CD000770222F47F4282600868502838D00DDC09
:100CE00020284FD005DC90B3102811D14AE0022013
:100CF00070BD302846D040280AD13BE060282FD074
:100D000070280DD0B0F5805F03D0B0F5005F12D031
:100D1000012584F83D60002084F83C00284670BD21
:100D2000CB68D1E90121206800F02BFE20688168A2
:100D300041F0770109E0CB68D1E90121206800F09A
:100D400020FE2068816841F480418160E1E719E07C
:100D5000CA684968206800F0E9FE5021206806E072
:100D6000CA684968206800F0F2FE6021206800F03F
:100D700012FECEE7CA684968206800F0D7FE40211D
:100D80002068F4E7226801461046F0E72DE9F041BB
:100D90000D46040003D094F83D0018B108E001208E
:100DA000BDE8F081002084F83C00204600F040F8C7
:100DB000022084F83D002068816844F207029143D4
:100DC0008160211D206800F089FD2268906891698A
:100DD000166A2B68AF69034340F20330814341EA4E
:100DE0000721A868EF6908434FF6FC418843E9688A
:100DF00040EA0720014328692F6A000140EA0730D2
:100E0000084369686D6926F0220646EA05152943FC
:100E100093602268906154F8460B0162012004F847
:100E20001F09E0752076E0762077A0750020B7E7EF
:100E300010B586B0002100910191029103910368E1
:100E4000234901222348B3F1804F23D0224CA342EF
:100E50001ED1CB6943F00203CB61CB6903F00203DF
:100E600004938B6943F004038B618969029201F05A
:100E700004010491C02100916946FFF761FA002244
:100E800011461D20FFF7CAFB5FF01D00FFF7B8FBFE
:100E900006B010BDCB6943F00103CB61CB6903F011
:100EA000010304938B6943F004038B618969029207
:100EB00001F004010491032100916946FFF740FA13
:100EC000002211461C20FFF7A9FB1C20DEE70000D2
:100ED000001002400008014000040040704770B557
:100EE0000446006801694FF00005C943890715D41D
:100EF000C168C943890711D4E91E01610120207727
:100F0000206880698007204602D0FFF7E7FF04E0F1
:100F100000F0C8F8204600F05AF9257720680169EA
:100F2000C943490717D4C168C943490713D46FF0AF
:100F300004010161022020772068806910F4407F5D
:100F4000204602D0FFF7CAFF04E000F0ABF82046CD
:100F500000F03DF9257720680169C943090716D4D7
:100F6000C168C943090712D46FF008010161042068
:100F700020772068C0698007204602D0FFF7AEFFC7
:100F800004E000F08FF8204600F021F92577206872
:100F90000169C943C90617D4C168C943C90613D436
:100FA0006FF010010161082020772068C06910F4FB
:100FB000407F204602D0FFF791FF04E000F072F876
:100FC000204600F004F9257720680169C943C90764
:100FD00008D1C168C943C90704D1891E01612046EF
:100FE00000F050F920680169C943090609D4C168B5
:100FF000C943090605D46FF0800101612046FFF75F
:10100000BFFD20680169C943490609D4C168C943C5
:10101000490605D46FF040010161204600F033F924
:1010200020680169C94389060BD4C168C943890690
:1010300007D46FF0200101612046BDE87040FFF742
:10104000A0BD70BD00B585B0002100910191029155
:10105000039100680F49884219D10F48816941F016
:10106000200181618069694600F0200004904FF4FE
:10107000404000900220019003900848FFF760F97B
:101080000748416841F0E06141F48051416005B09A
:1010900000BD0000000800400010024000140140A4
:1010A00000000140704770B5044690F83C000026EF
:1010B0000D4601280FD0012084F83C006AB1042AB3
:1010C0001DD0082A2FD00C2A3FD00126002084F8FA
:1010D0003C00304670BD022070BD206800F064FC0A
:1010E0002068816941F0080181612068816921F0EF
:1010F00004018161206881692A69114311E0206837
:1011000000F082FC2068816941F4006181612068FF
:10111000816921F480618161206881692A6941EADD
:1011200002218161D2E7206800F0A4FC2068C16937
:1011300041F00801C1612068C16921F00401C16169
:101140002068C1692A69114311E0206800F0C6FCDB
:101150002068C16941F40061C1612068C16921F45E
:101160008061C1612068C1692A6941EA0221C161C7
:10117000ACE710B5040003D094F83D0010B107E0CF
:10118000012010BD002084F83C00204600F01EF82D
:10119000022084F83D00211D206800F09FFB012003
:1011A00084F8460084F83E0084F83F0084F840004C
:1011B00084F8410084F8420084F8430084F8440035
:1011C00084F8450084F83D00002010BD704770474A
:1011D00010B50446022249B104290ED0082913D0C3
:1011E00094F84100012816D0012010BD94F83E006B
:1011F0000128F9D184F83E200FE094F83F0001283F
:10120000F2D184F83F2008E094F840000128EBD1A7
:1012100084F8402001E084F841200122206800F099
:10122000A3FB13492068134A884201D0904203D19E
:10123000436C43F400434364206888420DD09042DD
:101240000BD0B0F1804F08D00B49884205D00B4934
:10125000884202D00A49884204D1816801F007011E
:10126000062903D0016841F001010160002010BD92
:10127000002C014000340140000400400008004000
:10128000000C00407047704770B5040004D094F81B
:101290004100002510B106E0012070BD84F84050E7
:1012A000204600F023F8242084F841002068C1681B
:1012B00021F40051C160204600F05CFC2068016907
:1012C00021F4904101612068416921F02A014161C6
:1012D0002068C16841F40051C1606564202084F831
:1012E000410084F842006563002070BD30B585B0D0
:1012F00000240094019402940394006814498842E5
:1013000024D11448816941F480418161816901F4EB
:1013100080410491816941F00401816180690E4D31
:1013200000F0040004904FF400700090022001903F
:101330000320039069462846FFF702F82815CDE9F7
:101340000004694628460294FEF7FAFF05B030BD56
:10135000003801400010024000080140FEE7000094
:1013600010B50B4C012211462046FFF7E5F801228B
:1013700002212046FFF7E0F8002202212046FFF775
:10138000DBF820460022BDE810400121FFF7D4B869
:101390000014014010B5094C012211462046FFF708
:1013A000CBF8002202212046FFF7C6F82046012292
:1013B000BDE810400221FFF7BFB800000014014053
:1013C00010B5064C012211462046FFF7B5F820461D
:1013D0000022BDE810400121FFF7AEB80014014023
:1013E000F0B585B000252348009501950295039539
:1013F000816941F010018161816901F0100104915E
:10140000816941F004018161816901F00401049165
:10141000816941F020018161816901F0200104911D
:10142000816941F4807181618069134E00F480709C
:10143000049000223C213046FFF77EF80F4F002237
:1014400003213846FFF778F83C2001248DE831006D
:101450000225694630460395FEF772FF0320CDE969
:10146000000469463846CDE90245FEF769FF05B03C
:10147000F0BD0000001002400020014000140140B7
:1014800010B586B000241848009401940294039487
:1014900004941449059401604721C0E9011442F203
:1014A0000F71C0E903148021C0E90541FFF7A8FBD3
:1014B00008B1FEF730FF4FF48050009069460A48AB
:1014C000FFF7F6FB08B1FEF726FF049404A90648CF
:1014D0000594FFF757FB002801D0FEF71CFF06B06C
:1014E00010BD0000002C01409003002010B58CB00E
:1014F00024216846FEF7AAFE0024164809944FF0FE
:1015000080410A94C0E900144FF6FF71C0E902411E
:10151000046184610320CDE900040120CDE90204C7
:1015200006210491CDE90540CDE907416946094806
:10153000FFF72CFC08B1FEF7EEFE099409A9054857
:101540000A94FFF71FFB002801D0FEF7E4FE0CB061
:1015500010BD0000D803002010B58CB024216846CF
:10156000FEF774FE00241648099414490A94C0E951
:1015700000144FF6FF71C0E9024104618461032049
:10158000CDE900040120CDE9020406210491CDE952
:101590000540CDE9074169460948FFF7F7FB08B167
:1015A000FEF7B9FE099409A905480A94FFF7EAFA7B
:1015B000002801D0FEF7AFFE0CB010BD00040040C3
:1015C0002004002010B58EB00024079408940994DC
:1015D0000A940B941C2168460C94FEF737FE2248AF
:1015E000204901604721C0E901146321C0E90314C7
:1015F0008461FFF705FB08B1FEF78DFE4FF48050C4
:10160000079007A91848FFF753FB08B1FEF783FEC0
:101610001548FFF7AEFD08B1FEF77DFE0B940BA950
:1016200011480C94FFF7AEFA08B1FEF774FE602083
:10163000CDE900040294082269460B480494FFF7A0
:1016400032FD08B1FEF767FE0C2269460648FFF737
:101650002AFD08B1FEF75FFE0348FFF7F3FC0EB06A
:1016600010BD000000080040680400200C4810B5C0
:101670000A4901604FF4E1314160002181600C2290
:10168000C160C0E904128161C161FFF7FDFD00285E
:1016900003D0BDE81040FEF73EBE10BD003801404B
:1016A000B0040020FEE7FEE770B50024002104F13D
:1016B000B00000F0C7F80021084600F0C3F8002190
:1016C000102000F0BFF800250121002000F0BAF83A
:1016D0006D1CEDB2802DF7D3641CE4B2082CE5D369
:1016E00070BD10B54FF44870FEF718FE0021AE2013
:1016F00000F0A8F80021084600F0A4F8002110200E
:1017000000F0A0F80021402000F09CF80021B0205B
:1017100000F098F80021812000F094F80021FF20CB
:1017200000F090F80021A12000F08CF80021A62004
:1017300000F088F80021A82000F084F800213F2064
:1017400000F080F80021C82000F07CF80021D320B0
:1017500000F078F80021084600F074F80021D52048
:1017600000F070F80021802000F06CF80021D820F3
:1017700000F068F80021052000F064F80021D9206D
:1017800000F060F80021F12000F05CF80021DA2080
:1017900000F058F80021122000F054F80021DB205E
:1017A00000F050F80021302000F04CF800218D208E
:1017B00000F048F80021142000F044F80021BDE8B2
:1017C0001040AF2000F03EB810B50A460446002194
:1017D00002F1B00000F036F8102040EA14100021A9
:1017E00000F030F804F00F00BDE81040002100F0D8
:1017F00029B800002DE9F04115460E460746FFF7CF
:10180000E3FF0F48002400EB85150121285D00F05F
:1018100019F8641CE4B2102CF7D3761CF1B23846E8
:10182000FFF7D2FF00242819012190F8200000F0D2
:1018300009F8641CE4B2102CF5D3BDE8F081000077
:1018400010000020C0B209B100F031BA00F018BA9F
:1018500070477047FEF77CBE30B58FB028216846D0
:10186000FEF7F4FC14210AA8FEF7F0FC012108049D
:10187000CDE900100024029402250491CDE907501F
:101880004FF4E01009906846FEF7D6FF08B172B633
:10189000FEE70F20CDE90A054FF48060CDE90C404A
:1018A00002210AA80E94FEF7EBFE002801D072B6C2
:1018B000FEE70FB030BD70470148FFF710BB0000D6
:1018C000900300200148FFF70ABB0000D803002066
:1018D0000148FFF704BB000020040020F0B50268B7
:1018E0001C4B1D4D1D4E1E4F1E4C4FF0804C984200
:1018F00009D0A04207D0604505D0A84203D0B0422D
:1019000001D0B84204D122F0700E4A6842EA0E02B9
:10191000984209D0A04207D0604505D0A84203D024
:10192000B04201D0B84203D122F44075CA682A43BC
:101930004D6922F080022A4302608A68C2620A6806
:101940008262984201D0A04201D10969016301215C
:101950004161F0BD002C014000040040000800403F
:10196000000C00400034014010B501F01F030121BC
:10197000046A99408C430462016A9A4011430162EF
:1019800010BD10B5846842EA032224F47F440A4360
:101990002243826010BD826822F070020A4342F046
:1019A0000701816070470000F0B5036A026A22F007
:1019B0000102026242688469124E24F073050C68C9
:1019C0002C4323F002058B682B430D4DA84201D018
:1019D000B04205D123F00807CB683B4323F0040352
:1019E000A84201D0B04205D14D6922F4407215439E
:1019F0008A692A4342608461496841630362F0BD99
:101A0000002C014000340140F0B5026A036A23F063
:101A100010030362436884690D6824F4E64444EAD1
:101A200005248D6822F0200242EA05120F4D104E67
:101A3000A84201D0B04206D1CF6822F0800242EA2B
:101A4000071222F04002A84201D0B04207D14D69EE
:101A500023F4406343EA85038D6943EA85034360C9
:101A60008461496881630262F0BD0000002C01407E
:101A700000340140F0B5026A036A23F48073036204
:101A80004368C46922F4007224F073050C68124E96
:101A90002C438D6842EA05220E4DA84201D0B04287
:101AA00006D1CF6822F4006242EA072222F4806263
:101AB000A84201D0B04207D14D6923F4405343EA14
:101AC00005138D6943EA05134360C4614968C16326
:101AD0000262F0BD002C01400034014030B5046AC0
:101AE000026A22F4805202624268C3690D6823F4DC
:101AF000E64343EA05238D6824F4005444EA0534A0
:101B0000084DA84202D0084DA84204D14D6922F4E4
:101B1000804242EA85124260C361496801640462FE
:101B200030BD0000002C01400034014010B5036AB4
:101B3000046A24F001040462846924F0F00444EA95
:101B4000021423F00A020A438461026210BD10B538
:101B5000036A046A24F010040462846923F0A00379
:101B600024F4704444EA023243EA011182610162C2
:101B700010BD000070B5044600680169E26821F4F8
:101B80004051114301612169A0680843616908431C
:101B90002168CA6841F20C639A430243CA60206814
:101BA0004169A26921F44071114341611E492068D5
:101BB000884202D1FEF70AFE01E0FEF7F7FD00EBD6
:101BC000C00101EB0012606864218000B2FBF0F3F9
:101BD000B3FBF1F36FF018067343B2FBF0F5B2FB01
:101BE000F0F605EB8305322303EB0515B5FBF1F5A4
:101BF000B6FBF1F605F0F00505EB0615B2FBF0F6C5
:101C0000B2FBF0F0B0FBF1F06FF01802504306EBBE
:101C1000800003EB0010B0FBF1F0216800F00F0032
:101C20002844886070BD000000380140FEE70000D5
:101C300070B5124E0446002201213046FEF77CFCAE
:101C40005FF0000504F08000802815D000220221FA
:101C50003046FEF771FC6006040E01221146304644
:101C6000FEF76AFC002201213046FEF765FC6D1C80
:101C7000EDB2082DE6D370BD0122E8E70014014063
:101C800010B50446FFF76CFB7820FFF7D1FFFFF794
:101C900097FB0020FFF7CCFFFFF792FB2046FFF7F2
:101CA000C7FFFFF78DFBBDE81040FFF773BB10B512
:101CB0000446FFF755FB7820FFF7BAFFFFF780FBDC
:101CC0004020FFF7B5FFFFF77BFB2046FFF7B0FF93
:101CD000FFF776FBBDE81040FFF75CBB0907090E74
:101CE000002804DB00F1E02080F80014704700F0C9
:101CF0000F0000F1E02080F8141D7047FEF730FC63
:101D0000FFF7AAFDFFF76CFBFFF7BAFBFFF7EEFB4F
:101D1000FFF722FCFFF756FCFFF7A8FCFFF7E1FCFA
:101D2000FFF7C2FC08211548FFF752FA0C211348AF
:101D3000FFF74EFA002211461046FFF75BFD012225
:101D400000211220FFF756FD022200212420FFF778
:101D500051FD032200213620FFF74CFD0422002113
:101D60004820FFF747FD052200215A20FFF742FDDA
:101D7000062200216C20FFF73DFDDBE76804002010
:101D8000010202030405060708090A0B0C0D0E0FD9
:101D9000101000000000000000000102030406070C
:101DA000080900000000010203040000CC1D000827
:101DB00000000020900300006C0100083C1F000898
:101DC00090030020C8070000C801000832018210FB
:101DD0003324F41BF010012AFF050215F01B0F0439
:101DE000012AFF0502130F18094040405F55555561
:101DF00075041A5F0C091121080C11200F0949897B
:101E0000790909090F201F112FFE02424ACA4A030D
:101E100004134202FE000E14FF40504C4340404F5A
:101E200050505C40FF1BF888012AFF050215F81B83
:101E30001F08012A7F200B109F80E23B8082010057
:101E40000916E2A2928A86828080041840807F1759
:101E50002424A4FEA3221B22CCAA011415080601E7
:101E6000FF2B0104010511FF020202580810101097
:101E7000FF109008C3021108080F100444827F016C
:101E8000808040432C10284681A0180940404848D3
:101E900048C8784F06051548484040000915031208
:101EA000122222528A063C106080BA19040B11C01B
:101EB00030FB1E404043407F061C7F424106094FD5
:101EC000C02941080B1110D030FF30D0121C101067
:101ED0001F3D080402019E0D110102040821111684
:101EE000FE222222FE0712FE828292A29E1008800B
:101EF000601F0242827F0F11FF402F102C43801180
:101F0000000B1490884C57A42454548C8418080156
:101F1000018042221A07441D423E01018AF9E10074
:101F20000D14E4242CB4252624B42C24E404180A2B
:0C1F3000FF02011E1212121E4186011257
:0400000508000131BD
:00000001FF
