:020000040800F2
:10000000700500209D010008B5210008511C000862
:10001000B12100083D070008093400080000000075
:10002000000000000000000000000000093100088E
:100030004107000800000000B92100080D31000848
:10004000B7010008B7010008B7010008B7010008B0
:10005000B7010008B7010008B7010008B7010008A0
:10006000B7010008B7010008B7010008B701000890
:10007000B7010008B7010008B7010008B701000880
:10008000B7010008B7010008B7010008B701000870
:10009000B7010008B7010008B7010008B701000860
:1000A000B7010008D1310008B7010008B701000806
:1000B000B7010008B7010008B7010008B701000840
:1000C000B7010008B7010008B7010008B701000830
:1000D000B7010008B7010008B7010008B701000820
:1000E000B7010008B7010008B7010008B701000810
:1000F000B7010008B7010008B7010008B701000800
:10010000B7010008B7010008B7010008B7010008EF
:10011000B7010008B7010008B7010008B7010008DF
:10012000B7010008B7010008B7010008B7010008CF
:10013000B7010008B7010008B7010008B7010008BF
:10014000B7010008B7010008B7010008B7010008AF
:10015000B7010008B7010008B7010008B70100089F
:10016000B7010008B7010008B7010008B70100088F
:10017000B7010008B7010008B7010008000000003F
:10018000B7010008B7010008DFF80CD000F0C4FA8E
:10019000004800470D3400087005002006488047DD
:1001A00006480047FEE7FEE7FEE7FEE7FEE7FEE75C
:1001B000FEE7FEE7FEE7FEE7BD3100088901000823
:1001C0002DE9F05F0546002092469B46884606468C
:1001D000814640241BE0284641464746224600F01F
:1001E000E4F953465A46C01A914110D311461846B5
:1001F000224600F0CBF92D1A67EB01084F46224644
:100200000120002100F0C2F917EB00094E41201E29
:10021000A4F10104DFDC484631462A464346BDE8E6
:10022000F09F2DE9FE4F804681EA0300C00F0C4687
:10023000009021F0004123F00045B8EB0200A941F5
:1002400005D24046214690461C460B46024623F006
:100250000040104347D0270DC7F30A00C3F30A51EB
:100260000290401A019040286BDAC3F3130040F467
:10027000801B0098924620B10023D2EB030A63EB67
:100280000B0B01985946C0F14002504600F07EF930
:1002900006460D4650465946019A00F096F910EB75
:1002A00008006141002487EA115284EAE7731A4387
:1002B00040D0009A62B3019A012A4FEA075215DC36
:1002C000001B61EB02014FF0004202EA0752CDE948
:1002D0000042001C41F5801132462B4600F0CDF95A
:1002E00003B0BDE8F08F40462146F9E7001B61EB03
:1002F0000201001C41F5801300185B412018A2F593
:10030000001747EB030140EAD570B6196D4111E0C3
:100310006D084FEA360645EAC0754FEA0752001BE2
:1003200061EB0201001C41F5801149084FEA3000E1
:100330000019514132462B4603B0BDE8F04F00F0A2
:100340008DB90098012240000023D0EB020263EB3C
:10035000E073009821464FEAE074B8EB000061EBCF
:100360000401E9E783F000435BE781F0004158E7CF
:100370002DE9FE4F81EA030404F0004421F000411E
:1003800000944FF0000B23F0004350EA01045ED0CC
:1003900052EA03045BD0C3F30A54C1F30A552C4458
:1003A000A4F2F3340194A0FB0254C1F3130141F40D
:1003B0008011C3F3130343F4801301FB024400FBD9
:1003C000034E840A970A44EA815447EA8357A4FB00
:1003D000076802958D0A05FB07854FEA932C04FBFD
:1003E0000C542705029D4FEA065847EA1637B5EB2D
:1003F00008056EEB070C870E920E47EA811742EA5A
:100400008312A7FB0201B6EB0B0164EB00042B0D7A
:1004100043EA0C335E1844EB1C50DA465146E7FBC6
:100420000201C5F313044FEA0B3343EA14534FEAB6
:100430000432019C43EA0603A4F10C040294009CDC
:10044000CDE900B400F019F903B0BDE8F08F002049
:100450000146F9E72DE9F04D81EA030404F0004B71
:1004600021F0004514464FF0000A23F0004150EA05
:10047000050220D054EA01021DD0C5F30A570246F6
:10048000C5F31303C1F31300C1F30A5640F48015FA
:1004900043F48013A7EB0608101BD64608F2FD387C
:1004A00073EB050002D308F1010801E092185B41EB
:1004B000B8F1000F03DA00200146BDE8F08D0020FE
:1004C0004FF48011064684460EE0171B73EB0507B8
:1004D00005D3121B63EB050306434CEA010C4908E4
:1004E0004FEA300092185B4150EA0107EDD152EA21
:1004F000030012D082EA040083EA0501084305D014
:10050000101BAB4106D20122002306E000224FF06F
:10051000004302E06FF0010253101AEB06004CEBAF
:10052000085110EB0A0041EB0B01BDE8F04D00F063
:1005300095B80EB5C10F80EAE0700844CA070021E3
:1005400040F233438DE80E000A460B4600F095F862
:1005500003B000BD01F0004330B421F0004150EA87
:10056000010206D00A0DA2F56072C1F31301002A40
:1005700002DC30BC00207047440F44EAC104C100D3
:10058000E01830BC00EBC25000F031B8202A04DB88
:10059000203A00FA02F1002070479140C2F1200396
:1005A00020FA03F3194390407047202A04DB203AD5
:1005B00021FA02F00021704721FA02F3D040C2F183
:1005C00020029140084319467047202A06DBCB17CA
:1005D000203A41FA02F043EAE07306E041FA02F3FE
:1005E000D040C2F1200291400843194670470029CB
:1005F000A8BF7047401C490008BF20F001007047A9
:1006000010B4B0FA80FC00FA0CF050EA010404BF08
:1006100010BC704749B1CCF1200421FA04F411FA5E
:100620000CF118BF012121430843A3EB0C01CB1DA2
:100630004FEA00614FEA102042BF002010BC704713
:1006400000EBC35010440029A4BF10BC7047401CED
:10065000490008BF20F0010010BC704710B5141EFF
:1006600073F1000408DA401C41F1000192185B416B
:100670001A4301D120F0010010BD2DE9F04D924642
:100680009B4611B1B1FA81F202E0B0FA80F2203259
:100690009046FFF77BFF04460F4640EA0A0041EA16
:1006A0000B0153465A46084313D0114653EA010042
:1006B00019D0C8F140025046FFF777FF05460E46B5
:1006C000504659464246FFF761FF084305D00120D6
:1006D00004E020463946BDE8F08D0020054346EA97
:1006E000E0762C4337430A986305E40AA0EB080040
:1006F0000022FD0A44EA47540A3002D50020014690
:10070000E9E7010510196941DDE90845001969416A
:10071000BDE8F04DA2E70000064C074D06E0E0689A
:1007200040F0010394E8070098471034AC42F6D338
:10073000FFF72EFD2047000840470008FEE70000B5
:1007400070470000EFF3108072B600BFFEE70000B4
:10075000B0B5044600F0F2F8054640F20000C2F2DF
:1007600000000078611C18BF044400BF00F0E6F8E8
:10077000401BA042FAD3B0BD2DE9F04F82B000F18A
:100780003E4241F6004502F1FF77C4F2020508221D
:1007900043F6004E4FEAB726A84208BF0722C4F22C
:1007A000010E072E38BF4FEAB72201250026002789
:1007B0004FF00008009208E008F101080437B8F192
:1007C000100F06F1020600F0A7800C6805FA08F980
:1007D00014EA090FF0D0D1F804B003220BF0030C97
:1007E000ACF10104B240012C6FEA020A10D8826811
:1007F000CC6802EA0A02B440224382604268CBF32A
:10080000001422EA090204FA08F42243426005E0D7
:10081000BCF1030F02D14FF0030C20E0C2688C68DA
:1008200002EA0A02B4402243BCF1020FC26016D1B0
:100830006FF0030202EA58020244D2F820C007F027
:100840001C050F230C69AB402CEA030304FA05F5E1
:100850002B431362D1F804B001250BF0030C02689E
:100860000CFA06F302EA0A021A431BF4403F026044
:10087000A2D0002243F644030192C4F202031A6894
:100880004FF6084C42F480421A601A68CFF6FF7C9B
:1008900002F480420192019A28F00302724452F855
:1008A0000C3007F00C050F24AC40A343009C04FA65
:1008B00005F52B4342F80C30DEF808204B6842EA7D
:1008C000090543F60C4CDC0258BF22EA0905CEF8B4
:1008D0000850C4F2010CDCF800209C0242EA090531
:1008E00058BF22EA0905CCF80050DEF804209C032A
:1008F00042EA090558BF22EA0905CEF80450DEF89D
:100900000020DB0342EA090558BF22EA0905CEF8B8
:100910000050012550E700BF02B0BDE8F08F000095
:10092000426902EA0103914341EA03418161704750
:10093000002A08BF090481617047000040F2681076
:10094000C2F200000068704740F2000040F26811F7
:10095000C2F20000C2F2000100780A681044086088
:100960007047000080B543F60040C4F20200016801
:1009700041F400710160016841F480610160016827
:1009800041F480710160032000F088F80F2000F02E
:1009900005F800F027F8002080BD000070B540F297
:1009A0000006C2F2000640F214013278C2F20001E1
:1009B0004FF47A730968B3FBF2F20446B1FBF2F12B
:1009C000084600F037FC0F2C4FF0010508D838B965
:1009D0004FF0FF3021460022002500F033F874600C
:1009E000284670BD82B0002043F640010190C4F259
:1009F00002014A6842F480424A604A6802F4804236
:100A00000192019A0090086840F0805008600868E0
:100A100000F080500090009802B07047002848BF56
:100A20007047C1B200F01F00012202FA00F04EF23E
:100A30000012CEF2000242EAD10121F00301086067
:100A40007047000010B54EF60C5CCEF2000CDCF8DE
:100A50000030C3F3022E8EF00704042C28BF0424B8
:100A6000BEF103034FF0FF3E0EFA04F438BF00233B
:100A7000A14399400EFA03F39A43114300F00F0289
:100A800000F160430901043A03F56443624400281D
:100A900048BF02F10C03197010BD00004EF60C5156
:100AA000CEF200010A684FF6FF031A4060F30A22F3
:100AB00042F0806040F0FD70086070472DE9F04121
:100AC000002800F08B8043F60808C4F202080446B0
:100AD000D8F8F8030D4600F00700884207D288F8DE
:100AE000F853D8F8F80300F00700A84276D1206840
:100AF000810717D5410705D5D8F8001041F4E0511A
:100B0000C8F80010010705D5D8F8001041F460417D
:100B1000C8F80010D8F80010A26821F0F0011143C5
:100B2000C8F80010C0073FD1D8F8F80300F007005C
:100B3000A84207D988F8F853D8F8F80300F007005E
:100B4000A8424BD12068410707D5D8F80010E268C9
:100B500021F4E0511143C8F80010000708D5D8F877
:100B60000000216920F4604040EAC100C8F800009C
:100B700000F07CF8D8F8001043F23652C1F30311AC
:100B8000C0F60002515C40F2140220FA01F140F27A
:100B90000400C2F200000068C2F200021160FFF718
:100BA000FDFE0020BDE8F0816068811E022907D2A9
:100BB00058F8081C89015CBF0120BDE8F08111E0F4
:100BC000012807D158F8081C89035CBF0120BDE843
:100BD000F08107E058F8081C890703D40120BDE81C
:100BE000F08100BFD8F8001021F003010843C8F8D5
:100BF0000000FFF7A3FE064641F28837D8F8000050
:100C0000616800F00C00B0EB810F8DD0FFF796FE0D
:100C1000801BB842F2D90320BDE8F08140F21400F5
:100C200043F60801C2F20000C4F20201006809683C
:100C300043F24652C1F38221C0F60002515CC84023
:100C40007047000040F2140043F60801C2F20000B1
:100C5000C4F202010068096843F24652C1F342310E
:100C6000C0F60002515CC8407047000010B543F662
:100C70000404C4F20204606800F00C0142F2004077
:100C80000829C0F2F40007D0042918BF10BD41F2B2
:100C90000020C0F27A0010BD216801F03F022168F7
:100CA00023684902C3F3881106D4A1FB0001002385
:100CB000FFF786FA07E000BF41F20020C0F27A0099
:100CC0004843B0FBF2F021680222C1F3014102EB7C
:100CD0004101B0FBF1F010BD2DE9F04182B00028D8
:100CE00068D00446007843F60006C007C4F2020646
:100CF0000BD0B06800F00C00042840F09F803068F2
:100D0000800302D56068002854D0207880071AD567
:100D1000B06810F00C0F09D0B06800F00C00082883
:100D200040F0A6807068400200F1A2803068800721
:100D300002D5E06801283DD13068216920F0F80033
:100D400040EAC10030602078000737D4207840079F
:100D50004CD4A56955B3B06800F00C00082840F0E9
:100D6000BB80012D26D07068E16900F480028A42C0
:100D700020D1216A00F03F028A421BD147F6C071A0
:100D8000626A0140B1EB821F14D1A16A4FF6FF7372
:100D9000C903994300F44032A1F580318A4209D158
:100DA000E16A00F07060B0EB016F03D1002002B087
:100DB000BDE8F081012002B0BDE8F0816069002843
:100DC00040F20000C4F2472076D00121C0F8801E16
:100DD000FFF7B4FD054600BF706F8007B6D4FFF77C
:100DE000ADFD401B0228F7D9DDE000BF306C10F0EC
:100DF00080580AD100200190306C40F0805030645F
:100E0000306C00F080500190019847F20007C4F266
:100E100000073868C00541D4386840F480703860F5
:100E2000FFF78CFD054600BF3868C00536D4FFF7D4
:100E300085FD401B0228F7D9B5E000BFB06800F07F
:100E40000C00082803D1706840023FF558AF606875
:100E5000B0F5803F07D0B0F5A02F40F08D8030680E
:100E600040F480203060306840F4803030608DE0A5
:100E7000E068002852D00020C4F247200121016020
:100E8000FFF75CFD054600BF306880073FF554AFB3
:100E9000FFF754FD401B0228F6D984E0A068012822
:100EA00005D005284ED1306F40F004003067306F18
:100EB00040F0010030674FE00021C0F8801EFFF7CE
:100EC0003DFD0546706F80077FF540AFFFF736FDAB
:100ED000401B0228F6D966E00027C4F2472700200D
:100EE0003866FFF72BFD022D05460BD130688001D7
:100EF0005ED5FFF723FD401B02284FF00300F5D914
:100F000055E700BF306880017FF550AFFFF716FD51
:100F1000401B02284FF00300F4D948E70020C4F238
:100F2000472000210160FFF709FD05463068800772
:100F30007FF509AFFFF702FD401B02284FF00300C9
:100F4000F4D934E7316F002821F001013167316FA6
:100F500021F0040131674DD0FFF7F0FC054641F266
:100F6000883700BF306F800756D4FFF7E7FC401B7F
:100F7000B842F7D917E000BF3168002821F480316A
:100F80003160316821F4802131604FD0FFF7D6FC09
:100F9000054600BF306880033FF5B7AEFFF7CEFCD3
:100FA000401B6428F6D9032002B0BDE8F08100BFE1
:100FB00004F11C052FCD084340EA8210D9034FF6F7
:100FC000FF729143A1F5803140EA056008437060EB
:100FD00001203866FFF7B2FC044600BF306880018C
:100FE0003FF5E4AEFFF7AAFC001B02284FF0030018
:100FF000F4D9DCE6FFF7A2FC054641F2883700BFD2
:10100000306F800708D5FFF799FC401BB8424FF0BE
:101010000300F5D9CBE600BFB8F1000F7FF499AE1D
:10102000306C20F08050306493E600BFFFF786FC00
:10103000054600BF306880037FF567AEFFF77EFC92
:10104000401B64284FF00300F4D9B0E670B538B106
:101050000446406A30B10020206104F1140007E02A
:10106000012070BD6068B0F5827F03D004F11C00E0
:10107000002101600026A66294F8510020B92046A4
:1010800084F8506000F03CF8022084F8510094E8A5
:101090000F0001F48271056802F4044225F0400556
:1010A0000560114403F400622369114403F0020255
:1010B0006369114403F00102A369E569114403F473
:1010C0000072114405F03802256A114405F08002CF
:1010D000A56A114305F4005211430160626A0421BC
:1010E00001EA134102F0100211444160C16921F488
:1010F0000061C1610120666584F85100304670BD11
:101100002DE9F04387B040F60044C4F202040068C1
:10111000A4F5E83100278842069703D007B0BDE860
:10112000F08300BF43F630000197C4F2020001696A
:10113000A4F5006641F400410161016902AD01F4CA
:10114000004101910199019701684FF0020841F0B7
:1011500002010160016801F002010191019901970A
:10116000016841F002010160016801F00201019192
:1011700001990197016841F008010160016801F0DF
:101180000801019101990197016841F0080101608E
:10119000016801F00801019101990197016841F08E
:1011A000080101600068294600F0080001900198DC
:1011B000082002903046CDE90387CDF81480FFF770
:1011C000DBFA2020029030462946FFF7D5FA0126A7
:1011D00003A84FF4006980E8C00120462946CDF8F5
:1011E0000890FFF7C9FA4FF4005002A9C1C1204688
:1011F00029460597FFF7C0FA4FF4805002A981E80D
:10120000C10120462946FFF7B7FA20464FF4805126
:101210000122FFF78DFB40F61840C4F20200C0F82F
:10122000009020464FF400510022FFF781FB07B0E9
:10123000BDE8F083411E0020B0EB116F1CBF012000
:1012400070474EF21002CEF2000251604EF623516A
:10125000CEF20001F0230B700721906011607047FF
:10126000704700007047000010B590F83C20012A3C
:101270004FF0020251D080F83D200268D2F804E01D
:10128000D2F808C00C682EF07003234341F2FF74BB
:10129000C4F20004A24253600EDC40F2FF73C4F2B9
:1012A00000039A4216DCB2F1804F2BD040F200438B
:1012B000C4F2000324E000BF40F2FF33C4F2010394
:1012C0009A4213DC41F60003C4F200039A4219D09B
:1012D000002313E040F60003C4F200039A4211D049
:1012E00040F60043C4F200030AE000BF44F20003EA
:1012F000C4F201039A4205D040F20043C4F2010354
:101300009A4204D149682CF080031943916001216D
:10131000002280F83D1080F83C20104610BD0000EF
:10132000002804BF0120704710B5044690F83D0026
:1013300028B9002084F83C00204600F01FF8022065
:1013400084F83D002068211D01F048FF012084F849
:10135000460084F83E0084F83F0084F8400084F89A
:10136000410084F8420084F8430084F8440084F883
:10137000450084F83D00002010BD000080B582B01B
:101380000068B0F1804F1FD00021C4F201018842F3
:1013900029D10020019043F64000C4F202004168C8
:1013A000002241F0010141604068002100F001008D
:1013B000019001981920FFF745FB192002B0BDE804
:1013C0008040FFF72BBB00BF0020009043F6400099
:1013D000C4F20200016841F001010160006800F000
:1013E00001000090009802B080BD000090F83D1010
:1013F00001291CBF01207047022180F83D100068C0
:1014000041F2FF72C168C4F20002904241F0010152
:10141000C1600DDC40F2FF71C4F20001884215DCAE
:10142000B0F1804F2AD040F20041C4F2000123E025
:1014300040F2FF31C4F20101884213DC41F60001A1
:10144000C4F20001884219D0002113E040F60001E7
:10145000C4F20001884211D040F60041C4F20001FC
:101460000AE000BF44F20001C4F20101884205D045
:1014700040F20041C4F20101884206D1816801F0C6
:101480000701062904BF00207047016841F00101EF
:10149000016000207047000080B590F83C20012AD0
:1014A0004FF0020200F0C28080F83D20D0F800C06A
:1014B0004FF67772DCF8083023EA0202CCF80820F5
:1014C0000B684F2B28DC1F2B44DD202B45D0302B05
:1014D00043D0402B40F0AC80D1F804E0C968DCF880
:1014E0002030DCF8202022F00102CCF82020DCF8AB
:1014F000182022F0F00242EA011123F00A0242EA27
:101500000E02CCF81810CCF82020DCF8081041F0BE
:10151000470121F0300180E06F2B27DDB3F5005F3C
:1015200048D0B3F5805F7AD0702B40F08180D1E94C
:1015300001E3C968DCF8082043EA0E0322F47F4285
:1015400043EA01211143CCF80810DCF8081041F0FF
:10155000770162E00BB1102B6AD1DCF8081021F0A2
:101560007001194341F0070157E000BF502B35D0FF
:10157000602B5DD1D1F804E0C968DCF8203023F09D
:101580001003CCF82030DCF81830DCF8202023F4ED
:10159000704322F0A00243EA013142EA0E12CCF875
:1015A0001810CCF82020DCF8081041F0670121F079
:1015B000100132E0D1E901E3C968DCF8082043EA10
:1015C0000E0322F47F4243EA01211143CCF80810B4
:1015D000DCF8081041F480411FE000BFD1F804E0BE
:1015E000C968DCF82030DCF8202022F00102CCF8B9
:1015F0002020DCF8182022F0F00242EA011123F04A
:101600000A0242EA0E02CCF81810CCF82020DCF8CE
:10161000081041F0570121F02001CCF808100022F9
:10162000012180F83D10002180F83C10104680BD5B
:101630000122F5E77047000010B50168044608690B
:10164000800744BFC8685FEA807039D408694007E2
:1016500044BFC8685FEA40703ED40869000744BFD1
:10166000C8685FEA007045D40869C00644BFC8680E
:101670005FEAC0604AD40869C0071CBFC8685FEA57
:10168000C07051D10869000644BFC8685FEA0060B5
:1016900052D40869400644BFC8685FEA406053D42A
:1016A0000869800646BFC8685FEA806010BD6FF0B9
:1016B000200220460A61BDE81040FFF7D3BD00BFFD
:1016C0006FF002000861012020778869800743D00D
:1016D0002046FFF7AFFF45E06FF0040008610220ED
:1016E0002077886910F4407F40D02046FFF7A2FFA2
:1016F00042E000BF6FF00800086104202077C8694D
:1017000080073DD02046FFF795FF3FE06FF01000C7
:10171000086108202077C86910F4407F3AD020463D
:10172000FFF788FF3CE000BF6FF001000861204632
:1017300000F00AFA2168A5E76FF0800008612046F2
:10174000FFF78EFD2168A4E76FF040000861204696
:1017500000F016FA2168A3E7204600F025F820469D
:1017600000F066F92168002020776FE7204600F03E
:101770001BF8204600F05CF92168002020776CE718
:10178000204600F011F8204600F052F921680020B0
:10179000207769E7204600F007F8204600F048F976
:1017A00021680020207766E7704700002DE9F043AC
:1017B00090F83C30012B04BF0220BDE8F0834FEAD3
:1017C000B202032A00F2FC80DFE802F0023E7EBE95
:1017D000036840F200471A6A43F4806522F0010270
:1017E0001A621C6A1A46D3F804E052F818CF8E68C1
:1017F00024F00204C4F20107BD4244EA060405D104
:10180000CE6824F00C0426F0040634430E68BD4272
:1018100007D1D1E905572EF4407E45EA0E0545EA89
:10182000070E2CF073073743C3F804E09F614F683D
:1018300009695F631C629F6947F008079F619F69A0
:1018400027F004079F61B1E0036840F200481A6A7C
:1018500043F4806522F010021A621C6A1A46D3F81B
:1018600004C052F818EF8F6824F02004C4F2010875
:10187000454544EA071407D1CF686FF0400624F0CD
:10188000C00406EA07163443D1F80090454506D156
:10189000D1E905562CF440672E4347EA860C2EF416
:1018A000E64747EA0927C3F804C09F614F68096902
:1018B0009F631C629F6947F400679F619F6927F4DB
:1018C00080679F6171E000BF036840F200481A6AB8
:1018D00043F4806522F480721A621C6A1A46D3F8B7
:1018E00004C052F81CEF8F6824F40074C4F201089D
:1018F000454544EA072408D1CF6840F2FF463F023D
:1019000024F4406427EA06063443D1F800904545A4
:1019100006D1D1E905562CF440572E4347EA061C60
:101920002EF0730747EA0907C3F804C0DF614F6868
:101930000969DF631C62DF6947F00807DF61DF695F
:1019400027F00407DF6131E0036840F200451A6ABE
:1019500043F4806722F480521A621A46D3F820C0FA
:101960005C6852F81CEFD1F800808E68C4F2010563
:10197000AF4204D14D6924F4804444EA85142CF428
:10198000005747EA06372EF4E64646EA08265C602A
:10199000DE614E6809691E641F62DF6947F40067F3
:1019A000DF61DF6927F48067DF610902136819438B
:1019B00011600021002280F83C200846BDE8F08339
:1019C0000121002280F83C200846BDE8F083000099
:1019D000002804BF0120704710B5044690F83D0070
:1019E00028B9002084F83C00204600F01FF80220AF
:1019F00084F83D002068211D01F0F0FB012084F8EF
:101A0000460084F83E0084F83F0084F8400084F8E3
:101A1000410084F8420084F8430084F8440084F8CC
:101A2000450084F83D00002010BD00007047000014
:101A30007047000041B1082910D0042914BF00F1FB
:101A4000410200F13F020BE090F83E20012A1CBF4A
:101A500001207047022280F83E2013E000F140028E
:101A60001278012A1CBF012070470222082907D0E2
:101A7000042914BF80F8412080F83F2002E000BF15
:101A800080F84020006801F01F010122036A02FA79
:101A900001F123EA01020262026A114341F2FF727C
:101AA000C4F20002904201620CDC40F2FF71C4F209
:101AB0000001884214DCB0F1804F37D040F2004181
:101AC00016E000BF40F2FF31C4F20101884215DC8C
:101AD00041F60001C4F20001884227D0002115E040
:101AE00040F60001C4F2000188421FD040F60041D8
:101AF000C4F20001884219D01FE000BF44F2000187
:101B0000C4F20101884211D040F20041C4F2010147
:101B1000884212D1416C40F2004340F48062C4F22A
:101B2000010341F400419A42416406D1816801F009
:101B30000701062904BF00207047016841F0010138
:101B4000016000207047000010B540F26414C2F23A
:101B50000004216840F29003C2F200034A1C98423C
:101B600022600CD12829B8BF10BD40F60000C4F295
:101B700002004FF40051FEF7D3FE0020206010BD9C
:101B800070470000002804BF0120704710B50446CC
:101B900090F83D0028B9002084F83C00204600F071
:101BA00021F8242084F83D002068C16821F4005108
:101BB000C160204601F0B0FB2068016921F490412A
:101BC0000161416921F02A014161C16841F400517C
:101BD000C16000202021206484F83D1084F83E106C
:101BE00010BD000080B586B0016841F20000C4F26B
:101BF0000100814202D006B080BD00BF002143F643
:101C000030020191C4F20202536900F5704043F0C2
:101C100010035361536903F010030193019B019179
:101C2000136843F001031360126802F0010201928D
:101C3000019A4FF4C06201920222CDE902210321F0
:101C400004910721059101A9FEF796FD06B080BD1C
:101C5000FEE700002DE9F04740F600448946C4F253
:101C600002044FF0006140F23806A161C2F20006A2
:101C700031689846174605468868000609D5886881
:101C8000000644BF88685FEA006002D588680006E5
:101C9000F2D420464FF480510022FEF749FE30680E
:101CA0002A21C160816889070AD4816889075CBFDD
:101CB00081685FEA817103D481688907F2D500BF2A
:101CC0008168090609D58168090644BF81685FEA11
:101CD000016102D581680906F2D420464FF4805193
:101CE0000122FEF725FE40F2180AC2F2000A9AF815
:101CF0001610481982B23068130AC36083689B07C4
:101D000009D483689B075CBF83685FEA837302D44E
:101D100083689B07F2D5C2608268920709D4826803
:101D200092075CBF82685FEA827202D4826892077F
:101D3000F2D5394489B20A0AC2608268920709D48E
:101D4000826892075CBF82685FEA827202D482680E
:101D50009207F2D5C1608168890709D48168890733
:101D60005CBF81685FEA817102D481688907F2D51E
:101D70008168090609D58168090644BF81685FEA60
:101D8000016102D581680906F2D420464FF48051E2
:101D90000022FEF7CDFD30682B21C16081688907E4
:101DA0000AD4816889075CBF81685FEA817103D4C6
:101DB00081688907F2D500BF8168090609D5816865
:101DC000090644BF81685FEA016102D5816809069E
:101DD000F2D420464FF480510122FEF7A9FD9AF873
:101DE000171001EB090082B23068130AC3608368E0
:101DF0009B0709D483689B075CBF83685FEA837392
:101E000002D483689B07F2D5C2608268920709D426
:101E1000826892075CBF82685FEA827202D482683D
:101E20009207F2D5414489B20A0AC26082689207D9
:101E300009D4826892075CBF82685FEA827202D42A
:101E400082689207F2D5C160816889070AD48168E7
:101E500089075CBF81685FEA817103D48168890763
:101E6000F2D500BF8168090609D58168090644BF1B
:101E700081685FEA016102D581680906F2D42046D3
:101E80004FF480510022FEF753FD30682C21C160D1
:101E9000816889070AD4816889075CBF81685FEA25
:101EA000817103D481688907F2D500BF8168090672
:101EB00009D58168090644BF81685FEA016102D5DE
:101EC00081680906F2D420464FF480510122FEF7C2
:101ED0002FFD30688168090609D58168090644BF6D
:101EE00081685FEA016102D581680906F2D44FF486
:101EF0000060A061BDE8F08770B586B0002543F6AC
:101F0000300005950095C4F20200016840F6000417
:101F100041F0040101600168C4F2020401F004010F
:101F20000091009900950168002241F08001016054
:101F300001684FF4005601F080010091009900956E
:101F4000016841F001010160016801F001010091A7
:101F500000990095016841F00201016000684FF4AA
:101F6000005100F00200009000982046FEF7E0FCCF
:101F70000120CDE9020501A9204601960495FEF74E
:101F8000FBFB06B070BD000010B540F2380443F60C
:101F90000040C2F20004C4F200004FF482714FF41A
:101FA000004200234FF4007C84E80F002046C4E97F
:101FB0000433C4E906C3C4E90833C4E90A33FFF7AC
:101FC00045F82068016841F040010160016841F472
:101FD0008041016010BD000080B586B040F29000E5
:101FE00000220021C2F20000C4F20102472342F2A3
:101FF0000F7C4FF0800E0591CDE90311CDE9001162
:10200000C0E90023C0E9021CC0E90411C0F818E0CF
:10201000FFF786F9002818BFFEF794FB4FF48050B5
:10202000029040F29000C2F2000002A9FFF734FAD9
:10203000002818BFFEF786FB40F29000C2F20000B5
:102040006946FFF711F9002818BFFEF77BFB06B0C1
:1020500080BD000010B594B040F2D8000021C2F25B
:10206000000040F2CF740E91CDE90C110991CDE939
:102070000711CDE90511CDE90311CDE901114FF0AB
:10208000804240F2CF23C0E9021401618021C0E9FF
:1020900000238161FFF744F9002818BFFEF752FBC7
:1020A0004FF480500B9040F2D800C2F200000BA910
:1020B000FFF7F2F9002818BFFEF744FB40F2D80002
:1020C000C2F20000FFF784FC002818BFFEF73AFBBD
:1020D00040F2D8000024C2F2000008A9CDE908446B
:1020E000FFF7C2F8002818BFFEF72CFB6020CDE9EF
:1020F000010440F2D800C2F2000001A900220394BA
:102100000594FFF753FB002818BFFEF71BFB40F2B6
:10211000D804C2F2000401A920460422FFF746FBBE
:10212000002818BFFEF70EFB2068B0F1804F01D0E9
:1021300014B010BD002043F630010F90C4F202012C
:102140000A6842F001020A60096801F001010F917A
:102150000F9903210F910221CDE910101290012057
:1021600013900020C4F202000FA9FEF705FB14B083
:1021700010BD000080B540F2201041F20001C2F213
:102180000000C4F2010100234FF00C0C4FF4E132C7
:1021900080E80E00C0E90333C0E905C3C361FFF75F
:1021A000F1FC002808BF80BDBDE88040FEF7CABA38
:1021B000FEE70000FEE70000704700002DE9F04355
:1021C00081B040F60049C4F2020940F23805A9F591
:1021D000E830C2F2000540F618484FF482714FF41F
:1021E000004200234FF4007785E80F002846C4F230
:1021F0000208C5E90433C5E90673C5E90833C5E932
:102200000A33FEF723FF2868016841F040010160AE
:10221000016841F4804101600A20FEF799FA4FF00D
:102220000060C8F8000028688168090609D581683F
:10223000090644BF81685FEA016102D58168090629
:10224000F2D448464FF480510022FEF771FB286813
:102250003621C160816889070AD4816889075CBF1B
:1022600081685FEA817103D481688907F2D500BF74
:102270008168090609D58168090644BF81685FEA5B
:10228000016102D581680906F2D448464FF48051B5
:102290000122FEF74DFB28680021C1608168890793
:1022A0000AD4816889075CBF81685FEA817103D4C1
:1022B00081688907F2D500BF8168090609D5816860
:1022C000090644BF81685FEA016102D58168090699
:1022D000F2D448464FF480510022FEF729FB2868CB
:1022E0003A21C160816889070AD4816889075CBF87
:1022F00081685FEA817103D481688907F2D500BFE4
:102300008168090609D58168090644BF81685FEACA
:10231000016102D581680906F2D448464FF4805124
:102320000122FEF705FB28680521C1608168890745
:102330000AD4816889075CBF81685FEA817103D430
:1023400081688907F2D500BF8168090609D58168CF
:10235000090644BF81685FEA016102D58168090608
:10236000F2D448464FF480510022FEF7E1FA286883
:10237000B221C160816889070AD4816889075CBF7E
:1023800081685FEA817103D481688907F2D500BF53
:102390008168090609D58168090644BF81685FEA3A
:1023A000016102D581680906F2D448464FF4805194
:1023B0000122FEF7BDFA29680C20C86001F108006F
:1023C0000268920709D4026892075CBF02685FEA5C
:1023D000827202D402689207F2D50C22CA600268A7
:1023E000920709D4026892075CBF02685FEA8272B2
:1023F00002D402689207F2D50022CA6002689207EE
:1024000009D4026892075CBF02685FEA827202D454
:1024100002689207F2D53322CA600268920709D493
:10242000026892075CBF02685FEA827202D40268A7
:102430009207F2D53322CA60016889070AD401687D
:1024400089075CBF01685FEA817103D4016889076D
:10245000F2D500BF0168090609D50168090644BF25
:1024600001685FEA016102D501680906F2D44846B5
:102470004FF480510022FEF75BFA2868B721C16053
:10248000816889070AD4816889075CBF81685FEA2F
:10249000817103D481688907F2D500BF816809067C
:1024A00009D58168090644BF81685FEA016102D5E8
:1024B00081680906F2D448464FF480510122FEF7A4
:1024C00037FA28683521C160816889070AD4816894
:1024D00089075CBF81685FEA817103D481688907DD
:1024E000F2D500BF8168090609D58168090644BF95
:1024F00081685FEA016102D581680906F2D4484625
:102500004FF480510022FEF713FA2868BB21C16006
:10251000816889070AD4816889075CBF81685FEA9E
:10252000817103D481688907F2D500BF81680906EB
:1025300009D58168090644BF81685FEA016102D557
:1025400081680906F2D448464FF480510122FEF713
:10255000EFF928681921C160816889070AD4816868
:1025600089075CBF81685FEA817103D4816889074C
:10257000F2D500BF8168090609D58168090644BF04
:1025800081685FEA016102D581680906F2D4484694
:102590004FF480510022FEF7CBF92868C021C160BA
:1025A000816889070AD4816889075CBF81685FEA0E
:1025B000817103D481688907F2D500BF816809065B
:1025C00009D58168090644BF81685FEA016102D5C7
:1025D00081680906F2D448464FF480510122FEF783
:1025E000A7F928682C21C160816889070AD481680D
:1025F00089075CBF81685FEA817103D481688907BC
:10260000F2D500BF8168090609D58168090644BF73
:1026100081685FEA016102D581680906F2D4484603
:102620004FF480510022FEF783F92868C221C1606F
:10263000816889070AD4816889075CBF81685FEA7D
:10264000817103D481688907F2D500BF81680906CA
:1026500009D58168090644BF81685FEA016102D536
:1026600081680906F2D448464FF4805101220126C0
:10267000FEF75EF92868C660816889070AD4816818
:1026800089075CBF81685FEA817103D4816889072B
:10269000F2D500BF8168090609D58168090644BFE3
:1026A00081685FEA016102D581680906F2D4484673
:1026B0004FF480510022FEF73BF92868C321C16026
:1026C000816889070AD4816889075CBF81685FEAED
:1026D000817103D481688907F2D500BF816809063A
:1026E00009D58168090644BF81685FEA016102D5A6
:1026F00081680906F2D448464FF480510122FEF762
:1027000017F928681221C160816889070AD4816895
:1027100089075CBF81685FEA817103D4816889079A
:10272000F2D500BF8168090609D58168090644BF52
:1027300081685FEA016102D581680906F2D44846E2
:102740004FF480510022FEF7F3F82868C421C160DD
:10275000816889070AD4816889075CBF81685FEA5C
:10276000817103D481688907F2D500BF81680906A9
:1027700009D58168090644BF81685FEA016102D515
:1027800081680906F2D448464FF480510122FEF7D1
:10279000CFF828682021C160816889070AD4816840
:1027A00089075CBF81685FEA817103D4816889070A
:1027B000F2D500BF8168090609D58168090644BFC2
:1027C00081685FEA016102D581680906F2D4484652
:1027D0004FF480510022FEF7ABF82868C621C16093
:1027E000816889070AD4816889075CBF81685FEACC
:1027F000817103D481688907F2D500BF8168090619
:1028000009D58168090644BF81685FEA016102D584
:1028100081680906F2D448464FF480510122FEF740
:1028200087F828680F21C160816889070AD4816808
:1028300089075CBF81685FEA817103D48168890779
:10284000F2D500BF8168090609D58168090644BF31
:1028500081685FEA016102D581680906F2D44846C1
:102860004FF480510022FEF763F82868D021C16040
:10287000816889070AD4816889075CBF81685FEA3B
:10288000817103D481688907F2D500BF8168090688
:1028900009D58168090644BF81685FEA016102D5F4
:1028A00081680906F2D448464FF480510122FEF7B0
:1028B0003FF82868A421C1608168890709D481682C
:1028C00089075CBF81685FEA817102D481688907EA
:1028D000F2D5A121C1608168890709D4816889077F
:1028E0005CBF81685FEA817102D481688907F2D593
:1028F0008168090609D58168090644BF81685FEAD5
:10290000016102D581680906F2D448464FF480512E
:102910000022FEF70DF82868E021C1608168890770
:102920000AD4816889075CBF81685FEA817103D43A
:1029300081688907F2D500BF8168090609D58168D9
:10294000090644BF81685FEA016102D58168090612
:10295000F2D448464FF480510122FDF7E9FF29687F
:10296000D020C86001F108000268920709D402680B
:1029700092075CBF02685FEA827202D40268920723
:10298000F2D50422CA600268920709D4026892074D
:102990005CBF02685FEA827202D402689207F2D5D5
:1029A0000D22CA600268920709D4026892075CBFD0
:1029B00002685FEA827202D402689207F2D511229D
:1029C000CA600268920709D4026892075CBF026875
:1029D0005FEA827202D402689207F2D51322CA60BB
:1029E0000268920709D4026892075CBF02685FEA36
:1029F000827202D402689207F2D52B22CA60026862
:102A0000920709D4026892075CBF02685FEA82728B
:102A100002D402689207F2D53F22CA600268920788
:102A200009D4026892075CBF02685FEA827202D42E
:102A300002689207F2D55422CA600268920709D44C
:102A4000026892075CBF02685FEA827202D4026881
:102A50009207F2D54C22CA600268920709D4026834
:102A600092075CBF02685FEA827202D40268920732
:102A7000F2D51822CA600268920709D40268920748
:102A80005CBF02685FEA827202D402689207F2D5E4
:102A90000D22CA600268920709D4026892075CBFDF
:102AA00002685FEA827202D402689207F2D50B22B2
:102AB000CA600268920709D4026892075CBF026884
:102AC0005FEA827202D402689207F2D51F22CA60BE
:102AD0000268920709D4026892075CBF02685FEA45
:102AE000827202D402689207F2D52322CA6001687A
:102AF000890709D4016889075CBF01685FEA8171B1
:102B000002D401688907F2D50168090609D5016870
:102B1000090644BF01685FEA016102D50168090640
:102B2000F2D448464FF480510022FDF701FF286897
:102B3000E121C160816889070AD4816889075CBF87
:102B400081685FEA817103D481688907F2D500BF8B
:102B50008168090609D58168090644BF81685FEA72
:102B6000016102D581680906F2D448464FF48051CC
:102B70000122FDF7DDFE2968D020C86001F10800C0
:102B80000268920709D4026892075CBF02685FEA94
:102B9000827202D402689207F2D50422CA600268E7
:102BA000920709D4026892075CBF02685FEA8272EA
:102BB00002D402689207F2D50C22CA60026892071A
:102BC00009D4026892075CBF02685FEA827202D48D
:102BD00002689207F2D51122CA600268920709D4EE
:102BE000026892075CBF02685FEA827202D40268E0
:102BF0009207F2D51322CA600268920709D40268CC
:102C000092075CBF02685FEA827202D40268920790
:102C1000F2D52C22CA600268920709D40268920792
:102C20005CBF02685FEA827202D402689207F2D542
:102C30003F22CA600268920709D4026892075CBF0B
:102C400002685FEA827202D402689207F2D54422D7
:102C5000CA600268920709D4026892075CBF0268E2
:102C60005FEA827202D402689207F2D55122CA60EA
:102C70000268920709D4026892075CBF02685FEAA3
:102C8000827202D402689207F2D52F22CA600268CB
:102C9000920709D4026892075CBF02685FEA8272F9
:102CA00002D402689207F2D51F22CA600268920716
:102CB00009D4026892075CBF02685FEA827202D49C
:102CC00002689207F2D51F22CA600268920709D4EF
:102CD000026892075CBF02685FEA827202D40268EF
:102CE0009207F2D52022CA600268920709D40268CE
:102CF00092075CBF02685FEA827202D402689207A0
:102D0000F2D52322CA600168890709D401688907BE
:102D10005CBF01685FEA817102D401688907F2D55E
:102D20000168090609D50168090644BF01685FEA20
:102D3000016102D501680906F2D448464FF480517A
:102D40000022FDF7F5FD28682121C160816889070F
:102D50000AD4816889075CBF81685FEA817103D406
:102D600081688907F2D500BF8168090609D58168A5
:102D7000090644BF81685FEA016102D581680906DE
:102D8000F2D448464FF480510122FDF7D1FD286866
:102D90008168090609D58168090644BF81685FEA30
:102DA000016102D581680906F2D448464FF480518A
:102DB0000022FDF7BDFD28681121C16081688907E7
:102DC0000AD4816889075CBF81685FEA817103D496
:102DD00081688907F2D500BF8168090609D5816835
:102DE000090644BF81685FEA016102D5816809066E
:102DF000F2D448464FF480510122FDF799FD782026
:102E0000FDF7A6FC28688168090609D581680906CE
:102E100044BF81685FEA016102D581680906F2D486
:102E200048464FF480510022FDF782FD2868292191
:102E3000C1608168890709D4816889075CBF81689E
:102E40005FEA817102D481688907F2D58168090639
:102E500009D58168090644BF81685FEA016102D52E
:102E600081680906F2D448464FF480510122FDF7EB
:102E70005FFD28688168090609D58168090644BF95
:102E800081685FEA016102D581680906F2D44FF4D6
:102E9000006140F21807C8F80010C2F200070221D2
:102EA00079744FF00061C8F800108168090609D5EF
:102EB0008168090644BF81685FEA016102D58168C3
:102EC0000906F2D448464FF480510022FDF730FD48
:102ED00028683621C1608168890709D4816889071B
:102EE0005CBF81685FEA817102D481688907F2D58D
:102EF0008168090609D58168090644BF81685FEACF
:102F0000016102D581680906F2D448464FF4805128
:102F10000122FDF70DFD28680021C1608168890745
:102F200009D4816889075CBF81685FEA817102D436
:102F300081688907F2D54FF4A051F982F021C0F2DF
:102F40001811C7F812108168090609D581680906A9
:102F500044BF81685FEA016102D581680906F2D445
:102F60004FF40060C8F8000000204FF6FF71C7E979
:102F7000021000200021EF2240F21713FEF76AFE34
:102F800028684FF6BF72016811400160016841F482
:102F900000610160016841F0400101604FF0006193
:102FA000C8F80010798ABA8A02FB01F646B3FA68BB
:102FB000731E00F10801032B06F0030350D2FBB18E
:102FC000C2600E68B60709D40E68B6075CBF0E680B
:102FD0005FEA867602D40E68B607F2D5012B0FD0D1
:102FE000C2600E68B60709D40E68B6075CBF0E68EB
:102FF0005FEA867602D40E68B607F2D5022B71D14D
:103000008168090609D58168090644BF81685FEABD
:10301000016102D581680906F2D44FF40061C8F855
:10302000001001684FF6BF721140016001684FF255
:10303000FF72114001600168002341F0400101600E
:1030400040F20800C2F20000386048464FF40051D8
:1030500001223B7401B0BDE8F043FDF769BC00BF3D
:1030600026F00305002602E00436AE42A7D0C26077
:103070000C68A4070AD40C68A4075CBF0C685FEA5C
:10308000847403D40C68A407F2D500BFC2600C6836
:10309000A40709D40C68A4075CBF0C685FEA8474B9
:1030A00002D40C68A407F2D5C2600C68A40709D446
:1030B0000C68A4075CBF0C685FEA847402D40C68D7
:1030C000A407F2D5C2600C68A407CDD40C68A4078D
:1030D0005CBF0C685FEA8474C6D40C68A407F2D5A0
:1030E000C2E700BFC2600A6892073FF589AF0A686D
:1030F00092075CBF0A685FEA82723FF581AF0A6897
:103100009207F0D57CE7000070470000FDF71CBC7B
:10311000B0B592B0002443F64000CDE90A44CDE9B1
:1031200008440594CDE90344CDE901440094C4F278
:1031300002000168022541F080510160006800F042
:1031400080500090009847F200000094C4F2000004
:10315000016841F4804101600068482100F480402A
:1031600000900098012006904FF4803007904FF4B3
:1031700080000D9004200E90119006A80C95CDE9CA
:103180000F15FDF7A9FD28B1EFF3108072B600BF4F
:10319000FEE700BF0F20CDE901054FF48050CDE9D7
:1031A000040001A802210394FDF788FC20B1EFF38D
:1031B000108072B6FEE700BF12B0B0BD4EF6885068
:1031C000CEF20000016841F4700101607047000018
:1031D00040F29000C2F20000FEF72EBA10B540F6A1
:1031E000FF3E0368C4F2000E40F2004C7045C4F28A
:1031F000010C27DCB0F1804F31D040F20042C4F224
:10320000000290422BD040F60002C4F2000290422D
:1032100025D041F6FF72C4F20002904229DC7045CD
:103220003CDCB0F1804F5FD040F20042C4F20002BB
:10323000904259D040F60002C4F20002904253D0AE
:1032400056E000BF40F60042C4F20002904206D0B1
:10325000604504D00022C4F201029042D9D14A68EC
:1032600023F07003134341F6FF72C4F20002904250
:10327000D5DD43F6FF72C4F20102904222DC42F235
:103280000002C4F2000290422ED00022C4F20102D9
:10329000904229D0604527D02AE000BF40F6004286
:1032A000C4F2000290421FD041F60002C4F20002B4
:1032B000904219D041F60042C4F20002904213D06D
:1032C00016E000BF44F20002C4F2010290420BD0AB
:1032D00044F60002C4F20102904205D044F20042DA
:1032E000C4F20102904203D1CA6823F4407313432D
:1032F00023F080024B69D1F800E08C681A43026029
:10330000C46240F48062C0F828E0624504BF0969E5
:1033100001630121416110BD10B504460068D4E984
:1033200002C22369016921F44051114301616269BC
:1033300043EA0C01E3691143C268194349F20C6383
:103340009A431143C1604169A26921F4407141F27D
:103350000043114340F48062C4F201039A42416188
:1033600002D1FDF76FFC01E0FDF758FCE1696368ED
:103370001922B1F5004FA0FB020123D15A00DB0F47
:10338000FCF71EFF48F21F51C5F2EB11A0FB012311
:103390005A094FF69C73C0F6FF7303F1805302FB8A
:1033A0000300322303EBC000A0FB01014FF4F870CF
:1033B00000EA111000EB0210C1F342110844216829
:1033C000886010BD9A009B0FFCF7FAFE48F21F516F
:1033D000C5F2EB11A0FB01235A094FF69C73C0F60E
:1033E000FF7302FB0300322303EB0010A0FB01017B
:1033F000F02000EA511000EB0210C1F34311084421
:103400002168886010BD0000FEE70000FDF7AAFA01
:10341000FFF77EFEFEF770FDFEF7DEFDFEF7B4FD62
:10342000FEF7A8FEFEF716FEFEF7C8FE40F290007B
:10343000C2F20000FDF7DAFF40F2D804C2F2000445
:1034400020460021FEF7F6FA20460421FEF7F2FAA4
:1034500040F23004C2F20004D4E9000100F004F8A4
:10346000FAE70000000000002DE9F04381B0884633
:10347000FDF75FF89FED200B59EC106B32464B4681
:10348000FCF776FF9FED1E0B53EC102BFCF7E2FFD1
:103490009FED1D0B57EC104B22463B46FCF7C1FE3F
:1034A000FDF758F800EE100A40F2D800C2F2000012
:1034B000BDEEC00A056810EE100A68634046FDF7CD
:1034C00038F832464B46FCF753FF9FED110B53EC97
:1034D000102BFCF7BFFF22463B46FCF7A2FEFDF790
:1034E00039F800EE100ABDEEC00A10EE100AA8630B
:1034F00001B0BDE8F08300BF00000000000069409B
:10350000000000000080664000000000000049400C
:103510000000000000E0704002E008C8121F08C16F
:10352000002AFAD170477047002001E001C1121F44
:10353000002AFBD1704700000000000000000102DB
:10354000030406070809000000000102030400004C
:10355000000000000000000000000000000000006B
:10356000000000000000000000000000000000005B
:10357000000000000000000000000000000000004B
:10358000000000000000600060006000600060005B
:1035900060006000400020002000200000000000CB
:1035A00000006000600060000000000000000000FB
:1035B00000006006600630039801880044000000A7
:1035C00000000000000000000000000000000000FB
:1035D00000000000000000000000000000000000EB
:1035E0000000000000001002100210021002FE078E
:1035F000FE0708020801080108010801FE07FE078E
:1036000004010401040104010000000000000000A6
:103610000000000040004000F00158034C03CC03C0
:103620004C0058007000E000C001C00140034C0392
:103630005C034C034801F000400040000000000023
:103640000000000000000E010A01910091009100AD
:10365000510051003A00AE03A00250045004480447
:1036600048044804840284030000000000000000B5
:1036700000000000000038006C006C006C006C0062
:103680006C002C0098071C011A01330133016301FF
:10369000E300C308C6093C0700000000000000006A
:1036A00000000C001C0010001000080004000000C6
:1036B000000000000000000000000000000000000A
:1036C00000000000000000000000000000000000FA
:1036D0000000000400020001800080004000400063
:1036E00020002000200020002000200020004000BA
:1036F0004000800080000001000200040000000083
:10370000000002000400080010001000200020004B
:1037100040004000400040004000400040002000C9
:10372000200010001000080004000200000000004B
:10373000000000000000000000004000C000400049
:10374000460C4E0FD001F0015E0F460C40004000C9
:103750004000000000000000000000000000000029
:1037600000000000000000000000000040004000D9
:10377000400040004000FE0F40004000400040007C
:1037800040000000000000000000000000000000F9
:103790000000000000000000000000000000000029
:1037A0000000000000000000000000000000000019
:1037B00000000C001C0010001000080004000000B5
:1037C00000000000000000000000000000000000F9
:1037D000000000000000FE070000000000000000E4
:1037E00000000000000000000000000000000000D9
:1037F00000000000000000000000000000000000C9
:1038000000000000000000000000000000000000B8
:1038100000001C001C001C00000000000000000054
:103820000000000400060002000300010001800007
:1038300080004000400060002000200010001000C8
:10384000080008000C000400060002000000000050
:103850000000000000000000F00098010C030C03C1
:1038600006060606060606060606060606060606F8
:103870000C030C039801F0000000000000000000A1
:10388000000000000000000040007C0060006000BC
:103890006000600060006000600060006000600028
:1038A000600060006000FC030000000000000000F9
:1038B0000000000000000000F8008401020306037D
:1038C0000603000300018001C0006000200010001A
:1038D000080204020602FE030000000000000000CF
:1038E00000000000000000007800C600860186018C
:1038F00080018001C000700080010001000300030E
:10390000060306038601F800000000000000000026
:10391000000000000000000080018001C001A00143
:10392000A00190018801880184018201FE0F8001BD
:10393000800180018001E00700000000000000001D
:103940000000000000000000FC030400040004006C
:1039500004000400F4008C010403000300030603C8
:10396000060382018401F80000000000000000004E
:103970000000000000000000E00118030C030C0030
:1039800004000600E60116030E06060606060606F5
:1039900004060C021803F000000000000000000004
:1039A0000000000000000000F8070C0604020401FB
:1039B00000010001800080004000400040006000E5
:1039C0006000600060006000000000000000000077
:1039D0000000000000000000F8010C0306060606C7
:1039E00006060C021C03F000C8010C0306060606BE
:1039F000060606060C03F0010000000000000000AF
:103A00000000000000000000F0000C010C030602A2
:103A100006060606060606078C067806000600035C
:103A200000030C018C017800000000000000000081
:103A30000000000000000000000000000000000086
:103A40000000E000E000E0000000000000000000D6
:103A50000000E000E000E0000000000000000000C6
:103A60000000000000000000000000000000000056
:103A70000000600060000000000000000000000086
:103A800000000000600060004000200020000000F6
:103A9000000000000000000400020001800040005F
:103AA0002000100008000400080010002000400062
:103AB000800000010002000400000000000000007F
:103AC00000000000000000000000000000000000F6
:103AD0000000FE07000000000000FE0700000000DC
:103AE00000000000000000000000000000000000D6
:103AF000000000000000040008001000200040004A
:103B0000800000010002000400020001800040006B
:103B10002000100008000400000000000000000069
:103B20000000000000000000E0031806040C040C74
:103B30000C0C0C0C0007800140004000400000000D
:103B40000000E000E000E0000000000000000000D5
:103B5000000000000000E00018030C02CC05640522
:103B60006605A605B604B604B604B604B602E401BA
:103B70000C040C021803F00000000000000000001C
:103B80000000000000000000600060005000D00055
:103B900090009000880088010801F80104030403E4
:103BA0000402020202060F0F0000000000000000E5
:103BB0000000000000000000FE008C030C030C035A
:103BC0000C030C038C01FC000C030C020C060C060D
:103BD0000C060C060C03FE010000000000000000B3
:103BE0000000000000000000E00318030C060C04B5
:103BF000040406000600060006000600060006048F
:103C00000C040C021803F00000000000000000008B
:103C100000000000000000007F008C010C030C037A
:103C20000C060C060C060C060C060C060C060C0604
:103C30000C030C038C017F0000000000000000005A
:103C40000000000000000000FF0306030604060455
:103C5000060086008600FE008600860086000600BC
:103C6000060406040602FF03000000000000000036
:103C70000000000000000000FF0306030604060425
:103C8000060086008600FE0086008600860006008C
:103C90000600060006001F000000000000000000F3
:103CA0000000000000000000F00018010C020C02EF
:103CB00004020600060006000600C60F06030603FF
:103CC0000C030C031803F0000000000000000000CB
:103CD00000000000000000000F0F060606060606A2
:103CE000060606060606FE0706060606060606067B
:103CF0000606060606060F0F000000000000000082
:103D00000000000000000000FC0360006000600094
:103D100060006000600060006000600060006000A3
:103D2000600060006000FC03000000000000000074
:103D30000000000000000000F807C000C000C00044
:103D4000C000C000C000C000C000C000C000C00073
:103D5000C000C000C000C000C60066003C000000FB
:103D60000000000000000000CF038601C6004600EE
:103D70002600160036002E006E004600C6008600A3
:103D80008601060106038F07000000000000000006
:103D900000000000000000001F00060006000600F2
:103DA00006000600060006000600060006000600E3
:103DB000060406040602FF030000000000000000E5
:103DC00000000000000000000707860386038E0342
:103DD0008E034E034E034A035A035A033A03320337
:103DE00032033203120387070000000000000000C6
:103DF00000000000000000008E0F0C021C021C02DC
:103E000034023402640264024402C4028402840361
:103E10008403040304031F020000000000000000EC
:103E20000000000000000000F00098010C030C02EC
:103E30000606060606060606060606060606060622
:103E40000C020C039801F0000000000000000000CC
:103E50000000000000000000FF0006030606060642
:103E60000606060606068603FE0006000600060095
:103E70000600060006001F00000000000000000011
:103E80000000000000000000F00098010C030C028C
:103E90000606060606060606060606060606760652
:103EA0004C02CC039801F0008007000300000000E2
:103EB0000000000000000000FF01060306060606E1
:103EC000060606060603FE004600C60086008601BA
:103ED0000603060306060F0E0000000000000000A7
:103EE0000000000000000000F8020C0306020602B9
:103EF00006000E003C00F800E00380030007020605
:103F0000020606060C03F00100000000000000009D
:103F10000000000000000000FE0762046108610864
:103F20006000600060006000600060006000600091
:103F3000600060006000F801000000000000000068
:103F400000000000000000001E070C020C020C0222
:103F50000C020C020C020C020C020C020C020C02F1
:103F60000C020C021801F00000000000000000002C
:103F700000000000000000000F0706020401040119
:103F80000C010C0188008800980098005000500037
:103F90007000300020002000000000000000000041
:103FA0000000000000000000F70E62044204460416
:103FB000460464026402E402E4029C029C0198014B
:103FC00098018801880088000000000000000000BF
:103FD00000000000000000009E070C01080118010D
:103FE0009000B0006000200060006000D0009000F1
:103FF0008801080104038E07000000000000000093
:1040000000000000000000000F0F060404020C0274
:1040100008011801B800B000700060006000600086
:10402000600060006000F801000000000000000077
:104030000000000000000000FC070C020603020163
:104040008001800040004000200020001000180087
:1040500008040C040402FE0300000000000000003D
:104060000000E003200020002000200020002000AD
:104070002000200020002000200020002000200040
:1040800020002000200020002000E00300000000AD
:1040900000000000000004000400080008001000F8
:1040A000100010002000200040004000C0008000F0
:1040B0008000000100010002000200020004000074
:1040C00000007C00400040004000400040004000F4
:1040D00040004000400040004000400040004000E0
:1040E000400040004000400040007C000000000014
:1040F00060009000080100000000000000000000C7
:1041000000000000000000000000000000000000AF
:10411000000000000000000000000000000000009F
:10412000000000000000000000000000000000008F
:10413000000000000000000000000000000000007F
:10414000000000000000000000000000FF0F000061
:1041500000001800600000000000000000000000E7
:10416000000000000000000000000000000000004F
:10417000000000000000000000000000000000003F
:10418000000000000000000000000000000000002F
:104190000000F0010C030C030003E0031C030E03FA
:1041A000060306038E0B7C0E0000000000000000DA
:1041B00000000000000008000E000C000C000C00C5
:1041C0000C00CC013C031C060C060C060C060C066D
:1041D0000C060C021C03E4010000000000000000BB
:1041E00000000000000000000000000000000000CF
:1041F0000000F0008C018C0186010600060006001C
:1042000006020C020C01F00000000000000000009B
:104210000000000000000002C003000300030003D0
:10422000000378038C030C0306030603060306034E
:10423000060304038C077801000000000000000062
:10424000000000000000000000000000000000006E
:104250000000E001180308020C060C06FC070C0025
:104260000C0018041802E00100000000000000002B
:104270000000000000000000C003600630063000AF
:104280003000FE01300030003000300030003000DF
:10429000300030003000FC01000000000000000091
:1042A000000000000000000000000000000000000E
:1042B0000000F007D8068C018C018C019801F800F1
:1042C0000C00FC00CC03060306038E03F80000007C
:1042D00000000000000008000E000C000C000C00A4
:1042E0000C00EC011C030C030C030C030C030C036B
:1042F0000C030C030C039E070000000000000000EC
:1043000000000000000000006000600000000000ED
:1043100040007C00600060006000600060006000A1
:10432000600060006000FC0300000000000000006E
:104330000000000000000000C001C00100000000FB
:104340000001F00180018001800180018001800175
:1043500080018001800180018001CC007C00000090
:1043600000000000000008000E000C000C000C0013
:104370000C008C038C008C004C006C005C008C00EA
:104380008C010C010C039E070000000000000000DF
:1043900000000000000040007C0060006000600041
:1043A000600060006000600060006000600060000D
:1043B000600060006000FC030000000000000000DE
:1043C00000000000000000000000000000000000ED
:1043D00000003707EE06660666066606660666068F
:1043E000660666066606FF0F00000000000000007B
:1043F00000000000000000000000000000000000BD
:104400000000EE011C030C030C030C030C030C0353
:104410000C030C030C039E070000000000000000CA
:10442000000000000000000000000000000000008C
:104430000000F00098010C030606060606060606B4
:1044400006060C030C03F000000000000000000052
:10445000000000000000000000000000000000005C
:104460000000EE011C030C060C060C060C060C06E4
:104470000C060C031C03EC010C000C003E000000B9
:10448000000000000000000000000000000000002C
:10449000000078028C030C030603060306030603E0
:1044A000060304038C03780300030003C007000025
:1044B00000000000000000000000000000000000FC
:1044C00000009F035806380618001800180018004E
:1044D000180018001800FF00000000000000000095
:1044E00000000000000000000000000000000000CC
:1044F0000000F0031C030C020C023800F000C003A3
:10450000040304038C03FC01000000000000000011
:10451000000000000000000000002000200030002B
:104520003000FE013000300030003000300030003C
:10453000300030023002E001000000000000000006
:10454000000000000000000000000000000000006B
:1045500008028E030C030C030C030C030C030C0366
:104560000C030C039C077801000000000000000011
:10457000000000000000000000000000000000003B
:1045800000001E070C020801080118019000B0008D
:10459000B00060006000200000000000000000008B
:1045A000000000000000000000000000000000000B
:1045B0000000F70E6204460464026402EC029C01EF
:1045C0009801980198010800000000000000000018
:1045D00000000000000000000000000000000000DB
:1045E0000000BC0718011001B00060006000E0008E
:1045F0009000080108039E07000000000000000072
:1046000000000000000000000000000000000000AA
:1046100000009E0708010801080190009000B0000A
:104620006000600060002000200024001C000000EA
:10463000000000000000000000000000000000007A
:104640000000FC018401C400440060002000300030
:10465000180208020C03FC0100000000000000002A
:104660000000000380008000800080008000800047
:10467000800080004000200040008000800080001A
:104680008000800080008000800000030000400067
:10469000400040004000400040004000400040001A
:1046A000400040004000400040004000400040000A
:1046B000400040004000400040004000400000003A
:1046C00000000C001000100010001000100010007E
:1046D000100010002000400020001000100010000A
:1046E000100010001000100010000C00000000006E
:1046F0001C002204C204800300000000000000002F
:1047000000000000000000000000000000000000A9
:104710000000000000000000000000000000000099
:10472000404700080000002018000000183500086D
:1047300058470008180000205805000028350008D8
:1047400001000000100000004E3500080C001800A9
:08475000300000000024F40019
:040000050800018965
:00000001FF
