:020000040800F2
:10000000B01200209D010008393300089923000830
:100010003533000859080008A54400080000000016
:100020000000000000000000000000008D420008F9
:1000300069080008000000003D33000891420008F4
:10004000B7010008B7010008B7010008B7010008B0
:10005000B7010008B7010008B7010008B7010008A0
:1000600075080008B7010008B7010008B7010008CB
:10007000B7010008B7010008B7010008B701000880
:10008000B7010008B7010008B7010008B701000870
:10009000B7010008B7010008B7010008B701000860
:1000A000B70100085D430008B7010008B701000868
:1000B000B7010008B7010008B7010008B701000840
:1000C000B7010008B7010008B7010008B701000830
:1000D000B7010008B7010008B7010008B701000820
:1000E0006D080008B7010008B7010008B701000853
:1000F000B7010008B7010008B7010008B701000800
:10010000B7010008B7010008B7010008B7010008EF
:10011000B7010008B7010008B7010008B7010008DF
:100120005D080008B7010008B7010008B701000822
:10013000B7010008B7010008B7010008B7010008BF
:10014000B7010008B7010008B7010008B7010008AF
:10015000B7010008B7010008B7010008B70100089F
:10016000B7010008B7010008B7010008B70100088F
:10017000B7010008B7010008B7010008000000003F
:10018000B7010008B7010008DFF80CD000F00CFB45
:1001900000480047A9440008B012002006488047E4
:1001A00006480047FEE7FEE7FEE7FEE7FEE7FEE75C
:1001B000FEE7FEE7FEE7FEE7494300088901000885
:1001C0002DE9F05F0546002092469B46884606468C
:1001D000814640241BE0284641464746224600F01F
:1001E000FCF953465A46C01A914110D3114618469D
:1001F000224600F0E3F92D1A67EB01084F4622462C
:100200000120002100F0DAF917EB00094E41201E11
:10021000A4F10104DFDC484631462A464346BDE8E6
:10022000F09F2DE9FE4F804681EA0300C00F0C4687
:10023000009021F0004123F00045B8EB0200A941F5
:1002400005D24046214690461C460B46024623F006
:100250000040104347D0270DC7F30A00C3F30A51EB
:100260000290401A019040286BDAC3F3130040F467
:10027000801B0098924620B10023D2EB030A63EB67
:100280000B0B01985946C0F14002504600F096F918
:1002900006460D4650465946019A00F0AEF910EB5D
:1002A00008006141002487EA115284EAE7731A4387
:1002B00040D0009A62B3019A012A4FEA075215DC36
:1002C000001B61EB02014FF0004202EA0752CDE948
:1002D0000042001C41F5801132462B4600F0E5F942
:1002E00003B0BDE8F08F40462146F9E7001B61EB03
:1002F0000201001C41F5801300185B412018A2F593
:10030000001747EB030140EAD570B6196D4111E0C3
:100310006D084FEA360645EAC0754FEA0752001BE2
:1003200061EB0201001C41F5801149084FEA3000E1
:100330000019514132462B4603B0BDE8F04F00F0A2
:10034000A5B90098012240000023D0EB020263EB24
:10035000E073009821464FEAE074B8EB000061EBCF
:100360000401E9E783F000435BE781F0004158E7CF
:100370002DE9FE4F81EA030404F0004421F000411E
:1003800000944FF0000B23F0004350EA01045ED0CC
:1003900052EA03045BD0C3F30A54C1F30A552C4458
:1003A000A4F2F3340194A0FB0254C1F3130141F40D
:1003B0008011C3F3130343F4801301FB024400FBD9
:1003C000034E840A970A44EA815447EA8357A4FB00
:1003D000076802958D0A05FB07854FEA932C04FBFD
:1003E0000C542705029D4FEA065847EA1637B5EB2D
:1003F00008056EEB070C870E920E47EA811742EA5A
:100400008312A7FB0201B6EB0B0164EB00042B0D7A
:1004100043EA0C335E1844EB1C50DA465146E7FBC6
:100420000201C5F313044FEA0B3343EA14534FEAB6
:100430000432019C43EA0603A4F10C040294009CDC
:10044000CDE900B400F031F903B0BDE8F08F002031
:100450000146F9E72DE9F04D81EA030404F0004B71
:1004600021F0004514464FF0000A23F0004150EA05
:10047000050220D054EA01021DD0C5F30A570246F6
:10048000C5F31303C1F31300C1F30A5640F48015FA
:1004900043F48013A7EB0608101BD64608F2FD387C
:1004A00073EB050002D308F1010801E092185B41EB
:1004B000B8F1000F03DA00200146BDE8F08D0020FE
:1004C0004FF48011064684460EE0171B73EB0507B8
:1004D00005D3121B63EB050306434CEA010C4908E4
:1004E0004FEA300092185B4150EA0107EDD152EA21
:1004F000030012D082EA040083EA0501084305D014
:10050000101BAB4106D20122002306E000224FF06F
:10051000004302E06FF0010253101AEB06004CEBAF
:10052000085110EB0A0041EB0B01BDE8F04D00F063
:10053000ADB800F0004230F000400AD0C10D01F526
:100540006071C0F3160042EA0151C208400711432E
:10055000704700200146704701F0004330B421F09D
:10056000004150EA010206D00A0DA2F56072C1F303
:100570001301002A02DC30BC00207047440F44EA1B
:10058000C104C100E01830BC00EBC25000F047B815
:1005900030B50B46014600202022012409E021FA53
:1005A00002F59D4205D303FA02F5491B04FA02F550
:1005B0002844151EA2F10102F1DC30BD202A04DB23
:1005C000203A00FA02F1002070479140C2F1200366
:1005D00020FA03F3194390407047202A04DB203AA5
:1005E00021FA02F00021704721FA02F3D040C2F153
:1005F00020029140084319467047202A06DBCB179A
:10060000203A41FA02F043EAE07306E041FA02F3CD
:10061000D040C2F12002914008431946704700299A
:10062000A8BF7047401C490008BF20F00100704778
:1006300010B4B0FA80FC00FA0CF050EA010404BFD8
:1006400010BC704749B1CCF1200421FA04F411FA2E
:100650000CF118BF012121430843A3EB0C01CB1D72
:100660004FEA00614FEA102042BF002010BC7047E3
:1006700000EBC35010440029A4BF10BC7047401CBD
:10068000490008BF20F0010010BC704710B5141ECF
:1006900073F1000408DA401C41F1000192185B413B
:1006A0001A4301D120F0010010BD2DE9F04D924612
:1006B0009B4611B1B1FA81F202E0B0FA80F2203229
:1006C0009046FFF77BFF04460F4640EA0A0041EAE6
:1006D0000B0153465A46084313D0114653EA010012
:1006E00019D0C8F140025046FFF777FF05460E4685
:1006F000504659464246FFF761FF084305D00120A6
:1007000004E020463946BDE8F08D0020054346EA66
:10071000E0762C4337430A986305E40AA0EB08000F
:100720000022FD0A44EA47540A3002D5002001465F
:10073000E9E7010510196941DDE90845001969413A
:10074000BDE8F04DA2E7C1F30A52C1F3130140F234
:10075000FF3341F480119A4202DA002001467047CB
:1007600040F233439A42A2F2334202DC5242FFF794
:1007700034BFFFF723BF000030B5041E71F1000441
:1007800004DB4FF00044404264EB0101141E73F19E
:10079000000405DB1C464FF00043524263EB0403A8
:1007A000994208BF904230BD064C074D06E0E06814
:1007B00040F0010394E8070098471034AC42F6D3A8
:1007C000FFF7E6FCE8A3000808A400080146806BD8
:1007D000036C026C13F0500F08D0D20648BF00F033
:1007E000FDB9806BC26C0846104700BF42F400712F
:1007F000016401688A6812F0405F01D000F0E8B837
:10080000027E002AFAD1CA6A12F4700F02D08A68F6
:100810005205F3D44A6822F020024A60016C21F4A8
:1008200080710164016CC90448BF00F0D1B8016C4B
:1008300041F00101016400F0CBB80000806B402161
:100840000164416C41F00401416400F0C7B900004B
:10085000806B00F0C1B90000FEE7000040F6AC502C
:10086000C2F2000000F094BB704700004FF400405B
:1008700000F09CBD042000F099BD0000EFF3108053
:1008800072B600BFFEE7000070B581B00022009292
:1008900090F83C20012A03D10221084601B070BD26
:1008A0000E6801220A2E80F83C2009D3B2B2520011
:1008B000D0F800E012FA86F21E3A0EF10C0305E0C1
:1008C000D0F800E006EB46020EF110034FF0070CE3
:1008D0001D680CFA02F4A5431D608D681C6805FABA
:1008E00002F222431A60496806290FD801EB810100
:1008F0004A1F71461F2351F8345F934025EA0303D2
:100900000B60B3B203FA02F214E000BF01EB810303
:100910000C29B2B204D8714651F8304F233B03E0A2
:10092000714651F82C4F413B1F259D4024EA050597
:100930009A400D600B6842F2043CC4F2010C1A4369
:10094000ACF541739E450A603BD1122E06D1DCF80E
:10095000001041F48001CCF8001032E026F00101D3
:1009600010292ED1DCF80010102E41F40001CCF833
:10097000001026D140F25001C2F2000109684DF684
:100980008362C4F21B32A1FB0212910C01EB8101C4
:10099000490000910099A1B1009901390091009995
:1009A00079B1009901390091009951B1009901394B
:1009B0000091009929B1009901390091009900290D
:1009C000EAD1002180F83C10084601B070BD00005B
:1009D0002DE9F0412DED048B006842F20001C4F2D4
:1009E0000101884204D0BDEC048BBDE8F08100BF5A
:1009F00040F6B400C2F20000743000226FF01D0116
:100A00000027002350F8746C50F8705C32442F4477
:100A100050F86C6C50F8685C33442A4450F8646CAD
:100A200050F8605C37442B4450F85C6C50F8585CCC
:100A300032442F4450F8546C50F8505C33442A44EC
:100A400050F84C6C50F8485C37442B4450F8446CD8
:100A500050F8405C32442F4450F83C6C50F8385CFD
:100A600033442A4450F8346C50F8305C37442B44FB
:100A700050F82C6C50F8285C32442F4450F8246C09
:100A800050F8205C33442A4450F81C6C50F8185C31
:100A900037442B4450F8146C50F8105C32442F4407
:100AA00050F80C6C50F8085C33442A4450F8046C3D
:100AB00005681E3137442B44B1F5877F00F178007B
:100AC000A0D348F21F50C5F2EB10A2FB0012A7FB07
:100AD0000017A3FB0001500900EE100A7809B8EED8
:100AE000400A01EE100A4809B8EE419A01EE100AD8
:100AF00010EE100AB8EE418AFFF71BFD9FED2C0B9C
:100B000054EC105B2A462346FFF732FC9FED2A0B7C
:100B100056EC107B3A463346FFF72AFCFFF71CFDE4
:100B200040F25C08C2F20008C8F8000019EE100A92
:100B3000FFF7FFFC2A462346FFF71AFC3A463346E6
:100B4000FFF716FCFFF708FDC8F8040018EE100ABE
:100B5000FFF7EFFC2A462346FFF70AFC3A463346E6
:100B6000FFF706FCFFF7F8FCC8F80800FFF7E1FC08
:100B70009FED130B53EC102BFFF753FB9FED120B64
:100B800053EC102BFFF766FC9FED110B53EC102B71
:100B9000FFF747FBFFF7E0FC40F25801C2F200010B
:100BA0000860BDEC048BBDE8F08100BF00BF00BF52
:100BB0006666666666660A40000000000000303F18
:100BC00052B81E85EB51E8BF000000000000044051
:100BD000000000000000394070470000704700002E
:100BE000002804BF0120704710B50446006C00289F
:100BF0003ED0206CC00645D4206C41F202118843DF
:100C0000023042F204312064C4F20101086820F489
:100C1000403008600A6894E809101A43D4F810E0DC
:100C20000A604168012321F4807141604168C0F687
:100C3000007341EA0E214160416821F0407141603A
:100C4000416841EA0C014160816821F400618160E2
:100C5000E168826811438160A16A8268994222F04A
:100C600070628260826813D122F0405119E000BFA7
:100C7000204600F065F80020606484F83C00206C99
:100C8000C006B9D50120002184F83C1010BD00BF7A
:100C900011438160816821F040518160E16A82687E
:100CA00011438160816821F0020181608168227EA8
:100CB00094F8203041EA42018160416883B141F4F7
:100CC0000061416041684EF2000221F460414160E0
:100CD000616ACFF6FF72436802EB4131194301E0CC
:100CE00021F400614160C16A40F2000C21F47001FE
:100CF000C162E2696169CFF6F07CC36A0CEB025213
:100D00001A43C262826822F40072826094F8302032
:100D1000836843EA42228260826822F480628260B1
:100D2000826842EA8121816000206064216C012296
:100D300062F301012164002184F83C1010BD000021
:100D400070B586B0044642F200002168C4F201008A
:100D5000002681420596049602D006B070BD00BF01
:100D600043F630010096C4F202014A6900F568407A
:100D700042F480724A614A6902F480720092009AD9
:100D800000960A6842F004020A60096801F0040152
:100D9000009100990321CDE9011101A9039600F00A
:100DA00011FB40F6AC5546F21040C2F20005C4F209
:100DB00002004FF48061C5E9000605F110004FF410
:100DC00080524FF480434FF4807C80E80E104FF443
:100DD0004030C5E908062846C5E9026600F0B8F9C2
:100DE000002818BFFFF74AFDA563AC6306B070BDCD
:100DF000B0B582B004460020019094F83C00012870
:100E000002D1022002B0B0BD94460A4601202168FA
:100E100084F83C008868C00729D188684DF683654E
:100E200040F00100886040F25000C2F2000000680B
:100E3000C4F21B35A0FB0505A80C00EB4000019097
:100E40000198A0B1019801380190019878B10198FA
:100E500001380190019850B1019801380190019832
:100E600028B101980138019001980028EAD18868DA
:100E7000C00503D5886820F4807088608D68206C78
:100E8000ED0709D140F010002064606C40F00100D3
:100E90006064002002B0B0BD40F20175A84300F5C7
:100EA000807020644868400504D5206C012565F3F6
:100EB0000D302064256C0020ED044FF0000544BF88
:100EC000656C25F00605656484F83C00A06B40F273
:100ED000CD7540F65103C0F60005C0F60003C0E929
:100EE0000F5340F63D03C0F60003C3646FF02203C6
:100EF0000B604B6842F2080543F080634B608B68DF
:100F0000C4F2010543F480738B604C31634600F0FA
:100F1000D1F9D5F8FC122068C9060FD0A5F1080157
:100F20008842B6D1286810F0405FB2D1286840F0FE
:100F300080402860002002B0B0BD00BF42F2000136
:100F4000C4F20101884217D042F20021C4F201012B
:100F500088420DD042F20011C4F20101884298D1BA
:100F6000D5F8FC12C90607D005F5FC71884290D16E
:100F7000D5F8FC12C9068CD4816811F0405F7FF46B
:100F800088AF816841F080418160002002B0B0BD2F
:100F9000F0B581B004460020009040F25000C2F24B
:100FA00000000268D4E9166048F2B51337680821DA
:100FB000C1F64E3381403942A2FB03250CD0226892
:100FC00013685B0708D5136823F004031360B1604E
:100FD000616D41F00101616501218140394208D014
:100FE00022685269120604D5B160616D41F00201B8
:100FF000616504218140394208D022681268920755
:1010000004D5B160616D41F004016165102181403A
:10101000394217D020680268120713D5B160026800
:101020000168520308D4C90508D4016821F00801F9
:101030000160216C21B905E008033FD4216C09B19E
:1010400020468847E16D202000FA01F23A4241D063
:1010500020680368DB063DD5B26094F8353002683D
:10106000052B1BD122F016020260426922F0800299
:101070004261226C0AB9A26C1AB1026822F008021D
:1010800002603F208840B060012084F83500216D67
:101090000020002984F8340052D157E0016852033F
:1010A00010D4C90512D4016821F01001016001209B
:1010B00084F83500002084F8340007E0A16C002992
:1010C000BED1BFE7080301D4616C00E0E16B09B158
:1010D00020468847606DC8B3606DC0072ED00520DC
:1010E00084F835002068A90A026822F00102026033
:1010F000009A01328A4200921AD80268D20717D0A9
:10110000009A01328A42009212D80268D2070FD0A8
:10111000009A01328A4200920AD80268D20707D0A8
:10112000009A01328A42009202D80268D207DFD1C7
:10113000012084F83500002084F83400E16C29B1E6
:10114000204601B0BDE8F040084700BF01B0F0BD47
:101150002DE9F041044600F01DFAECB105460220ED
:1011600084F835000020216884F83400086820F0F5
:101170000100086021680868C00711D000F00AFA71
:10118000401B0528F6D9032520230320636584F836
:101190003550BDE8F08100BF0120BDE8F08100BFFF
:1011A000086848F23F02CFF21002D4E9013500EAA4
:1011B000020C04F10C0898E8C10143EA0C032B432C
:1011C0001843D4E9072E304338431043626A40EA9B
:1011D0000E00042A40EA08031CD1206BD4E90A2E31
:1011E00040EA0E00184308604869BEF1000F20F085
:1011F000030040EA020040F0040C11D0B8F5005F93
:1012000036D0B8F1000F45D1022A46D0012A3BD092
:1012100032B942E00B60486920F0070040EA020C56
:1012200001F0F8004AF6AB221038CAF6AA22A0FB59
:1012300002231A094AF2B033C0F600039A5C40F266
:10124000FF335F284FF03F00C1F814C021EA0301CB
:1012500000FA02F088BF0431C4E916128860002346
:1012600001250020636584F83550BDE8F08100BF9A
:10127000032AD5D8012540230120DFE802F0030E20
:10128000030500BF82E700BFAEF1C070B0FA80F086
:10129000400904E0032A04D3C2D1CEF30060002841
:1012A000BED0012540230120636584F83550BDE898
:1012B000F081000070B590F834C0BCF1010F46D049
:1012C0004FF0010C80F834C0D0F858E090F835C0E9
:1012D000BCF1010F38D14FF0020C80F835C04FF04F
:1012E000000CC0F854C0D0F800C08468056CC06D14
:1012F000DCF80060402C26F48026CCF80060CCF8A6
:1013000004300B4604BF13460A463F2101FA00F0A1
:10131000CCF80830CCF80C20CEF80800DCF800003F
:1013200040F01600CCF800002DB1DCF8000040F0D1
:101330000800CCF80000DCF8000040F00100CCF818
:101340000000002070BD00BF002180F83410022092
:1013500070BD0000B0B5044600F01CF9054640F22F
:101360000000C2F200000078611C18BF044400BFF6
:1013700000F010F9401BA042FAD3B0BD10B504280C
:1013800018BF10BD40F60004C4F2020404F58050FA
:10139000042100F0EBF808B110BD00BF20464FF467
:1013A0000051BDE8104000F0E7B8000043F61441DA
:1013B000C4F201010A68024214BF08607047FFF7D7
:1013C000DDBF00002DE9F04F82B000F13E4241F652
:1013D000004502F1FF77C4F20205082243F6004EF1
:1013E0004FEAB726A84208BF0722C4F2010E072E13
:1013F00038BF4FEAB7220125002600274FF000082A
:10140000009208E008F101080437B8F1100F06F166
:10141000020600F0A7800C6805FA08F914EA090F23
:10142000F0D0D1F804B003220BF0030CACF10104AE
:10143000B240012C6FEA020A10D88268CC6802EA36
:101440000A02B440224382604268CBF3001422EACD
:10145000090204FA08F42243426005E0BCF1030FDC
:1014600002D14FF0030C20E0C2688C6802EA0A0245
:10147000B4402243BCF1020FC26016D16FF00302E8
:1014800002EA58020244D2F820C007F01C050F23DC
:101490000C69AB402CEA030304FA05F52B431362F5
:1014A000D1F804B001250BF0030C02680CFA06F326
:1014B00002EA0A021A431BF4403F0260A2D0002253
:1014C00043F644030192C4F202031A684FF6084C33
:1014D00042F480421A601A68CFF6FF7C02F4804220
:1014E0000192019A28F00302724452F80C3007F07E
:1014F0000C050F24AC40A343009C04FA05F52B43D4
:1015000042F80C30DEF808204B6842EA090543F641
:101510000C4CDC0258BF22EA0905CEF80850C4F290
:10152000010CDCF800209C0242EA090558BF22EABF
:101530000905CCF80050DEF804209C0342EA0905B6
:1015400058BF22EA0905CEF80450DEF80020DB037C
:1015500042EA090558BF22EA0905CEF800500125E4
:1015600050E700BF02B0BDE8F08F000000690840FE
:1015700018BF012070470000426902EA010391434D
:1015800041EA034181617047002A08BF0904816173
:101590007047000040F6AC60C2F20000006870477F
:1015A00040F2000040F6AC61C2F20000C2F200015D
:1015B00000780A68104408607047000080B543F660
:1015C0000040C4F20200016841F40071016001684A
:1015D00041F480610160016841F480710160032081
:1015E00000F088F80F2000F005F800F027F8002040
:1015F00080BD000070B540F20006C2F2000640F265
:1016000050013278C2F200014FF47A730968B3FBDB
:10161000F2F20446B1FBF2F1084600F00FFC0F2C89
:101620004FF0010508D838B94FF0FF3021460022AD
:10163000002500F033F87460284670BD82B00020A9
:1016400043F640010190C4F202014A6842F480422C
:101650004A604A6802F480420192019A0090086848
:1016600040F080500860086800F0805000900098BA
:1016700002B07047002848BF7047C1B200F01F0099
:10168000012202FA00F04EF20012CEF2000242EA0B
:10169000D10121F0030108607047000010B54EF63B
:1016A0000C5CCEF2000CDCF80030C3F3022E8EF09E
:1016B0000704042C28BF0424BEF103034FF0FF3EAF
:1016C0000EFA04F438BF0023A14399400EFA03F345
:1016D0009A43114300F00F0200F160430901043AFC
:1016E00003F564436244002848BF02F10C031970FB
:1016F00010BD00004EF60C51CEF200010A684FF604
:10170000FF031A4060F30A2242F0806040F0FD704F
:10171000086070472DE9F041002800F08B8043F607
:101720000808C4F202080446D8F8F8030D4600F091
:101730000700884207D288F8F853D8F8F80300F079
:101740000700A84276D12068810717D5410705D543
:10175000D8F8001041F4E051C8F80010010705D591
:10176000D8F8001041F46041C8F80010D8F8001013
:10177000A26821F0F0011143C8F80010C0073FD162
:10178000D8F8F80300F00700A84207D988F8F85302
:10179000D8F8F80300F00700A8424BD120684107B1
:1017A00007D5D8F80010E26821F4E0511143C8F8D9
:1017B0000010000708D5D8F80000216920F4604027
:1017C00040EAC100C8F8000000F054F8D8F8001052
:1017D00044F68C62C1F30311C0F60002515C40F282
:1017E000500220FA01F140F20400C2F20000006849
:1017F000C2F200021160FFF7FDFE0020BDE8F0819B
:101800006068811E022907D258F8081C89015CBF54
:101810000120BDE8F08111E0012807D158F8081C2B
:1018200089035CBF0120BDE8F08107E058F8081C7F
:10183000890703D40120BDE8F08100BFD8F800106B
:1018400021F003010843C8F80000FFF7A3FE064695
:1018500041F28837D8F80000616800F00C00B0EB66
:10186000810F8DD0FFF796FE801BB842F2D903207E
:10187000BDE8F08110B543F60404C4F202046068C8
:1018800000F00C0008280BD0042819BF42F20040D9
:10189000C0F2F40047F64000C0F27D1010BD00BF5A
:1018A000206821682368490247F64001C0F27D1193
:1018B00000F03F02C3F388105CBF42F20041C0F267
:1018C000F401A1FB00010023FEF77AFC216802224B
:1018D000C1F3014102EB4101B0FBF1F010BD00008A
:1018E0002DE9F04182B0002868D00446007843F624
:1018F0000006C007C4F202060BD0B06800F00C006E
:10190000042840F09F803068800302D5606800287A
:1019100054D0207880071AD5B06810F00C0F09D089
:10192000B06800F00C00082840F0A6807068400203
:1019300000F1A2803068800702D5E06801283DD11F
:101940003068216920F0F80040EAC100306020785A
:10195000000737D4207840074CD4A56955B3B06848
:1019600000F00C00082840F0BB80012D26D07068E4
:10197000E16900F480028A4220D1216A00F03F022E
:101980008A421BD147F6C071626A0140B1EB821FE7
:1019900014D1A16A4FF6FF73C903994300F4403292
:1019A000A1F580318A4209D1E16A00F07060B0EBA4
:1019B000016F03D1002002B0BDE8F081012002B028
:1019C000BDE8F0816069002840F20000C4F24720C1
:1019D00076D00121C0F8801EFFF7DCFD054600BF70
:1019E000706F8007B6D4FFF7D5FD401B0228F7D9EA
:1019F000DDE000BF306C10F080580AD1002001906B
:101A0000306C40F080503064306C00F080500190B9
:101A1000019847F20007C4F200073868C00541D4B6
:101A2000386840F480703860FFF7B4FD054600BFA9
:101A30003868C00536D4FFF7ADFD401B0228F7D942
:101A4000B5E000BFB06800F00C00082803D1706852
:101A500040023FF558AF6068B0F5803F07D0B0F561
:101A6000A02F40F08D80306840F4802030603068D6
:101A700040F4803030608DE0E068002852D00020D3
:101A8000C4F2472001210160FFF784FD054600BF35
:101A9000306880073FF554AFFFF77CFD401B0228FC
:101AA000F6D984E0A068012805D005284ED1306F12
:101AB00040F004003067306F40F0010030674FE0C5
:101AC0000021C0F8801EFFF765FD0546706F800796
:101AD0007FF540AFFFF75EFD401B0228F6D966E0B8
:101AE0000027C4F2472700203866FFF753FD022D78
:101AF00005460BD1306880015ED5FFF74BFD401BDA
:101B000002284FF00300F5D955E700BF3068800187
:101B10007FF550AFFFF73EFD401B02284FF003005A
:101B2000F4D948E70020C4F2472000210160FFF704
:101B300031FD0546306880077FF509AFFFF72AFDC4
:101B4000401B02284FF00300F4D934E7316F00281E
:101B500021F001013167316F21F0040131674DD06F
:101B6000FFF718FD054641F2883700BF306F800748
:101B700056D4FFF70FFD401BB842F7D917E000BF5E
:101B80003168002821F480313160316821F48021EE
:101B900031604FD0FFF7FEFC054600BF3068800380
:101BA0003FF5B7AEFFF7F6FC401B6428F6D90320DB
:101BB00002B0BDE8F08100BF04F11C052FCD084341
:101BC00040EA8210D9034FF6FF729143A1F58031AC
:101BD00040EA05600843706001203866FFF7DAFCD0
:101BE000044600BF306880013FF5E4AEFFF7D2FC49
:101BF000001B02284FF00300F4D9DCE6FFF7CAFC13
:101C0000054641F2883700BF306F800708D5FFF7DF
:101C1000C1FC401BB8424FF00300F5D9CBE600BF32
:101C2000B8F1000F7FF499AE306C20F08050306432
:101C300093E600BFFFF7AEFC054600BF30688003A7
:101C40007FF567AEFFF7A6FC401B64284FF003004A
:101C5000F4D9B0E670B538B10446406A30B100201E
:101C6000206104F1140007E0012070BD6068B0F548
:101C7000827F03D004F11C00002101600026A662CF
:101C800094F8510020B9204684F8506000F03CF8E8
:101C9000022084F8510094E80F0001F48271056875
:101CA00002F4044225F040050560114403F400628B
:101CB0002369114403F002026369114403F0010235
:101CC000A369E569114403F40072114405F0380278
:101CD000256A114405F08002A56A114305F40052FB
:101CE00011430160626A042101EA134102F010020B
:101CF00011444160C16921F40061C1610120666540
:101D000084F85100304670BD2DE9F04385B040F6AF
:101D10000044C4F202040068A4F5E831884203D00C
:101D200005B0BDE8F08300BF002743F63000009700
:101D3000C4F202000169A4F5006641F400410161AA
:101D400001696D4601F40041009100990097016816
:101D50004FF0020841F002010160016801F0020148
:101D6000009100990097016841F00201016001684B
:101D700001F00201009100990097016841F008010B
:101D80000160016801F00801009100990097016865
:101D900041F008010160016801F00801009100991B
:101DA0000097016841F0080101600068294600F0D1
:101DB000080000900098082000900320039006205F
:101DC00004903046CDE90187FFF7FCFA202000900F
:101DD00030462946FFF7F6FA012601A84FF40069BC
:101DE00080E8C00120462946CDF80090FFF7EAFAC6
:101DF0004FF400508DE8C100204629460397FFF7B5
:101E0000E1FA4FF480508DE8C10120462946FFF7E2
:101E1000D9FA20464FF480510122FFF7B5FB40F676
:101E20001840C4F20200C0F8009020464FF4005160
:101E30000022FFF7A9FB05B0BDE8F083411E00209A
:101E4000B0EB116F1CBF012070474EF21002CEF2B2
:101E5000000251604EF62351CEF20001F0230B70C8
:101E600007219060116070477047000070470000C4
:101E700010B590F83C20012A4FF0020251D080F8B2
:101E80003D200268D2F804E0D2F808C00C682EF0B9
:101E90007003234341F2FF74C4F20004A242536072
:101EA0000EDC40F2FF73C4F200039A4216DCB2F17A
:101EB000804F2BD040F20043C4F2000324E000BF67
:101EC00040F2FF33C4F201039A4213DC41F60003EF
:101ED000C4F200039A4219D0002313E040F6000335
:101EE000C4F200039A4211D040F60043C4F200034A
:101EF0000AE000BF44F20003C4F201039A4205D095
:101F000040F20043C4F201039A4204D149682CF024
:101F10008003194391600121002280F83D1080F870
:101F20003C20104610BD0000002804BF012070476F
:101F300010B5044690F83D0028B9002084F83C0014
:101F4000204600F01FF8022084F83D002068211D83
:101F500002F00AFA012084F8460084F83E0084F872
:101F60003F0084F8400084F8410084F8420084F87F
:101F7000430084F8440084F8450084F83D000020C4
:101F800010BD000080B582B000680021C4F20101DC
:101F900088421CBF02B080BD0020019043F644007F
:101FA000C4F202000168002241F0010101600068F2
:101FB000022100F00100019001981920FFF76EFB4B
:101FC000192002B0BDE88040FFF754BB90F83D10E7
:101FD00001291CBF01207047022180F83D100068D4
:101FE00041F2FF72C168C4F20002904241F0010167
:101FF000C1600DDC40F2FF71C4F20001884215DCC3
:10200000B0F1804F2AD040F20041C4F2000123E039
:1020100040F2FF31C4F20101884213DC41F60001B5
:10202000C4F20001884219D0002113E040F60001FB
:10203000C4F20001884211D040F60041C4F2000110
:102040000AE000BF44F20001C4F20101884205D059
:1020500040F20041C4F20101884206D1816801F0DA
:102060000701062904BF00207047016841F0010103
:10207000016000207047000080B590F83C20012AE4
:102080004FF0020200F0C28080F83D20D0F800C07E
:102090004FF67772DCF8083023EA0202CCF8082009
:1020A0000B684F2B28DC1F2B44DD202B45D0302B19
:1020B00043D0402B40F0AC80D1F804E0C968DCF894
:1020C0002030DCF8202022F00102CCF82020DCF8BF
:1020D000182022F0F00242EA011123F00A0242EA3B
:1020E0000E02CCF81810CCF82020DCF8081041F0D3
:1020F000470121F0300180E06F2B27DDB3F5005F51
:1021000048D0B3F5805F7AD0702B40F08180D1E960
:1021100001E3C968DCF8082043EA0E0322F47F4299
:1021200043EA01211143CCF80810DCF8081041F013
:10213000770162E00BB1102B6AD1DCF8081021F0B6
:102140007001194341F0070157E000BF502B35D013
:10215000602B5DD1D1F804E0C968DCF8203023F0B1
:102160001003CCF82030DCF81830DCF8202023F401
:10217000704322F0A00243EA013142EA0E12CCF889
:102180001810CCF82020DCF8081041F0670121F08D
:10219000100132E0D1E901E3C968DCF8082043EA24
:1021A0000E0322F47F4243EA01211143CCF80810C8
:1021B000DCF8081041F480411FE000BFD1F804E0D2
:1021C000C968DCF82030DCF8202022F00102CCF8CD
:1021D0002020DCF8182022F0F00242EA011123F05E
:1021E0000A0242EA0E02CCF81810CCF82020DCF8E3
:1021F000081041F0570121F02001CCF8081000220E
:10220000012180F83D10002180F83C10104680BD6F
:102210000122F5E77047000010B50168044608691F
:10222000800744BFC8685FEA807039D408694007F6
:1022300044BFC8685FEA40703ED40869000744BFE5
:10224000C8685FEA007045D40869C00644BFC86822
:102250005FEAC0604AD40869C0071CBFC8685FEA6B
:10226000C07051D10869000644BFC8685FEA0060C9
:1022700052D40869400644BFC8685FEA406053D43E
:102280000869800646BFC8685FEA806010BD6FF0CD
:10229000200220460A61BDE81040FFF7E7BD00BFFD
:1022A0006FF002000861012020778869800743D021
:1022B0002046FFF7AFFF45E06FF004000861022001
:1022C0002077886910F4407F40D02046FFF7A2FFB6
:1022D00042E000BF6FF00800086104202077C86961
:1022E00080073DD02046FFF795FF3FE06FF01000DC
:1022F000086108202077C86910F4407F3AD0204652
:10230000FFF788FF3CE000BF6FF001000861204646
:1023100000F03EF82168A5E76FF0800008612046D4
:10232000FFF7A2FD2168A4E76FF040000861204696
:1023300000F030F82168A3E7204600F025F8204699
:1023400000F024F82168002020776FE7204600F095
:102350001BF8204600F01AF82168002020776CE76F
:10236000204600F011F8204600F010F82168002007
:10237000207769E7204600F007F8204600F006F8CD
:1023800021680020207766E7704700007047000052
:102390007047000070470000FEE700002DE9F04F95
:1023A00083B040F61847C4F202074FF0006340F2D2
:1023B0009C063B60C2F20006336840F2B40A1F89F3
:1023C000C2F2000A002F0291019000F09780203A9B
:1023D0001868D6E9029B5FFA82FE002200240025DD
:1023E00007FB0E0616F80280AEB25FEAC8774F46CA
:1023F00008BF5F462AF81670661C9F881FFA86FC85
:10240000BC4505F1010759D05FEA8876BFB24E4658
:1024100058BF5E462AF81760A61C9F88B1B2B94221
:1024200005F102074AD0B9B25FEA48774F4658BF74
:102430005F462AF81170E61C9988B7B28F4205F101
:1024400003073BD0B9B25FEA08774F4658BF5F46F3
:102450002AF81170261D9988B7B28F4205F104073A
:102460002CD0B9B25FEAC8674F4658BF5F462AF81A
:102470001170661D9988B7B28F4205F105071DD00E
:10248000B9B25FEA88674F4658BF5F462AF81170B5
:10249000A61D9988B7B28F4205F106070ED0B9B2D2
:1024A0005FEA48674F4658BF5F462AF81170E61D3D
:1024B0009988B7B28F4205F1070707D100243D463E
:1024C0001F890132BA428BD319E000BF4FFA88F658
:1024D000BFB2002E4E4658BF5E462AF8176004F180
:1024E00008019E888FB20835BC1B18BF0C461F8997
:1024F0000132BA42FFF474AF01E000BF9E88019838
:10250000DA8881194F1E02990A44531EBAB29BB24F
:1025100000F0BCFA40F29C00C2F20000016840F6F4
:102520000C60C2F2000000688A88C98803684FF610
:10253000BF773B400360036840F6184543F40063EF
:102540000360076801FB02F347F0400101604FF0B0
:1025500000611A04C4F20205296031D04FF0FF3245
:1025600012FA83F200F10801032A03F0030249D2B0
:1025700000232AB33AF81370C7600F68BF0709D465
:102580000F68BF075CBF0F685FEA877702D40F68E8
:10259000BF07F2D5012A13D00AEB43035F88C76057
:1025A0000F68BF0709D40F68BF075CBF0F685FEAF9
:1025B000877702D40F68BF07F2D5022A74D100BF13
:1025C0008168090609D58168090644BF81685FEA08
:1025D000016102D581680906F2D44FF400612960D7
:1025E00001684FF6BF721140016001684FF2FF723F
:1025F00011400160016841F04001016003B0BDE895
:10260000F08F00BF9BB223F00307002303E000BF5D
:102610000433BB42ADD03AF81360C6600E68B6070B
:102620000AD40E68B6075CBF0E685FEA867603D4EC
:102630000E68B607F2D500BF43F001063AF81660FF
:10264000C6600E68B60709D40E68B6075CBF0E6890
:102650005FEA867602D40E68B607F2D543F002062A
:102660003AF81660C6600E68B60709D40E68B60759
:102670005CBF0E685FEA867602D40E68B607F2D5B4
:1026800043F003063AF81660C6600E68B607BFD47A
:102690000E68B6075CBF0E685FEA8676B8D40E682F
:1026A000B607F2D5B4E700BF9A88C2600A689207FD
:1026B0003FF586AF0A6892075CBF0A685FEA8272DC
:1026C0003FF57EAF0A689207F0D579E72DE9F04F24
:1026D00081B0009140F29C01C2F20001D1F8049057
:1026E0001778D9F800A0B9F8085000244FF0010C71
:1026F00007E000BF0BF10204B9F80A30A6B29E420F
:102700000FD21CFA84F606FB05F31AF803301FFA01
:1027100084FBBB42EED106FB05A356785B78B3423F
:10272000E8D1002D00F09A80D1E902E140F2B40C2A
:10273000002400274FF00008C2F2000C0BFB05A29A
:102740007E1C155D1FFA88F2EB07734608BF0B4627
:102750002CF81230B9F80420B3B2934208F1010208
:102760005AD0AB0792B2734658BF0B462CF81230C2
:10277000BE1CB9F80420B3B2934208F102024BD058
:102780006B0792B2734658BF0B462CF81230FE1CF2
:10279000B9F80420B3B2934208F103023CD02B07EE
:1027A00092B2734658BF0B462CF812303E1DB9F852
:1027B0000420B3B2934208F104022DD0EB0692B28A
:1027C000734658BF0B462CF812307E1DB9F8042012
:1027D000B3B2934208F105021ED0AB0692B2734623
:1027E00058BF0B462CF81230BE1DB9F80420B3B206
:1027F000934208F106020FD06B0692B2734658BF9F
:102800000B462CF81230FE1DB9F80420B3B29342E7
:1028100008F1070208D100BF00279046B9F8085018
:102820000134AC428AD31BE06DB292B2002D7546E2
:1028300058BF0D462CF8125007F10803B9F8046090
:102840009AB208F10808971B18BF1F46B9F808503C
:102850000134AC42FFF472AF02E000BFB9F804608B
:10286000B9F80630009982190B44013A013B40F651
:10287000184492B29BB2C4F2020400F007F940F28D
:102880009C00C2F20000416840F60C60C2F20000F9
:1028900000688A88C98803684FF6BF773B400360A9
:1028A000036840F2B40543F400630360076801FB6A
:1028B00002F347F0400101604FF000611A04C2F2D8
:1028C0000005216030D04FF0FF3212FA83F200F1A0
:1028D0000801032A03F0030248D2002322B335F88B
:1028E0001370C7600F68BF0709D40F68BF075CBFCC
:1028F0000F685FEA877702D40F68BF07F2D5012A15
:1029000012D005EB43035F88C7600F68BF0709D487
:102910000F68BF075CBF0F685FEA877702D40F6854
:10292000BF07F2D5022A73D18168090609D58168EB
:10293000090644BF81685FEA016102D58168090622
:10294000F2D44FF40061216001684FF6BF7211406C
:10295000016001684FF2FF7211400160016841F0AF
:102960004001016001B0BDE8F08F00BF9BB223F0D1
:102970000307002303E000BF0433BB42AED035F8A9
:102980001360C6600E68B6070AD40E68B6075CBF4F
:102990000E685FEA867603D40E68B607F2D500BFEC
:1029A00043F0010635F81660C6600E68B60709D414
:1029B0000E68B6075CBF0E685FEA867602D40E68C2
:1029C000B607F2D543F0020635F81660C6600E6809
:1029D000B60709D40E68B6075CBF0E685FEA867654
:1029E00002D40E68B607F2D543F0030635F8166038
:1029F000C6600E68B607BFD40E68B6075CBF0E6827
:102A00005FEA8676B8D40E68B607F2D5B4E700BFA1
:102A10009A88C2600A6892073FF586AF0A689207F3
:102A20005CBF0A685FEA82723FF57EAF0A68920770
:102A3000F0D579E72DE9F04115461278002A08BF54
:102A4000BDE8F08140F29C08C2F200080C46064640
:102A500008F104070DE000BFB0B221462A46FFF797
:102A600035FE0220394609682A5C898805440E44EF
:102A700052B150B20028EFD4B0B2D2B22146FFF723
:102A80008DFC01204146EEE7BDE8F0812DE9F047DD
:102A900040F600448946C4F202044FF0006140F65B
:102AA0000C66A161C2F200063168984617460546D9
:102AB0008868000609D58868000644BF88685FEA10
:102AC000006002D588680006F2D420464FF4805199
:102AD0000022FEF759FD30682A21C160816889070C
:102AE0000AD4816889075CBF81685FEA817103D479
:102AF00081688907F2D500BF8168090609D5816818
:102B0000090644BF81685FEA016102D58168090650
:102B1000F2D420464FF480510122FEF735FD40F2F9
:102B20009C0AC2F2000A9AF81610481982B230685C
:102B3000130AC36083689B0709D483689B075CBF43
:102B400083685FEA837302D483689B07F2D5C2600F
:102B50008268920709D4826892075CBF82685FEA44
:102B6000827202D482689207F2D5394489B20A0A85
:102B7000C2608268920709D4826892075CBF82684B
:102B80005FEA827202D482689207F2D5C1608168DE
:102B9000890709D4816889075CBF81685FEA817110
:102BA00002D481688907F2D58168090609D5816850
:102BB000090644BF81685FEA016102D581680906A0
:102BC000F2D420464FF480510022FEF7DDFC30683D
:102BD0002B21C160816889070AD4816889075CBF9D
:102BE00081685FEA817103D481688907F2D500BFEB
:102BF0008168090609D58168090644BF81685FEAD2
:102C0000016102D581680906F2D420464FF4805153
:102C10000122FEF7B9FC9AF8171001EB090082B205
:102C20003068130AC36083689B0709D483689B07D5
:102C30005CBF83685FEA837302D483689B07F2D525
:102C4000C2608268920709D4826892075CBF82687A
:102C50005FEA827202D482689207F2D5414489B257
:102C60000A0AC2608268920709D4826892075CBF30
:102C700082685FEA827202D482689207F2D5C160EC
:102C8000816889070AD4816889075CBF81685FEA27
:102C9000817103D481688907F2D500BF8168090674
:102CA00009D58168090644BF81685FEA016102D5E0
:102CB00081680906F2D420464FF480510022FEF7C5
:102CC00063FC30682C21C160816889070AD481685F
:102CD00089075CBF81685FEA817103D481688907D5
:102CE000F2D500BF8168090609D58168090644BF8D
:102CF00081685FEA016102D581680906F2D4204645
:102D00004FF480510122FEF73FFC306881680906CC
:102D100009D58168090644BF81685FEA016102D56F
:102D200081680906F2D44FF40060A061BDE8F08725
:102D30004FF478414FF4FC6201EA102102EA50128C
:102D4000C0F3C4001144084440F29C01C2F20001E7
:102D5000C86070474FF478414FF4FC6201EA1021DB
:102D600002EA5012C0F3C4001144084440F29C012E
:102D7000C2F200018860704770B540F6004440F22E
:102D80009C05C4F20204C2F200054FF00061032862
:102D90006874A16152D8DFE810F005005700A9005F
:102DA000F50000BF40F60C66C2F20006306881688C
:102DB000090609D58168090644BF81685FEA016197
:102DC00002D581680906F2D420464FF480510022D2
:102DD000FEF7DAFB30683621C1608168890709D4C3
:102DE000816889075CBF81685FEA817102D481686C
:102DF0008907F2D58168090609D58168090644BFAB
:102E000081685FEA016102D581680906F2D4204633
:102E10004FF480510122FEF7B7FB30687021C1608A
:102E2000816889075BD4816889075CBF81685FEA34
:102E3000817154D481688907F2D550E040F60C6066
:102E4000C2F200000068F0E040F60C66C2F2000634
:102E500030688168090609D58168090644BF816820
:102E60005FEA016102D581680906F2D420464FF479
:102E700080510022FEF788FB30683621C1608168EE
:102E8000890709D4816889075CBF81685FEA81711D
:102E900002D481688907F2D58168090609D581685D
:102EA000090644BF81685FEA016102D581680906AD
:102EB000F2D420464FF480510122FEF765FB3068C2
:102EC000A021C1608168890709D4816889075CBF36
:102ED00081685FEA817102D481688907F2D5142183
:102EE000E98240F21811C0F2F0019CE040F60C6655
:102EF000C2F2000630688168090609D581680906B2
:102F000044BF81685FEA016102D581680906F2D495
:102F100020464FF480510022FEF736FB3068362100
:102F2000C1608168890709D4816889075CBF8168AD
:102F30005FEA817102D481688907F2D58168090648
:102F400009D58168090644BF81685FEA016102D53D
:102F500081680906F2D420464FF480510122FEF721
:102F600013FB30680021C1608168890755D48168EE
:102F700089075CBF81685FEA81714ED481688907E7
:102F8000F2D54AE040F60C66C2F20006306881686D
:102F9000090609D58168090644BF81685FEA0161B5
:102FA00002D581680906F2D420464FF480510022F0
:102FB000FEF7EAFA30683621C1608168890709D4D2
:102FC000816889075CBF81685FEA817102D481688A
:102FD0008907F2D58168090609D58168090644BFC9
:102FE00081685FEA016102D581680906F2D4204652
:102FF0004FF480510122FEF7C7FA3068C021C1604A
:103000008168890709D4816889075CBF81685FEAA4
:10301000817102D481688907F2D54FF4A051E98209
:10302000F021C0F21811C5F812108168090609D5FF
:103030008168090644BF81685FEA016102D5816841
:103040000906F2D44FF40060A06170BD828840F29E
:103050009C010C3A4FEAB202C2F20001052A486014
:103060000AD8D0B22F2323FA00F0C00708BF704758
:1030700002A050F822000860704700BF080000203E
:1030800014000020200000202C0000200800002058
:103090003800002010B584B040F6645001220021B1
:1030A000C2F2000042F2000CC0F60072C4F2010C41
:1030B0004FF480330124C0E90A21032203910476EE
:1030C00080F82010C26180F83040C0E900C3C0E938
:1030D0000211C0E90441FDF783FD002818BFFDF788
:1030E000CDFB0A20CDE900040720029040F6645091
:1030F000C2F200006946FDF7C7FB002818BFFDF7C4
:10310000BDFB0B2000900220019040F66450C2F2FB
:1031100000006946FDF7B8FB002818BFFDF7AEFBBD
:10312000102000900320019040F66450C2F200008D
:103130006946FDF7A9FB002818BFFDF79FFB04B007
:1031400010BD000080B582B00020019043F6300031
:10315000C4F202000168002241F4800101600068AD
:10316000002100F48000019001983820FEF796FAC3
:10317000382002B0BDE88040FEF77CBAF0B587B0D9
:10318000002543F6300006950195C4F2020001685F
:1031900040F6000441F0040101600168C4F2020439
:1031A00001F004010191019901950168012241F0AA
:1031B0008001016001684FF4005601F08001019127
:1031C000019901950168012741F040010160016802
:1031D00001F04001019101990195016841F001015F
:1031E0000160016801F001010191019901950168F7
:1031F00041F00201016000684FF4005100F002004C
:10320000019001982046FEF7BFF9CDE9045502ADC3
:1032100020462946CDE90267FEF7D4F80420029043
:103220004FF4041604F580502946CDE90367FEF7F4
:10323000C9F84FF4004002A9C1C1A4F500602946B5
:10324000FEF7C0F8082001210022FEF727FA082027
:10325000FEF710FA282001210022FEF71FFA28208D
:10326000FEF708FA07B0F0BD10B540F60C6443F65F
:103270000040C2F20004C4F200004FF482714FF427
:10328000004200234FF4007C84E80F002046C4E98C
:103290000433C4E906C3C4E90833C4E90A33FEF7BA
:1032A000D9FC2068016841F040010160016841F4E7
:1032B0008041016010BD000080B586B040F66460BA
:1032C00000220021C2F20000C4F20102A72342F250
:1032D0000F7C4FF0800E0591CDE90311CDE900116F
:1032E000C0E90023C0E9021CC0E90411C0F818E0DD
:1032F000FEF71AFE002818BFFDF7C0FA4FF4805001
:10330000029040F66460C2F2000002A9FEF7B4FE2B
:10331000002818BFFDF7B2FA40F66460C2F2000060
:103320006946FEF7A5FD002818BFFDF7A7FA06B00D
:1033300080BD0000FEE70000FEE7000070470000CF
:103340002DE9F04381B040F60049C4F2020940F68D
:103350000C65A9F5E830C2F2000540F618484FF4B4
:1033600082714FF4004200234FF4007785E80F008C
:103370002846C4F20208C5E90433C5E90673C5E965
:103380000833C5E90A33FEF765FC2868016841F097
:1033900040010160016841F4804101600A20FDF7AD
:1033A000D9FF4FF00060C8F800002868816809065E
:1033B00009D58168090644BF81685FEA016102D5C9
:1033C00081680906F2D448464FF480510022FEF786
:1033D000DBF828683621C160816889070AD48168D2
:1033E00089075CBF81685FEA817103D481688907BE
:1033F000F2D500BF8168090609D58168090644BF76
:1034000081685FEA016102D581680906F2D4484605
:103410004FF480510122FEF7B7F828680021C160FF
:10342000816889070AD4816889075CBF81685FEA7F
:10343000817103D481688907F2D500BF81680906CC
:1034400009D58168090644BF81685FEA016102D538
:1034500081680906F2D448464FF480510022FEF7F5
:1034600093F828683A21C160816889070AD4816885
:1034700089075CBF81685FEA817103D4816889072D
:10348000F2D500BF8168090609D58168090644BFE5
:1034900081685FEA016102D581680906F2D4484675
:1034A0004FF480510122FEF76FF828680521C160B2
:1034B000816889070AD4816889075CBF81685FEAEF
:1034C000817103D481688907F2D500BF816809063C
:1034D00009D58168090644BF81685FEA016102D5A8
:1034E00081680906F2D448464FF480510022FEF765
:1034F0004BF82868B221C160816889070AD48168C5
:1035000089075CBF81685FEA817103D4816889079C
:10351000F2D500BF8168090609D58168090644BF54
:1035200081685FEA016102D581680906F2D44846E4
:103530004FF480510122FEF727F829680C20C8605B
:1035400001F108000268920709D4026892075CBF83
:1035500002685FEA827202D402689207F2D50C22F6
:10356000CA600268920709D4026892075CBF0268C9
:103570005FEA827202D402689207F2D50022CA6022
:103580000268920709D4026892075CBF02685FEA8A
:10359000827202D402689207F2D53322CA600268AE
:1035A000920709D4026892075CBF02685FEA8272E0
:1035B00002D402689207F2D53322CA6001688907F3
:1035C0000AD4016889075CBF01685FEA817103D48E
:1035D00001688907F2D500BF0168090609D50168AD
:1035E000090644BF01685FEA016102D50168090666
:1035F000F2D448464FF480510022FDF7C5FF2868F9
:10360000B721C160816889070AD4816889075CBFD6
:1036100081685FEA817103D481688907F2D500BFB0
:103620008168090609D58168090644BF81685FEA97
:10363000016102D581680906F2D448464FF48051F1
:103640000122FDF7A1FF28683521C1608168890743
:103650000AD4816889075CBF81685FEA817103D4FD
:1036600081688907F2D500BF8168090609D581689C
:10367000090644BF81685FEA016102D581680906D5
:10368000F2D448464FF480510022FDF77DFF2868B0
:10369000BB21C160816889070AD4816889075CBF42
:1036A00081685FEA817103D481688907F2D500BF20
:1036B0008168090609D58168090644BF81685FEA07
:1036C000016102D581680906F2D448464FF4805161
:1036D0000122FDF759FF28681921C1608168890717
:1036E0000AD4816889075CBF81685FEA817103D46D
:1036F00081688907F2D500BF8168090609D581680C
:10370000090644BF81685FEA016102D58168090644
:10371000F2D448464FF480510022FDF735FF286867
:10372000C021C160816889070AD4816889075CBFAC
:1037300081685FEA817103D481688907F2D500BF8F
:103740008168090609D58168090644BF81685FEA76
:10375000016102D581680906F2D448464FF48051D0
:103760000122FDF711FF28682C21C16081688907BB
:103770000AD4816889075CBF81685FEA817103D4DC
:1037800081688907F2D500BF8168090609D581687B
:10379000090644BF81685FEA016102D581680906B4
:1037A000F2D448464FF480510022FDF7EDFE286820
:1037B000C221C160816889070AD4816889075CBF1A
:1037C00081685FEA817103D481688907F2D500BFFF
:1037D0008168090609D58168090644BF81685FEAE6
:1037E000016102D581680906F2D448464FF4805140
:1037F00001220126FDF7C8FE2868C6608168890796
:103800000AD4816889075CBF81685FEA817103D44B
:1038100081688907F2D500BF8168090609D58168EA
:10382000090644BF81685FEA016102D58168090623
:10383000F2D448464FF480510022FDF7A5FE2868D7
:10384000C321C160816889070AD4816889075CBF88
:1038500081685FEA817103D481688907F2D500BF6E
:103860008168090609D58168090644BF81685FEA55
:10387000016102D581680906F2D448464FF48051AF
:103880000122FDF781FE28681221C1608168890745
:103890000AD4816889075CBF81685FEA817103D4BB
:1038A00081688907F2D500BF8168090609D581685A
:1038B000090644BF81685FEA016102D58168090693
:1038C000F2D448464FF480510022FDF75DFE28688F
:1038D000C421C160816889070AD4816889075CBFF7
:1038E00081685FEA817103D481688907F2D500BFDE
:1038F0008168090609D58168090644BF81685FEAC5
:10390000016102D581680906F2D448464FF480511E
:103910000122FDF739FE28682021C16081688907EE
:103920000AD4816889075CBF81685FEA817103D42A
:1039300081688907F2D500BF8168090609D58168C9
:10394000090644BF81685FEA016102D58168090602
:10395000F2D448464FF480510022FDF715FE286846
:10396000C621C160816889070AD4816889075CBF64
:1039700081685FEA817103D481688907F2D500BF4D
:103980008168090609D58168090644BF81685FEA34
:10399000016102D581680906F2D448464FF480518E
:1039A0000122FDF7F1FD28680F21C16081688907B8
:1039B0000AD4816889075CBF81685FEA817103D49A
:1039C00081688907F2D500BF8168090609D5816839
:1039D000090644BF81685FEA016102D58168090672
:1039E000F2D448464FF480510022FDF7CDFD2868FF
:1039F000D021C160816889070AD4816889075CBFCA
:103A000081685FEA817103D481688907F2D500BFBC
:103A10008168090609D58168090644BF81685FEAA3
:103A2000016102D581680906F2D448464FF48051FD
:103A30000122FDF7A9FD2868A421C16081688907DA
:103A400009D4816889075CBF81685FEA817102D40B
:103A500081688907F2D5A121C1608168890709D4ED
:103A6000816889075CBF81685FEA817102D48168DF
:103A70008907F2D58168090609D58168090644BF1E
:103A800081685FEA016102D581680906F2D448467F
:103A90004FF480510022FDF777FD2868E021C160D6
:103AA000816889070AD4816889075CBF81685FEAF9
:103AB000817103D481688907F2D500BF8168090646
:103AC00009D58168090644BF81685FEA016102D5B2
:103AD00081680906F2D448464FF480510122FDF76F
:103AE00053FD2968D020C86001F1080002689207E0
:103AF00009D4026892075CBF02685FEA827202D44E
:103B000002689207F2D50422CA600268920709D4BB
:103B1000026892075CBF02685FEA827202D40268A0
:103B20009207F2D50D22CA600268920709D4026892
:103B300092075CBF02685FEA827202D40268920751
:103B4000F2D51122CA600268920709D4026892076E
:103B50005CBF02685FEA827202D402689207F2D503
:103B60001322CA600268920709D4026892075CBFF8
:103B700002685FEA827202D402689207F2D52B22B1
:103B8000CA600268920709D4026892075CBF0268A3
:103B90005FEA827202D402689207F2D53F22CA60BD
:103BA0000268920709D4026892075CBF02685FEA64
:103BB000827202D402689207F2D55422CA60026867
:103BC000920709D4026892075CBF02685FEA8272BA
:103BD00002D402689207F2D54C22CA6002689207AA
:103BE00009D4026892075CBF02685FEA827202D45D
:103BF00002689207F2D51822CA600268920709D4B7
:103C0000026892075CBF02685FEA827202D40268AF
:103C10009207F2D50D22CA600268920709D40268A1
:103C200092075CBF02685FEA827202D40268920760
:103C3000F2D50B22CA600268920709D40268920783
:103C40005CBF02685FEA827202D402689207F2D512
:103C50001F22CA600268920709D4026892075CBFFB
:103C600002685FEA827202D402689207F2D52322C8
:103C7000CA600168890709D4016889075CBF0168C7
:103C80005FEA817102D401688907F2D501680906EB
:103C900009D50168090644BF01685FEA016102D5E0
:103CA00001680906F2D448464FF480510022FDF71E
:103CB0006BFC2868E121C160816889070AD48168AA
:103CC00089075CBF81685FEA817103D481688907D5
:103CD000F2D500BF8168090609D58168090644BF8D
:103CE00081685FEA016102D581680906F2D448461D
:103CF0004FF480510122FDF747FC2968D020C860AD
:103D000001F108000268920709D4026892075CBFBB
:103D100002685FEA827202D402689207F2D5042236
:103D2000CA600268920709D4026892075CBF026801
:103D30005FEA827202D402689207F2D50C22CA604E
:103D40000268920709D4026892075CBF02685FEAC2
:103D5000827202D402689207F2D51122CA60026808
:103D6000920709D4026892075CBF02685FEA827218
:103D700002D402689207F2D51322CA600268920741
:103D800009D4026892075CBF02685FEA827202D4BB
:103D900002689207F2D52C22CA600268920709D401
:103DA000026892075CBF02685FEA827202D402680E
:103DB0009207F2D53F22CA600268920709D40268CE
:103DC00092075CBF02685FEA827202D402689207BF
:103DD000F2D54422CA600268920709D402689207A9
:103DE0005CBF02685FEA827202D402689207F2D571
:103DF0005122CA600268920709D4026892075CBF28
:103E000002685FEA827202D402689207F2D52F221A
:103E1000CA600268920709D4026892075CBF026810
:103E20005FEA827202D402689207F2D51F22CA604A
:103E30000268920709D4026892075CBF02685FEAD1
:103E4000827202D402689207F2D51F22CA60026809
:103E5000920709D4026892075CBF02685FEA827227
:103E600002D402689207F2D52022CA600268920743
:103E700009D4026892075CBF02685FEA827202D4CA
:103E800002689207F2D52322CA600168890709D423
:103E9000016889075CBF01685FEA817102D401682B
:103EA0008907F2D50168090609D50168090644BFEA
:103EB00001685FEA016102D501680906F2D448464B
:103EC0004FF480510022FDF75FFB28682121C1607B
:103ED000816889070AD4816889075CBF81685FEAC5
:103EE000817103D481688907F2D500BF8168090612
:103EF00009D58168090644BF81685FEA016102D57E
:103F000081680906F2D448464FF480510122FDF73A
:103F10003BFB28688168090609D58168090644BF0A
:103F200081685FEA016102D581680906F2D44846DA
:103F30004FF480510022FDF727FB28681121C16052
:103F4000816889070AD4816889075CBF81685FEA54
:103F5000817103D481688907F2D500BF81680906A1
:103F600009D58168090644BF81685FEA016102D50D
:103F700081680906F2D448464FF480510122FDF7CA
:103F800003FB7820FDF7E6F928688168090609D562
:103F90008168090644BF81685FEA016102D58168D2
:103FA0000906F2D448464FF480510022FDF7ECFA9E
:103FB00028682921C1608168890709D48168890737
:103FC0005CBF81685FEA817102D481688907F2D59C
:103FD0008168090609D58168090644BF81685FEADE
:103FE000016102D581680906F2D448464FF4805138
:103FF0000122FDF7C9FA28688168090609D5816898
:10400000090644BF81685FEA016102D5816809063B
:10401000F2D44FF4006140F29C07C8F80010C2F2DD
:104020000007022179744FF00061C8F80010816820
:10403000090609D58168090644BF81685FEA016104
:1040400002D581680906F2D448464FF48051002217
:10405000FDF79AFA28683621C1608168890709D47A
:10406000816889075CBF81685FEA817102D48168D9
:104070008907F2D58168090609D58168090644BF18
:1040800081685FEA016102D581680906F2D4484679
:104090004FF480510122FDF777FA28680021C160B2
:1040A0008168890709D4816889075CBF81685FEAF4
:1040B000817102D481688907F2D54FF4A051F98249
:1040C000F021C0F21811C7F812108168090609D54D
:1040D0008168090644BF81685FEA016102D5816891
:1040E0000906F2D44FF40060C8F8000000204FF633
:1040F000FF71C7E9021000200021EF2240F21713E0
:10410000FEF7C4FC28684FF6BF72016811400160D9
:10411000016841F400610160016841F04001016003
:104120004FF00061C8F80010798ABA8A02FB01F6E4
:1041300046B3FA68731E00F10801032B06F003036F
:1041400050D2FBB1C2600E68B60709D40E68B6073C
:104150005CBF0E685FEA867602D40E68B607F2D5B9
:10416000012B0FD0C2600E68B60709D40E68B607DF
:104170005CBF0E685FEA867602D40E68B607F2D599
:10418000022B71D18168090609D58168090644BFEF
:1041900081685FEA016102D581680906F2D44FF4B3
:1041A0000061C8F8001001684FF6BF72114001604D
:1041B00001684FF2FF72114001600168002341F075
:1041C0004001016040F22C00C2F200003860484615
:1041D0004FF4005101223B7401B0BDE8F043FDF7FC
:1041E000D3B900BF26F00305002602E00436AE4234
:1041F000A7D0C2600C68A4070AD40C68A4075CBFEF
:104200000C685FEA847403D40C68A407F2D500BF7D
:10421000C2600C68A40709D40C68A4075CBF0C68D2
:104220005FEA847402D40C68A407F2D5C2600C68FB
:10423000A40709D40C68A4075CBF0C685FEA847407
:1042400002D40C68A407F2D5C2600C68A407CDD4D0
:104250000C68A4075CBF0C685FEA8474C6D40C6861
:10426000A407F2D5C2E700BFC2600A6892073FF513
:1042700089AF0A6892075CBF0A685FEA82723FF5FD
:1042800081AF0A689207F0D57CE700007047000014
:10429000FDF786B9B0B592B0002443F64000CDE9F1
:1042A0000A44CDE908440594CDE90344CDE901442D
:1042B0000094C4F202000168022541F080510160BF
:1042C000006800F080500090009847F200000094D1
:1042D000C4F20000016841F480410160006800F40C
:1042E000804000900098012006904FF480300790A5
:1042F0004FF480000D9019200E904FF4A870CDE976
:104300000F050420119006A80C95FDF7E9FA28B1D5
:10431000EFF3108072B600BFFEE700BF0F20CDE9BB
:1043200001054FF4A05004904FF48050059001A86F
:1043300005210394FDF7EEF920B1EFF3108072B67A
:10434000FEE700BF12B0B0BD4EF68850CEF20000BE
:10435000016841F4700101607047000040F664603C
:10436000C2F20000FDF758BF10B540F6FF3E0368EB
:10437000C4F2000E40F2004C7045C4F2010C27DC80
:10438000B0F1804F31D040F20042C4F200029042BE
:104390002BD040F60002C4F20002904225D041F634
:1043A000FF72C4F20002904229DC70453CDCB0F19F
:1043B000804F5FD040F20042C4F20002904259D0D8
:1043C00040F60002C4F20002904253D056E000BF13
:1043D00040F60042C4F20002904206D0604504D08C
:1043E0000022C4F201029042D9D14A6823F070033E
:1043F000134341F6FF72C4F200029042D5DD43F64A
:10440000FF72C4F20102904222DC42F20002C4F2C6
:10441000000290422ED00022C4F20102904229D024
:10442000604527D02AE000BF40F60042C4F20002F7
:1044300090421FD041F60002C4F20002904219D00F
:1044400041F60042C4F20002904213D016E000BFD1
:1044500044F20002C4F2010290420BD044F6000282
:10446000C4F20102904205D044F20042C4F20102BB
:10447000904203D1CA6823F44073134323F08002AF
:104480004B69D1F800E08C681A430260C46240F4C2
:104490008062C0F828E0624504BF09690163012118
:1044A000416110BDFEE70000FDF788F8FFF7F2FE5E
:1044B000FEF764FEFEF746FEFEF7ECFDFEF7D4FEC7
:1044C000FEF7FAFEFEF73CFF40F66460C2F2000021
:1044D000FDF77CFD40F6645040F6B401C2F20000E6
:1044E000C2F200014FF49672FCF782FC40F25806CB
:1044F00040F24408C2F200064AF2B8394AF2C7371D
:104500004AF2D634C2F2000806F11005C0F60009DE
:10451000C0F60007C0F600040220FEF72DFC40465E
:10452000FEF794FD6FF07F40FEF714FC0020FEF7CD
:10453000FFFB7068FBF7FDFF02460B462846494625
:1045400000F022F80D2028212A46FEF773FAB06801
:10455000FBF7EFFF02460B462846394600F014F8F9
:104560000D2046212A46FEF765FA3068FBF7E1FF89
:1045700002460B462846214600F006F80D2064212D
:104580002A46FEF757FAC7E70FB4084B10B504A93F
:1045900002AA039800F0DEF8044602A9002000F009
:1045A00070FC204610BC5DF814FB0000834E000830
:1045B00002E008C8121F08C1002AFAD170477047EC
:1045C000002001E001C1121F002AFBD1704700004A
:1045D0002DE9FF5F82B00021DDE90430020DDDF836
:1045E00040B0034318D044F61050A2F2FF324243C9
:1045F0001514119801281FD0A5EB0B00401C5FEA91
:10460000000A4FF000064E4FDFF83891B046504692
:1046100015D5CAF1000413E0119801244AA301281A
:1046200001D16FEA0B010298119AC0E90031C0E98B
:10463000024206B0BDE8F09FCBF10000DFE7044680
:104640000021404A491842EB0450CDE9001012E025
:10465000E00707D032463B4640464946FBF788FE16
:104660008046894632463B4610461946FBF780FE97
:1046700006460F466410002CEAD1DDE90401DDE9AD
:104680000023BAF1000F06DAFBF772FE42464B46F2
:10469000FBF76EFE05E0FBF7DDFE42464B46FBF7FF
:1046A000D9FE04460E460022284BFCF765F803D8D5
:1046B0004FF0FF30014607E00022254B20463146EF
:1046C000FBF7AFFDFCF73FF8102409E0002C0ADBF4
:1046D0000A220023FBF774FD039B30321A55641E37
:1046E00050EA0102F2D1641C039AC4F1110314448C
:1046F000119A012A03D0012208430DD10AE0084390
:1047000004D000204FF0110B119072E7A3EB0B05C2
:104710006D1E0DE05B4504DD4FF0000205F1010563
:1047200004E003DA4FF00002A5F10105002AECD005
:1047300002981199C0E90231C0E9004579E700000B
:10474000000014400000F03F300000000000F04383
:104750000000E03F2DE9FF4F95B09B468946064695
:1047600000250FE2252877D100242746F84A0121A9
:10477000059400E0044316F8013F203B01FA03F0E2
:104780001042F7D130782A2811D06FF02F033078FB
:10479000A0F13002092A16D8059A44F0020402EB6F
:1047A000820203EB42021044761C0590EFE759F8B1
:1047B000042B0592002A03DA504244F40054059079
:1047C00044F00204761C30782E2816D116F8010F1A
:1047D00044F004042A280DD06FF02F023078A0F1A5
:1047E0003003092B09D807EB870302EB4303C718F3
:1047F000761CF3E759F8047B761C30786C280FD0D0
:1048000006DC4C2817D068280DD06A2814D104E0A3
:10481000742810D07A280FD10DE044F400140AE077
:1048200044F4801401E044F440147278824202D1CE
:1048300004F58014761C761C307866280BD013DCC7
:10484000582877D009DC002875D04528F6D04628AE
:10485000F4D047281AD19DE118E0632835D06428A8
:1048600079D0652812D195E1702873D008DC6728CB
:10487000F1D069286FD06E280DD06F2806D1B5E031
:1048800073282CD0752875D0782874D05A4617997B
:1048900090476D1C75E1C4F30250022809D003282B
:1048A0000DD0D9F8001004280DD00D6009F10409CD
:1048B00067E1D9F80010EA17C1E90052F6E7D9F824
:1048C00000100D80F2E70D70F0E719F8041B8DF869
:1048D000001000208DF80100EA46012003E059F89D
:1048E00004AB4FF0FF3061074FF0000102D40DE040
:1048F00008F101018846B9420FDA8045F8DB1AF861
:1049000008100029F4D108E008F10101884681422D
:10491000FADB1AF808100029F6D105985B46A0EBDF
:10492000080721463846179A00F094FA284400EB0D
:10493000080507E04DE029E10DE01AF8010B5A46A1
:1049400017999047B8F10108F7D25B4621463846DF
:10495000179A13E142E00A220092C4F302524FF088
:10496000000A022A08D059F804CB032A4FEAEC7156
:104970000AD00DE029E02AE009F1070121F0070241
:10498000F2E802C1914609E00FFA8CFC4FEAEC71A3
:10499000042A03D14FFA8CFC4FEAEC71002907DAA4
:1049A0000A460021DCF1000C61EB02012D2202E03D
:1049B000220504D52B228DF80420012203E0E20712
:1049C00001D02022F7E7904659E00A2102E01022A8
:1049D0000DE010214FF0000A00910BE010224FF083
:1049E000000A44F004040827009203E008224FF074
:1049F000000A0092C4F30252022A05D059F804CBEF
:104A00000021032A08D009E009F1070121F007027B
:104A1000F2E802C1914605E01FFA8CFC042A01D19C
:104A20000CF0FF0C4FF00008220728D5702806D0A4
:104A3000009B83F0100353EA0A0305D00EE04022E6
:104A40008DF80420012208E05CEA010206D0302241
:104A50008DF804208DF8050002229046009B83F01B
:104A6000080353EA0A030AD15CEA010201D1620792
:104A700005D530228DF804204FF001087F1E5828FC
:104A800004D034A003900EA802900DE036A0F9E700
:104A900053466046009AFBF793FB84460398825C7A
:104AA0000298401E029002705CEA0100F0D1029868
:104AB00006A9081A00F1200A600702D524F4803400
:104AC00000E00127574502DDA7EB0A0000E00020C7
:104AD00000EB0A01009005984144401A0590E0035C
:104AE00006D45B462146179A059800F0B3F90544B1
:104AF000002706E001A85A46C05D179990476D1C33
:104B00007F1C4745F6DBE0030CD55B462146179A30
:104B1000059800F09FF9054404E030205A461799A3
:104B200090476D1C0099481E00900029F5DC08E0B4
:104B3000029802995A460078491C029117999047A9
:104B40006D1CBAF10001AAF1010AF1DC65E1000077
:104B50000928010030313233343536373839616253
:104B60006364656600000000303132333435363717
:104B700038394142434445460000000000F058F9EE
:104B80000544761C307800287FF4ECAD19B0284637
:104B9000BDE8F08F620700D4062709F1070222F072
:104BA000070CFCE80223E14603F000485FEA080C2A
:104BB00002D00FF2702C0DE05FEA045C02D50FF218
:104BC000682C07E05FEAC47C02D00FF2602C01E0A1
:104BD000AFF2700C4FF0FF3823F00043CDF850C017
:104BE00065280CD006DC452809D046281DD047286A
:104BF0003DD13DE0662818D067287ED138E00021FD
:104C0000112F01DB112000E0781CCDE9000106A97D
:104C10000EA8FFF7DDFCDDE90F010E9A03910021DC
:104C2000009207F1010A04914DE04FF00040009717
:104C3000CDE9011006A90EA8FFF7CAFCDDE90F02B5
:104C400003920E9B11990022DDF80CA000930492B0
:104C500011B9791C00EB010AB7EB0A0004D4C0F1CA
:104C6000FF3007F1010A0490AAEB0700019044E02D
:104C7000012F00DA01270021112F01DD112000E0B2
:104C80003846CDE9000106A90EA8FFF7A1FCDDE931
:104C90000F010E9A0391002104910092BA46210758
:104CA0000CD40399514500DA8A46BAF1010F05DDAB
:104CB000009AAAF10101515C302908D0B84202DA09
:104CC00010F1040F06DA0121CDE9011015E0AAF177
:104CD0000101E9E7002805DC049901440491AAEBED
:104CE000000102E0411C514500DD8A460499401A4A
:104CF000401C01904FF000400290200704D401981E
:104D0000504501DBCDF8048000208DF84F0002985B
:104D10000DF14F07B0F1004F25D02B200E900298D7
:104D20004FF0020800280CDA404202902D200E902D
:104D300007E00A210298FBF72BFC3031029007F8BC
:104D4000011DB8F10001A8F10108F2DC0298002869
:104D5000EFD1791E0E980870307800F0200040F0F6
:104D6000450007F8020D12A8C01B00F107081498AF
:104D7000007800B1012000EB0A01019801EBE0711D
:104D800005984144401A401E0590E00306D45B4656
:104D90002146179A059800F05DF8054414980078AC
:104DA00018B15A46179990476D1CE00324D55B460D
:104DB0002146179A059800F04DF805441CE0049828
:104DC000002807DBDDE90301884203DD0098405C31
:104DD000179901E0179930205A469047049805F139
:104DE0000105401C04900198401E019004D12E2022
:104DF0005A46179990476D1CBAF10001AAF1010AB1
:104E0000DDDC05E017F8010B5A46179990476D1C39
:104E1000B8F10001A8F10108F4DC5B462146179ABD
:104E20000598ABE62D0000002B00000020000000DC
:104E30002DE9F041044600251E461746880404D497
:104E400005E039462020B0476D1C641EF9D5284680
:104E5000BDE8F0812DE9F041044600251E4690464C
:104E6000C80301D5302700E02027880404D505E0D9
:104E700041463846B0476D1C641EF9D52846BDE84A
:104E8000F0810A68531C0B6010707047000000002E
:104E900000000000010203040607080900000000EA
:104EA00000000000000000000000040404040404EA
:104EB0000004000000140A0A0000000000000000C6
:104EC000000014143F140A3F0A0A000000041E15D3
:104ED00005060C14150F0400000012150D0A142C01
:104EE0002A1200000000040A0A1E151509360000E7
:104EF0000002020100000000000000000020100875
:104F0000080808080810200000020408080808081B
:104F10000804020000000004150E0E150400000035
:104F200000000404041F040404000000000000004A
:104F3000000000000002020100000000001F00004D
:104F4000000000000000000000000000000200005F
:104F500000100808080404020202010000000E11FB
:104F600011111111110E00000000040604040404C4
:104F7000040E000000000E1111080402011F0000C1
:104F800000000E11100C1010110E00000000080C93
:104F90000A0A091E0818000000001F01010F101066
:104FA000110E000000000E09010F1111110E00007A
:104FB00000001F09080404040404000000000E118E
:104FC000110E1111110E000000000E1111111E1012
:104FD000120E0000000000000400000000040000A9
:104FE000000000000004000000040400002010087D
:104FF0000402040810200000000000001F00001F31
:105000000000000000020408102010080402000044
:1050100000000E11110804040004000000000E112D
:105020001915151D011E0000000004040C0A0A1EBB
:105030001233000000000F12120E1212120F0000A5
:1050400000001E1101010101110E000000000F12ED
:1050500012121212120F000000001F120A0E0A0292
:10506000121F000000001F120A0E0A0202070000B1
:1050700000001C1201013911120C00000000331253
:10508000121E12121233000000001F040404040454
:10509000041F000000003E0808080808080907006F
:1050A000000037120A060A0A123700000000070241
:1050B00002020202223F000000001B1B1B1B1515F1
:1050C0001515000000003B1216161A1A12170000E0
:1050D00000000E1111111111110E000000000F122D
:1050E000120E02020207000000000E11111111172A
:1050F000190E180000000F12120E0A1212370000CB
:1051000000001E1101060810110F000000001F15FD
:1051100004040404040E00000000331212121212E0
:10512000120C000000003312120A0A0C04040000E2
:1051300000001515150E0A0A0A0A000000001B0AD5
:105140000A04040A0A1B000000001B0A0A040404E3
:10515000040E000000001F0908040402121F0000D2
:10516000001C04040404040404041C0000020202E1
:105170000404080808100000000E080808080808C1
:1051800008080E0000040A000000000000000000F3
:1051900000000000000000000000003F00040000CC
:1051A000000000000000000000000000000C121CC5
:1051B000123C000000000302020E1212120E000048
:1051C00000000000001C1202021C00000000181069
:1051D000101C1212123C000000000000000C121EF5
:1051E000021C000000003804041E0404041E000019
:1051F00000000000003C120C021E221C00000302F2
:10520000020E12121237000000000400000604040F
:10521000040E000000000800000C08080808080739
:1052200000000302023A0A0E1237000000000704D1
:1052300004040404041F000000000000000F151502
:105240001515000000000000000F121212370000B8
:1052500000000000000C1212120C00000000000000
:10526000000F1212120E020700000000001C1212A2
:10527000121C103800000000001B0602020700008C
:1052800000000000001E020C101E000000000004C0
:10529000040E04040418000000000000001B121299
:1052A000123C0000000000000037120A0C0400004D
:1052B000000000000015150E0A0A000000000000A2
:1052C000001B0A040A1B0000000000000037120A3D
:1052D0000C04040300000000001E0804041E00006B
:1052E0000018080808040808080818000808080832
:1052F000080808080808080800060404040804044C
:105300000404060002251800000000000000000050
:10531000000000000000000000000000000000008D
:105320000000000808080808080800001818000015
:1053300000486C2412000000000000000000000083
:105340000000002424247F1212127F121212000087
:105350000000081C2A2A0A0C1828282A2A1C0808D7
:1053600000000022251515152A5854545422000017
:105370000000000C1212120A76252911916E00000D
:10538000000606040300000000000000000000000A
:1053900000402010100808080808081010204000DD
:1053A0000002040808101010101010080804020071
:1053B0000000000008086B1C1C6B080800000000BF
:1053C00000000000080808087F080808080000001E
:1053D00000000000000000000000000006060403BA
:1053E0000000000000000000FE00000000000000BF
:1053F00000000000000000000000000006060000A1
:105400000000804040202010100808040402020020
:105410000000001824424242424242422418000046
:10542000000000080E08080808080808083E0000E8
:105430000000003C4242422020100804427E00004E
:105440000000003C4242201820404042221C000044
:10545000000000203028242422227E202078000012
:105460000000007E0202021A26404042221C000078
:10547000000000382402021A26424242241800008A
:105480000000007E2222101008080808080800000A
:105490000000003C4242422418244242423C0000A8
:1054A000000000182442424264584040241C00007E
:1054B000000000000000181800000000181800008C
:1054C00000000000000000080000000000080804C0
:1054D00000000040201008040204081020400000D2
:1054E0000000000000007F0000007F0000000000BE
:1054F00000000002040810204020100804020000F0
:105500000000003C424246402010100018180000E5
:105510000000001C225A555555552D42221C0000F2
:105520000000000808181414243C224242E700003E
:105530000000001F2222221E22424242221F00009F
:105540000000007C4242010101010142221C0000D6
:105550000000001F2242424242424242221F0000FB
:105560000000003F4212121E12120242423F00008F
:105570000000003F4212121E121202020207000037
:105580000000003C2222010101712122221C0000A6
:10559000000000E7424242427E42424242E70000AF
:1055A0000000003E0808080808080808083E000037
:1055B0000000007C10101010101010101010110FAF
:1055C0000000007722120A0E0A121222227700002F
:1055D000000000070202020202020202427F0000F3
:1055E00000000077363636362A2A2A2A2A6B00002F
:1055F000000000E346464A4A5252526262470000A7
:105600000000001C2241414141414141221C000057
:105610000000003F424242423E02020202070000F6
:105620000000001C2241414141414D53321C6000A9
:105630000000003F4242423E1212222242C70000B6
:105640000000007C4242020418204042423E00001A
:105650000000007F4908080808080808081C000026
:10566000000000E74242424242424242423C0000C5
:10567000000000E742422224241414180808000005
:105680000000006B49494949555536222222000045
:10569000000000E7422424181818242442E70000E0
:1056A000000000772222141408080808081C0000D3
:1056B0000000007E2120101008040442423F000038
:1056C000007808080808080808080808080878008A
:1056D00000000202040408080810102020204040A6
:1056E000001E1010101010101010101010101E00BE
:1056F000003844000000000000000000000000002E
:10570000000000000000000000000000000000FF9A
:10571000000608000000000000000000000000007B
:10572000000000000000003C4278444242FC0000BF
:10573000000000030202021A26424242261A00001A
:10574000000000000000003844020202443800005B
:1057500000000060404040784442424264D800006B
:10576000000000000000003C427E0202423C0000BB
:10577000000000F08808087E08080808083E0000BD
:10578000000000000000007C22221C023C42423C3F
:10579000000000030202023A4642424242E7000091
:1057A0000000000C0C00000E08080808083E00006D
:1057B0000000003030000038202020202020221E51
:1057C0000000000302020272120A16122277000081
:1057D0000000000E0808080808080808083E000035
:1057E000000000000000007F9292929292B70000A9
:1057F000000000000000003B4642424242E7000039
:10580000000000000000003C42424242423C0000D6
:10581000000000000000001B26424242221E020738
:10582000000000000000007844424242447840E01A
:1058300000000000000000774C040404041F000076
:10584000000000000000007C42023C40423E00009C
:10585000000000000008083E0808080808300000A2
:1058600000000000000000634242424262DC00008F
:1058700000000000000000E7422424140808000093
:1058800000000000000000EB4949555522220000AD
:10589000000000000000007624181818246E000094
:1058A00000000000000000E7422424141808080744
:1058B000000000000000007E22100808447E000066
:1058C00000C0202020202010202020202020C000E8
:1058D00010101010101010101010101010101010C8
:1058E0000006080808080810080808080808060044
:1058F0000C32C200000000000000000000000000A8
:105900000000000000000000000000000000000097
:105910000000000000000000000000000000000087
:105920000000000000000000000000000000300047
:105930003000300030003000200020002000200027
:1059400020000000000030003000000000000000D7
:105950000000D800D8006C002400120000000000F5
:105960000000000000000000000000000000000037
:105970000000000000000000000000000000000027
:10598000840084008400FF0184008400C60042007B
:105990004200FF01420042004200000000000000FF
:1059A0000000000000002000F80024012401A401F0
:1059B000280030006000A00020012C0124012401F7
:1059C000F80020002000000000000000000000009F
:1059D000860049004900290029001900D600280145
:1059E0002801280124012401C20000000000000059
:1059F00000000000000000000C0012001200120065
:105A0000EA00460046002500290039001100320155
:105A1000CC000000000000000000060006000400AA
:105A20000200010000000000000000000000000073
:105A30000000000000000000000000000000000066
:105A40000000000180004000200020002000100025
:105A50001000100010001000100020002000200096
:105A6000400080000001000000000100020004006E
:105A700008000800080010001000100010001000BE
:105A800010000800080008000400020001000000E7
:105A9000000000000000000000002000200026039D
:105AA000AE0370007000AE0326032000200000004B
:105AB00000000000000000000000000000000000E6
:105AC00000001000100010001000FF011000100076
:105AD00010001000000000000000000000000000A6
